{
  "_format": "hh-sol-artifact-1",
  "contractName": "GameV2",
  "sourceName": "contracts/v2/GameV2.sol",
  "abi": [
    {
      "inputs": [
        {
          "internalType": "address",
          "name": "_distributor",
          "type": "address"
        },
        {
          "internalType": "contract Rops",
          "name": "_rops",
          "type": "address"
        }
      ],
      "stateMutability": "nonpayable",
      "type": "constructor"
    },
    {
      "inputs": [],
      "name": "AlreadyCommited",
      "type": "error"
    },
    {
      "inputs": [],
      "name": "AlreadyRevealed",
      "type": "error"
    },
    {
      "inputs": [],
      "name": "InvalidHash",
      "type": "error"
    },
    {
      "inputs": [],
      "name": "PlayerNotExist",
      "type": "error"
    },
    {
      "inputs": [],
      "name": "RoomNotExist",
      "type": "error"
    },
    {
      "inputs": [],
      "name": "WrongChoice",
      "type": "error"
    },
    {
      "inputs": [],
      "name": "WrongStage",
      "type": "error"
    },
    {
      "anonymous": false,
      "inputs": [
        {
          "indexed": true,
          "internalType": "uint256",
          "name": "roomId",
          "type": "uint256"
        },
        {
          "indexed": true,
          "internalType": "address",
          "name": "player",
          "type": "address"
        }
      ],
      "name": "Commited",
      "type": "event"
    },
    {
      "anonymous": false,
      "inputs": [
        {
          "indexed": true,
          "internalType": "uint256",
          "name": "roomId",
          "type": "uint256"
        },
        {
          "indexed": false,
          "internalType": "enum IGameV2.Stage",
          "name": "stage",
          "type": "uint8"
        }
      ],
      "name": "Distributed",
      "type": "event"
    },
    {
      "anonymous": false,
      "inputs": [
        {
          "indexed": true,
          "internalType": "uint256",
          "name": "roomId",
          "type": "uint256"
        },
        {
          "indexed": false,
          "internalType": "address",
          "name": "winner",
          "type": "address"
        },
        {
          "indexed": false,
          "internalType": "uint256",
          "name": "gameId",
          "type": "uint256"
        }
      ],
      "name": "GameResult",
      "type": "event"
    },
    {
      "anonymous": false,
      "inputs": [
        {
          "indexed": true,
          "internalType": "uint256",
          "name": "roomId",
          "type": "uint256"
        },
        {
          "indexed": true,
          "internalType": "address",
          "name": "player",
          "type": "address"
        },
        {
          "indexed": false,
          "internalType": "enum IGameV2.Choice",
          "name": "choice",
          "type": "uint8"
        }
      ],
      "name": "Revealed",
      "type": "event"
    },
    {
      "anonymous": false,
      "inputs": [
        {
          "indexed": true,
          "internalType": "bytes32",
          "name": "role",
          "type": "bytes32"
        },
        {
          "indexed": true,
          "internalType": "bytes32",
          "name": "previousAdminRole",
          "type": "bytes32"
        },
        {
          "indexed": true,
          "internalType": "bytes32",
          "name": "newAdminRole",
          "type": "bytes32"
        }
      ],
      "name": "RoleAdminChanged",
      "type": "event"
    },
    {
      "anonymous": false,
      "inputs": [
        {
          "indexed": true,
          "internalType": "bytes32",
          "name": "role",
          "type": "bytes32"
        },
        {
          "indexed": true,
          "internalType": "address",
          "name": "account",
          "type": "address"
        },
        {
          "indexed": true,
          "internalType": "address",
          "name": "sender",
          "type": "address"
        }
      ],
      "name": "RoleGranted",
      "type": "event"
    },
    {
      "anonymous": false,
      "inputs": [
        {
          "indexed": true,
          "internalType": "bytes32",
          "name": "role",
          "type": "bytes32"
        },
        {
          "indexed": true,
          "internalType": "address",
          "name": "account",
          "type": "address"
        },
        {
          "indexed": true,
          "internalType": "address",
          "name": "sender",
          "type": "address"
        }
      ],
      "name": "RoleRevoked",
      "type": "event"
    },
    {
      "anonymous": false,
      "inputs": [
        {
          "indexed": true,
          "internalType": "uint256",
          "name": "roomId",
          "type": "uint256"
        },
        {
          "indexed": true,
          "internalType": "address",
          "name": "player0",
          "type": "address"
        },
        {
          "indexed": true,
          "internalType": "address",
          "name": "player1",
          "type": "address"
        }
      ],
      "name": "RoomCreated",
      "type": "event"
    },
    {
      "anonymous": false,
      "inputs": [
        {
          "indexed": true,
          "internalType": "uint256",
          "name": "roomId",
          "type": "uint256"
        },
        {
          "indexed": false,
          "internalType": "enum IGameV2.Stage",
          "name": "stage",
          "type": "uint8"
        }
      ],
      "name": "StageChanged",
      "type": "event"
    },
    {
      "inputs": [],
      "name": "DEFAULT_ADMIN_ROLE",
      "outputs": [
        {
          "internalType": "bytes32",
          "name": "",
          "type": "bytes32"
        }
      ],
      "stateMutability": "view",
      "type": "function"
    },
    {
      "inputs": [],
      "name": "DISTRIBUTOR_ROLE",
      "outputs": [
        {
          "internalType": "bytes32",
          "name": "",
          "type": "bytes32"
        }
      ],
      "stateMutability": "view",
      "type": "function"
    },
    {
      "inputs": [],
      "name": "OWNER_ROLE",
      "outputs": [
        {
          "internalType": "bytes32",
          "name": "",
          "type": "bytes32"
        }
      ],
      "stateMutability": "view",
      "type": "function"
    },
    {
      "inputs": [
        {
          "internalType": "uint256",
          "name": "roomId",
          "type": "uint256"
        },
        {
          "internalType": "bytes32",
          "name": "commitment",
          "type": "bytes32"
        }
      ],
      "name": "commit",
      "outputs": [],
      "stateMutability": "nonpayable",
      "type": "function"
    },
    {
      "inputs": [
        {
          "internalType": "address",
          "name": "playerA",
          "type": "address"
        },
        {
          "internalType": "address",
          "name": "playerB",
          "type": "address"
        }
      ],
      "name": "createRoom",
      "outputs": [],
      "stateMutability": "nonpayable",
      "type": "function"
    },
    {
      "inputs": [
        {
          "internalType": "uint256",
          "name": "roomId",
          "type": "uint256"
        }
      ],
      "name": "distribute",
      "outputs": [],
      "stateMutability": "nonpayable",
      "type": "function"
    },
    {
      "inputs": [],
      "name": "distributor",
      "outputs": [
        {
          "internalType": "address",
          "name": "",
          "type": "address"
        }
      ],
      "stateMutability": "view",
      "type": "function"
    },
    {
      "inputs": [
        {
          "internalType": "bytes32",
          "name": "role",
          "type": "bytes32"
        }
      ],
      "name": "getRoleAdmin",
      "outputs": [
        {
          "internalType": "bytes32",
          "name": "",
          "type": "bytes32"
        }
      ],
      "stateMutability": "view",
      "type": "function"
    },
    {
      "inputs": [
        {
          "internalType": "uint256",
          "name": "",
          "type": "uint256"
        }
      ],
      "name": "getRoomById",
      "outputs": [
        {
          "internalType": "uint256",
          "name": "id",
          "type": "uint256"
        },
        {
          "components": [
            {
              "internalType": "address",
              "name": "playerAddress",
              "type": "address"
            },
            {
              "internalType": "bool",
              "name": "commited",
              "type": "bool"
            },
            {
              "internalType": "bool",
              "name": "revealed",
              "type": "bool"
            },
            {
              "internalType": "enum IGameV2.Choice",
              "name": "choice",
              "type": "uint8"
            },
            {
              "internalType": "bytes32",
              "name": "commitment",
              "type": "bytes32"
            }
          ],
          "internalType": "struct IGameV2.Player",
          "name": "player0",
          "type": "tuple"
        },
        {
          "components": [
            {
              "internalType": "address",
              "name": "playerAddress",
              "type": "address"
            },
            {
              "internalType": "bool",
              "name": "commited",
              "type": "bool"
            },
            {
              "internalType": "bool",
              "name": "revealed",
              "type": "bool"
            },
            {
              "internalType": "enum IGameV2.Choice",
              "name": "choice",
              "type": "uint8"
            },
            {
              "internalType": "bytes32",
              "name": "commitment",
              "type": "bytes32"
            }
          ],
          "internalType": "struct IGameV2.Player",
          "name": "player1",
          "type": "tuple"
        },
        {
          "internalType": "enum IGameV2.Stage",
          "name": "stage",
          "type": "uint8"
        },
        {
          "internalType": "uint256",
          "name": "gameId",
          "type": "uint256"
        }
      ],
      "stateMutability": "view",
      "type": "function"
    },
    {
      "inputs": [
        {
          "internalType": "address",
          "name": "",
          "type": "address"
        },
        {
          "internalType": "address",
          "name": "",
          "type": "address"
        }
      ],
      "name": "getRoomByPlayerAddresses",
      "outputs": [
        {
          "internalType": "uint256",
          "name": "",
          "type": "uint256"
        }
      ],
      "stateMutability": "view",
      "type": "function"
    },
    {
      "inputs": [
        {
          "internalType": "bytes32",
          "name": "role",
          "type": "bytes32"
        },
        {
          "internalType": "address",
          "name": "account",
          "type": "address"
        }
      ],
      "name": "grantRole",
      "outputs": [],
      "stateMutability": "nonpayable",
      "type": "function"
    },
    {
      "inputs": [
        {
          "internalType": "bytes32",
          "name": "role",
          "type": "bytes32"
        },
        {
          "internalType": "address",
          "name": "account",
          "type": "address"
        }
      ],
      "name": "hasRole",
      "outputs": [
        {
          "internalType": "bool",
          "name": "",
          "type": "bool"
        }
      ],
      "stateMutability": "view",
      "type": "function"
    },
    {
      "inputs": [
        {
          "internalType": "uint256",
          "name": "roomId",
          "type": "uint256"
        },
        {
          "internalType": "enum IGameV2.Stage",
          "name": "stage",
          "type": "uint8"
        }
      ],
      "name": "nextStage",
      "outputs": [],
      "stateMutability": "nonpayable",
      "type": "function"
    },
    {
      "inputs": [
        {
          "internalType": "bytes32",
          "name": "role",
          "type": "bytes32"
        },
        {
          "internalType": "address",
          "name": "account",
          "type": "address"
        }
      ],
      "name": "renounceRole",
      "outputs": [],
      "stateMutability": "nonpayable",
      "type": "function"
    },
    {
      "inputs": [
        {
          "internalType": "uint256",
          "name": "roomId",
          "type": "uint256"
        },
        {
          "internalType": "enum IGameV2.Choice",
          "name": "choice",
          "type": "uint8"
        },
        {
          "internalType": "bytes32",
          "name": "key",
          "type": "bytes32"
        }
      ],
      "name": "reveal",
      "outputs": [],
      "stateMutability": "nonpayable",
      "type": "function"
    },
    {
      "inputs": [
        {
          "internalType": "bytes32",
          "name": "role",
          "type": "bytes32"
        },
        {
          "internalType": "address",
          "name": "account",
          "type": "address"
        }
      ],
      "name": "revokeRole",
      "outputs": [],
      "stateMutability": "nonpayable",
      "type": "function"
    },
    {
      "inputs": [],
      "name": "rops",
      "outputs": [
        {
          "internalType": "contract Rops",
          "name": "",
          "type": "address"
        }
      ],
      "stateMutability": "view",
      "type": "function"
    },
    {
      "inputs": [
        {
          "internalType": "bytes4",
          "name": "interfaceId",
          "type": "bytes4"
        }
      ],
      "name": "supportsInterface",
      "outputs": [
        {
          "internalType": "bool",
          "name": "",
          "type": "bool"
        }
      ],
      "stateMutability": "view",
      "type": "function"
    }
  ],
  "bytecode": "0x60c06040523480156200001157600080fd5b5060405162003c5c38038062003c5c8339818101604052810190620000379190620003ec565b620000956040516020016200004c9062000481565b60405160208183030381529060405280519060200120604051602001620000739062000481565b60405160208183030381529060405280519060200120620001d960201b60201c565b620000f3604051602001620000aa9062000498565b60405160208183030381529060405280519060200120604051602001620000d19062000481565b60405160208183030381529060405280519060200120620001d960201b60201c565b6200012b604051602001620001089062000481565b60405160208183030381529060405280519060200120336200023c60201b60201c565b62000163604051602001620001409062000498565b60405160208183030381529060405280519060200120836200023c60201b60201c565b8173ffffffffffffffffffffffffffffffffffffffff1660808173ffffffffffffffffffffffffffffffffffffffff1660601b815250508073ffffffffffffffffffffffffffffffffffffffff1660a08173ffffffffffffffffffffffffffffffffffffffff1660601b8152505050506200058d565b6000620001ec836200032d60201b60201c565b905081600080858152602001908152602001600020600101819055508181847fbd79b86ffe0ab8e8776151514217cd7cacd52c909f66475c3af44e129f0b00ff60405160405180910390a4505050565b6200024e82826200034c60201b60201c565b6200032957600160008084815260200190815260200160002060000160008373ffffffffffffffffffffffffffffffffffffffff1673ffffffffffffffffffffffffffffffffffffffff16815260200190815260200160002060006101000a81548160ff021916908315150217905550620002ce620003b660201b60201c565b73ffffffffffffffffffffffffffffffffffffffff168173ffffffffffffffffffffffffffffffffffffffff16837f2f8788117e7eff1d82e926ec794901d17c78024a50270940304540a733656f0d60405160405180910390a45b5050565b6000806000838152602001908152602001600020600101549050919050565b600080600084815260200190815260200160002060000160008373ffffffffffffffffffffffffffffffffffffffff1673ffffffffffffffffffffffffffffffffffffffff16815260200190815260200160002060009054906101000a900460ff16905092915050565b600033905090565b600081519050620003cf8162000559565b92915050565b600081519050620003e68162000573565b92915050565b6000806040838503121562000406576200040562000502565b5b60006200041685828601620003be565b92505060206200042985828601620003d5565b9150509250929050565b600062000442600a83620004af565b91506200044f8262000507565b600a82019050919050565b600062000469601083620004af565b9150620004768262000530565b601082019050919050565b60006200048e8262000433565b9150819050919050565b6000620004a5826200045a565b9150819050919050565b600081905092915050565b6000620004c782620004e2565b9050919050565b6000620004db82620004ba565b9050919050565b600073ffffffffffffffffffffffffffffffffffffffff82169050919050565b600080fd5b7f4f574e45525f524f4c4500000000000000000000000000000000000000000000600082015250565b7f4449535452494255544f525f524f4c4500000000000000000000000000000000600082015250565b6200056481620004ba565b81146200057057600080fd5b50565b6200057e81620004ce565b81146200058a57600080fd5b50565b60805160601c60a05160601c613679620005e36000396000818161090801528181610ab101528181610d2901528181610ed30152818161114a015281816112f40152611956015260006117f301526136796000f3fe608060405234801561001057600080fd5b50600436106101165760003560e01c8063bfe10928116100a2578063e58378bb11610071578063e58378bb146102e1578063f0bd87cc146102ff578063f2f038771461031d578063f9a5918f14610339578063fe5090161461035557610116565b8063bfe109281461026d578063d222871e1461028b578063d547741f146102a7578063db9b72c4146102c357610116565b806336568abe116100e957806336568abe146101cb57806391c05b0b146101e757806391d14854146102035780639a42f3aa14610233578063a217fddf1461024f57610116565b806301ffc9a71461011b578063248a9ca31461014b5780632f2ff15d1461017b5780633495655a14610197575b600080fd5b61013560048036038101906101309190612a33565b610385565b6040516101429190612f29565b60405180910390f35b610165600480360381019061016091906129c6565b6103ff565b6040516101729190612f44565b60405180910390f35b610195600480360381019061019091906129f3565b61041e565b005b6101b160048036038101906101ac9190612a60565b61043f565b6040516101c295949392919061304d565b60405180910390f35b6101e560048036038101906101e091906129f3565b610638565b005b61020160048036038101906101fc9190612a60565b6106bb565b005b61021d600480360381019061021891906129f3565b61143b565b60405161022a9190612f29565b60405180910390f35b61024d60048036038101906102489190612acd565b6114a5565b005b6102576117ea565b6040516102649190612f44565b60405180910390f35b6102756117f1565b6040516102829190612e4e565b60405180910390f35b6102a560048036038101906102a09190612b20565b611815565b005b6102c160048036038101906102bc91906129f3565b611933565b005b6102cb611954565b6040516102d89190612f5f565b60405180910390f35b6102e9611978565b6040516102f69190612f44565b60405180910390f35b6103076119a0565b6040516103149190612f44565b60405180910390f35b61033760048036038101906103329190612a8d565b6119c8565b005b610353600480360381019061034e9190612959565b611c3e565b005b61036f600480360381019061036a9190612959565b6121ec565b60405161037c9190613032565b60405180910390f35b60007f7965db0b000000000000000000000000000000000000000000000000000000007bffffffffffffffffffffffffffffffffffffffffffffffffffffffff1916827bffffffffffffffffffffffffffffffffffffffffffffffffffffffff191614806103f857506103f782612211565b5b9050919050565b6000806000838152602001908152602001600020600101549050919050565b610427826103ff565b6104308161227b565b61043a838361228f565b505050565b6002602052806000526040600020600091509050806000015490806001016040518060a00160405290816000820160009054906101000a900473ffffffffffffffffffffffffffffffffffffffff1673ffffffffffffffffffffffffffffffffffffffff1673ffffffffffffffffffffffffffffffffffffffff1681526020016000820160149054906101000a900460ff161515151581526020016000820160159054906101000a900460ff161515151581526020016000820160169054906101000a900460ff166003811115610519576105186133a0565b5b600381111561052b5761052a6133a0565b5b815260200160018201548152505090806003016040518060a00160405290816000820160009054906101000a900473ffffffffffffffffffffffffffffffffffffffff1673ffffffffffffffffffffffffffffffffffffffff1673ffffffffffffffffffffffffffffffffffffffff1681526020016000820160149054906101000a900460ff161515151581526020016000820160159054906101000a900460ff161515151581526020016000820160169054906101000a900460ff1660038111156105fa576105f96133a0565b5b600381111561060c5761060b6133a0565b5b8152602001600182015481525050908060050160009054906101000a900460ff16908060060154905085565b61064061236f565b73ffffffffffffffffffffffffffffffffffffffff168173ffffffffffffffffffffffffffffffffffffffff16146106ad576040517f08c379a00000000000000000000000000000000000000000000000000000000081526004016106a490613012565b60405180910390fd5b6106b78282612377565b5050565b6040516020016106ca90612e39565b604051602081830303815290604052805190602001206106e98161227b565b60006002600084815260200190815260200160002090508060030160000160169054906101000a900460ff166003811115610727576107266133a0565b5b8160010160000160169054906101000a900460ff16600381111561074e5761074d6133a0565b5b141561079457827f66624a2ea04d723964b7325ea58b496e54d365957d5f1e150b68f812386bb7c7600080604051610787929190612ed7565b60405180910390a2611436565b600160038111156107a8576107a76133a0565b5b8160010160000160169054906101000a900460ff1660038111156107cf576107ce6133a0565b5b1415610bb557600260038111156107e9576107e86133a0565b5b8160030160000160169054906101000a900460ff1660038111156108105761080f6133a0565b5b1480610853575060038081111561082a576108296133a0565b5b8160030160000160169054906101000a900460ff166003811115610851576108506133a0565b5b145b6108605761085f613342565b5b60026003811115610874576108736133a0565b5b8160030160000160169054906101000a900460ff16600381111561089b5761089a6133a0565b5b1415610a0a57827f66624a2ea04d723964b7325ea58b496e54d365957d5f1e150b68f812386bb7c78260030160000160009054906101000a900473ffffffffffffffffffffffffffffffffffffffff1683600601546040516108fe929190612f00565b60405180910390a27f000000000000000000000000000000000000000000000000000000000000000073ffffffffffffffffffffffffffffffffffffffff166323b872dd8260010160000160009054906101000a900473ffffffffffffffffffffffffffffffffffffffff168360030160000160009054906101000a900473ffffffffffffffffffffffffffffffffffffffff1660016040518463ffffffff1660e01b81526004016109b293929190612e69565b602060405180830381600087803b1580156109cc57600080fd5b505af11580156109e0573d6000803e3d6000fd5b505050506040513d601f19601f82011682018060405250810190610a049190612999565b50610bb0565b600380811115610a1d57610a1c6133a0565b5b8160030160000160169054906101000a900460ff166003811115610a4457610a436133a0565b5b1415610baf57827f66624a2ea04d723964b7325ea58b496e54d365957d5f1e150b68f812386bb7c78260010160000160009054906101000a900473ffffffffffffffffffffffffffffffffffffffff168360060154604051610aa7929190612f00565b60405180910390a27f000000000000000000000000000000000000000000000000000000000000000073ffffffffffffffffffffffffffffffffffffffff166323b872dd8260030160000160009054906101000a900473ffffffffffffffffffffffffffffffffffffffff168360010160000160009054906101000a900473ffffffffffffffffffffffffffffffffffffffff1660016040518463ffffffff1660e01b8152600401610b5b93929190612e69565b602060405180830381600087803b158015610b7557600080fd5b505af1158015610b89573d6000803e3d6000fd5b505050506040513d601f19601f82011682018060405250810190610bad9190612999565b505b5b611435565b600380811115610bc857610bc76133a0565b5b8160010160000160169054906101000a900460ff166003811115610bef57610bee6133a0565b5b1415610fd75760026003811115610c0957610c086133a0565b5b8160030160000160169054906101000a900460ff166003811115610c3057610c2f6133a0565b5b1480610c74575060016003811115610c4b57610c4a6133a0565b5b8160030160000160169054906101000a900460ff166003811115610c7257610c716133a0565b5b145b610c8157610c80613342565b5b60016003811115610c9557610c946133a0565b5b8160030160000160169054906101000a900460ff166003811115610cbc57610cbb6133a0565b5b1415610e2b57827f66624a2ea04d723964b7325ea58b496e54d365957d5f1e150b68f812386bb7c78260030160000160009054906101000a900473ffffffffffffffffffffffffffffffffffffffff168360060154604051610d1f929190612f00565b60405180910390a27f000000000000000000000000000000000000000000000000000000000000000073ffffffffffffffffffffffffffffffffffffffff166323b872dd8260010160000160009054906101000a900473ffffffffffffffffffffffffffffffffffffffff168360030160000160009054906101000a900473ffffffffffffffffffffffffffffffffffffffff1660016040518463ffffffff1660e01b8152600401610dd393929190612e69565b602060405180830381600087803b158015610ded57600080fd5b505af1158015610e01573d6000803e3d6000fd5b505050506040513d601f19601f82011682018060405250810190610e259190612999565b50610fd2565b60026003811115610e3f57610e3e6133a0565b5b8160030160000160169054906101000a900460ff166003811115610e6657610e656133a0565b5b1415610fd157827f66624a2ea04d723964b7325ea58b496e54d365957d5f1e150b68f812386bb7c78260010160000160009054906101000a900473ffffffffffffffffffffffffffffffffffffffff168360060154604051610ec9929190612f00565b60405180910390a27f000000000000000000000000000000000000000000000000000000000000000073ffffffffffffffffffffffffffffffffffffffff166323b872dd8260030160000160009054906101000a900473ffffffffffffffffffffffffffffffffffffffff168360010160000160009054906101000a900473ffffffffffffffffffffffffffffffffffffffff1660016040518463ffffffff1660e01b8152600401610f7d93929190612e69565b602060405180830381600087803b158015610f9757600080fd5b505af1158015610fab573d6000803e3d6000fd5b505050506040513d601f19601f82011682018060405250810190610fcf9190612999565b505b5b611434565b60026003811115610feb57610fea6133a0565b5b8160010160000160169054906101000a900460ff166003811115611012576110116133a0565b5b14156113f8576001600381111561102c5761102b6133a0565b5b8160030160000160169054906101000a900460ff166003811115611053576110526133a0565b5b1480611096575060038081111561106d5761106c6133a0565b5b8160030160000160169054906101000a900460ff166003811115611094576110936133a0565b5b145b6110a3576110a2613342565b5b6003808111156110b6576110b56133a0565b5b8160030160000160169054906101000a900460ff1660038111156110dd576110dc6133a0565b5b141561124c57827f66624a2ea04d723964b7325ea58b496e54d365957d5f1e150b68f812386bb7c78260030160000160009054906101000a900473ffffffffffffffffffffffffffffffffffffffff168360060154604051611140929190612f00565b60405180910390a27f000000000000000000000000000000000000000000000000000000000000000073ffffffffffffffffffffffffffffffffffffffff166323b872dd8260010160000160009054906101000a900473ffffffffffffffffffffffffffffffffffffffff168360030160000160009054906101000a900473ffffffffffffffffffffffffffffffffffffffff1660016040518463ffffffff1660e01b81526004016111f493929190612e69565b602060405180830381600087803b15801561120e57600080fd5b505af1158015611222573d6000803e3d6000fd5b505050506040513d601f19601f820116820180604052508101906112469190612999565b506113f3565b600160038111156112605761125f6133a0565b5b8160030160000160169054906101000a900460ff166003811115611287576112866133a0565b5b14156113f257827f66624a2ea04d723964b7325ea58b496e54d365957d5f1e150b68f812386bb7c78260010160000160009054906101000a900473ffffffffffffffffffffffffffffffffffffffff1683600601546040516112ea929190612f00565b60405180910390a27f000000000000000000000000000000000000000000000000000000000000000073ffffffffffffffffffffffffffffffffffffffff166323b872dd8260030160000160009054906101000a900473ffffffffffffffffffffffffffffffffffffffff168360010160000160009054906101000a900473ffffffffffffffffffffffffffffffffffffffff1660016040518463ffffffff1660e01b815260040161139e93929190612e69565b602060405180830381600087803b1580156113b857600080fd5b505af11580156113cc573d6000803e3d6000fd5b505050506040513d601f19601f820116820180604052508101906113f09190612999565b505b5b611433565b6040517f08c379a000000000000000000000000000000000000000000000000000000000815260040161142a90612ff2565b60405180910390fd5b5b5b5b505050565b600080600084815260200190815260200160002060000160008373ffffffffffffffffffffffffffffffffffffffff1673ffffffffffffffffffffffffffffffffffffffff16815260200190815260200160002060009054906101000a900460ff16905092915050565b60006002600085815260200190815260200160002090506000816000015414156114fb576040517fb70c1fec00000000000000000000000000000000000000000000000000000000815260040160405180910390fd5b3373ffffffffffffffffffffffffffffffffffffffff168160010160000160009054906101000a900473ffffffffffffffffffffffffffffffffffffffff1673ffffffffffffffffffffffffffffffffffffffff16141580156115b157503373ffffffffffffffffffffffffffffffffffffffff168160030160000160009054906101000a900473ffffffffffffffffffffffffffffffffffffffff1673ffffffffffffffffffffffffffffffffffffffff1614155b156115e8576040517f1f42735400000000000000000000000000000000000000000000000000000000815260040160405180910390fd5b600160028111156115fc576115fb6133a0565b5b8160050160009054906101000a900460ff1660028111156116205761161f6133a0565b5b14611657576040517fa05e34ba00000000000000000000000000000000000000000000000000000000815260040160405180910390fd5b6001600381111561166b5761166a6133a0565b5b83600381111561167e5761167d6133a0565b5b141580156116b157506002600381111561169b5761169a6133a0565b5b8360038111156116ae576116ad6133a0565b5b14155b80156116e157506003808111156116cb576116ca6133a0565b5b8360038111156116de576116dd6133a0565b5b14155b15611718576040517f20edc18500000000000000000000000000000000000000000000000000000000815260040160405180910390fd5b3373ffffffffffffffffffffffffffffffffffffffff168160010160000160009054906101000a900473ffffffffffffffffffffffffffffffffffffffff1673ffffffffffffffffffffffffffffffffffffffff16141561178657611781816001018484612458565b611795565b611794816003018484612458565b5b3373ffffffffffffffffffffffffffffffffffffffff16847fc98953cfdaf1355ff1a9db2d4975230864cb314b479eb1b02301c65234912163856040516117dc9190612f7a565b60405180910390a350505050565b6000801b81565b7f000000000000000000000000000000000000000000000000000000000000000081565b60405160200161182490612e39565b604051602081830303815290604052805190602001206118438161227b565b600060026000858152602001908152602001600020905082600281111561186d5761186c6133a0565b5b8160050160009054906101000a900460ff166002811115611891576118906133a0565b5b14156118c9576040517fa05e34ba00000000000000000000000000000000000000000000000000000000815260040160405180910390fd5b828160050160006101000a81548160ff021916908360028111156118f0576118ef6133a0565b5b0217905550837fdf37221aaffab5daec18329c74e9de71f26727289dfefd6e144987965be79ef3846040516119259190612f95565b60405180910390a250505050565b61193c826103ff565b6119458161227b565b61194f8383612377565b505050565b7f000000000000000000000000000000000000000000000000000000000000000081565b60405160200161198790612dea565b6040516020818303038152906040528051906020012081565b6040516020016119af90612e39565b6040516020818303038152906040528051906020012081565b6000600260008481526020019081526020016000209050600081600001541415611a1e576040517fb70c1fec00000000000000000000000000000000000000000000000000000000815260040160405180910390fd5b3373ffffffffffffffffffffffffffffffffffffffff168160010160000160009054906101000a900473ffffffffffffffffffffffffffffffffffffffff1673ffffffffffffffffffffffffffffffffffffffff1614158015611ad457503373ffffffffffffffffffffffffffffffffffffffff168160030160000160009054906101000a900473ffffffffffffffffffffffffffffffffffffffff1673ffffffffffffffffffffffffffffffffffffffff1614155b15611b0b576040517f1f42735400000000000000000000000000000000000000000000000000000000815260040160405180910390fd5b60006002811115611b1f57611b1e6133a0565b5b8160050160009054906101000a900460ff166002811115611b4357611b426133a0565b5b14611b7a576040517fa05e34ba00000000000000000000000000000000000000000000000000000000815260040160405180910390fd5b3373ffffffffffffffffffffffffffffffffffffffff168160010160000160009054906101000a900473ffffffffffffffffffffffffffffffffffffffff1673ffffffffffffffffffffffffffffffffffffffff161415611be757611be2816001018361257a565b611bf5565b611bf4816003018361257a565b5b3373ffffffffffffffffffffffffffffffffffffffff16837f2f63308b073d0d25029a549b999d196c6bbc8b3bdb3b694d879a74d070ddbe9a60405160405180910390a3505050565b8073ffffffffffffffffffffffffffffffffffffffff168273ffffffffffffffffffffffffffffffffffffffff161415611c7757600080fd5b6000808273ffffffffffffffffffffffffffffffffffffffff168473ffffffffffffffffffffffffffffffffffffffff1610611cb4578284611cb7565b83835b91509150600073ffffffffffffffffffffffffffffffffffffffff168273ffffffffffffffffffffffffffffffffffffffff161415611cf557600080fd5b6000600160008473ffffffffffffffffffffffffffffffffffffffff1673ffffffffffffffffffffffffffffffffffffffff16815260200190815260200160002060008373ffffffffffffffffffffffffffffffffffffffff1673ffffffffffffffffffffffffffffffffffffffff1681526020019081526020016000205414611d7e57600080fd5b60006040518060a001604052808473ffffffffffffffffffffffffffffffffffffffff16815260200160001515815260200160001515815260200160006003811115611dcd57611dcc6133a0565b5b81526020016000801b815250905060006040518060a001604052808473ffffffffffffffffffffffffffffffffffffffff16815260200160001515815260200160001515815260200160006003811115611e2a57611e296133a0565b5b81526020016000801b815250905060036000815480929190611e4b906132f9565b91905055506040518060a00160405280600354815260200183815260200182815260200160006002811115611e8357611e826133a0565b5b815260200160008152506002600060035481526020019081526020016000206000820151816000015560208201518160010160008201518160000160006101000a81548173ffffffffffffffffffffffffffffffffffffffff021916908373ffffffffffffffffffffffffffffffffffffffff16021790555060208201518160000160146101000a81548160ff02191690831515021790555060408201518160000160156101000a81548160ff02191690831515021790555060608201518160000160166101000a81548160ff02191690836003811115611f6757611f666133a0565b5b021790555060808201518160010155505060408201518160030160008201518160000160006101000a81548173ffffffffffffffffffffffffffffffffffffffff021916908373ffffffffffffffffffffffffffffffffffffffff16021790555060208201518160000160146101000a81548160ff02191690831515021790555060408201518160000160156101000a81548160ff02191690831515021790555060608201518160000160166101000a81548160ff02191690836003811115612033576120326133a0565b5b021790555060808201518160010155505060608201518160050160006101000a81548160ff0219169083600281111561206f5761206e6133a0565b5b021790555060808201518160060155905050600354600160008673ffffffffffffffffffffffffffffffffffffffff1673ffffffffffffffffffffffffffffffffffffffff16815260200190815260200160002060008573ffffffffffffffffffffffffffffffffffffffff1673ffffffffffffffffffffffffffffffffffffffff16815260200190815260200160002081905550600354600160008573ffffffffffffffffffffffffffffffffffffffff1673ffffffffffffffffffffffffffffffffffffffff16815260200190815260200160002060008673ffffffffffffffffffffffffffffffffffffffff1673ffffffffffffffffffffffffffffffffffffffff168152602001908152602001600020819055508273ffffffffffffffffffffffffffffffffffffffff168473ffffffffffffffffffffffffffffffffffffffff166003547f04030770e813dd055e97aa89673831d9b864cb7195e6f9b18b9520645a9da59660405160405180910390a4505050505050565b6001602052816000526040600020602052806000526040600020600091509150505481565b60007f01ffc9a7000000000000000000000000000000000000000000000000000000007bffffffffffffffffffffffffffffffffffffffffffffffffffffffff1916827bffffffffffffffffffffffffffffffffffffffffffffffffffffffff1916149050919050565b61228c8161228761236f565b6125ed565b50565b612299828261143b565b61236b57600160008084815260200190815260200160002060000160008373ffffffffffffffffffffffffffffffffffffffff1673ffffffffffffffffffffffffffffffffffffffff16815260200190815260200160002060006101000a81548160ff02191690831515021790555061231061236f565b73ffffffffffffffffffffffffffffffffffffffff168173ffffffffffffffffffffffffffffffffffffffff16837f2f8788117e7eff1d82e926ec794901d17c78024a50270940304540a733656f0d60405160405180910390a45b5050565b600033905090565b612381828261143b565b1561245457600080600084815260200190815260200160002060000160008373ffffffffffffffffffffffffffffffffffffffff1673ffffffffffffffffffffffffffffffffffffffff16815260200190815260200160002060006101000a81548160ff0219169083151502179055506123f961236f565b73ffffffffffffffffffffffffffffffffffffffff168173ffffffffffffffffffffffffffffffffffffffff16837ff6391f5c32d9c69d2a47ea670b442974b53935d1edc7fd64eb21e047a839171b60405160405180910390a45b5050565b8260000160159054906101000a900460ff16156124a1576040517fa89ac15100000000000000000000000000000000000000000000000000000000815260040160405180910390fd5b82600101548360000160009054906101000a900473ffffffffffffffffffffffffffffffffffffffff1683836040516020016124df93929190612ea0565b604051602081830303815290604052805190602001201461252c576040517f0af806e000000000000000000000000000000000000000000000000000000000815260040160405180910390fd5b818360000160166101000a81548160ff02191690836003811115612553576125526133a0565b5b021790555060018360000160156101000a81548160ff021916908315150217905550505050565b8160000160149054906101000a900460ff16156125c3576040517ffc507a3100000000000000000000000000000000000000000000000000000000815260040160405180910390fd5b80826001018190555060018260000160146101000a81548160ff0219169083151502179055505050565b6125f7828261143b565b6126865761261c8173ffffffffffffffffffffffffffffffffffffffff16601461268a565b61262a8360001c602061268a565b60405160200161263b929190612dff565b6040516020818303038152906040526040517f08c379a000000000000000000000000000000000000000000000000000000000815260040161267d9190612fb0565b60405180910390fd5b5050565b60606000600283600261269d9190613120565b6126a791906130ca565b67ffffffffffffffff8111156126c0576126bf6133fe565b5b6040519080825280601f01601f1916602001820160405280156126f25781602001600182028036833780820191505090505b5090507f30000000000000000000000000000000000000000000000000000000000000008160008151811061272a576127296133cf565b5b60200101907effffffffffffffffffffffffffffffffffffffffffffffffffffffffffffff1916908160001a9053507f78000000000000000000000000000000000000000000000000000000000000008160018151811061278e5761278d6133cf565b5b60200101907effffffffffffffffffffffffffffffffffffffffffffffffffffffffffffff1916908160001a905350600060018460026127ce9190613120565b6127d891906130ca565b90505b6001811115612878577f3031323334353637383961626364656600000000000000000000000000000000600f86166010811061281a576128196133cf565b5b1a60f81b828281518110612831576128306133cf565b5b60200101907effffffffffffffffffffffffffffffffffffffffffffffffffffffffffffff1916908160001a905350600485901c945080612871906132cf565b90506127db565b50600084146128bc576040517f08c379a00000000000000000000000000000000000000000000000000000000081526004016128b390612fd2565b60405180910390fd5b8091505092915050565b6000813590506128d5816135b0565b92915050565b6000815190506128ea816135c7565b92915050565b6000813590506128ff816135de565b92915050565b600081359050612914816135f5565b92915050565b6000813590506129298161360c565b92915050565b60008135905061293e8161361c565b92915050565b6000813590506129538161362c565b92915050565b600080604083850312156129705761296f61342d565b5b600061297e858286016128c6565b925050602061298f858286016128c6565b9150509250929050565b6000602082840312156129af576129ae61342d565b5b60006129bd848285016128db565b91505092915050565b6000602082840312156129dc576129db61342d565b5b60006129ea848285016128f0565b91505092915050565b60008060408385031215612a0a57612a0961342d565b5b6000612a18858286016128f0565b9250506020612a29858286016128c6565b9150509250929050565b600060208284031215612a4957612a4861342d565b5b6000612a5784828501612905565b91505092915050565b600060208284031215612a7657612a7561342d565b5b6000612a8484828501612944565b91505092915050565b60008060408385031215612aa457612aa361342d565b5b6000612ab285828601612944565b9250506020612ac3858286016128f0565b9150509250929050565b600080600060608486031215612ae657612ae561342d565b5b6000612af486828701612944565b9350506020612b058682870161291a565b9250506040612b16868287016128f0565b9150509250925092565b60008060408385031215612b3757612b3661342d565b5b6000612b4585828601612944565b9250506020612b568582860161292f565b9150509250929050565b612b698161317a565b82525050565b612b788161317a565b82525050565b612b878161318c565b82525050565b612b968161318c565b82525050565b612ba581613198565b82525050565b612bb481613198565b82525050565b612bc38161321e565b82525050565b612bd281613230565b82525050565b612be181613230565b82525050565b612bf081613242565b82525050565b612bff81613254565b82525050565b612c0e81613266565b82525050565b6000612c1f826130a3565b612c2981856130ae565b9350612c3981856020860161329c565b612c4281613432565b840191505092915050565b6000612c58826130a3565b612c6281856130bf565b9350612c7281856020860161329c565b80840191505092915050565b6000612c8b6020836130ae565b9150612c9682613443565b602082019050919050565b6000612cae6011836130ae565b9150612cb98261346c565b602082019050919050565b6000612cd1600a836130bf565b9150612cdc82613495565b600a82019050919050565b6000612cf46017836130bf565b9150612cff826134be565b601782019050919050565b6000612d176011836130bf565b9150612d22826134e7565b601182019050919050565b6000612d3a602f836130ae565b9150612d4582613510565b604082019050919050565b6000612d5d6010836130bf565b9150612d688261355f565b601082019050919050565b60a082016000820151612d896000850182612b60565b506020820151612d9c6020850182612b7e565b506040820151612daf6040850182612b7e565b506060820151612dc26060850182612bc9565b506080820151612dd56080850182612b9c565b50505050565b612de481613214565b82525050565b6000612df582612cc4565b9150819050919050565b6000612e0a82612ce7565b9150612e168285612c4d565b9150612e2182612d0a565b9150612e2d8284612c4d565b91508190509392505050565b6000612e4482612d50565b9150819050919050565b6000602082019050612e636000830184612b6f565b92915050565b6000606082019050612e7e6000830186612b6f565b612e8b6020830185612b6f565b612e986040830184612c05565b949350505050565b6000606082019050612eb56000830186612b6f565b612ec26020830185612bd8565b612ecf6040830184612bab565b949350505050565b6000604082019050612eec6000830185612b6f565b612ef96020830184612bf6565b9392505050565b6000604082019050612f156000830185612b6f565b612f226020830184612ddb565b9392505050565b6000602082019050612f3e6000830184612b8d565b92915050565b6000602082019050612f596000830184612bab565b92915050565b6000602082019050612f746000830184612bba565b92915050565b6000602082019050612f8f6000830184612bd8565b92915050565b6000602082019050612faa6000830184612be7565b92915050565b60006020820190508181036000830152612fca8184612c14565b905092915050565b60006020820190508181036000830152612feb81612c7e565b9050919050565b6000602082019050818103600083015261300b81612ca1565b9050919050565b6000602082019050818103600083015261302b81612d2d565b9050919050565b60006020820190506130476000830184612ddb565b92915050565b60006101a0820190506130636000830188612ddb565b6130706020830187612d73565b61307d60c0830186612d73565b61308b610160830185612be7565b613099610180830184612ddb565b9695505050505050565b600081519050919050565b600082825260208201905092915050565b600081905092915050565b60006130d582613214565b91506130e083613214565b9250827fffffffffffffffffffffffffffffffffffffffffffffffffffffffffffffffff0382111561311557613114613371565b5b828201905092915050565b600061312b82613214565b915061313683613214565b9250817fffffffffffffffffffffffffffffffffffffffffffffffffffffffffffffffff048311821515161561316f5761316e613371565b5b828202905092915050565b6000613185826131f4565b9050919050565b60008115159050919050565b6000819050919050565b60007fffffffff0000000000000000000000000000000000000000000000000000000082169050919050565b60008190506131dc82613588565b919050565b60008190506131ef8261359c565b919050565b600073ffffffffffffffffffffffffffffffffffffffff82169050919050565b6000819050919050565b600061322982613278565b9050919050565b600061323b826131ce565b9050919050565b600061324d826131e1565b9050919050565b600061325f82613214565b9050919050565b600061327182613214565b9050919050565b60006132838261328a565b9050919050565b6000613295826131f4565b9050919050565b60005b838110156132ba57808201518184015260208101905061329f565b838111156132c9576000848401525b50505050565b60006132da82613214565b915060008214156132ee576132ed613371565b5b600182039050919050565b600061330482613214565b91507fffffffffffffffffffffffffffffffffffffffffffffffffffffffffffffffff82141561333757613336613371565b5b600182019050919050565b7f4e487b7100000000000000000000000000000000000000000000000000000000600052600160045260246000fd5b7f4e487b7100000000000000000000000000000000000000000000000000000000600052601160045260246000fd5b7f4e487b7100000000000000000000000000000000000000000000000000000000600052602160045260246000fd5b7f4e487b7100000000000000000000000000000000000000000000000000000000600052603260045260246000fd5b7f4e487b7100000000000000000000000000000000000000000000000000000000600052604160045260246000fd5b600080fd5b6000601f19601f8301169050919050565b7f537472696e67733a20686578206c656e67746820696e73756666696369656e74600082015250565b7f43686f69636520696e63636f7265637421000000000000000000000000000000600082015250565b7f4f574e45525f524f4c4500000000000000000000000000000000000000000000600082015250565b7f416363657373436f6e74726f6c3a206163636f756e7420000000000000000000600082015250565b7f206973206d697373696e6720726f6c6520000000000000000000000000000000600082015250565b7f416363657373436f6e74726f6c3a2063616e206f6e6c792072656e6f756e636560008201527f20726f6c657320666f722073656c660000000000000000000000000000000000602082015250565b7f4449535452494255544f525f524f4c4500000000000000000000000000000000600082015250565b60048110613599576135986133a0565b5b50565b600381106135ad576135ac6133a0565b5b50565b6135b98161317a565b81146135c457600080fd5b50565b6135d08161318c565b81146135db57600080fd5b50565b6135e781613198565b81146135f257600080fd5b50565b6135fe816131a2565b811461360957600080fd5b50565b6004811061361957600080fd5b50565b6003811061362957600080fd5b50565b61363581613214565b811461364057600080fd5b5056fea264697066735822122074dfd92cbc0a0ba6adc3fe0f5ccc427b88c64407a1af46fe81d1b744478c642664736f6c63430008070033",
  "linkReferences": {},
  "deployedLinkReferences": {}
}