{
  "_format": "hh-sol-artifact-1",
  "contractName": "GameV2",
  "sourceName": "contracts/v2/GameV2.sol",
  "abi": [
    {
      "inputs": [
        {
          "internalType": "address",
          "name": "_distributor",
          "type": "address"
        }
      ],
      "stateMutability": "nonpayable",
      "type": "constructor"
    },
    {
      "inputs": [],
      "name": "AlreadyCommited",
      "type": "error"
    },
    {
      "inputs": [],
      "name": "AlreadyRevealed",
      "type": "error"
    },
    {
      "inputs": [],
      "name": "InvalidHash",
      "type": "error"
    },
    {
      "inputs": [],
      "name": "PlayerNotExist",
      "type": "error"
    },
    {
      "inputs": [],
      "name": "RoomNotExist",
      "type": "error"
    },
    {
      "inputs": [],
      "name": "WrongChoice",
      "type": "error"
    },
    {
      "inputs": [],
      "name": "WrongStage",
      "type": "error"
    },
    {
      "anonymous": false,
      "inputs": [
        {
          "indexed": true,
          "internalType": "uint256",
          "name": "roomId",
          "type": "uint256"
        },
        {
          "indexed": true,
          "internalType": "address",
          "name": "player",
          "type": "address"
        }
      ],
      "name": "Commited",
      "type": "event"
    },
    {
      "anonymous": false,
      "inputs": [
        {
          "indexed": true,
          "internalType": "uint256",
          "name": "roomId",
          "type": "uint256"
        },
        {
          "indexed": false,
          "internalType": "enum IGameV2.Stage",
          "name": "stage",
          "type": "uint8"
        }
      ],
      "name": "Distributed",
      "type": "event"
    },
    {
      "anonymous": false,
      "inputs": [
        {
          "indexed": true,
          "internalType": "uint256",
          "name": "roomId",
          "type": "uint256"
        },
        {
          "indexed": false,
          "internalType": "address",
          "name": "winner",
          "type": "address"
        },
        {
          "indexed": false,
          "internalType": "uint256",
          "name": "gameId",
          "type": "uint256"
        }
      ],
      "name": "GameResult",
      "type": "event"
    },
    {
      "anonymous": false,
      "inputs": [
        {
          "indexed": true,
          "internalType": "uint256",
          "name": "roomId",
          "type": "uint256"
        },
        {
          "indexed": true,
          "internalType": "address",
          "name": "player",
          "type": "address"
        },
        {
          "indexed": false,
          "internalType": "enum IGameV2.Choice",
          "name": "choice",
          "type": "uint8"
        }
      ],
      "name": "Revealed",
      "type": "event"
    },
    {
      "anonymous": false,
      "inputs": [
        {
          "indexed": true,
          "internalType": "bytes32",
          "name": "role",
          "type": "bytes32"
        },
        {
          "indexed": true,
          "internalType": "bytes32",
          "name": "previousAdminRole",
          "type": "bytes32"
        },
        {
          "indexed": true,
          "internalType": "bytes32",
          "name": "newAdminRole",
          "type": "bytes32"
        }
      ],
      "name": "RoleAdminChanged",
      "type": "event"
    },
    {
      "anonymous": false,
      "inputs": [
        {
          "indexed": true,
          "internalType": "bytes32",
          "name": "role",
          "type": "bytes32"
        },
        {
          "indexed": true,
          "internalType": "address",
          "name": "account",
          "type": "address"
        },
        {
          "indexed": true,
          "internalType": "address",
          "name": "sender",
          "type": "address"
        }
      ],
      "name": "RoleGranted",
      "type": "event"
    },
    {
      "anonymous": false,
      "inputs": [
        {
          "indexed": true,
          "internalType": "bytes32",
          "name": "role",
          "type": "bytes32"
        },
        {
          "indexed": true,
          "internalType": "address",
          "name": "account",
          "type": "address"
        },
        {
          "indexed": true,
          "internalType": "address",
          "name": "sender",
          "type": "address"
        }
      ],
      "name": "RoleRevoked",
      "type": "event"
    },
    {
      "anonymous": false,
      "inputs": [
        {
          "indexed": true,
          "internalType": "uint256",
          "name": "roomId",
          "type": "uint256"
        },
        {
          "indexed": true,
          "internalType": "address",
          "name": "player0",
          "type": "address"
        },
        {
          "indexed": true,
          "internalType": "address",
          "name": "player1",
          "type": "address"
        }
      ],
      "name": "RoomCreated",
      "type": "event"
    },
    {
      "anonymous": false,
      "inputs": [
        {
          "indexed": true,
          "internalType": "uint256",
          "name": "roomId",
          "type": "uint256"
        },
        {
          "indexed": false,
          "internalType": "enum IGameV2.Stage",
          "name": "stage",
          "type": "uint8"
        }
      ],
      "name": "StageChanged",
      "type": "event"
    },
    {
      "inputs": [],
      "name": "DEFAULT_ADMIN_ROLE",
      "outputs": [
        {
          "internalType": "bytes32",
          "name": "",
          "type": "bytes32"
        }
      ],
      "stateMutability": "view",
      "type": "function"
    },
    {
      "inputs": [],
      "name": "DISTRIBUTOR_ROLE",
      "outputs": [
        {
          "internalType": "bytes32",
          "name": "",
          "type": "bytes32"
        }
      ],
      "stateMutability": "view",
      "type": "function"
    },
    {
      "inputs": [],
      "name": "OWNER_ROLE",
      "outputs": [
        {
          "internalType": "bytes32",
          "name": "",
          "type": "bytes32"
        }
      ],
      "stateMutability": "view",
      "type": "function"
    },
    {
      "inputs": [
        {
          "internalType": "uint256",
          "name": "roomId",
          "type": "uint256"
        },
        {
          "internalType": "bytes32",
          "name": "commitment",
          "type": "bytes32"
        }
      ],
      "name": "commit",
      "outputs": [],
      "stateMutability": "nonpayable",
      "type": "function"
    },
    {
      "inputs": [
        {
          "internalType": "address",
          "name": "playerA",
          "type": "address"
        },
        {
          "internalType": "address",
          "name": "playerB",
          "type": "address"
        }
      ],
      "name": "createRoom",
      "outputs": [],
      "stateMutability": "nonpayable",
      "type": "function"
    },
    {
      "inputs": [
        {
          "internalType": "uint256",
          "name": "roomId",
          "type": "uint256"
        }
      ],
      "name": "distribute",
      "outputs": [],
      "stateMutability": "nonpayable",
      "type": "function"
    },
    {
      "inputs": [],
      "name": "distributor",
      "outputs": [
        {
          "internalType": "address",
          "name": "",
          "type": "address"
        }
      ],
      "stateMutability": "view",
      "type": "function"
    },
    {
      "inputs": [
        {
          "internalType": "bytes32",
          "name": "role",
          "type": "bytes32"
        }
      ],
      "name": "getRoleAdmin",
      "outputs": [
        {
          "internalType": "bytes32",
          "name": "",
          "type": "bytes32"
        }
      ],
      "stateMutability": "view",
      "type": "function"
    },
    {
      "inputs": [
        {
          "internalType": "uint256",
          "name": "",
          "type": "uint256"
        }
      ],
      "name": "getRoomById",
      "outputs": [
        {
          "internalType": "uint256",
          "name": "id",
          "type": "uint256"
        },
        {
          "components": [
            {
              "internalType": "address",
              "name": "playerAddress",
              "type": "address"
            },
            {
              "internalType": "bool",
              "name": "commited",
              "type": "bool"
            },
            {
              "internalType": "bool",
              "name": "revealed",
              "type": "bool"
            },
            {
              "internalType": "enum IGameV2.Choice",
              "name": "choice",
              "type": "uint8"
            },
            {
              "internalType": "bytes32",
              "name": "commitment",
              "type": "bytes32"
            }
          ],
          "internalType": "struct IGameV2.Player",
          "name": "player0",
          "type": "tuple"
        },
        {
          "components": [
            {
              "internalType": "address",
              "name": "playerAddress",
              "type": "address"
            },
            {
              "internalType": "bool",
              "name": "commited",
              "type": "bool"
            },
            {
              "internalType": "bool",
              "name": "revealed",
              "type": "bool"
            },
            {
              "internalType": "enum IGameV2.Choice",
              "name": "choice",
              "type": "uint8"
            },
            {
              "internalType": "bytes32",
              "name": "commitment",
              "type": "bytes32"
            }
          ],
          "internalType": "struct IGameV2.Player",
          "name": "player1",
          "type": "tuple"
        },
        {
          "internalType": "enum IGameV2.Stage",
          "name": "stage",
          "type": "uint8"
        },
        {
          "internalType": "uint256",
          "name": "gameId",
          "type": "uint256"
        }
      ],
      "stateMutability": "view",
      "type": "function"
    },
    {
      "inputs": [
        {
          "internalType": "address",
          "name": "",
          "type": "address"
        },
        {
          "internalType": "address",
          "name": "",
          "type": "address"
        }
      ],
      "name": "getRoomByPlayerAddresses",
      "outputs": [
        {
          "internalType": "uint256",
          "name": "",
          "type": "uint256"
        }
      ],
      "stateMutability": "view",
      "type": "function"
    },
    {
      "inputs": [
        {
          "internalType": "bytes32",
          "name": "role",
          "type": "bytes32"
        },
        {
          "internalType": "address",
          "name": "account",
          "type": "address"
        }
      ],
      "name": "grantRole",
      "outputs": [],
      "stateMutability": "nonpayable",
      "type": "function"
    },
    {
      "inputs": [
        {
          "internalType": "bytes32",
          "name": "role",
          "type": "bytes32"
        },
        {
          "internalType": "address",
          "name": "account",
          "type": "address"
        }
      ],
      "name": "hasRole",
      "outputs": [
        {
          "internalType": "bool",
          "name": "",
          "type": "bool"
        }
      ],
      "stateMutability": "view",
      "type": "function"
    },
    {
      "inputs": [
        {
          "internalType": "uint256",
          "name": "roomId",
          "type": "uint256"
        },
        {
          "internalType": "enum IGameV2.Stage",
          "name": "stage",
          "type": "uint8"
        }
      ],
      "name": "nextStage",
      "outputs": [],
      "stateMutability": "nonpayable",
      "type": "function"
    },
    {
      "inputs": [
        {
          "internalType": "bytes32",
          "name": "role",
          "type": "bytes32"
        },
        {
          "internalType": "address",
          "name": "account",
          "type": "address"
        }
      ],
      "name": "renounceRole",
      "outputs": [],
      "stateMutability": "nonpayable",
      "type": "function"
    },
    {
      "inputs": [
        {
          "internalType": "uint256",
          "name": "roomId",
          "type": "uint256"
        },
        {
          "internalType": "enum IGameV2.Choice",
          "name": "choice",
          "type": "uint8"
        },
        {
          "internalType": "bytes32",
          "name": "key",
          "type": "bytes32"
        }
      ],
      "name": "reveal",
      "outputs": [],
      "stateMutability": "nonpayable",
      "type": "function"
    },
    {
      "inputs": [
        {
          "internalType": "bytes32",
          "name": "role",
          "type": "bytes32"
        },
        {
          "internalType": "address",
          "name": "account",
          "type": "address"
        }
      ],
      "name": "revokeRole",
      "outputs": [],
      "stateMutability": "nonpayable",
      "type": "function"
    },
    {
      "inputs": [
        {
          "internalType": "bytes4",
          "name": "interfaceId",
          "type": "bytes4"
        }
      ],
      "name": "supportsInterface",
      "outputs": [
        {
          "internalType": "bool",
          "name": "",
          "type": "bool"
        }
      ],
      "stateMutability": "view",
      "type": "function"
    }
  ],
  "bytecode": "0x60a06040523480156200001157600080fd5b50604051620034b7380380620034b783398181016040528101906200003791906200039d565b620000956040516020016200004c906200041d565b6040516020818303038152906040528051906020012060405160200162000073906200041d565b60405160208183030381529060405280519060200120620001a160201b60201c565b620000f3604051602001620000aa9062000434565b60405160208183030381529060405280519060200120604051602001620000d1906200041d565b60405160208183030381529060405280519060200120620001a160201b60201c565b6200012b60405160200162000108906200041d565b60405160208183030381529060405280519060200120336200020460201b60201c565b62000163604051602001620001409062000434565b60405160208183030381529060405280519060200120826200020460201b60201c565b8073ffffffffffffffffffffffffffffffffffffffff1660808173ffffffffffffffffffffffffffffffffffffffff1660601b8152505050620004fb565b6000620001b483620002f560201b60201c565b905081600080858152602001908152602001600020600101819055508181847fbd79b86ffe0ab8e8776151514217cd7cacd52c909f66475c3af44e129f0b00ff60405160405180910390a4505050565b6200021682826200031460201b60201c565b620002f157600160008084815260200190815260200160002060000160008373ffffffffffffffffffffffffffffffffffffffff1673ffffffffffffffffffffffffffffffffffffffff16815260200190815260200160002060006101000a81548160ff021916908315150217905550620002966200037e60201b60201c565b73ffffffffffffffffffffffffffffffffffffffff168173ffffffffffffffffffffffffffffffffffffffff16837f2f8788117e7eff1d82e926ec794901d17c78024a50270940304540a733656f0d60405160405180910390a45b5050565b6000806000838152602001908152602001600020600101549050919050565b600080600084815260200190815260200160002060000160008373ffffffffffffffffffffffffffffffffffffffff1673ffffffffffffffffffffffffffffffffffffffff16815260200190815260200160002060009054906101000a900460ff16905092915050565b600033905090565b6000815190506200039781620004e1565b92915050565b600060208284031215620003b657620003b56200048a565b5b6000620003c68482850162000386565b91505092915050565b6000620003de600a836200044b565b9150620003eb826200048f565b600a82019050919050565b6000620004056010836200044b565b91506200041282620004b8565b601082019050919050565b60006200042a82620003cf565b9150819050919050565b60006200044182620003f6565b9150819050919050565b600081905092915050565b600062000463826200046a565b9050919050565b600073ffffffffffffffffffffffffffffffffffffffff82169050919050565b600080fd5b7f4f574e45525f524f4c4500000000000000000000000000000000000000000000600082015250565b7f4449535452494255544f525f524f4c4500000000000000000000000000000000600082015250565b620004ec8162000456565b8114620004f857600080fd5b50565b60805160601c612f9d6200051a60003960006112020152612f9d6000f3fe608060405234801561001057600080fd5b506004361061010b5760003560e01c8063a217fddf116100a2578063e58378bb11610071578063e58378bb146102b8578063f0bd87cc146102d6578063f2f03877146102f4578063f9a5918f14610310578063fe5090161461032c5761010b565b8063a217fddf14610244578063bfe1092814610262578063d222871e14610280578063d547741f1461029c5761010b565b806336568abe116100de57806336568abe146101c057806391c05b0b146101dc57806391d14854146101f85780639a42f3aa146102285761010b565b806301ffc9a714610110578063248a9ca3146101405780632f2ff15d146101705780633495655a1461018c575b600080fd5b61012a60048036038101906101259190612426565b61035c565b60405161013791906128c7565b60405180910390f35b61015a600480360381019061015591906123b9565b6103d6565b60405161016791906128e2565b60405180910390f35b61018a600480360381019061018591906123e6565b6103f5565b005b6101a660048036038101906101a19190612453565b610416565b6040516101b79594939291906129d0565b60405180910390f35b6101da60048036038101906101d591906123e6565b61060f565b005b6101f660048036038101906101f19190612453565b610692565b005b610212600480360381019061020d91906123e6565b610e4a565b60405161021f91906128c7565b60405180910390f35b610242600480360381019061023d91906124c0565b610eb4565b005b61024c6111f9565b60405161025991906128e2565b60405180910390f35b61026a611200565b6040516102779190612823565b60405180910390f35b61029a60048036038101906102959190612513565b611224565b005b6102b660048036038101906102b191906123e6565b611342565b005b6102c0611363565b6040516102cd91906128e2565b60405180910390f35b6102de61138b565b6040516102eb91906128e2565b60405180910390f35b61030e60048036038101906103099190612480565b6113b3565b005b61032a60048036038101906103259190612379565b611629565b005b61034660048036038101906103419190612379565b611bd7565b60405161035391906129b5565b60405180910390f35b60007f7965db0b000000000000000000000000000000000000000000000000000000007bffffffffffffffffffffffffffffffffffffffffffffffffffffffff1916827bffffffffffffffffffffffffffffffffffffffffffffffffffffffff191614806103cf57506103ce82611bfc565b5b9050919050565b6000806000838152602001908152602001600020600101549050919050565b6103fe826103d6565b61040781611c66565b6104118383611c7a565b505050565b6002602052806000526040600020600091509050806000015490806001016040518060a00160405290816000820160009054906101000a900473ffffffffffffffffffffffffffffffffffffffff1673ffffffffffffffffffffffffffffffffffffffff1673ffffffffffffffffffffffffffffffffffffffff1681526020016000820160149054906101000a900460ff161515151581526020016000820160159054906101000a900460ff161515151581526020016000820160169054906101000a900460ff1660038111156104f0576104ef612cdb565b5b600381111561050257610501612cdb565b5b815260200160018201548152505090806003016040518060a00160405290816000820160009054906101000a900473ffffffffffffffffffffffffffffffffffffffff1673ffffffffffffffffffffffffffffffffffffffff1673ffffffffffffffffffffffffffffffffffffffff1681526020016000820160149054906101000a900460ff161515151581526020016000820160159054906101000a900460ff161515151581526020016000820160169054906101000a900460ff1660038111156105d1576105d0612cdb565b5b60038111156105e3576105e2612cdb565b5b8152602001600182015481525050908060050160009054906101000a900460ff16908060060154905085565b610617611d5a565b73ffffffffffffffffffffffffffffffffffffffff168173ffffffffffffffffffffffffffffffffffffffff1614610684576040517f08c379a000000000000000000000000000000000000000000000000000000000815260040161067b90612995565b60405180910390fd5b61068e8282611d62565b5050565b6040516020016106a19061280e565b604051602081830303815290604052805190602001206106c081611c66565b60006002600084815260200190815260200160002090508060030160000160169054906101000a900460ff1660038111156106fe576106fd612cdb565b5b8160010160000160169054906101000a900460ff16600381111561072557610724612cdb565b5b141561076b57827f66624a2ea04d723964b7325ea58b496e54d365957d5f1e150b68f812386bb7c760008060405161075e929190612875565b60405180910390a2610e13565b6001600381111561077f5761077e612cdb565b5b8160010160000160169054906101000a900460ff1660038111156107a6576107a5612cdb565b5b141561098e57600260038111156107c0576107bf612cdb565b5b8160030160000160169054906101000a900460ff1660038111156107e7576107e6612cdb565b5b148061082a575060038081111561080157610800612cdb565b5b8160030160000160169054906101000a900460ff16600381111561082857610827612cdb565b5b145b61083757610836612c7d565b5b6002600381111561084b5761084a612cdb565b5b8160030160000160169054906101000a900460ff16600381111561087257610871612cdb565b5b14156108e257827f66624a2ea04d723964b7325ea58b496e54d365957d5f1e150b68f812386bb7c78260030160000160009054906101000a900473ffffffffffffffffffffffffffffffffffffffff1683600601546040516108d592919061289e565b60405180910390a2610989565b6003808111156108f5576108f4612cdb565b5b8160030160000160169054906101000a900460ff16600381111561091c5761091b612cdb565b5b141561098857827f66624a2ea04d723964b7325ea58b496e54d365957d5f1e150b68f812386bb7c78260010160000160009054906101000a900473ffffffffffffffffffffffffffffffffffffffff16836006015460405161097f92919061289e565b60405180910390a25b5b610e12565b6003808111156109a1576109a0612cdb565b5b8160010160000160169054906101000a900460ff1660038111156109c8576109c7612cdb565b5b1415610bb257600260038111156109e2576109e1612cdb565b5b8160030160000160169054906101000a900460ff166003811115610a0957610a08612cdb565b5b1480610a4d575060016003811115610a2457610a23612cdb565b5b8160030160000160169054906101000a900460ff166003811115610a4b57610a4a612cdb565b5b145b610a5a57610a59612c7d565b5b60016003811115610a6e57610a6d612cdb565b5b8160030160000160169054906101000a900460ff166003811115610a9557610a94612cdb565b5b1415610b0557827f66624a2ea04d723964b7325ea58b496e54d365957d5f1e150b68f812386bb7c78260030160000160009054906101000a900473ffffffffffffffffffffffffffffffffffffffff168360060154604051610af892919061289e565b60405180910390a2610bad565b60026003811115610b1957610b18612cdb565b5b8160030160000160169054906101000a900460ff166003811115610b4057610b3f612cdb565b5b1415610bac57827f66624a2ea04d723964b7325ea58b496e54d365957d5f1e150b68f812386bb7c78260010160000160009054906101000a900473ffffffffffffffffffffffffffffffffffffffff168360060154604051610ba392919061289e565b60405180910390a25b5b610e11565b60026003811115610bc657610bc5612cdb565b5b8160010160000160169054906101000a900460ff166003811115610bed57610bec612cdb565b5b1415610dd55760016003811115610c0757610c06612cdb565b5b8160030160000160169054906101000a900460ff166003811115610c2e57610c2d612cdb565b5b1480610c715750600380811115610c4857610c47612cdb565b5b8160030160000160169054906101000a900460ff166003811115610c6f57610c6e612cdb565b5b145b610c7e57610c7d612c7d565b5b600380811115610c9157610c90612cdb565b5b8160030160000160169054906101000a900460ff166003811115610cb857610cb7612cdb565b5b1415610d2857827f66624a2ea04d723964b7325ea58b496e54d365957d5f1e150b68f812386bb7c78260030160000160009054906101000a900473ffffffffffffffffffffffffffffffffffffffff168360060154604051610d1b92919061289e565b60405180910390a2610dd0565b60016003811115610d3c57610d3b612cdb565b5b8160030160000160169054906101000a900460ff166003811115610d6357610d62612cdb565b5b1415610dcf57827f66624a2ea04d723964b7325ea58b496e54d365957d5f1e150b68f812386bb7c78260010160000160009054906101000a900473ffffffffffffffffffffffffffffffffffffffff168360060154604051610dc692919061289e565b60405180910390a25b5b610e10565b6040517f08c379a0000000000000000000000000000000000000000000000000000000008152600401610e0790612975565b60405180910390fd5b5b5b5b610e1f81600101611e43565b610e2b81600301611e43565b806006016000815480929190610e4090612c34565b9190505550505050565b600080600084815260200190815260200160002060000160008373ffffffffffffffffffffffffffffffffffffffff1673ffffffffffffffffffffffffffffffffffffffff16815260200190815260200160002060009054906101000a900460ff16905092915050565b6000600260008581526020019081526020016000209050600081600001541415610f0a576040517fb70c1fec00000000000000000000000000000000000000000000000000000000815260040160405180910390fd5b3373ffffffffffffffffffffffffffffffffffffffff168160010160000160009054906101000a900473ffffffffffffffffffffffffffffffffffffffff1673ffffffffffffffffffffffffffffffffffffffff1614158015610fc057503373ffffffffffffffffffffffffffffffffffffffff168160030160000160009054906101000a900473ffffffffffffffffffffffffffffffffffffffff1673ffffffffffffffffffffffffffffffffffffffff1614155b15610ff7576040517f1f42735400000000000000000000000000000000000000000000000000000000815260040160405180910390fd5b6001600281111561100b5761100a612cdb565b5b8160050160009054906101000a900460ff16600281111561102f5761102e612cdb565b5b14611066576040517fa05e34ba00000000000000000000000000000000000000000000000000000000815260040160405180910390fd5b6001600381111561107a57611079612cdb565b5b83600381111561108d5761108c612cdb565b5b141580156110c05750600260038111156110aa576110a9612cdb565b5b8360038111156110bd576110bc612cdb565b5b14155b80156110f057506003808111156110da576110d9612cdb565b5b8360038111156110ed576110ec612cdb565b5b14155b15611127576040517f20edc18500000000000000000000000000000000000000000000000000000000815260040160405180910390fd5b3373ffffffffffffffffffffffffffffffffffffffff168160010160000160009054906101000a900473ffffffffffffffffffffffffffffffffffffffff1673ffffffffffffffffffffffffffffffffffffffff16141561119557611190816001018484611eb9565b6111a4565b6111a3816003018484611eb9565b5b3373ffffffffffffffffffffffffffffffffffffffff16847fc98953cfdaf1355ff1a9db2d4975230864cb314b479eb1b02301c65234912163856040516111eb91906128fd565b60405180910390a350505050565b6000801b81565b7f000000000000000000000000000000000000000000000000000000000000000081565b6040516020016112339061280e565b6040516020818303038152906040528051906020012061125281611c66565b600060026000858152602001908152602001600020905082600281111561127c5761127b612cdb565b5b8160050160009054906101000a900460ff1660028111156112a05761129f612cdb565b5b14156112d8576040517fa05e34ba00000000000000000000000000000000000000000000000000000000815260040160405180910390fd5b828160050160006101000a81548160ff021916908360028111156112ff576112fe612cdb565b5b0217905550837fdf37221aaffab5daec18329c74e9de71f26727289dfefd6e144987965be79ef3846040516113349190612918565b60405180910390a250505050565b61134b826103d6565b61135481611c66565b61135e8383611d62565b505050565b604051602001611372906127bf565b6040516020818303038152906040528051906020012081565b60405160200161139a9061280e565b6040516020818303038152906040528051906020012081565b6000600260008481526020019081526020016000209050600081600001541415611409576040517fb70c1fec00000000000000000000000000000000000000000000000000000000815260040160405180910390fd5b3373ffffffffffffffffffffffffffffffffffffffff168160010160000160009054906101000a900473ffffffffffffffffffffffffffffffffffffffff1673ffffffffffffffffffffffffffffffffffffffff16141580156114bf57503373ffffffffffffffffffffffffffffffffffffffff168160030160000160009054906101000a900473ffffffffffffffffffffffffffffffffffffffff1673ffffffffffffffffffffffffffffffffffffffff1614155b156114f6576040517f1f42735400000000000000000000000000000000000000000000000000000000815260040160405180910390fd5b6000600281111561150a57611509612cdb565b5b8160050160009054906101000a900460ff16600281111561152e5761152d612cdb565b5b14611565576040517fa05e34ba00000000000000000000000000000000000000000000000000000000815260040160405180910390fd5b3373ffffffffffffffffffffffffffffffffffffffff168160010160000160009054906101000a900473ffffffffffffffffffffffffffffffffffffffff1673ffffffffffffffffffffffffffffffffffffffff1614156115d2576115cd8160010183611faf565b6115e0565b6115df8160030183611faf565b5b3373ffffffffffffffffffffffffffffffffffffffff16837f2f63308b073d0d25029a549b999d196c6bbc8b3bdb3b694d879a74d070ddbe9a60405160405180910390a3505050565b8073ffffffffffffffffffffffffffffffffffffffff168273ffffffffffffffffffffffffffffffffffffffff16141561166257600080fd5b6000808273ffffffffffffffffffffffffffffffffffffffff168473ffffffffffffffffffffffffffffffffffffffff161061169f5782846116a2565b83835b91509150600073ffffffffffffffffffffffffffffffffffffffff168273ffffffffffffffffffffffffffffffffffffffff1614156116e057600080fd5b6000600160008473ffffffffffffffffffffffffffffffffffffffff1673ffffffffffffffffffffffffffffffffffffffff16815260200190815260200160002060008373ffffffffffffffffffffffffffffffffffffffff1673ffffffffffffffffffffffffffffffffffffffff168152602001908152602001600020541461176957600080fd5b60006040518060a001604052808473ffffffffffffffffffffffffffffffffffffffff168152602001600015158152602001600015158152602001600060038111156117b8576117b7612cdb565b5b81526020016000801b815250905060006040518060a001604052808473ffffffffffffffffffffffffffffffffffffffff1681526020016000151581526020016000151581526020016000600381111561181557611814612cdb565b5b81526020016000801b81525090506003600081548092919061183690612c34565b91905055506040518060a0016040528060035481526020018381526020018281526020016000600281111561186e5761186d612cdb565b5b815260200160008152506002600060035481526020019081526020016000206000820151816000015560208201518160010160008201518160000160006101000a81548173ffffffffffffffffffffffffffffffffffffffff021916908373ffffffffffffffffffffffffffffffffffffffff16021790555060208201518160000160146101000a81548160ff02191690831515021790555060408201518160000160156101000a81548160ff02191690831515021790555060608201518160000160166101000a81548160ff0219169083600381111561195257611951612cdb565b5b021790555060808201518160010155505060408201518160030160008201518160000160006101000a81548173ffffffffffffffffffffffffffffffffffffffff021916908373ffffffffffffffffffffffffffffffffffffffff16021790555060208201518160000160146101000a81548160ff02191690831515021790555060408201518160000160156101000a81548160ff02191690831515021790555060608201518160000160166101000a81548160ff02191690836003811115611a1e57611a1d612cdb565b5b021790555060808201518160010155505060608201518160050160006101000a81548160ff02191690836002811115611a5a57611a59612cdb565b5b021790555060808201518160060155905050600354600160008673ffffffffffffffffffffffffffffffffffffffff1673ffffffffffffffffffffffffffffffffffffffff16815260200190815260200160002060008573ffffffffffffffffffffffffffffffffffffffff1673ffffffffffffffffffffffffffffffffffffffff16815260200190815260200160002081905550600354600160008573ffffffffffffffffffffffffffffffffffffffff1673ffffffffffffffffffffffffffffffffffffffff16815260200190815260200160002060008673ffffffffffffffffffffffffffffffffffffffff1673ffffffffffffffffffffffffffffffffffffffff168152602001908152602001600020819055508273ffffffffffffffffffffffffffffffffffffffff168473ffffffffffffffffffffffffffffffffffffffff166003547f04030770e813dd055e97aa89673831d9b864cb7195e6f9b18b9520645a9da59660405160405180910390a4505050505050565b6001602052816000526040600020602052806000526040600020600091509150505481565b60007f01ffc9a7000000000000000000000000000000000000000000000000000000007bffffffffffffffffffffffffffffffffffffffffffffffffffffffff1916827bffffffffffffffffffffffffffffffffffffffffffffffffffffffff1916149050919050565b611c7781611c72611d5a565b612022565b50565b611c848282610e4a565b611d5657600160008084815260200190815260200160002060000160008373ffffffffffffffffffffffffffffffffffffffff1673ffffffffffffffffffffffffffffffffffffffff16815260200190815260200160002060006101000a81548160ff021916908315150217905550611cfb611d5a565b73ffffffffffffffffffffffffffffffffffffffff168173ffffffffffffffffffffffffffffffffffffffff16837f2f8788117e7eff1d82e926ec794901d17c78024a50270940304540a733656f0d60405160405180910390a45b5050565b600033905090565b611d6c8282610e4a565b15611e3f57600080600084815260200190815260200160002060000160008373ffffffffffffffffffffffffffffffffffffffff1673ffffffffffffffffffffffffffffffffffffffff16815260200190815260200160002060006101000a81548160ff021916908315150217905550611de4611d5a565b73ffffffffffffffffffffffffffffffffffffffff168173ffffffffffffffffffffffffffffffffffffffff16837ff6391f5c32d9c69d2a47ea670b442974b53935d1edc7fd64eb21e047a839171b60405160405180910390a45b5050565b60008160000160146101000a81548160ff02191690831515021790555060008160000160156101000a81548160ff02191690831515021790555060008160000160166101000a81548160ff02191690836003811115611ea557611ea4612cdb565b5b02179055506000801b816001018190555050565b8260000160159054906101000a900460ff1615611f02576040517fa89ac15100000000000000000000000000000000000000000000000000000000815260040160405180910390fd5b82600101548360000160009054906101000a900473ffffffffffffffffffffffffffffffffffffffff168383604051602001611f409392919061283e565b6040516020818303038152906040528051906020012014611f8d576040517f0af806e000000000000000000000000000000000000000000000000000000000815260040160405180910390fd5b60018360000160156101000a81548160ff021916908315150217905550505050565b8160000160149054906101000a900460ff1615611ff8576040517ffc507a3100000000000000000000000000000000000000000000000000000000815260040160405180910390fd5b80826001018190555060018260000160146101000a81548160ff0219169083151502179055505050565b61202c8282610e4a565b6120bb576120518173ffffffffffffffffffffffffffffffffffffffff1660146120bf565b61205f8360001c60206120bf565b6040516020016120709291906127d4565b6040516020818303038152906040526040517f08c379a00000000000000000000000000000000000000000000000000000000081526004016120b29190612933565b60405180910390fd5b5050565b6060600060028360026120d29190612aa3565b6120dc9190612a4d565b67ffffffffffffffff8111156120f5576120f4612d39565b5b6040519080825280601f01601f1916602001820160405280156121275781602001600182028036833780820191505090505b5090507f30000000000000000000000000000000000000000000000000000000000000008160008151811061215f5761215e612d0a565b5b60200101907effffffffffffffffffffffffffffffffffffffffffffffffffffffffffffff1916908160001a9053507f7800000000000000000000000000000000000000000000000000000000000000816001815181106121c3576121c2612d0a565b5b60200101907effffffffffffffffffffffffffffffffffffffffffffffffffffffffffffff1916908160001a905350600060018460026122039190612aa3565b61220d9190612a4d565b90505b60018111156122ad577f3031323334353637383961626364656600000000000000000000000000000000600f86166010811061224f5761224e612d0a565b5b1a60f81b82828151811061226657612265612d0a565b5b60200101907effffffffffffffffffffffffffffffffffffffffffffffffffffffffffffff1916908160001a905350600485901c9450806122a690612c0a565b9050612210565b50600084146122f1576040517f08c379a00000000000000000000000000000000000000000000000000000000081526004016122e890612955565b60405180910390fd5b8091505092915050565b60008135905061230a81612eeb565b92915050565b60008135905061231f81612f02565b92915050565b60008135905061233481612f19565b92915050565b60008135905061234981612f30565b92915050565b60008135905061235e81612f40565b92915050565b60008135905061237381612f50565b92915050565b600080604083850312156123905761238f612d68565b5b600061239e858286016122fb565b92505060206123af858286016122fb565b9150509250929050565b6000602082840312156123cf576123ce612d68565b5b60006123dd84828501612310565b91505092915050565b600080604083850312156123fd576123fc612d68565b5b600061240b85828601612310565b925050602061241c858286016122fb565b9150509250929050565b60006020828403121561243c5761243b612d68565b5b600061244a84828501612325565b91505092915050565b60006020828403121561246957612468612d68565b5b600061247784828501612364565b91505092915050565b6000806040838503121561249757612496612d68565b5b60006124a585828601612364565b92505060206124b685828601612310565b9150509250929050565b6000806000606084860312156124d9576124d8612d68565b5b60006124e786828701612364565b93505060206124f88682870161233a565b925050604061250986828701612310565b9150509250925092565b6000806040838503121561252a57612529612d68565b5b600061253885828601612364565b92505060206125498582860161234f565b9150509250929050565b61255c81612afd565b82525050565b61256b81612afd565b82525050565b61257a81612b0f565b82525050565b61258981612b0f565b82525050565b61259881612b1b565b82525050565b6125a781612b1b565b82525050565b6125b681612ba1565b82525050565b6125c581612ba1565b82525050565b6125d481612bb3565b82525050565b6125e381612bc5565b82525050565b60006125f482612a26565b6125fe8185612a31565b935061260e818560208601612bd7565b61261781612d6d565b840191505092915050565b600061262d82612a26565b6126378185612a42565b9350612647818560208601612bd7565b80840191505092915050565b6000612660602083612a31565b915061266b82612d7e565b602082019050919050565b6000612683601183612a31565b915061268e82612da7565b602082019050919050565b60006126a6600a83612a42565b91506126b182612dd0565b600a82019050919050565b60006126c9601783612a42565b91506126d482612df9565b601782019050919050565b60006126ec601183612a42565b91506126f782612e22565b601182019050919050565b600061270f602f83612a31565b915061271a82612e4b565b604082019050919050565b6000612732601083612a42565b915061273d82612e9a565b601082019050919050565b60a08201600082015161275e6000850182612553565b5060208201516127716020850182612571565b5060408201516127846040850182612571565b50606082015161279760608501826125ad565b5060808201516127aa608085018261258f565b50505050565b6127b981612b97565b82525050565b60006127ca82612699565b9150819050919050565b60006127df826126bc565b91506127eb8285612622565b91506127f6826126df565b91506128028284612622565b91508190509392505050565b600061281982612725565b9150819050919050565b60006020820190506128386000830184612562565b92915050565b60006060820190506128536000830186612562565b61286060208301856125bc565b61286d604083018461259e565b949350505050565b600060408201905061288a6000830185612562565b61289760208301846125da565b9392505050565b60006040820190506128b36000830185612562565b6128c060208301846127b0565b9392505050565b60006020820190506128dc6000830184612580565b92915050565b60006020820190506128f7600083018461259e565b92915050565b600060208201905061291260008301846125bc565b92915050565b600060208201905061292d60008301846125cb565b92915050565b6000602082019050818103600083015261294d81846125e9565b905092915050565b6000602082019050818103600083015261296e81612653565b9050919050565b6000602082019050818103600083015261298e81612676565b9050919050565b600060208201905081810360008301526129ae81612702565b9050919050565b60006020820190506129ca60008301846127b0565b92915050565b60006101a0820190506129e660008301886127b0565b6129f36020830187612748565b612a0060c0830186612748565b612a0e6101608301856125cb565b612a1c6101808301846127b0565b9695505050505050565b600081519050919050565b600082825260208201905092915050565b600081905092915050565b6000612a5882612b97565b9150612a6383612b97565b9250827fffffffffffffffffffffffffffffffffffffffffffffffffffffffffffffffff03821115612a9857612a97612cac565b5b828201905092915050565b6000612aae82612b97565b9150612ab983612b97565b9250817fffffffffffffffffffffffffffffffffffffffffffffffffffffffffffffffff0483118215151615612af257612af1612cac565b5b828202905092915050565b6000612b0882612b77565b9050919050565b60008115159050919050565b6000819050919050565b60007fffffffff0000000000000000000000000000000000000000000000000000000082169050919050565b6000819050612b5f82612ec3565b919050565b6000819050612b7282612ed7565b919050565b600073ffffffffffffffffffffffffffffffffffffffff82169050919050565b6000819050919050565b6000612bac82612b51565b9050919050565b6000612bbe82612b64565b9050919050565b6000612bd082612b97565b9050919050565b60005b83811015612bf5578082015181840152602081019050612bda565b83811115612c04576000848401525b50505050565b6000612c1582612b97565b91506000821415612c2957612c28612cac565b5b600182039050919050565b6000612c3f82612b97565b91507fffffffffffffffffffffffffffffffffffffffffffffffffffffffffffffffff821415612c7257612c71612cac565b5b600182019050919050565b7f4e487b7100000000000000000000000000000000000000000000000000000000600052600160045260246000fd5b7f4e487b7100000000000000000000000000000000000000000000000000000000600052601160045260246000fd5b7f4e487b7100000000000000000000000000000000000000000000000000000000600052602160045260246000fd5b7f4e487b7100000000000000000000000000000000000000000000000000000000600052603260045260246000fd5b7f4e487b7100000000000000000000000000000000000000000000000000000000600052604160045260246000fd5b600080fd5b6000601f19601f8301169050919050565b7f537472696e67733a20686578206c656e67746820696e73756666696369656e74600082015250565b7f43686f69636520696e63636f7265637421000000000000000000000000000000600082015250565b7f4f574e45525f524f4c4500000000000000000000000000000000000000000000600082015250565b7f416363657373436f6e74726f6c3a206163636f756e7420000000000000000000600082015250565b7f206973206d697373696e6720726f6c6520000000000000000000000000000000600082015250565b7f416363657373436f6e74726f6c3a2063616e206f6e6c792072656e6f756e636560008201527f20726f6c657320666f722073656c660000000000000000000000000000000000602082015250565b7f4449535452494255544f525f524f4c4500000000000000000000000000000000600082015250565b60048110612ed457612ed3612cdb565b5b50565b60038110612ee857612ee7612cdb565b5b50565b612ef481612afd565b8114612eff57600080fd5b50565b612f0b81612b1b565b8114612f1657600080fd5b50565b612f2281612b25565b8114612f2d57600080fd5b50565b60048110612f3d57600080fd5b50565b60038110612f4d57600080fd5b50565b612f5981612b97565b8114612f6457600080fd5b5056fea2646970667358221220649b1753500c696ff80d5124b2468fe78b30807b8d580fb7e75a6edec9d42b5e64736f6c63430008070033",
  "linkReferences": {},
  "deployedLinkReferences": {}
}