{
  "_format": "hh-sol-artifact-1",
  "contractName": "RockPaperScissors",
  "sourceName": "contracts/RockPaperScissors.sol",
  "abi": [
    {
      "inputs": [
        {
          "internalType": "address",
          "name": "distributor",
          "type": "address"
        }
      ],
      "stateMutability": "nonpayable",
      "type": "constructor"
    },
    {
      "anonymous": false,
      "inputs": [
        {
          "indexed": true,
          "internalType": "uint256",
          "name": "id",
          "type": "uint256"
        },
        {
          "indexed": false,
          "internalType": "address",
          "name": "player",
          "type": "address"
        }
      ],
      "name": "Commit",
      "type": "event"
    },
    {
      "anonymous": false,
      "inputs": [
        {
          "indexed": true,
          "internalType": "uint256",
          "name": "id",
          "type": "uint256"
        },
        {
          "indexed": false,
          "internalType": "enum BaseOwnerFunctional.Stage",
          "name": "stage",
          "type": "uint8"
        }
      ],
      "name": "Distributed",
      "type": "event"
    },
    {
      "anonymous": false,
      "inputs": [
        {
          "indexed": false,
          "internalType": "address",
          "name": "winner",
          "type": "address"
        }
      ],
      "name": "GameResult",
      "type": "event"
    },
    {
      "anonymous": false,
      "inputs": [
        {
          "indexed": true,
          "internalType": "uint256",
          "name": "id",
          "type": "uint256"
        },
        {
          "indexed": false,
          "internalType": "address",
          "name": "player",
          "type": "address"
        },
        {
          "indexed": false,
          "internalType": "enum BaseOwnerFunctional.Choice",
          "name": "choice",
          "type": "uint8"
        }
      ],
      "name": "Reveal",
      "type": "event"
    },
    {
      "anonymous": false,
      "inputs": [
        {
          "indexed": true,
          "internalType": "bytes32",
          "name": "role",
          "type": "bytes32"
        },
        {
          "indexed": true,
          "internalType": "bytes32",
          "name": "previousAdminRole",
          "type": "bytes32"
        },
        {
          "indexed": true,
          "internalType": "bytes32",
          "name": "newAdminRole",
          "type": "bytes32"
        }
      ],
      "name": "RoleAdminChanged",
      "type": "event"
    },
    {
      "anonymous": false,
      "inputs": [
        {
          "indexed": true,
          "internalType": "bytes32",
          "name": "role",
          "type": "bytes32"
        },
        {
          "indexed": true,
          "internalType": "address",
          "name": "account",
          "type": "address"
        },
        {
          "indexed": true,
          "internalType": "address",
          "name": "sender",
          "type": "address"
        }
      ],
      "name": "RoleGranted",
      "type": "event"
    },
    {
      "anonymous": false,
      "inputs": [
        {
          "indexed": true,
          "internalType": "bytes32",
          "name": "role",
          "type": "bytes32"
        },
        {
          "indexed": true,
          "internalType": "address",
          "name": "account",
          "type": "address"
        },
        {
          "indexed": true,
          "internalType": "address",
          "name": "sender",
          "type": "address"
        }
      ],
      "name": "RoleRevoked",
      "type": "event"
    },
    {
      "anonymous": false,
      "inputs": [
        {
          "indexed": false,
          "internalType": "uint256",
          "name": "id",
          "type": "uint256"
        },
        {
          "indexed": false,
          "internalType": "address",
          "name": "firstPlayer",
          "type": "address"
        },
        {
          "indexed": false,
          "internalType": "address",
          "name": "secondPlayer",
          "type": "address"
        },
        {
          "indexed": false,
          "internalType": "uint256",
          "name": "blockNumber",
          "type": "uint256"
        },
        {
          "indexed": false,
          "internalType": "uint256",
          "name": "timestamp",
          "type": "uint256"
        }
      ],
      "name": "RoomCreated",
      "type": "event"
    },
    {
      "anonymous": false,
      "inputs": [
        {
          "indexed": true,
          "internalType": "uint256",
          "name": "id",
          "type": "uint256"
        },
        {
          "indexed": false,
          "internalType": "enum BaseOwnerFunctional.Stage",
          "name": "stage",
          "type": "uint8"
        }
      ],
      "name": "StageChanged",
      "type": "event"
    },
    {
      "inputs": [],
      "name": "ADMIN_ROLE",
      "outputs": [
        {
          "internalType": "bytes32",
          "name": "",
          "type": "bytes32"
        }
      ],
      "stateMutability": "view",
      "type": "function"
    },
    {
      "inputs": [],
      "name": "DEFAULT_ADMIN_ROLE",
      "outputs": [
        {
          "internalType": "bytes32",
          "name": "",
          "type": "bytes32"
        }
      ],
      "stateMutability": "view",
      "type": "function"
    },
    {
      "inputs": [],
      "name": "DISTRIBUTOR_ROLE",
      "outputs": [
        {
          "internalType": "bytes32",
          "name": "",
          "type": "bytes32"
        }
      ],
      "stateMutability": "view",
      "type": "function"
    },
    {
      "inputs": [],
      "name": "OWNER_ROLE",
      "outputs": [
        {
          "internalType": "bytes32",
          "name": "",
          "type": "bytes32"
        }
      ],
      "stateMutability": "view",
      "type": "function"
    },
    {
      "inputs": [
        {
          "internalType": "uint256",
          "name": "roomId",
          "type": "uint256"
        },
        {
          "internalType": "enum BaseOwnerFunctional.Stage",
          "name": "stage",
          "type": "uint8"
        }
      ],
      "name": "changeStage",
      "outputs": [],
      "stateMutability": "nonpayable",
      "type": "function"
    },
    {
      "inputs": [
        {
          "internalType": "uint256",
          "name": "roomId",
          "type": "uint256"
        },
        {
          "internalType": "bytes32",
          "name": "commitment",
          "type": "bytes32"
        }
      ],
      "name": "commit",
      "outputs": [],
      "stateMutability": "nonpayable",
      "type": "function"
    },
    {
      "inputs": [
        {
          "internalType": "address",
          "name": "firstPlayerAddress",
          "type": "address"
        },
        {
          "internalType": "address",
          "name": "secondPlayerAddress",
          "type": "address"
        }
      ],
      "name": "createRoom",
      "outputs": [],
      "stateMutability": "nonpayable",
      "type": "function"
    },
    {
      "inputs": [
        {
          "internalType": "uint256",
          "name": "roomId",
          "type": "uint256"
        }
      ],
      "name": "distribute",
      "outputs": [],
      "stateMutability": "nonpayable",
      "type": "function"
    },
    {
      "inputs": [
        {
          "internalType": "bytes32",
          "name": "role",
          "type": "bytes32"
        }
      ],
      "name": "getRoleAdmin",
      "outputs": [
        {
          "internalType": "bytes32",
          "name": "",
          "type": "bytes32"
        }
      ],
      "stateMutability": "view",
      "type": "function"
    },
    {
      "inputs": [
        {
          "internalType": "uint256",
          "name": "_id",
          "type": "uint256"
        }
      ],
      "name": "getRoomById",
      "outputs": [
        {
          "components": [
            {
              "internalType": "uint256",
              "name": "id",
              "type": "uint256"
            },
            {
              "components": [
                {
                  "internalType": "address",
                  "name": "playerAddress",
                  "type": "address"
                },
                {
                  "internalType": "bool",
                  "name": "commited",
                  "type": "bool"
                },
                {
                  "internalType": "bool",
                  "name": "revealed",
                  "type": "bool"
                },
                {
                  "internalType": "enum BaseOwnerFunctional.Choice",
                  "name": "choice",
                  "type": "uint8"
                },
                {
                  "internalType": "bytes32",
                  "name": "commitment",
                  "type": "bytes32"
                }
              ],
              "internalType": "struct BaseOwnerFunctional.Player",
              "name": "firstPlayer",
              "type": "tuple"
            },
            {
              "components": [
                {
                  "internalType": "address",
                  "name": "playerAddress",
                  "type": "address"
                },
                {
                  "internalType": "bool",
                  "name": "commited",
                  "type": "bool"
                },
                {
                  "internalType": "bool",
                  "name": "revealed",
                  "type": "bool"
                },
                {
                  "internalType": "enum BaseOwnerFunctional.Choice",
                  "name": "choice",
                  "type": "uint8"
                },
                {
                  "internalType": "bytes32",
                  "name": "commitment",
                  "type": "bytes32"
                }
              ],
              "internalType": "struct BaseOwnerFunctional.Player",
              "name": "secondPlayer",
              "type": "tuple"
            },
            {
              "internalType": "enum BaseOwnerFunctional.Stage",
              "name": "stage",
              "type": "uint8"
            }
          ],
          "internalType": "struct BaseOwnerFunctional.Room",
          "name": "",
          "type": "tuple"
        }
      ],
      "stateMutability": "view",
      "type": "function"
    },
    {
      "inputs": [],
      "name": "getRoomCount",
      "outputs": [
        {
          "internalType": "uint256",
          "name": "",
          "type": "uint256"
        }
      ],
      "stateMutability": "view",
      "type": "function"
    },
    {
      "inputs": [
        {
          "internalType": "bytes32",
          "name": "role",
          "type": "bytes32"
        },
        {
          "internalType": "address",
          "name": "account",
          "type": "address"
        }
      ],
      "name": "grantRole",
      "outputs": [],
      "stateMutability": "nonpayable",
      "type": "function"
    },
    {
      "inputs": [
        {
          "internalType": "bytes32",
          "name": "role",
          "type": "bytes32"
        },
        {
          "internalType": "address",
          "name": "account",
          "type": "address"
        }
      ],
      "name": "hasRole",
      "outputs": [
        {
          "internalType": "bool",
          "name": "",
          "type": "bool"
        }
      ],
      "stateMutability": "view",
      "type": "function"
    },
    {
      "inputs": [
        {
          "internalType": "bytes32",
          "name": "role",
          "type": "bytes32"
        },
        {
          "internalType": "address",
          "name": "account",
          "type": "address"
        }
      ],
      "name": "renounceRole",
      "outputs": [],
      "stateMutability": "nonpayable",
      "type": "function"
    },
    {
      "inputs": [
        {
          "internalType": "uint256",
          "name": "roomId",
          "type": "uint256"
        },
        {
          "internalType": "enum BaseOwnerFunctional.Choice",
          "name": "choice",
          "type": "uint8"
        },
        {
          "internalType": "bytes32",
          "name": "key",
          "type": "bytes32"
        }
      ],
      "name": "reveal",
      "outputs": [],
      "stateMutability": "nonpayable",
      "type": "function"
    },
    {
      "inputs": [
        {
          "internalType": "bytes32",
          "name": "role",
          "type": "bytes32"
        },
        {
          "internalType": "address",
          "name": "account",
          "type": "address"
        }
      ],
      "name": "revokeRole",
      "outputs": [],
      "stateMutability": "nonpayable",
      "type": "function"
    },
    {
      "inputs": [
        {
          "internalType": "uint256",
          "name": "",
          "type": "uint256"
        }
      ],
      "name": "rooms",
      "outputs": [
        {
          "internalType": "uint256",
          "name": "id",
          "type": "uint256"
        },
        {
          "components": [
            {
              "internalType": "address",
              "name": "playerAddress",
              "type": "address"
            },
            {
              "internalType": "bool",
              "name": "commited",
              "type": "bool"
            },
            {
              "internalType": "bool",
              "name": "revealed",
              "type": "bool"
            },
            {
              "internalType": "enum BaseOwnerFunctional.Choice",
              "name": "choice",
              "type": "uint8"
            },
            {
              "internalType": "bytes32",
              "name": "commitment",
              "type": "bytes32"
            }
          ],
          "internalType": "struct BaseOwnerFunctional.Player",
          "name": "firstPlayer",
          "type": "tuple"
        },
        {
          "components": [
            {
              "internalType": "address",
              "name": "playerAddress",
              "type": "address"
            },
            {
              "internalType": "bool",
              "name": "commited",
              "type": "bool"
            },
            {
              "internalType": "bool",
              "name": "revealed",
              "type": "bool"
            },
            {
              "internalType": "enum BaseOwnerFunctional.Choice",
              "name": "choice",
              "type": "uint8"
            },
            {
              "internalType": "bytes32",
              "name": "commitment",
              "type": "bytes32"
            }
          ],
          "internalType": "struct BaseOwnerFunctional.Player",
          "name": "secondPlayer",
          "type": "tuple"
        },
        {
          "internalType": "enum BaseOwnerFunctional.Stage",
          "name": "stage",
          "type": "uint8"
        }
      ],
      "stateMutability": "view",
      "type": "function"
    },
    {
      "inputs": [
        {
          "internalType": "bytes32",
          "name": "role",
          "type": "bytes32"
        },
        {
          "internalType": "bytes32",
          "name": "adminRole",
          "type": "bytes32"
        }
      ],
      "name": "setRoleAdmin",
      "outputs": [],
      "stateMutability": "nonpayable",
      "type": "function"
    },
    {
      "inputs": [
        {
          "internalType": "bytes4",
          "name": "interfaceId",
          "type": "bytes4"
        }
      ],
      "name": "supportsInterface",
      "outputs": [
        {
          "internalType": "bool",
          "name": "",
          "type": "bool"
        }
      ],
      "stateMutability": "view",
      "type": "function"
    }
  ],
  "bytecode": "0x60806040523480156200001157600080fd5b5060405162004f6d38038062004f6d83398181016040528101906200003791906200041c565b80620000966040516020016200004d90620004d4565b604051602081830303815290604052805190602001206040516020016200007490620004d4565b604051602081830303815290604052805190602001206200022060201b60201c565b620000f4604051602001620000ab90620004bd565b60405160208183030381529060405280519060200120604051602001620000d290620004d4565b604051602081830303815290604052805190602001206200022060201b60201c565b620001526040516020016200010990620004eb565b604051602081830303815290604052805190602001206040516020016200013090620004bd565b604051602081830303815290604052805190602001206200022060201b60201c565b620001996040516020016200016790620004d4565b604051602081830303815290604052805190602001206200018d6200028360201b60201c565b6200028b60201b60201c565b620001e0604051602001620001ae90620004bd565b60405160208183030381529060405280519060200120620001d46200028360201b60201c565b6200028b60201b60201c565b62000218604051602001620001f590620004eb565b60405160208183030381529060405280519060200120826200028b60201b60201c565b5050620005d6565b600062000233836200037c60201b60201c565b905081600080858152602001908152602001600020600101819055508181847fbd79b86ffe0ab8e8776151514217cd7cacd52c909f66475c3af44e129f0b00ff60405160405180910390a4505050565b600033905090565b6200029d82826200039b60201b60201c565b6200037857600160008084815260200190815260200160002060000160008373ffffffffffffffffffffffffffffffffffffffff1673ffffffffffffffffffffffffffffffffffffffff16815260200190815260200160002060006101000a81548160ff0219169083151502179055506200031d6200028360201b60201c565b73ffffffffffffffffffffffffffffffffffffffff168173ffffffffffffffffffffffffffffffffffffffff16837f2f8788117e7eff1d82e926ec794901d17c78024a50270940304540a733656f0d60405160405180910390a45b5050565b6000806000838152602001908152602001600020600101549050919050565b600080600084815260200190815260200160002060000160008373ffffffffffffffffffffffffffffffffffffffff1673ffffffffffffffffffffffffffffffffffffffff16815260200190815260200160002060009054906101000a900460ff16905092915050565b6000815190506200041681620005bc565b92915050565b6000602082840312156200042f57600080fd5b60006200043f8482850162000405565b91505092915050565b600062000457600a8362000502565b9150620004648262000541565b600a82019050919050565b60006200047e600a8362000502565b91506200048b826200056a565b600a82019050919050565b6000620004a560108362000502565b9150620004b28262000593565b601082019050919050565b6000620004ca8262000448565b9150819050919050565b6000620004e1826200046f565b9150819050919050565b6000620004f88262000496565b9150819050919050565b600081905092915050565b60006200051a8262000521565b9050919050565b600073ffffffffffffffffffffffffffffffffffffffff82169050919050565b7f41444d494e5f524f4c4500000000000000000000000000000000000000000000600082015250565b7f4f574e45525f524f4c4500000000000000000000000000000000000000000000600082015250565b7f4449535452494255544f525f524f4c4500000000000000000000000000000000600082015250565b620005c7816200050d565b8114620005d357600080fd5b50565b61498780620005e66000396000f3fe608060405234801561001057600080fd5b50600436106101215760003560e01c806391d14854116100ad578063e58378bb11610071578063e58378bb14610319578063eadddb3c14610337578063f0bd87cc14610355578063f2f0387714610373578063f9a5918f1461038f57610121565b806391d14854146102775780639a42f3aa146102a7578063a217fddf146102c3578063d4b4f34c146102e1578063d547741f146102fd57610121565b80632f2ff15d116100f45780632f2ff15d146101d55780633495655a146101f157806336568abe1461022157806375b238fc1461023d57806391c05b0b1461025b57610121565b806301ffc9a7146101265780631bae0ac8146101565780631e4e009114610189578063248a9ca3146101a5575b600080fd5b610140600480360381019061013b9190613a89565b6103ab565b60405161014d91906140e8565b60405180910390f35b610170600480360381019061016b9190613ab2565b610425565b6040516101809493929190614325565b60405180910390f35b6101a3600480360381019061019e9190613a4d565b6106b0565b005b6101bf60048036038101906101ba91906139e8565b6106ed565b6040516101cc9190614103565b60405180910390f35b6101ef60048036038101906101ea9190613a11565b61070c565b005b61020b60048036038101906102069190613ab2565b61072d565b604051610218919061429b565b60405180910390f35b61023b60048036038101906102369190613a11565b610a4d565b005b610245610ad0565b6040516102529190614103565b60405180910390f35b61027560048036038101906102709190613ab2565b610af8565b005b610291600480360381019061028c9190613a11565b6118b3565b60405161029e91906140e8565b60405180910390f35b6102c160048036038101906102bc9190613b17565b61191d565b005b6102cb612250565b6040516102d89190614103565b60405180910390f35b6102fb60048036038101906102f69190613b66565b612257565b005b61031760048036038101906103129190613a11565b6123fc565b005b61032161241d565b60405161032e9190614103565b60405180910390f35b61033f612445565b60405161034c91906142b7565b60405180910390f35b61035d61247e565b60405161036a9190614103565b60405180910390f35b61038d60048036038101906103889190613adb565b6124a6565b005b6103a960048036038101906103a491906139ac565b612c2c565b005b60007f7965db0b000000000000000000000000000000000000000000000000000000007bffffffffffffffffffffffffffffffffffffffffffffffffffffffff1916827bffffffffffffffffffffffffffffffffffffffffffffffffffffffff1916148061041e575061041d826130b8565b5b9050919050565b6002602052806000526040600020600091509050806000015490806001016040518060a00160405290816000820160009054906101000a900473ffffffffffffffffffffffffffffffffffffffff1673ffffffffffffffffffffffffffffffffffffffff1673ffffffffffffffffffffffffffffffffffffffff1681526020016000820160149054906101000a900460ff161515151581526020016000820160159054906101000a900460ff161515151581526020016000820160169054906101000a900460ff166003811115610525577f4e487b7100000000000000000000000000000000000000000000000000000000600052602160045260246000fd5b600381111561055d577f4e487b7100000000000000000000000000000000000000000000000000000000600052602160045260246000fd5b815260200160018201548152505090806003016040518060a00160405290816000820160009054906101000a900473ffffffffffffffffffffffffffffffffffffffff1673ffffffffffffffffffffffffffffffffffffffff1673ffffffffffffffffffffffffffffffffffffffff1681526020016000820160149054906101000a900460ff161515151581526020016000820160159054906101000a900460ff161515151581526020016000820160169054906101000a900460ff166003811115610652577f4e487b7100000000000000000000000000000000000000000000000000000000600052602160045260246000fd5b600381111561068a577f4e487b7100000000000000000000000000000000000000000000000000000000600052602160045260246000fd5b8152602001600182015481525050908060050160009054906101000a900460ff16905084565b6040516020016106bf90614009565b604051602081830303815290604052805190602001206106de81613122565b6106e88383613136565b505050565b6000806000838152602001908152602001600020600101549050919050565b610715826106ed565b61071e81613122565b6107288383613191565b505050565b61073561383e565b6002600083815260200190815260200160002060405180608001604052908160008201548152602001600182016040518060a00160405290816000820160009054906101000a900473ffffffffffffffffffffffffffffffffffffffff1673ffffffffffffffffffffffffffffffffffffffff1673ffffffffffffffffffffffffffffffffffffffff1681526020016000820160149054906101000a900460ff161515151581526020016000820160159054906101000a900460ff161515151581526020016000820160169054906101000a900460ff166003811115610844577f4e487b7100000000000000000000000000000000000000000000000000000000600052602160045260246000fd5b600381111561087c577f4e487b7100000000000000000000000000000000000000000000000000000000600052602160045260246000fd5b81526020016001820154815250508152602001600382016040518060a00160405290816000820160009054906101000a900473ffffffffffffffffffffffffffffffffffffffff1673ffffffffffffffffffffffffffffffffffffffff1673ffffffffffffffffffffffffffffffffffffffff1681526020016000820160149054906101000a900460ff161515151581526020016000820160159054906101000a900460ff161515151581526020016000820160169054906101000a900460ff166003811115610975577f4e487b7100000000000000000000000000000000000000000000000000000000600052602160045260246000fd5b60038111156109ad577f4e487b7100000000000000000000000000000000000000000000000000000000600052602160045260246000fd5b815260200160018201548152505081526020016005820160009054906101000a900460ff166002811115610a0a577f4e487b7100000000000000000000000000000000000000000000000000000000600052602160045260246000fd5b6002811115610a42577f4e487b7100000000000000000000000000000000000000000000000000000000600052602160045260246000fd5b815250509050919050565b610a55613271565b73ffffffffffffffffffffffffffffffffffffffff168173ffffffffffffffffffffffffffffffffffffffff1614610ac2576040517f08c379a0000000000000000000000000000000000000000000000000000000008152600401610ab99061427b565b60405180910390fd5b610acc8282613279565b5050565b604051602001610adf90613ff4565b6040516020818303038152906040528051906020012081565b604051602001610b0790614058565b60405160208183030381529060405280519060200120610b2681613122565b60006002600084815260200190815260200160002060405180608001604052908160008201548152602001600182016040518060a00160405290816000820160009054906101000a900473ffffffffffffffffffffffffffffffffffffffff1673ffffffffffffffffffffffffffffffffffffffff1673ffffffffffffffffffffffffffffffffffffffff1681526020016000820160149054906101000a900460ff161515151581526020016000820160159054906101000a900460ff161515151581526020016000820160169054906101000a900460ff166003811115610c37577f4e487b7100000000000000000000000000000000000000000000000000000000600052602160045260246000fd5b6003811115610c6f577f4e487b7100000000000000000000000000000000000000000000000000000000600052602160045260246000fd5b81526020016001820154815250508152602001600382016040518060a00160405290816000820160009054906101000a900473ffffffffffffffffffffffffffffffffffffffff1673ffffffffffffffffffffffffffffffffffffffff1673ffffffffffffffffffffffffffffffffffffffff1681526020016000820160149054906101000a900460ff161515151581526020016000820160159054906101000a900460ff161515151581526020016000820160169054906101000a900460ff166003811115610d68577f4e487b7100000000000000000000000000000000000000000000000000000000600052602160045260246000fd5b6003811115610da0577f4e487b7100000000000000000000000000000000000000000000000000000000600052602160045260246000fd5b815260200160018201548152505081526020016005820160009054906101000a900460ff166002811115610dfd577f4e487b7100000000000000000000000000000000000000000000000000000000600052602160045260246000fd5b6002811115610e35577f4e487b7100000000000000000000000000000000000000000000000000000000600052602160045260246000fd5b81525050905060008160200151905060008260400151905080606001516003811115610e8a577f4e487b7100000000000000000000000000000000000000000000000000000000600052602160045260246000fd5b82606001516003811115610ec7577f4e487b7100000000000000000000000000000000000000000000000000000000600052602160045260246000fd5b1415610f0a577fafb0c2a937cb436c72c62c1b86dd4f7854b2204064a8c13b7b0290c281d219c06000604051610efd919061406d565b60405180910390a16118ac565b60016003811115610f44577f4e487b7100000000000000000000000000000000000000000000000000000000600052602160045260246000fd5b82606001516003811115610f81577f4e487b7100000000000000000000000000000000000000000000000000000000600052602160045260246000fd5b141561122b5760026003811115610fc1577f4e487b7100000000000000000000000000000000000000000000000000000000600052602160045260246000fd5b81606001516003811115610ffe577f4e487b7100000000000000000000000000000000000000000000000000000000600052602160045260246000fd5b148061107d575060038081111561103e577f4e487b7100000000000000000000000000000000000000000000000000000000600052602160045260246000fd5b8160600151600381111561107b577f4e487b7100000000000000000000000000000000000000000000000000000000600052602160045260246000fd5b145b6110b0577f4e487b7100000000000000000000000000000000000000000000000000000000600052600160045260246000fd5b600260038111156110ea577f4e487b7100000000000000000000000000000000000000000000000000000000600052602160045260246000fd5b81606001516003811115611127577f4e487b7100000000000000000000000000000000000000000000000000000000600052602160045260246000fd5b141561116d577fafb0c2a937cb436c72c62c1b86dd4f7854b2204064a8c13b7b0290c281d219c08160000151604051611160919061406d565b60405180910390a1611226565b6003808111156111a6577f4e487b7100000000000000000000000000000000000000000000000000000000600052602160045260246000fd5b816060015160038111156111e3577f4e487b7100000000000000000000000000000000000000000000000000000000600052602160045260246000fd5b1415611225577fafb0c2a937cb436c72c62c1b86dd4f7854b2204064a8c13b7b0290c281d219c0826000015160405161121c919061406d565b60405180910390a15b5b6118ab565b600380811115611264577f4e487b7100000000000000000000000000000000000000000000000000000000600052602160045260246000fd5b826060015160038111156112a1577f4e487b7100000000000000000000000000000000000000000000000000000000600052602160045260246000fd5b141561154d57600260038111156112e1577f4e487b7100000000000000000000000000000000000000000000000000000000600052602160045260246000fd5b8160600151600381111561131e577f4e487b7100000000000000000000000000000000000000000000000000000000600052602160045260246000fd5b148061139e57506001600381111561135f577f4e487b7100000000000000000000000000000000000000000000000000000000600052602160045260246000fd5b8160600151600381111561139c577f4e487b7100000000000000000000000000000000000000000000000000000000600052602160045260246000fd5b145b6113d1577f4e487b7100000000000000000000000000000000000000000000000000000000600052600160045260246000fd5b6001600381111561140b577f4e487b7100000000000000000000000000000000000000000000000000000000600052602160045260246000fd5b81606001516003811115611448577f4e487b7100000000000000000000000000000000000000000000000000000000600052602160045260246000fd5b141561148e577fafb0c2a937cb436c72c62c1b86dd4f7854b2204064a8c13b7b0290c281d219c08160000151604051611481919061406d565b60405180910390a1611548565b600260038111156114c8577f4e487b7100000000000000000000000000000000000000000000000000000000600052602160045260246000fd5b81606001516003811115611505577f4e487b7100000000000000000000000000000000000000000000000000000000600052602160045260246000fd5b1415611547577fafb0c2a937cb436c72c62c1b86dd4f7854b2204064a8c13b7b0290c281d219c0826000015160405161153e919061406d565b60405180910390a15b5b6118aa565b60026003811115611587577f4e487b7100000000000000000000000000000000000000000000000000000000600052602160045260246000fd5b826060015160038111156115c4577f4e487b7100000000000000000000000000000000000000000000000000000000600052602160045260246000fd5b141561186e5760016003811115611604577f4e487b7100000000000000000000000000000000000000000000000000000000600052602160045260246000fd5b81606001516003811115611641577f4e487b7100000000000000000000000000000000000000000000000000000000600052602160045260246000fd5b14806116c05750600380811115611681577f4e487b7100000000000000000000000000000000000000000000000000000000600052602160045260246000fd5b816060015160038111156116be577f4e487b7100000000000000000000000000000000000000000000000000000000600052602160045260246000fd5b145b6116f3577f4e487b7100000000000000000000000000000000000000000000000000000000600052600160045260246000fd5b60038081111561172c577f4e487b7100000000000000000000000000000000000000000000000000000000600052602160045260246000fd5b81606001516003811115611769577f4e487b7100000000000000000000000000000000000000000000000000000000600052602160045260246000fd5b14156117af577fafb0c2a937cb436c72c62c1b86dd4f7854b2204064a8c13b7b0290c281d219c081600001516040516117a2919061406d565b60405180910390a1611869565b600160038111156117e9577f4e487b7100000000000000000000000000000000000000000000000000000000600052602160045260246000fd5b81606001516003811115611826577f4e487b7100000000000000000000000000000000000000000000000000000000600052602160045260246000fd5b1415611868577fafb0c2a937cb436c72c62c1b86dd4f7854b2204064a8c13b7b0290c281d219c0826000015160405161185f919061406d565b60405180910390a15b5b6118a9565b6040517f08c379a00000000000000000000000000000000000000000000000000000000081526004016118a0906141fb565b60405180910390fd5b5b5b5b5050505050565b600080600084815260200190815260200160002060000160008373ffffffffffffffffffffffffffffffffffffffff1673ffffffffffffffffffffffffffffffffffffffff16815260200190815260200160002060009054906101000a900460ff16905092915050565b60006002600085815260200190815260200160002060405180608001604052908160008201548152602001600182016040518060a00160405290816000820160009054906101000a900473ffffffffffffffffffffffffffffffffffffffff1673ffffffffffffffffffffffffffffffffffffffff1673ffffffffffffffffffffffffffffffffffffffff1681526020016000820160149054906101000a900460ff161515151581526020016000820160159054906101000a900460ff161515151581526020016000820160169054906101000a900460ff166003811115611a2e577f4e487b7100000000000000000000000000000000000000000000000000000000600052602160045260246000fd5b6003811115611a66577f4e487b7100000000000000000000000000000000000000000000000000000000600052602160045260246000fd5b81526020016001820154815250508152602001600382016040518060a00160405290816000820160009054906101000a900473ffffffffffffffffffffffffffffffffffffffff1673ffffffffffffffffffffffffffffffffffffffff1673ffffffffffffffffffffffffffffffffffffffff1681526020016000820160149054906101000a900460ff161515151581526020016000820160159054906101000a900460ff161515151581526020016000820160169054906101000a900460ff166003811115611b5f577f4e487b7100000000000000000000000000000000000000000000000000000000600052602160045260246000fd5b6003811115611b97577f4e487b7100000000000000000000000000000000000000000000000000000000600052602160045260246000fd5b815260200160018201548152505081526020016005820160009054906101000a900460ff166002811115611bf4577f4e487b7100000000000000000000000000000000000000000000000000000000600052602160045260246000fd5b6002811115611c2c577f4e487b7100000000000000000000000000000000000000000000000000000000600052602160045260246000fd5b81525050905060016002811115611c6c577f4e487b7100000000000000000000000000000000000000000000000000000000600052602160045260246000fd5b81606001516002811115611ca9577f4e487b7100000000000000000000000000000000000000000000000000000000600052602160045260246000fd5b14611ce9576040517f08c379a0000000000000000000000000000000000000000000000000000000008152600401611ce09061425b565b60405180910390fd5b3373ffffffffffffffffffffffffffffffffffffffff1681602001516000015173ffffffffffffffffffffffffffffffffffffffff161480611d5e57503373ffffffffffffffffffffffffffffffffffffffff1681604001516000015173ffffffffffffffffffffffffffffffffffffffff16145b611d9d576040517f08c379a0000000000000000000000000000000000000000000000000000000008152600401611d949061423b565b60405180910390fd5b60016003811115611dd7577f4e487b7100000000000000000000000000000000000000000000000000000000600052602160045260246000fd5b836003811115611e10577f4e487b7100000000000000000000000000000000000000000000000000000000600052602160045260246000fd5b1480611e8c575060026003811115611e51577f4e487b7100000000000000000000000000000000000000000000000000000000600052602160045260246000fd5b836003811115611e8a577f4e487b7100000000000000000000000000000000000000000000000000000000600052602160045260246000fd5b145b80611f065750600380811115611ecb577f4e487b7100000000000000000000000000000000000000000000000000000000600052602160045260246000fd5b836003811115611f04577f4e487b7100000000000000000000000000000000000000000000000000000000600052602160045260246000fd5b145b611f45576040517f08c379a0000000000000000000000000000000000000000000000000000000008152600401611f3c906141db565b60405180910390fd5b3373ffffffffffffffffffffffffffffffffffffffff1681602001516000015173ffffffffffffffffffffffffffffffffffffffff161415611f9d57611f908160200151848461335a565b8160200181905250611fb5565b611fac8160400151848461335a565b81604001819052505b80600260008681526020019081526020016000206000820151816000015560208201518160010160008201518160000160006101000a81548173ffffffffffffffffffffffffffffffffffffffff021916908373ffffffffffffffffffffffffffffffffffffffff16021790555060208201518160000160146101000a81548160ff02191690831515021790555060408201518160000160156101000a81548160ff02191690831515021790555060608201518160000160166101000a81548160ff021916908360038111156120b4577f4e487b7100000000000000000000000000000000000000000000000000000000600052602160045260246000fd5b021790555060808201518160010155505060408201518160030160008201518160000160006101000a81548173ffffffffffffffffffffffffffffffffffffffff021916908373ffffffffffffffffffffffffffffffffffffffff16021790555060208201518160000160146101000a81548160ff02191690831515021790555060408201518160000160156101000a81548160ff02191690831515021790555060608201518160000160166101000a81548160ff021916908360038111156121a6577f4e487b7100000000000000000000000000000000000000000000000000000000600052602160045260246000fd5b021790555060808201518160010155505060608201518160050160006101000a81548160ff02191690836002811115612208577f4e487b7100000000000000000000000000000000000000000000000000000000600052602160045260246000fd5b0217905550905050837fc68416cfb4fec2fce79abcfa27c33ba8c9a63168b3b70d1cd3449b4a973465a83385604051612242929190614088565b60405180910390a250505050565b6000801b81565b60405160200161226690614058565b6040516020818303038152906040528051906020012061228581613122565b8160028111156122be577f4e487b7100000000000000000000000000000000000000000000000000000000600052602160045260246000fd5b6002600085815260200190815260200160002060050160009054906101000a900460ff16600281111561231a577f4e487b7100000000000000000000000000000000000000000000000000000000600052602160045260246000fd5b141561235b576040517f08c379a0000000000000000000000000000000000000000000000000000000008152600401612352906141bb565b60405180910390fd5b816002600085815260200190815260200160002060050160006101000a81548160ff021916908360028111156123ba577f4e487b7100000000000000000000000000000000000000000000000000000000600052602160045260246000fd5b0217905550827fdf37221aaffab5daec18329c74e9de71f26727289dfefd6e144987965be79ef3836040516123ef919061411e565b60405180910390a2505050565b612405826106ed565b61240e81613122565b6124188383613279565b505050565b60405160200161242c90614009565b6040516020818303038152906040528051906020012081565b600060405160200161245690614009565b6040516020818303038152906040528051906020012061247581613122565b60015491505090565b60405160200161248d90614058565b6040516020818303038152906040528051906020012081565b60006002600084815260200190815260200160002060405180608001604052908160008201548152602001600182016040518060a00160405290816000820160009054906101000a900473ffffffffffffffffffffffffffffffffffffffff1673ffffffffffffffffffffffffffffffffffffffff1673ffffffffffffffffffffffffffffffffffffffff1681526020016000820160149054906101000a900460ff161515151581526020016000820160159054906101000a900460ff161515151581526020016000820160169054906101000a900460ff1660038111156125b7577f4e487b7100000000000000000000000000000000000000000000000000000000600052602160045260246000fd5b60038111156125ef577f4e487b7100000000000000000000000000000000000000000000000000000000600052602160045260246000fd5b81526020016001820154815250508152602001600382016040518060a00160405290816000820160009054906101000a900473ffffffffffffffffffffffffffffffffffffffff1673ffffffffffffffffffffffffffffffffffffffff1673ffffffffffffffffffffffffffffffffffffffff1681526020016000820160149054906101000a900460ff161515151581526020016000820160159054906101000a900460ff161515151581526020016000820160169054906101000a900460ff1660038111156126e8577f4e487b7100000000000000000000000000000000000000000000000000000000600052602160045260246000fd5b6003811115612720577f4e487b7100000000000000000000000000000000000000000000000000000000600052602160045260246000fd5b815260200160018201548152505081526020016005820160009054906101000a900460ff16600281111561277d577f4e487b7100000000000000000000000000000000000000000000000000000000600052602160045260246000fd5b60028111156127b5577f4e487b7100000000000000000000000000000000000000000000000000000000600052602160045260246000fd5b8152505090503373ffffffffffffffffffffffffffffffffffffffff1681602001516000015173ffffffffffffffffffffffffffffffffffffffff16148061283057503373ffffffffffffffffffffffffffffffffffffffff1681604001516000015173ffffffffffffffffffffffffffffffffffffffff16145b61286f576040517f08c379a00000000000000000000000000000000000000000000000000000000081526004016128669061423b565b60405180910390fd5b600060028111156128a9577f4e487b7100000000000000000000000000000000000000000000000000000000600052602160045260246000fd5b816060015160028111156128e6577f4e487b7100000000000000000000000000000000000000000000000000000000600052602160045260246000fd5b14612926576040517f08c379a000000000000000000000000000000000000000000000000000000000815260040161291d9061425b565b60405180910390fd5b3373ffffffffffffffffffffffffffffffffffffffff1681602001516000015173ffffffffffffffffffffffffffffffffffffffff16141561297d57612970816020015183613436565b8160200181905250612994565b61298b816040015183613436565b81604001819052505b80600260008581526020019081526020016000206000820151816000015560208201518160010160008201518160000160006101000a81548173ffffffffffffffffffffffffffffffffffffffff021916908373ffffffffffffffffffffffffffffffffffffffff16021790555060208201518160000160146101000a81548160ff02191690831515021790555060408201518160000160156101000a81548160ff02191690831515021790555060608201518160000160166101000a81548160ff02191690836003811115612a93577f4e487b7100000000000000000000000000000000000000000000000000000000600052602160045260246000fd5b021790555060808201518160010155505060408201518160030160008201518160000160006101000a81548173ffffffffffffffffffffffffffffffffffffffff021916908373ffffffffffffffffffffffffffffffffffffffff16021790555060208201518160000160146101000a81548160ff02191690831515021790555060408201518160000160156101000a81548160ff02191690831515021790555060608201518160000160166101000a81548160ff02191690836003811115612b85577f4e487b7100000000000000000000000000000000000000000000000000000000600052602160045260246000fd5b021790555060808201518160010155505060608201518160050160006101000a81548160ff02191690836002811115612be7577f4e487b7100000000000000000000000000000000000000000000000000000000600052602160045260246000fd5b0217905550905050827f775cbcccd7fe28145ecb9139488663063065c5a215ba96419500f1bb1217661e33604051612c1f919061406d565b60405180910390a2505050565b8073ffffffffffffffffffffffffffffffffffffffff168273ffffffffffffffffffffffffffffffffffffffff161415612c9b576040517f08c379a0000000000000000000000000000000000000000000000000000000008152600401612c929061417b565b60405180910390fd5b60006040518060a001604052808473ffffffffffffffffffffffffffffffffffffffff16815260200160001515815260200160001515815260200160006003811115612d10577f4e487b7100000000000000000000000000000000000000000000000000000000600052602160045260246000fd5b81526020016000801b815250905060006040518060a001604052808473ffffffffffffffffffffffffffffffffffffffff16815260200160001515815260200160001515815260200160006003811115612d93577f4e487b7100000000000000000000000000000000000000000000000000000000600052602160045260246000fd5b81526020016000801b81525090506040518060800160405280600154815260200183815260200182815260200160006002811115612dfa577f4e487b7100000000000000000000000000000000000000000000000000000000600052602160045260246000fd5b8152506002600060015481526020019081526020016000206000820151816000015560208201518160010160008201518160000160006101000a81548173ffffffffffffffffffffffffffffffffffffffff021916908373ffffffffffffffffffffffffffffffffffffffff16021790555060208201518160000160146101000a81548160ff02191690831515021790555060408201518160000160156101000a81548160ff02191690831515021790555060608201518160000160166101000a81548160ff02191690836003811115612efd577f4e487b7100000000000000000000000000000000000000000000000000000000600052602160045260246000fd5b021790555060808201518160010155505060408201518160030160008201518160000160006101000a81548173ffffffffffffffffffffffffffffffffffffffff021916908373ffffffffffffffffffffffffffffffffffffffff16021790555060208201518160000160146101000a81548160ff02191690831515021790555060408201518160000160156101000a81548160ff02191690831515021790555060608201518160000160166101000a81548160ff02191690836003811115612fef577f4e487b7100000000000000000000000000000000000000000000000000000000600052602160045260246000fd5b021790555060808201518160010155505060608201518160050160006101000a81548160ff02191690836002811115613051577f4e487b7100000000000000000000000000000000000000000000000000000000600052602160045260246000fd5b02179055509050507fcd359a5a81a67a8cba1fa58a9d77fcf61bd58c6ebc6703100aa52cceefffa08d600154858543426040516130929594939291906142d2565b60405180910390a1600160008154809291906130ad90614568565b919050555050505050565b60007f01ffc9a7000000000000000000000000000000000000000000000000000000007bffffffffffffffffffffffffffffffffffffffffffffffffffffffff1916827bffffffffffffffffffffffffffffffffffffffffffffffffffffffff1916149050919050565b6131338161312e613271565b6134a7565b50565b6000613141836106ed565b905081600080858152602001908152602001600020600101819055508181847fbd79b86ffe0ab8e8776151514217cd7cacd52c909f66475c3af44e129f0b00ff60405160405180910390a4505050565b61319b82826118b3565b61326d57600160008084815260200190815260200160002060000160008373ffffffffffffffffffffffffffffffffffffffff1673ffffffffffffffffffffffffffffffffffffffff16815260200190815260200160002060006101000a81548160ff021916908315150217905550613212613271565b73ffffffffffffffffffffffffffffffffffffffff168173ffffffffffffffffffffffffffffffffffffffff16837f2f8788117e7eff1d82e926ec794901d17c78024a50270940304540a733656f0d60405160405180910390a45b5050565b600033905090565b61328382826118b3565b1561335657600080600084815260200190815260200160002060000160008373ffffffffffffffffffffffffffffffffffffffff1673ffffffffffffffffffffffffffffffffffffffff16815260200190815260200160002060006101000a81548160ff0219169083151502179055506132fb613271565b73ffffffffffffffffffffffffffffffffffffffff168173ffffffffffffffffffffffffffffffffffffffff16837ff6391f5c32d9c69d2a47ea670b442974b53935d1edc7fd64eb21e047a839171b60405160405180910390a45b5050565b6133626138aa565b8360400151156133a7576040517f08c379a000000000000000000000000000000000000000000000000000000000815260040161339e9061419b565b60405180910390fd5b8360800151846000015184846040516020016133c5939291906140b1565b604051602081830303815290604052805190602001201461341b576040517f08c379a00000000000000000000000000000000000000000000000000000000081526004016134129061421b565b60405180910390fd5b60018460400190151590811515815250508390509392505050565b61343e6138aa565b826020015115613483576040517f08c379a000000000000000000000000000000000000000000000000000000000815260040161347a9061419b565b60405180910390fd5b81836080018181525050600183602001901515908115158152505082905092915050565b6134b182826118b3565b613540576134d68173ffffffffffffffffffffffffffffffffffffffff166014613544565b6134e48360001c6020613544565b6040516020016134f592919061401e565b6040516020818303038152906040526040517f08c379a00000000000000000000000000000000000000000000000000000000081526004016135379190614139565b60405180910390fd5b5050565b60606000600283600261355791906143e9565b6135619190614393565b67ffffffffffffffff8111156135a0577f4e487b7100000000000000000000000000000000000000000000000000000000600052604160045260246000fd5b6040519080825280601f01601f1916602001820160405280156135d25781602001600182028036833780820191505090505b5090507f300000000000000000000000000000000000000000000000000000000000000081600081518110613630577f4e487b7100000000000000000000000000000000000000000000000000000000600052603260045260246000fd5b60200101907effffffffffffffffffffffffffffffffffffffffffffffffffffffffffffff1916908160001a9053507f7800000000000000000000000000000000000000000000000000000000000000816001815181106136ba577f4e487b7100000000000000000000000000000000000000000000000000000000600052603260045260246000fd5b60200101907effffffffffffffffffffffffffffffffffffffffffffffffffffffffffffff1916908160001a905350600060018460026136fa91906143e9565b6137049190614393565b90505b60018111156137f0577f3031323334353637383961626364656600000000000000000000000000000000600f86166010811061376c577f4e487b7100000000000000000000000000000000000000000000000000000000600052603260045260246000fd5b1a60f81b8282815181106137a9577f4e487b7100000000000000000000000000000000000000000000000000000000600052603260045260246000fd5b60200101907effffffffffffffffffffffffffffffffffffffffffffffffffffffffffffff1916908160001a905350600485901c9450806137e99061453e565b9050613707565b5060008414613834576040517f08c379a000000000000000000000000000000000000000000000000000000000815260040161382b9061415b565b60405180910390fd5b8091505092915050565b6040518060800160405280600081526020016138586138aa565b81526020016138656138aa565b8152602001600060028111156138a4577f4e487b7100000000000000000000000000000000000000000000000000000000600052602160045260246000fd5b81525090565b6040518060a00160405280600073ffffffffffffffffffffffffffffffffffffffff1681526020016000151581526020016000151581526020016000600381111561391e577f4e487b7100000000000000000000000000000000000000000000000000000000600052602160045260246000fd5b8152602001600080191681525090565b60008135905061393d816148d5565b92915050565b600081359050613952816148ec565b92915050565b60008135905061396781614903565b92915050565b60008135905061397c8161491a565b92915050565b6000813590506139918161492a565b92915050565b6000813590506139a68161493a565b92915050565b600080604083850312156139bf57600080fd5b60006139cd8582860161392e565b92505060206139de8582860161392e565b9150509250929050565b6000602082840312156139fa57600080fd5b6000613a0884828501613943565b91505092915050565b60008060408385031215613a2457600080fd5b6000613a3285828601613943565b9250506020613a438582860161392e565b9150509250929050565b60008060408385031215613a6057600080fd5b6000613a6e85828601613943565b9250506020613a7f85828601613943565b9150509250929050565b600060208284031215613a9b57600080fd5b6000613aa984828501613958565b91505092915050565b600060208284031215613ac457600080fd5b6000613ad284828501613997565b91505092915050565b60008060408385031215613aee57600080fd5b6000613afc85828601613997565b9250506020613b0d85828601613943565b9150509250929050565b600080600060608486031215613b2c57600080fd5b6000613b3a86828701613997565b9350506020613b4b8682870161396d565b9250506040613b5c86828701613943565b9150509250925092565b60008060408385031215613b7957600080fd5b6000613b8785828601613997565b9250506020613b9885828601613982565b9150509250929050565b613bab81614443565b82525050565b613bba81614443565b82525050565b613bc981614455565b82525050565b613bd881614455565b82525050565b613be781614461565b82525050565b613bf681614461565b82525050565b613c05816144e7565b82525050565b613c14816144e7565b82525050565b613c23816144f9565b82525050565b613c32816144f9565b82525050565b6000613c438261436c565b613c4d8185614377565b9350613c5d81856020860161450b565b613c668161460f565b840191505092915050565b6000613c7c8261436c565b613c868185614388565b9350613c9681856020860161450b565b80840191505092915050565b6000613caf602083614377565b9150613cba82614620565b602082019050919050565b6000613cd2601483614377565b9150613cdd82614649565b602082019050919050565b6000613cf5601983614377565b9150613d0082614672565b602082019050919050565b6000613d18600f83614377565b9150613d238261469b565b602082019050919050565b6000613d3b601783614377565b9150613d46826146c4565b602082019050919050565b6000613d5e601183614377565b9150613d69826146ed565b602082019050919050565b6000613d81600a83614388565b9150613d8c82614716565b600a82019050919050565b6000613da4600a83614388565b9150613daf8261473f565b600a82019050919050565b6000613dc7601983614377565b9150613dd282614768565b602082019050919050565b6000613dea601783614377565b9150613df582614791565b602082019050919050565b6000613e0d601483614377565b9150613e18826147ba565b602082019050919050565b6000613e30601783614388565b9150613e3b826147e3565b601782019050919050565b6000613e53601183614388565b9150613e5e8261480c565b601182019050919050565b6000613e76602f83614377565b9150613e8182614835565b604082019050919050565b6000613e99601083614388565b9150613ea482614884565b601082019050919050565b60a082016000820151613ec56000850182613ba2565b506020820151613ed86020850182613bc0565b506040820151613eeb6040850182613bc0565b506060820151613efe6060850182613bfc565b506080820151613f116080850182613bde565b50505050565b60a082016000820151613f2d6000850182613ba2565b506020820151613f406020850182613bc0565b506040820151613f536040850182613bc0565b506060820151613f666060850182613bfc565b506080820151613f796080850182613bde565b50505050565b61018082016000820151613f966000850182613fd6565b506020820151613fa96020850182613eaf565b506040820151613fbc60c0850182613eaf565b506060820151613fd0610160850182613c1a565b50505050565b613fdf816144dd565b82525050565b613fee816144dd565b82525050565b6000613fff82613d74565b9150819050919050565b600061401482613d97565b9150819050919050565b600061402982613e23565b91506140358285613c71565b915061404082613e46565b915061404c8284613c71565b91508190509392505050565b600061406382613e8c565b9150819050919050565b60006020820190506140826000830184613bb1565b92915050565b600060408201905061409d6000830185613bb1565b6140aa6020830184613c0b565b9392505050565b60006060820190506140c66000830186613bb1565b6140d36020830185613c0b565b6140e06040830184613bed565b949350505050565b60006020820190506140fd6000830184613bcf565b92915050565b60006020820190506141186000830184613bed565b92915050565b60006020820190506141336000830184613c29565b92915050565b600060208201905081810360008301526141538184613c38565b905092915050565b6000602082019050818103600083015261417481613ca2565b9050919050565b6000602082019050818103600083015261419481613cc5565b9050919050565b600060208201905081810360008301526141b481613ce8565b9050919050565b600060208201905081810360008301526141d481613d0b565b9050919050565b600060208201905081810360008301526141f481613d2e565b9050919050565b6000602082019050818103600083015261421481613d51565b9050919050565b6000602082019050818103600083015261423481613dba565b9050919050565b6000602082019050818103600083015261425481613ddd565b9050919050565b6000602082019050818103600083015261427481613e00565b9050919050565b6000602082019050818103600083015261429481613e69565b9050919050565b6000610180820190506142b16000830184613f7f565b92915050565b60006020820190506142cc6000830184613fe5565b92915050565b600060a0820190506142e76000830188613fe5565b6142f46020830187613bb1565b6143016040830186613bb1565b61430e6060830185613fe5565b61431b6080830184613fe5565b9695505050505050565b60006101808201905061433b6000830187613fe5565b6143486020830186613f17565b61435560c0830185613f17565b614363610160830184613c29565b95945050505050565b600081519050919050565b600082825260208201905092915050565b600081905092915050565b600061439e826144dd565b91506143a9836144dd565b9250827fffffffffffffffffffffffffffffffffffffffffffffffffffffffffffffffff038211156143de576143dd6145b1565b5b828201905092915050565b60006143f4826144dd565b91506143ff836144dd565b9250817fffffffffffffffffffffffffffffffffffffffffffffffffffffffffffffffff0483118215151615614438576144376145b1565b5b828202905092915050565b600061444e826144bd565b9050919050565b60008115159050919050565b6000819050919050565b60007fffffffff0000000000000000000000000000000000000000000000000000000082169050919050565b60008190506144a5826148ad565b919050565b60008190506144b8826148c1565b919050565b600073ffffffffffffffffffffffffffffffffffffffff82169050919050565b6000819050919050565b60006144f282614497565b9050919050565b6000614504826144aa565b9050919050565b60005b8381101561452957808201518184015260208101905061450e565b83811115614538576000848401525b50505050565b6000614549826144dd565b9150600082141561455d5761455c6145b1565b5b600182039050919050565b6000614573826144dd565b91507fffffffffffffffffffffffffffffffffffffffffffffffffffffffffffffffff8214156145a6576145a56145b1565b5b600182019050919050565b7f4e487b7100000000000000000000000000000000000000000000000000000000600052601160045260246000fd5b7f4e487b7100000000000000000000000000000000000000000000000000000000600052602160045260246000fd5b6000601f19601f8301169050919050565b7f537472696e67733a20686578206c656e67746820696e73756666696369656e74600082015250565b7f416464726573733a2073616d652076616c756521000000000000000000000000600082015250565b7f506c617965723a20616c726561647920636f6d6d697465642100000000000000600082015250565b7f496e636f72726563742073746167650000000000000000000000000000000000600082015250565b7f43686f6963653a20696e76616c69642063686f69636521000000000000000000600082015250565b7f43686f69636520696e63636f7265637421000000000000000000000000000000600082015250565b7f41444d494e5f524f4c4500000000000000000000000000000000000000000000600082015250565b7f4f574e45525f524f4c4500000000000000000000000000000000000000000000600082015250565b7f436f6d6d69746d656e743a20696e76616c696420686173682100000000000000600082015250565b7f506c617965723a206973206e6f7420696e20726f6f6d21000000000000000000600082015250565b7f53746167653a2077726f6e672073746174757321000000000000000000000000600082015250565b7f416363657373436f6e74726f6c3a206163636f756e7420000000000000000000600082015250565b7f206973206d697373696e6720726f6c6520000000000000000000000000000000600082015250565b7f416363657373436f6e74726f6c3a2063616e206f6e6c792072656e6f756e636560008201527f20726f6c657320666f722073656c660000000000000000000000000000000000602082015250565b7f4449535452494255544f525f524f4c4500000000000000000000000000000000600082015250565b600481106148be576148bd6145e0565b5b50565b600381106148d2576148d16145e0565b5b50565b6148de81614443565b81146148e957600080fd5b50565b6148f581614461565b811461490057600080fd5b50565b61490c8161446b565b811461491757600080fd5b50565b6004811061492757600080fd5b50565b6003811061493757600080fd5b50565b614943816144dd565b811461494e57600080fd5b5056fea2646970667358221220f81c766d32c04aee55cdc3053f9fd28f29e6c52f71a5e4835c76c619ed3572cd64736f6c63430008040033",
  "linkReferences": {},
  "deployedLinkReferences": {}
}