{
  "_format": "hh-sol-artifact-1",
  "contractName": "GameV2",
  "sourceName": "contracts/v2/GameV2.sol",
  "abi": [
    {
      "inputs": [
        {
          "internalType": "address",
          "name": "_distributor",
          "type": "address"
        },
        {
          "internalType": "contract Rops",
          "name": "_rops",
          "type": "address"
        }
      ],
      "stateMutability": "nonpayable",
      "type": "constructor"
    },
    {
      "inputs": [],
      "name": "AlreadyCommited",
      "type": "error"
    },
    {
      "inputs": [],
      "name": "AlreadyRevealed",
      "type": "error"
    },
    {
      "inputs": [],
      "name": "InvalidHash",
      "type": "error"
    },
    {
      "inputs": [],
      "name": "PlayerNotExist",
      "type": "error"
    },
    {
      "inputs": [],
      "name": "RoomNotExist",
      "type": "error"
    },
    {
      "inputs": [],
      "name": "WrongChoice",
      "type": "error"
    },
    {
      "inputs": [],
      "name": "WrongStage",
      "type": "error"
    },
    {
      "anonymous": false,
      "inputs": [
        {
          "indexed": true,
          "internalType": "uint256",
          "name": "roomId",
          "type": "uint256"
        },
        {
          "indexed": true,
          "internalType": "address",
          "name": "player",
          "type": "address"
        }
      ],
      "name": "Commited",
      "type": "event"
    },
    {
      "anonymous": false,
      "inputs": [
        {
          "indexed": true,
          "internalType": "uint256",
          "name": "roomId",
          "type": "uint256"
        },
        {
          "indexed": false,
          "internalType": "enum IGameV2.Stage",
          "name": "stage",
          "type": "uint8"
        }
      ],
      "name": "Distributed",
      "type": "event"
    },
    {
      "anonymous": false,
      "inputs": [
        {
          "indexed": true,
          "internalType": "uint256",
          "name": "roomId",
          "type": "uint256"
        },
        {
          "indexed": false,
          "internalType": "address",
          "name": "winner",
          "type": "address"
        },
        {
          "indexed": false,
          "internalType": "uint256",
          "name": "gameId",
          "type": "uint256"
        }
      ],
      "name": "GameResult",
      "type": "event"
    },
    {
      "anonymous": false,
      "inputs": [
        {
          "indexed": true,
          "internalType": "uint256",
          "name": "roomId",
          "type": "uint256"
        },
        {
          "indexed": true,
          "internalType": "address",
          "name": "player",
          "type": "address"
        },
        {
          "indexed": false,
          "internalType": "enum IGameV2.Choice",
          "name": "choice",
          "type": "uint8"
        }
      ],
      "name": "Revealed",
      "type": "event"
    },
    {
      "anonymous": false,
      "inputs": [
        {
          "indexed": true,
          "internalType": "bytes32",
          "name": "role",
          "type": "bytes32"
        },
        {
          "indexed": true,
          "internalType": "bytes32",
          "name": "previousAdminRole",
          "type": "bytes32"
        },
        {
          "indexed": true,
          "internalType": "bytes32",
          "name": "newAdminRole",
          "type": "bytes32"
        }
      ],
      "name": "RoleAdminChanged",
      "type": "event"
    },
    {
      "anonymous": false,
      "inputs": [
        {
          "indexed": true,
          "internalType": "bytes32",
          "name": "role",
          "type": "bytes32"
        },
        {
          "indexed": true,
          "internalType": "address",
          "name": "account",
          "type": "address"
        },
        {
          "indexed": true,
          "internalType": "address",
          "name": "sender",
          "type": "address"
        }
      ],
      "name": "RoleGranted",
      "type": "event"
    },
    {
      "anonymous": false,
      "inputs": [
        {
          "indexed": true,
          "internalType": "bytes32",
          "name": "role",
          "type": "bytes32"
        },
        {
          "indexed": true,
          "internalType": "address",
          "name": "account",
          "type": "address"
        },
        {
          "indexed": true,
          "internalType": "address",
          "name": "sender",
          "type": "address"
        }
      ],
      "name": "RoleRevoked",
      "type": "event"
    },
    {
      "anonymous": false,
      "inputs": [
        {
          "indexed": true,
          "internalType": "uint256",
          "name": "roomId",
          "type": "uint256"
        },
        {
          "indexed": true,
          "internalType": "address",
          "name": "player0",
          "type": "address"
        },
        {
          "indexed": true,
          "internalType": "address",
          "name": "player1",
          "type": "address"
        }
      ],
      "name": "RoomCreated",
      "type": "event"
    },
    {
      "anonymous": false,
      "inputs": [
        {
          "indexed": true,
          "internalType": "uint256",
          "name": "roomId",
          "type": "uint256"
        },
        {
          "indexed": false,
          "internalType": "enum IGameV2.Stage",
          "name": "stage",
          "type": "uint8"
        }
      ],
      "name": "StageChanged",
      "type": "event"
    },
    {
      "inputs": [],
      "name": "DEFAULT_ADMIN_ROLE",
      "outputs": [
        {
          "internalType": "bytes32",
          "name": "",
          "type": "bytes32"
        }
      ],
      "stateMutability": "view",
      "type": "function"
    },
    {
      "inputs": [],
      "name": "DISTRIBUTOR_ROLE",
      "outputs": [
        {
          "internalType": "bytes32",
          "name": "",
          "type": "bytes32"
        }
      ],
      "stateMutability": "view",
      "type": "function"
    },
    {
      "inputs": [],
      "name": "OWNER_ROLE",
      "outputs": [
        {
          "internalType": "bytes32",
          "name": "",
          "type": "bytes32"
        }
      ],
      "stateMutability": "view",
      "type": "function"
    },
    {
      "inputs": [
        {
          "internalType": "uint256",
          "name": "roomId",
          "type": "uint256"
        },
        {
          "internalType": "bytes32",
          "name": "commitment",
          "type": "bytes32"
        }
      ],
      "name": "commit",
      "outputs": [],
      "stateMutability": "nonpayable",
      "type": "function"
    },
    {
      "inputs": [
        {
          "internalType": "address",
          "name": "playerA",
          "type": "address"
        },
        {
          "internalType": "address",
          "name": "playerB",
          "type": "address"
        }
      ],
      "name": "createRoom",
      "outputs": [],
      "stateMutability": "nonpayable",
      "type": "function"
    },
    {
      "inputs": [
        {
          "internalType": "uint256",
          "name": "roomId",
          "type": "uint256"
        }
      ],
      "name": "distribute",
      "outputs": [],
      "stateMutability": "nonpayable",
      "type": "function"
    },
    {
      "inputs": [],
      "name": "distributor",
      "outputs": [
        {
          "internalType": "address",
          "name": "",
          "type": "address"
        }
      ],
      "stateMutability": "view",
      "type": "function"
    },
    {
      "inputs": [
        {
          "internalType": "bytes32",
          "name": "role",
          "type": "bytes32"
        }
      ],
      "name": "getRoleAdmin",
      "outputs": [
        {
          "internalType": "bytes32",
          "name": "",
          "type": "bytes32"
        }
      ],
      "stateMutability": "view",
      "type": "function"
    },
    {
      "inputs": [
        {
          "internalType": "uint256",
          "name": "",
          "type": "uint256"
        }
      ],
      "name": "getRoomById",
      "outputs": [
        {
          "internalType": "uint256",
          "name": "id",
          "type": "uint256"
        },
        {
          "components": [
            {
              "internalType": "address",
              "name": "playerAddress",
              "type": "address"
            },
            {
              "internalType": "bool",
              "name": "commited",
              "type": "bool"
            },
            {
              "internalType": "bool",
              "name": "revealed",
              "type": "bool"
            },
            {
              "internalType": "enum IGameV2.Choice",
              "name": "choice",
              "type": "uint8"
            },
            {
              "internalType": "bytes32",
              "name": "commitment",
              "type": "bytes32"
            }
          ],
          "internalType": "struct IGameV2.Player",
          "name": "player0",
          "type": "tuple"
        },
        {
          "components": [
            {
              "internalType": "address",
              "name": "playerAddress",
              "type": "address"
            },
            {
              "internalType": "bool",
              "name": "commited",
              "type": "bool"
            },
            {
              "internalType": "bool",
              "name": "revealed",
              "type": "bool"
            },
            {
              "internalType": "enum IGameV2.Choice",
              "name": "choice",
              "type": "uint8"
            },
            {
              "internalType": "bytes32",
              "name": "commitment",
              "type": "bytes32"
            }
          ],
          "internalType": "struct IGameV2.Player",
          "name": "player1",
          "type": "tuple"
        },
        {
          "internalType": "enum IGameV2.Stage",
          "name": "stage",
          "type": "uint8"
        },
        {
          "internalType": "uint256",
          "name": "gameId",
          "type": "uint256"
        }
      ],
      "stateMutability": "view",
      "type": "function"
    },
    {
      "inputs": [
        {
          "internalType": "address",
          "name": "",
          "type": "address"
        },
        {
          "internalType": "address",
          "name": "",
          "type": "address"
        }
      ],
      "name": "getRoomByPlayerAddresses",
      "outputs": [
        {
          "internalType": "uint256",
          "name": "",
          "type": "uint256"
        }
      ],
      "stateMutability": "view",
      "type": "function"
    },
    {
      "inputs": [
        {
          "internalType": "bytes32",
          "name": "role",
          "type": "bytes32"
        },
        {
          "internalType": "address",
          "name": "account",
          "type": "address"
        }
      ],
      "name": "grantRole",
      "outputs": [],
      "stateMutability": "nonpayable",
      "type": "function"
    },
    {
      "inputs": [
        {
          "internalType": "bytes32",
          "name": "role",
          "type": "bytes32"
        },
        {
          "internalType": "address",
          "name": "account",
          "type": "address"
        }
      ],
      "name": "hasRole",
      "outputs": [
        {
          "internalType": "bool",
          "name": "",
          "type": "bool"
        }
      ],
      "stateMutability": "view",
      "type": "function"
    },
    {
      "inputs": [
        {
          "internalType": "uint256",
          "name": "roomId",
          "type": "uint256"
        },
        {
          "internalType": "enum IGameV2.Stage",
          "name": "stage",
          "type": "uint8"
        }
      ],
      "name": "nextStage",
      "outputs": [],
      "stateMutability": "nonpayable",
      "type": "function"
    },
    {
      "inputs": [
        {
          "internalType": "bytes32",
          "name": "role",
          "type": "bytes32"
        },
        {
          "internalType": "address",
          "name": "account",
          "type": "address"
        }
      ],
      "name": "renounceRole",
      "outputs": [],
      "stateMutability": "nonpayable",
      "type": "function"
    },
    {
      "inputs": [
        {
          "internalType": "uint256",
          "name": "roomId",
          "type": "uint256"
        },
        {
          "internalType": "enum IGameV2.Choice",
          "name": "choice",
          "type": "uint8"
        },
        {
          "internalType": "bytes32",
          "name": "key",
          "type": "bytes32"
        }
      ],
      "name": "reveal",
      "outputs": [],
      "stateMutability": "nonpayable",
      "type": "function"
    },
    {
      "inputs": [
        {
          "internalType": "bytes32",
          "name": "role",
          "type": "bytes32"
        },
        {
          "internalType": "address",
          "name": "account",
          "type": "address"
        }
      ],
      "name": "revokeRole",
      "outputs": [],
      "stateMutability": "nonpayable",
      "type": "function"
    },
    {
      "inputs": [],
      "name": "rops",
      "outputs": [
        {
          "internalType": "contract Rops",
          "name": "",
          "type": "address"
        }
      ],
      "stateMutability": "view",
      "type": "function"
    },
    {
      "inputs": [
        {
          "internalType": "bytes4",
          "name": "interfaceId",
          "type": "bytes4"
        }
      ],
      "name": "supportsInterface",
      "outputs": [
        {
          "internalType": "bool",
          "name": "",
          "type": "bool"
        }
      ],
      "stateMutability": "view",
      "type": "function"
    }
  ],
  "bytecode": "0x60c06040523480156200001157600080fd5b5060405162003d6a38038062003d6a8339818101604052810190620000379190620003ec565b620000956040516020016200004c9062000481565b60405160208183030381529060405280519060200120604051602001620000739062000481565b60405160208183030381529060405280519060200120620001d960201b60201c565b620000f3604051602001620000aa9062000498565b60405160208183030381529060405280519060200120604051602001620000d19062000481565b60405160208183030381529060405280519060200120620001d960201b60201c565b6200012b604051602001620001089062000481565b60405160208183030381529060405280519060200120336200023c60201b60201c565b62000163604051602001620001409062000498565b60405160208183030381529060405280519060200120836200023c60201b60201c565b8173ffffffffffffffffffffffffffffffffffffffff1660808173ffffffffffffffffffffffffffffffffffffffff1660601b815250508073ffffffffffffffffffffffffffffffffffffffff1660a08173ffffffffffffffffffffffffffffffffffffffff1660601b8152505050506200058d565b6000620001ec836200032d60201b60201c565b905081600080858152602001908152602001600020600101819055508181847fbd79b86ffe0ab8e8776151514217cd7cacd52c909f66475c3af44e129f0b00ff60405160405180910390a4505050565b6200024e82826200034c60201b60201c565b6200032957600160008084815260200190815260200160002060000160008373ffffffffffffffffffffffffffffffffffffffff1673ffffffffffffffffffffffffffffffffffffffff16815260200190815260200160002060006101000a81548160ff021916908315150217905550620002ce620003b660201b60201c565b73ffffffffffffffffffffffffffffffffffffffff168173ffffffffffffffffffffffffffffffffffffffff16837f2f8788117e7eff1d82e926ec794901d17c78024a50270940304540a733656f0d60405160405180910390a45b5050565b6000806000838152602001908152602001600020600101549050919050565b600080600084815260200190815260200160002060000160008373ffffffffffffffffffffffffffffffffffffffff1673ffffffffffffffffffffffffffffffffffffffff16815260200190815260200160002060009054906101000a900460ff16905092915050565b600033905090565b600081519050620003cf8162000559565b92915050565b600081519050620003e68162000573565b92915050565b6000806040838503121562000406576200040562000502565b5b60006200041685828601620003be565b92505060206200042985828601620003d5565b9150509250929050565b600062000442600a83620004af565b91506200044f8262000507565b600a82019050919050565b600062000469601083620004af565b9150620004768262000530565b601082019050919050565b60006200048e8262000433565b9150819050919050565b6000620004a5826200045a565b9150819050919050565b600081905092915050565b6000620004c782620004e2565b9050919050565b6000620004db82620004ba565b9050919050565b600073ffffffffffffffffffffffffffffffffffffffff82169050919050565b600080fd5b7f4f574e45525f524f4c4500000000000000000000000000000000000000000000600082015250565b7f4449535452494255544f525f524f4c4500000000000000000000000000000000600082015250565b6200056481620004ba565b81146200057057600080fd5b50565b6200057e81620004ce565b81146200058a57600080fd5b50565b60805160601c60a05160601c613787620005e36000396000818161090801528181610ab101528181610d2901528181610ed30152818161114a015281816112f401526119ee0152600061188b01526137876000f3fe608060405234801561001057600080fd5b50600436106101165760003560e01c8063bfe10928116100a2578063e58378bb11610071578063e58378bb146102e1578063f0bd87cc146102ff578063f2f038771461031d578063f9a5918f14610339578063fe5090161461035557610116565b8063bfe109281461026d578063d222871e1461028b578063d547741f146102a7578063db9b72c4146102c357610116565b806336568abe116100e957806336568abe146101cb57806391c05b0b146101e757806391d14854146102035780639a42f3aa14610233578063a217fddf1461024f57610116565b806301ffc9a71461011b578063248a9ca31461014b5780632f2ff15d1461017b5780633495655a14610197575b600080fd5b61013560048036038101906101309190612b41565b610385565b6040516101429190613037565b60405180910390f35b61016560048036038101906101609190612ad4565b6103ff565b6040516101729190613052565b60405180910390f35b61019560048036038101906101909190612b01565b61041e565b005b6101b160048036038101906101ac9190612b6e565b61043f565b6040516101c295949392919061315b565b60405180910390f35b6101e560048036038101906101e09190612b01565b610638565b005b61020160048036038101906101fc9190612b6e565b6106bb565b005b61021d60048036038101906102189190612b01565b6114d3565b60405161022a9190613037565b60405180910390f35b61024d60048036038101906102489190612bdb565b61153d565b005b610257611882565b6040516102649190613052565b60405180910390f35b610275611889565b6040516102829190612f5c565b60405180910390f35b6102a560048036038101906102a09190612c2e565b6118ad565b005b6102c160048036038101906102bc9190612b01565b6119cb565b005b6102cb6119ec565b6040516102d8919061306d565b60405180910390f35b6102e9611a10565b6040516102f69190613052565b60405180910390f35b610307611a38565b6040516103149190613052565b60405180910390f35b61033760048036038101906103329190612b9b565b611a60565b005b610353600480360381019061034e9190612a67565b611cd6565b005b61036f600480360381019061036a9190612a67565b612284565b60405161037c9190613140565b60405180910390f35b60007f7965db0b000000000000000000000000000000000000000000000000000000007bffffffffffffffffffffffffffffffffffffffffffffffffffffffff1916827bffffffffffffffffffffffffffffffffffffffffffffffffffffffff191614806103f857506103f7826122a9565b5b9050919050565b6000806000838152602001908152602001600020600101549050919050565b610427826103ff565b61043081612313565b61043a8383612327565b505050565b6002602052806000526040600020600091509050806000015490806001016040518060a00160405290816000820160009054906101000a900473ffffffffffffffffffffffffffffffffffffffff1673ffffffffffffffffffffffffffffffffffffffff1673ffffffffffffffffffffffffffffffffffffffff1681526020016000820160149054906101000a900460ff161515151581526020016000820160159054906101000a900460ff161515151581526020016000820160169054906101000a900460ff166003811115610519576105186134ae565b5b600381111561052b5761052a6134ae565b5b815260200160018201548152505090806003016040518060a00160405290816000820160009054906101000a900473ffffffffffffffffffffffffffffffffffffffff1673ffffffffffffffffffffffffffffffffffffffff1673ffffffffffffffffffffffffffffffffffffffff1681526020016000820160149054906101000a900460ff161515151581526020016000820160159054906101000a900460ff161515151581526020016000820160169054906101000a900460ff1660038111156105fa576105f96134ae565b5b600381111561060c5761060b6134ae565b5b8152602001600182015481525050908060050160009054906101000a900460ff16908060060154905085565b610640612407565b73ffffffffffffffffffffffffffffffffffffffff168173ffffffffffffffffffffffffffffffffffffffff16146106ad576040517f08c379a00000000000000000000000000000000000000000000000000000000081526004016106a490613120565b60405180910390fd5b6106b7828261240f565b5050565b6040516020016106ca90612f47565b604051602081830303815290604052805190602001206106e981612313565b60006002600084815260200190815260200160002090508060030160000160169054906101000a900460ff166003811115610727576107266134ae565b5b8160010160000160169054906101000a900460ff16600381111561074e5761074d6134ae565b5b141561079457827f66624a2ea04d723964b7325ea58b496e54d365957d5f1e150b68f812386bb7c7600080604051610787929190612fe5565b60405180910390a2611436565b600160038111156107a8576107a76134ae565b5b8160010160000160169054906101000a900460ff1660038111156107cf576107ce6134ae565b5b1415610bb557600260038111156107e9576107e86134ae565b5b8160030160000160169054906101000a900460ff1660038111156108105761080f6134ae565b5b1480610853575060038081111561082a576108296134ae565b5b8160030160000160169054906101000a900460ff166003811115610851576108506134ae565b5b145b6108605761085f613450565b5b60026003811115610874576108736134ae565b5b8160030160000160169054906101000a900460ff16600381111561089b5761089a6134ae565b5b1415610a0a57827f66624a2ea04d723964b7325ea58b496e54d365957d5f1e150b68f812386bb7c78260030160000160009054906101000a900473ffffffffffffffffffffffffffffffffffffffff1683600601546040516108fe92919061300e565b60405180910390a27f000000000000000000000000000000000000000000000000000000000000000073ffffffffffffffffffffffffffffffffffffffff166323b872dd8260010160000160009054906101000a900473ffffffffffffffffffffffffffffffffffffffff168360030160000160009054906101000a900473ffffffffffffffffffffffffffffffffffffffff1660016040518463ffffffff1660e01b81526004016109b293929190612f77565b602060405180830381600087803b1580156109cc57600080fd5b505af11580156109e0573d6000803e3d6000fd5b505050506040513d601f19601f82011682018060405250810190610a049190612aa7565b50610bb0565b600380811115610a1d57610a1c6134ae565b5b8160030160000160169054906101000a900460ff166003811115610a4457610a436134ae565b5b1415610baf57827f66624a2ea04d723964b7325ea58b496e54d365957d5f1e150b68f812386bb7c78260010160000160009054906101000a900473ffffffffffffffffffffffffffffffffffffffff168360060154604051610aa792919061300e565b60405180910390a27f000000000000000000000000000000000000000000000000000000000000000073ffffffffffffffffffffffffffffffffffffffff166323b872dd8260030160000160009054906101000a900473ffffffffffffffffffffffffffffffffffffffff168360010160000160009054906101000a900473ffffffffffffffffffffffffffffffffffffffff1660016040518463ffffffff1660e01b8152600401610b5b93929190612f77565b602060405180830381600087803b158015610b7557600080fd5b505af1158015610b89573d6000803e3d6000fd5b505050506040513d601f19601f82011682018060405250810190610bad9190612aa7565b505b5b611435565b600380811115610bc857610bc76134ae565b5b8160010160000160169054906101000a900460ff166003811115610bef57610bee6134ae565b5b1415610fd75760026003811115610c0957610c086134ae565b5b8160030160000160169054906101000a900460ff166003811115610c3057610c2f6134ae565b5b1480610c74575060016003811115610c4b57610c4a6134ae565b5b8160030160000160169054906101000a900460ff166003811115610c7257610c716134ae565b5b145b610c8157610c80613450565b5b60016003811115610c9557610c946134ae565b5b8160030160000160169054906101000a900460ff166003811115610cbc57610cbb6134ae565b5b1415610e2b57827f66624a2ea04d723964b7325ea58b496e54d365957d5f1e150b68f812386bb7c78260030160000160009054906101000a900473ffffffffffffffffffffffffffffffffffffffff168360060154604051610d1f92919061300e565b60405180910390a27f000000000000000000000000000000000000000000000000000000000000000073ffffffffffffffffffffffffffffffffffffffff166323b872dd8260010160000160009054906101000a900473ffffffffffffffffffffffffffffffffffffffff168360030160000160009054906101000a900473ffffffffffffffffffffffffffffffffffffffff1660016040518463ffffffff1660e01b8152600401610dd393929190612f77565b602060405180830381600087803b158015610ded57600080fd5b505af1158015610e01573d6000803e3d6000fd5b505050506040513d601f19601f82011682018060405250810190610e259190612aa7565b50610fd2565b60026003811115610e3f57610e3e6134ae565b5b8160030160000160169054906101000a900460ff166003811115610e6657610e656134ae565b5b1415610fd157827f66624a2ea04d723964b7325ea58b496e54d365957d5f1e150b68f812386bb7c78260010160000160009054906101000a900473ffffffffffffffffffffffffffffffffffffffff168360060154604051610ec992919061300e565b60405180910390a27f000000000000000000000000000000000000000000000000000000000000000073ffffffffffffffffffffffffffffffffffffffff166323b872dd8260030160000160009054906101000a900473ffffffffffffffffffffffffffffffffffffffff168360010160000160009054906101000a900473ffffffffffffffffffffffffffffffffffffffff1660016040518463ffffffff1660e01b8152600401610f7d93929190612f77565b602060405180830381600087803b158015610f9757600080fd5b505af1158015610fab573d6000803e3d6000fd5b505050506040513d601f19601f82011682018060405250810190610fcf9190612aa7565b505b5b611434565b60026003811115610feb57610fea6134ae565b5b8160010160000160169054906101000a900460ff166003811115611012576110116134ae565b5b14156113f8576001600381111561102c5761102b6134ae565b5b8160030160000160169054906101000a900460ff166003811115611053576110526134ae565b5b1480611096575060038081111561106d5761106c6134ae565b5b8160030160000160169054906101000a900460ff166003811115611094576110936134ae565b5b145b6110a3576110a2613450565b5b6003808111156110b6576110b56134ae565b5b8160030160000160169054906101000a900460ff1660038111156110dd576110dc6134ae565b5b141561124c57827f66624a2ea04d723964b7325ea58b496e54d365957d5f1e150b68f812386bb7c78260030160000160009054906101000a900473ffffffffffffffffffffffffffffffffffffffff16836006015460405161114092919061300e565b60405180910390a27f000000000000000000000000000000000000000000000000000000000000000073ffffffffffffffffffffffffffffffffffffffff166323b872dd8260010160000160009054906101000a900473ffffffffffffffffffffffffffffffffffffffff168360030160000160009054906101000a900473ffffffffffffffffffffffffffffffffffffffff1660016040518463ffffffff1660e01b81526004016111f493929190612f77565b602060405180830381600087803b15801561120e57600080fd5b505af1158015611222573d6000803e3d6000fd5b505050506040513d601f19601f820116820180604052508101906112469190612aa7565b506113f3565b600160038111156112605761125f6134ae565b5b8160030160000160169054906101000a900460ff166003811115611287576112866134ae565b5b14156113f257827f66624a2ea04d723964b7325ea58b496e54d365957d5f1e150b68f812386bb7c78260010160000160009054906101000a900473ffffffffffffffffffffffffffffffffffffffff1683600601546040516112ea92919061300e565b60405180910390a27f000000000000000000000000000000000000000000000000000000000000000073ffffffffffffffffffffffffffffffffffffffff166323b872dd8260030160000160009054906101000a900473ffffffffffffffffffffffffffffffffffffffff168360010160000160009054906101000a900473ffffffffffffffffffffffffffffffffffffffff1660016040518463ffffffff1660e01b815260040161139e93929190612f77565b602060405180830381600087803b1580156113b857600080fd5b505af11580156113cc573d6000803e3d6000fd5b505050506040513d601f19601f820116820180604052508101906113f09190612aa7565b505b5b611433565b6040517f08c379a000000000000000000000000000000000000000000000000000000000815260040161142a90613100565b60405180910390fd5b5b5b5b611442816001016124f0565b61144e816003016124f0565b80600601600081548092919061146390613407565b919050555060008160050160006101000a81548160ff021916908360028111156114905761148f6134ae565b5b0217905550827fdf37221aaffab5daec18329c74e9de71f26727289dfefd6e144987965be79ef360006040516114c691906130a3565b60405180910390a2505050565b600080600084815260200190815260200160002060000160008373ffffffffffffffffffffffffffffffffffffffff1673ffffffffffffffffffffffffffffffffffffffff16815260200190815260200160002060009054906101000a900460ff16905092915050565b6000600260008581526020019081526020016000209050600081600001541415611593576040517fb70c1fec00000000000000000000000000000000000000000000000000000000815260040160405180910390fd5b3373ffffffffffffffffffffffffffffffffffffffff168160010160000160009054906101000a900473ffffffffffffffffffffffffffffffffffffffff1673ffffffffffffffffffffffffffffffffffffffff161415801561164957503373ffffffffffffffffffffffffffffffffffffffff168160030160000160009054906101000a900473ffffffffffffffffffffffffffffffffffffffff1673ffffffffffffffffffffffffffffffffffffffff1614155b15611680576040517f1f42735400000000000000000000000000000000000000000000000000000000815260040160405180910390fd5b60016002811115611694576116936134ae565b5b8160050160009054906101000a900460ff1660028111156116b8576116b76134ae565b5b146116ef576040517fa05e34ba00000000000000000000000000000000000000000000000000000000815260040160405180910390fd5b60016003811115611703576117026134ae565b5b836003811115611716576117156134ae565b5b14158015611749575060026003811115611733576117326134ae565b5b836003811115611746576117456134ae565b5b14155b80156117795750600380811115611763576117626134ae565b5b836003811115611776576117756134ae565b5b14155b156117b0576040517f20edc18500000000000000000000000000000000000000000000000000000000815260040160405180910390fd5b3373ffffffffffffffffffffffffffffffffffffffff168160010160000160009054906101000a900473ffffffffffffffffffffffffffffffffffffffff1673ffffffffffffffffffffffffffffffffffffffff16141561181e57611819816001018484612566565b61182d565b61182c816003018484612566565b5b3373ffffffffffffffffffffffffffffffffffffffff16847fc98953cfdaf1355ff1a9db2d4975230864cb314b479eb1b02301c65234912163856040516118749190613088565b60405180910390a350505050565b6000801b81565b7f000000000000000000000000000000000000000000000000000000000000000081565b6040516020016118bc90612f47565b604051602081830303815290604052805190602001206118db81612313565b6000600260008581526020019081526020016000209050826002811115611905576119046134ae565b5b8160050160009054906101000a900460ff166002811115611929576119286134ae565b5b1415611961576040517fa05e34ba00000000000000000000000000000000000000000000000000000000815260040160405180910390fd5b828160050160006101000a81548160ff02191690836002811115611988576119876134ae565b5b0217905550837fdf37221aaffab5daec18329c74e9de71f26727289dfefd6e144987965be79ef3846040516119bd91906130a3565b60405180910390a250505050565b6119d4826103ff565b6119dd81612313565b6119e7838361240f565b505050565b7f000000000000000000000000000000000000000000000000000000000000000081565b604051602001611a1f90612ef8565b6040516020818303038152906040528051906020012081565b604051602001611a4790612f47565b6040516020818303038152906040528051906020012081565b6000600260008481526020019081526020016000209050600081600001541415611ab6576040517fb70c1fec00000000000000000000000000000000000000000000000000000000815260040160405180910390fd5b3373ffffffffffffffffffffffffffffffffffffffff168160010160000160009054906101000a900473ffffffffffffffffffffffffffffffffffffffff1673ffffffffffffffffffffffffffffffffffffffff1614158015611b6c57503373ffffffffffffffffffffffffffffffffffffffff168160030160000160009054906101000a900473ffffffffffffffffffffffffffffffffffffffff1673ffffffffffffffffffffffffffffffffffffffff1614155b15611ba3576040517f1f42735400000000000000000000000000000000000000000000000000000000815260040160405180910390fd5b60006002811115611bb757611bb66134ae565b5b8160050160009054906101000a900460ff166002811115611bdb57611bda6134ae565b5b14611c12576040517fa05e34ba00000000000000000000000000000000000000000000000000000000815260040160405180910390fd5b3373ffffffffffffffffffffffffffffffffffffffff168160010160000160009054906101000a900473ffffffffffffffffffffffffffffffffffffffff1673ffffffffffffffffffffffffffffffffffffffff161415611c7f57611c7a8160010183612688565b611c8d565b611c8c8160030183612688565b5b3373ffffffffffffffffffffffffffffffffffffffff16837f2f63308b073d0d25029a549b999d196c6bbc8b3bdb3b694d879a74d070ddbe9a60405160405180910390a3505050565b8073ffffffffffffffffffffffffffffffffffffffff168273ffffffffffffffffffffffffffffffffffffffff161415611d0f57600080fd5b6000808273ffffffffffffffffffffffffffffffffffffffff168473ffffffffffffffffffffffffffffffffffffffff1610611d4c578284611d4f565b83835b91509150600073ffffffffffffffffffffffffffffffffffffffff168273ffffffffffffffffffffffffffffffffffffffff161415611d8d57600080fd5b6000600160008473ffffffffffffffffffffffffffffffffffffffff1673ffffffffffffffffffffffffffffffffffffffff16815260200190815260200160002060008373ffffffffffffffffffffffffffffffffffffffff1673ffffffffffffffffffffffffffffffffffffffff1681526020019081526020016000205414611e1657600080fd5b60006040518060a001604052808473ffffffffffffffffffffffffffffffffffffffff16815260200160001515815260200160001515815260200160006003811115611e6557611e646134ae565b5b81526020016000801b815250905060006040518060a001604052808473ffffffffffffffffffffffffffffffffffffffff16815260200160001515815260200160001515815260200160006003811115611ec257611ec16134ae565b5b81526020016000801b815250905060036000815480929190611ee390613407565b91905055506040518060a00160405280600354815260200183815260200182815260200160006002811115611f1b57611f1a6134ae565b5b815260200160008152506002600060035481526020019081526020016000206000820151816000015560208201518160010160008201518160000160006101000a81548173ffffffffffffffffffffffffffffffffffffffff021916908373ffffffffffffffffffffffffffffffffffffffff16021790555060208201518160000160146101000a81548160ff02191690831515021790555060408201518160000160156101000a81548160ff02191690831515021790555060608201518160000160166101000a81548160ff02191690836003811115611fff57611ffe6134ae565b5b021790555060808201518160010155505060408201518160030160008201518160000160006101000a81548173ffffffffffffffffffffffffffffffffffffffff021916908373ffffffffffffffffffffffffffffffffffffffff16021790555060208201518160000160146101000a81548160ff02191690831515021790555060408201518160000160156101000a81548160ff02191690831515021790555060608201518160000160166101000a81548160ff021916908360038111156120cb576120ca6134ae565b5b021790555060808201518160010155505060608201518160050160006101000a81548160ff02191690836002811115612107576121066134ae565b5b021790555060808201518160060155905050600354600160008673ffffffffffffffffffffffffffffffffffffffff1673ffffffffffffffffffffffffffffffffffffffff16815260200190815260200160002060008573ffffffffffffffffffffffffffffffffffffffff1673ffffffffffffffffffffffffffffffffffffffff16815260200190815260200160002081905550600354600160008573ffffffffffffffffffffffffffffffffffffffff1673ffffffffffffffffffffffffffffffffffffffff16815260200190815260200160002060008673ffffffffffffffffffffffffffffffffffffffff1673ffffffffffffffffffffffffffffffffffffffff168152602001908152602001600020819055508273ffffffffffffffffffffffffffffffffffffffff168473ffffffffffffffffffffffffffffffffffffffff166003547f04030770e813dd055e97aa89673831d9b864cb7195e6f9b18b9520645a9da59660405160405180910390a4505050505050565b6001602052816000526040600020602052806000526040600020600091509150505481565b60007f01ffc9a7000000000000000000000000000000000000000000000000000000007bffffffffffffffffffffffffffffffffffffffffffffffffffffffff1916827bffffffffffffffffffffffffffffffffffffffffffffffffffffffff1916149050919050565b6123248161231f612407565b6126fb565b50565b61233182826114d3565b61240357600160008084815260200190815260200160002060000160008373ffffffffffffffffffffffffffffffffffffffff1673ffffffffffffffffffffffffffffffffffffffff16815260200190815260200160002060006101000a81548160ff0219169083151502179055506123a8612407565b73ffffffffffffffffffffffffffffffffffffffff168173ffffffffffffffffffffffffffffffffffffffff16837f2f8788117e7eff1d82e926ec794901d17c78024a50270940304540a733656f0d60405160405180910390a45b5050565b600033905090565b61241982826114d3565b156124ec57600080600084815260200190815260200160002060000160008373ffffffffffffffffffffffffffffffffffffffff1673ffffffffffffffffffffffffffffffffffffffff16815260200190815260200160002060006101000a81548160ff021916908315150217905550612491612407565b73ffffffffffffffffffffffffffffffffffffffff168173ffffffffffffffffffffffffffffffffffffffff16837ff6391f5c32d9c69d2a47ea670b442974b53935d1edc7fd64eb21e047a839171b60405160405180910390a45b5050565b60008160000160146101000a81548160ff02191690831515021790555060008160000160156101000a81548160ff02191690831515021790555060008160000160166101000a81548160ff02191690836003811115612552576125516134ae565b5b02179055506000801b816001018190555050565b8260000160159054906101000a900460ff16156125af576040517fa89ac15100000000000000000000000000000000000000000000000000000000815260040160405180910390fd5b82600101548360000160009054906101000a900473ffffffffffffffffffffffffffffffffffffffff1683836040516020016125ed93929190612fae565b604051602081830303815290604052805190602001201461263a576040517f0af806e000000000000000000000000000000000000000000000000000000000815260040160405180910390fd5b818360000160166101000a81548160ff02191690836003811115612661576126606134ae565b5b021790555060018360000160156101000a81548160ff021916908315150217905550505050565b8160000160149054906101000a900460ff16156126d1576040517ffc507a3100000000000000000000000000000000000000000000000000000000815260040160405180910390fd5b80826001018190555060018260000160146101000a81548160ff0219169083151502179055505050565b61270582826114d3565b6127945761272a8173ffffffffffffffffffffffffffffffffffffffff166014612798565b6127388360001c6020612798565b604051602001612749929190612f0d565b6040516020818303038152906040526040517f08c379a000000000000000000000000000000000000000000000000000000000815260040161278b91906130be565b60405180910390fd5b5050565b6060600060028360026127ab919061322e565b6127b591906131d8565b67ffffffffffffffff8111156127ce576127cd61350c565b5b6040519080825280601f01601f1916602001820160405280156128005781602001600182028036833780820191505090505b5090507f300000000000000000000000000000000000000000000000000000000000000081600081518110612838576128376134dd565b5b60200101907effffffffffffffffffffffffffffffffffffffffffffffffffffffffffffff1916908160001a9053507f78000000000000000000000000000000000000000000000000000000000000008160018151811061289c5761289b6134dd565b5b60200101907effffffffffffffffffffffffffffffffffffffffffffffffffffffffffffff1916908160001a905350600060018460026128dc919061322e565b6128e691906131d8565b90505b6001811115612986577f3031323334353637383961626364656600000000000000000000000000000000600f861660108110612928576129276134dd565b5b1a60f81b82828151811061293f5761293e6134dd565b5b60200101907effffffffffffffffffffffffffffffffffffffffffffffffffffffffffffff1916908160001a905350600485901c94508061297f906133dd565b90506128e9565b50600084146129ca576040517f08c379a00000000000000000000000000000000000000000000000000000000081526004016129c1906130e0565b60405180910390fd5b8091505092915050565b6000813590506129e3816136be565b92915050565b6000815190506129f8816136d5565b92915050565b600081359050612a0d816136ec565b92915050565b600081359050612a2281613703565b92915050565b600081359050612a378161371a565b92915050565b600081359050612a4c8161372a565b92915050565b600081359050612a618161373a565b92915050565b60008060408385031215612a7e57612a7d61353b565b5b6000612a8c858286016129d4565b9250506020612a9d858286016129d4565b9150509250929050565b600060208284031215612abd57612abc61353b565b5b6000612acb848285016129e9565b91505092915050565b600060208284031215612aea57612ae961353b565b5b6000612af8848285016129fe565b91505092915050565b60008060408385031215612b1857612b1761353b565b5b6000612b26858286016129fe565b9250506020612b37858286016129d4565b9150509250929050565b600060208284031215612b5757612b5661353b565b5b6000612b6584828501612a13565b91505092915050565b600060208284031215612b8457612b8361353b565b5b6000612b9284828501612a52565b91505092915050565b60008060408385031215612bb257612bb161353b565b5b6000612bc085828601612a52565b9250506020612bd1858286016129fe565b9150509250929050565b600080600060608486031215612bf457612bf361353b565b5b6000612c0286828701612a52565b9350506020612c1386828701612a28565b9250506040612c24868287016129fe565b9150509250925092565b60008060408385031215612c4557612c4461353b565b5b6000612c5385828601612a52565b9250506020612c6485828601612a3d565b9150509250929050565b612c7781613288565b82525050565b612c8681613288565b82525050565b612c958161329a565b82525050565b612ca48161329a565b82525050565b612cb3816132a6565b82525050565b612cc2816132a6565b82525050565b612cd18161332c565b82525050565b612ce08161333e565b82525050565b612cef8161333e565b82525050565b612cfe81613350565b82525050565b612d0d81613362565b82525050565b612d1c81613374565b82525050565b6000612d2d826131b1565b612d3781856131bc565b9350612d478185602086016133aa565b612d5081613540565b840191505092915050565b6000612d66826131b1565b612d7081856131cd565b9350612d808185602086016133aa565b80840191505092915050565b6000612d996020836131bc565b9150612da482613551565b602082019050919050565b6000612dbc6011836131bc565b9150612dc78261357a565b602082019050919050565b6000612ddf600a836131cd565b9150612dea826135a3565b600a82019050919050565b6000612e026017836131cd565b9150612e0d826135cc565b601782019050919050565b6000612e256011836131cd565b9150612e30826135f5565b601182019050919050565b6000612e48602f836131bc565b9150612e538261361e565b604082019050919050565b6000612e6b6010836131cd565b9150612e768261366d565b601082019050919050565b60a082016000820151612e976000850182612c6e565b506020820151612eaa6020850182612c8c565b506040820151612ebd6040850182612c8c565b506060820151612ed06060850182612cd7565b506080820151612ee36080850182612caa565b50505050565b612ef281613322565b82525050565b6000612f0382612dd2565b9150819050919050565b6000612f1882612df5565b9150612f248285612d5b565b9150612f2f82612e18565b9150612f3b8284612d5b565b91508190509392505050565b6000612f5282612e5e565b9150819050919050565b6000602082019050612f716000830184612c7d565b92915050565b6000606082019050612f8c6000830186612c7d565b612f996020830185612c7d565b612fa66040830184612d13565b949350505050565b6000606082019050612fc36000830186612c7d565b612fd06020830185612ce6565b612fdd6040830184612cb9565b949350505050565b6000604082019050612ffa6000830185612c7d565b6130076020830184612d04565b9392505050565b60006040820190506130236000830185612c7d565b6130306020830184612ee9565b9392505050565b600060208201905061304c6000830184612c9b565b92915050565b60006020820190506130676000830184612cb9565b92915050565b60006020820190506130826000830184612cc8565b92915050565b600060208201905061309d6000830184612ce6565b92915050565b60006020820190506130b86000830184612cf5565b92915050565b600060208201905081810360008301526130d88184612d22565b905092915050565b600060208201905081810360008301526130f981612d8c565b9050919050565b6000602082019050818103600083015261311981612daf565b9050919050565b6000602082019050818103600083015261313981612e3b565b9050919050565b60006020820190506131556000830184612ee9565b92915050565b60006101a0820190506131716000830188612ee9565b61317e6020830187612e81565b61318b60c0830186612e81565b613199610160830185612cf5565b6131a7610180830184612ee9565b9695505050505050565b600081519050919050565b600082825260208201905092915050565b600081905092915050565b60006131e382613322565b91506131ee83613322565b9250827fffffffffffffffffffffffffffffffffffffffffffffffffffffffffffffffff038211156132235761322261347f565b5b828201905092915050565b600061323982613322565b915061324483613322565b9250817fffffffffffffffffffffffffffffffffffffffffffffffffffffffffffffffff048311821515161561327d5761327c61347f565b5b828202905092915050565b600061329382613302565b9050919050565b60008115159050919050565b6000819050919050565b60007fffffffff0000000000000000000000000000000000000000000000000000000082169050919050565b60008190506132ea82613696565b919050565b60008190506132fd826136aa565b919050565b600073ffffffffffffffffffffffffffffffffffffffff82169050919050565b6000819050919050565b600061333782613386565b9050919050565b6000613349826132dc565b9050919050565b600061335b826132ef565b9050919050565b600061336d82613322565b9050919050565b600061337f82613322565b9050919050565b600061339182613398565b9050919050565b60006133a382613302565b9050919050565b60005b838110156133c85780820151818401526020810190506133ad565b838111156133d7576000848401525b50505050565b60006133e882613322565b915060008214156133fc576133fb61347f565b5b600182039050919050565b600061341282613322565b91507fffffffffffffffffffffffffffffffffffffffffffffffffffffffffffffffff8214156134455761344461347f565b5b600182019050919050565b7f4e487b7100000000000000000000000000000000000000000000000000000000600052600160045260246000fd5b7f4e487b7100000000000000000000000000000000000000000000000000000000600052601160045260246000fd5b7f4e487b7100000000000000000000000000000000000000000000000000000000600052602160045260246000fd5b7f4e487b7100000000000000000000000000000000000000000000000000000000600052603260045260246000fd5b7f4e487b7100000000000000000000000000000000000000000000000000000000600052604160045260246000fd5b600080fd5b6000601f19601f8301169050919050565b7f537472696e67733a20686578206c656e67746820696e73756666696369656e74600082015250565b7f43686f69636520696e63636f7265637421000000000000000000000000000000600082015250565b7f4f574e45525f524f4c4500000000000000000000000000000000000000000000600082015250565b7f416363657373436f6e74726f6c3a206163636f756e7420000000000000000000600082015250565b7f206973206d697373696e6720726f6c6520000000000000000000000000000000600082015250565b7f416363657373436f6e74726f6c3a2063616e206f6e6c792072656e6f756e636560008201527f20726f6c657320666f722073656c660000000000000000000000000000000000602082015250565b7f4449535452494255544f525f524f4c4500000000000000000000000000000000600082015250565b600481106136a7576136a66134ae565b5b50565b600381106136bb576136ba6134ae565b5b50565b6136c781613288565b81146136d257600080fd5b50565b6136de8161329a565b81146136e957600080fd5b50565b6136f5816132a6565b811461370057600080fd5b50565b61370c816132b0565b811461371757600080fd5b50565b6004811061372757600080fd5b50565b6003811061373757600080fd5b50565b61374381613322565b811461374e57600080fd5b5056fea26469706673582212205bfa8e3613c2b11224452c476c0bbfa498935d1e2661680daa9caf37df7271a564736f6c63430008070033",
  "linkReferences": {},
  "deployedLinkReferences": {}
}