{
  "contractName": "BaseOwnerFunctional",
  "abi": [
    {
      "inputs": [
        {
          "internalType": "address",
          "name": "distributor",
          "type": "address"
        }
      ],
      "stateMutability": "nonpayable",
      "type": "constructor"
    },
    {
      "anonymous": false,
      "inputs": [
        {
          "indexed": true,
          "internalType": "bytes32",
          "name": "role",
          "type": "bytes32"
        },
        {
          "indexed": true,
          "internalType": "bytes32",
          "name": "previousAdminRole",
          "type": "bytes32"
        },
        {
          "indexed": true,
          "internalType": "bytes32",
          "name": "newAdminRole",
          "type": "bytes32"
        }
      ],
      "name": "RoleAdminChanged",
      "type": "event"
    },
    {
      "anonymous": false,
      "inputs": [
        {
          "indexed": true,
          "internalType": "bytes32",
          "name": "role",
          "type": "bytes32"
        },
        {
          "indexed": true,
          "internalType": "address",
          "name": "account",
          "type": "address"
        },
        {
          "indexed": true,
          "internalType": "address",
          "name": "sender",
          "type": "address"
        }
      ],
      "name": "RoleGranted",
      "type": "event"
    },
    {
      "anonymous": false,
      "inputs": [
        {
          "indexed": true,
          "internalType": "bytes32",
          "name": "role",
          "type": "bytes32"
        },
        {
          "indexed": true,
          "internalType": "address",
          "name": "account",
          "type": "address"
        },
        {
          "indexed": true,
          "internalType": "address",
          "name": "sender",
          "type": "address"
        }
      ],
      "name": "RoleRevoked",
      "type": "event"
    },
    {
      "anonymous": false,
      "inputs": [
        {
          "indexed": false,
          "internalType": "uint256",
          "name": "id",
          "type": "uint256"
        },
        {
          "indexed": false,
          "internalType": "address",
          "name": "firstPlayer",
          "type": "address"
        },
        {
          "indexed": false,
          "internalType": "address",
          "name": "secondPlayer",
          "type": "address"
        },
        {
          "indexed": false,
          "internalType": "uint256",
          "name": "blockNumber",
          "type": "uint256"
        },
        {
          "indexed": false,
          "internalType": "uint256",
          "name": "timestamp",
          "type": "uint256"
        }
      ],
      "name": "RoomCreated",
      "type": "event"
    },
    {
      "inputs": [],
      "name": "ADMIN_ROLE",
      "outputs": [
        {
          "internalType": "bytes32",
          "name": "",
          "type": "bytes32"
        }
      ],
      "stateMutability": "view",
      "type": "function"
    },
    {
      "inputs": [],
      "name": "DEFAULT_ADMIN_ROLE",
      "outputs": [
        {
          "internalType": "bytes32",
          "name": "",
          "type": "bytes32"
        }
      ],
      "stateMutability": "view",
      "type": "function"
    },
    {
      "inputs": [],
      "name": "DISTRIBUTOR_ROLE",
      "outputs": [
        {
          "internalType": "bytes32",
          "name": "",
          "type": "bytes32"
        }
      ],
      "stateMutability": "view",
      "type": "function"
    },
    {
      "inputs": [],
      "name": "OWNER_ROLE",
      "outputs": [
        {
          "internalType": "bytes32",
          "name": "",
          "type": "bytes32"
        }
      ],
      "stateMutability": "view",
      "type": "function"
    },
    {
      "inputs": [
        {
          "internalType": "bytes32",
          "name": "role",
          "type": "bytes32"
        }
      ],
      "name": "getRoleAdmin",
      "outputs": [
        {
          "internalType": "bytes32",
          "name": "",
          "type": "bytes32"
        }
      ],
      "stateMutability": "view",
      "type": "function"
    },
    {
      "inputs": [
        {
          "internalType": "bytes32",
          "name": "role",
          "type": "bytes32"
        },
        {
          "internalType": "address",
          "name": "account",
          "type": "address"
        }
      ],
      "name": "grantRole",
      "outputs": [],
      "stateMutability": "nonpayable",
      "type": "function"
    },
    {
      "inputs": [
        {
          "internalType": "bytes32",
          "name": "role",
          "type": "bytes32"
        },
        {
          "internalType": "address",
          "name": "account",
          "type": "address"
        }
      ],
      "name": "hasRole",
      "outputs": [
        {
          "internalType": "bool",
          "name": "",
          "type": "bool"
        }
      ],
      "stateMutability": "view",
      "type": "function"
    },
    {
      "inputs": [
        {
          "internalType": "bytes32",
          "name": "role",
          "type": "bytes32"
        },
        {
          "internalType": "address",
          "name": "account",
          "type": "address"
        }
      ],
      "name": "renounceRole",
      "outputs": [],
      "stateMutability": "nonpayable",
      "type": "function"
    },
    {
      "inputs": [
        {
          "internalType": "bytes32",
          "name": "role",
          "type": "bytes32"
        },
        {
          "internalType": "address",
          "name": "account",
          "type": "address"
        }
      ],
      "name": "revokeRole",
      "outputs": [],
      "stateMutability": "nonpayable",
      "type": "function"
    },
    {
      "inputs": [
        {
          "internalType": "uint256",
          "name": "",
          "type": "uint256"
        }
      ],
      "name": "rooms",
      "outputs": [
        {
          "internalType": "uint256",
          "name": "id",
          "type": "uint256"
        },
        {
          "components": [
            {
              "internalType": "address",
              "name": "playerAddress",
              "type": "address"
            },
            {
              "internalType": "bool",
              "name": "commited",
              "type": "bool"
            },
            {
              "internalType": "bool",
              "name": "revealed",
              "type": "bool"
            },
            {
              "internalType": "enum BaseOwnerFunctional.Choice",
              "name": "choice",
              "type": "uint8"
            },
            {
              "internalType": "bytes32",
              "name": "commitment",
              "type": "bytes32"
            }
          ],
          "internalType": "struct BaseOwnerFunctional.Player",
          "name": "firstPlayer",
          "type": "tuple"
        },
        {
          "components": [
            {
              "internalType": "address",
              "name": "playerAddress",
              "type": "address"
            },
            {
              "internalType": "bool",
              "name": "commited",
              "type": "bool"
            },
            {
              "internalType": "bool",
              "name": "revealed",
              "type": "bool"
            },
            {
              "internalType": "enum BaseOwnerFunctional.Choice",
              "name": "choice",
              "type": "uint8"
            },
            {
              "internalType": "bytes32",
              "name": "commitment",
              "type": "bytes32"
            }
          ],
          "internalType": "struct BaseOwnerFunctional.Player",
          "name": "secondPlayer",
          "type": "tuple"
        },
        {
          "internalType": "enum BaseOwnerFunctional.Stage",
          "name": "stage",
          "type": "uint8"
        }
      ],
      "stateMutability": "view",
      "type": "function"
    },
    {
      "inputs": [
        {
          "internalType": "bytes4",
          "name": "interfaceId",
          "type": "bytes4"
        }
      ],
      "name": "supportsInterface",
      "outputs": [
        {
          "internalType": "bool",
          "name": "",
          "type": "bool"
        }
      ],
      "stateMutability": "view",
      "type": "function"
    },
    {
      "inputs": [
        {
          "internalType": "address",
          "name": "firstPlayerAddress",
          "type": "address"
        },
        {
          "internalType": "address",
          "name": "secondPlayerAddress",
          "type": "address"
        }
      ],
      "name": "createRoom",
      "outputs": [],
      "stateMutability": "nonpayable",
      "type": "function"
    },
    {
      "inputs": [
        {
          "internalType": "bytes32",
          "name": "role",
          "type": "bytes32"
        },
        {
          "internalType": "bytes32",
          "name": "adminRole",
          "type": "bytes32"
        }
      ],
      "name": "setRoleAdmin",
      "outputs": [],
      "stateMutability": "nonpayable",
      "type": "function"
    },
    {
      "inputs": [],
      "name": "getRoomCount",
      "outputs": [
        {
          "internalType": "uint256",
          "name": "",
          "type": "uint256"
        }
      ],
      "stateMutability": "view",
      "type": "function"
    },
    {
      "inputs": [
        {
          "internalType": "uint256",
          "name": "_id",
          "type": "uint256"
        }
      ],
      "name": "getRoomById",
      "outputs": [
        {
          "components": [
            {
              "internalType": "uint256",
              "name": "id",
              "type": "uint256"
            },
            {
              "components": [
                {
                  "internalType": "address",
                  "name": "playerAddress",
                  "type": "address"
                },
                {
                  "internalType": "bool",
                  "name": "commited",
                  "type": "bool"
                },
                {
                  "internalType": "bool",
                  "name": "revealed",
                  "type": "bool"
                },
                {
                  "internalType": "enum BaseOwnerFunctional.Choice",
                  "name": "choice",
                  "type": "uint8"
                },
                {
                  "internalType": "bytes32",
                  "name": "commitment",
                  "type": "bytes32"
                }
              ],
              "internalType": "struct BaseOwnerFunctional.Player",
              "name": "firstPlayer",
              "type": "tuple"
            },
            {
              "components": [
                {
                  "internalType": "address",
                  "name": "playerAddress",
                  "type": "address"
                },
                {
                  "internalType": "bool",
                  "name": "commited",
                  "type": "bool"
                },
                {
                  "internalType": "bool",
                  "name": "revealed",
                  "type": "bool"
                },
                {
                  "internalType": "enum BaseOwnerFunctional.Choice",
                  "name": "choice",
                  "type": "uint8"
                },
                {
                  "internalType": "bytes32",
                  "name": "commitment",
                  "type": "bytes32"
                }
              ],
              "internalType": "struct BaseOwnerFunctional.Player",
              "name": "secondPlayer",
              "type": "tuple"
            },
            {
              "internalType": "enum BaseOwnerFunctional.Stage",
              "name": "stage",
              "type": "uint8"
            }
          ],
          "internalType": "struct BaseOwnerFunctional.Room",
          "name": "",
          "type": "tuple"
        }
      ],
      "stateMutability": "view",
      "type": "function"
    }
  ],
  "bytecode": "0x60806040523480156200001157600080fd5b50604051620025d8380380620025d883398181016040528101906200003791906200046d565b620000956040516020016200004c90620004fa565b604051602081830303815290604052805190602001206040516020016200007390620004fa565b604051602081830303815290604052805190602001206200021e60201b60201c565b620000f3604051602001620000aa9062000561565b60405160208183030381529060405280519060200120604051602001620000d190620004fa565b604051602081830303815290604052805190602001206200021e60201b60201c565b620001516040516020016200010890620005c8565b604051602081830303815290604052805190602001206040516020016200012f9062000561565b604051602081830303815290604052805190602001206200021e60201b60201c565b620001986040516020016200016690620004fa565b604051602081830303815290604052805190602001206200018c6200028160201b60201c565b6200028960201b60201c565b620001df604051602001620001ad9062000561565b60405160208183030381529060405280519060200120620001d36200028160201b60201c565b6200028960201b60201c565b62000217604051602001620001f490620005c8565b60405160208183030381529060405280519060200120826200028960201b60201c565b50620005df565b600062000231836200037a60201b60201c565b905081600080858152602001908152602001600020600101819055508181847fbd79b86ffe0ab8e8776151514217cd7cacd52c909f66475c3af44e129f0b00ff60405160405180910390a4505050565b600033905090565b6200029b82826200039960201b60201c565b6200037657600160008084815260200190815260200160002060000160008373ffffffffffffffffffffffffffffffffffffffff1673ffffffffffffffffffffffffffffffffffffffff16815260200190815260200160002060006101000a81548160ff0219169083151502179055506200031b6200028160201b60201c565b73ffffffffffffffffffffffffffffffffffffffff168173ffffffffffffffffffffffffffffffffffffffff16837f2f8788117e7eff1d82e926ec794901d17c78024a50270940304540a733656f0d60405160405180910390a45b5050565b6000806000838152602001908152602001600020600101549050919050565b600080600084815260200190815260200160002060000160008373ffffffffffffffffffffffffffffffffffffffff1673ffffffffffffffffffffffffffffffffffffffff16815260200190815260200160002060009054906101000a900460ff16905092915050565b600080fd5b600073ffffffffffffffffffffffffffffffffffffffff82169050919050565b6000620004358262000408565b9050919050565b620004478162000428565b81146200045357600080fd5b50565b60008151905062000467816200043c565b92915050565b60006020828403121562000486576200048562000403565b5b6000620004968482850162000456565b91505092915050565b600081905092915050565b7f4f574e45525f524f4c4500000000000000000000000000000000000000000000600082015250565b6000620004e2600a836200049f565b9150620004ef82620004aa565b600a82019050919050565b60006200050782620004d3565b9150819050919050565b7f41444d494e5f524f4c4500000000000000000000000000000000000000000000600082015250565b600062000549600a836200049f565b9150620005568262000511565b600a82019050919050565b60006200056e826200053a565b9150819050919050565b7f4449535452494255544f525f524f4c4500000000000000000000000000000000600082015250565b6000620005b06010836200049f565b9150620005bd8262000578565b601082019050919050565b6000620005d582620005a1565b9150819050919050565b611fe980620005ef6000396000f3fe608060405234801561001057600080fd5b50600436106100f55760003560e01c806375b238fc11610097578063e58378bb11610066578063e58378bb14610299578063eadddb3c146102b7578063f0bd87cc146102d5578063f9a5918f146102f3576100f5565b806375b238fc1461021157806391d148541461022f578063a217fddf1461025f578063d547741f1461027d576100f5565b8063248a9ca3116100d3578063248a9ca3146101795780632f2ff15d146101a95780633495655a146101c557806336568abe146101f5576100f5565b806301ffc9a7146100fa5780631bae0ac81461012a5780631e4e00911461015d575b600080fd5b610114600480360381019061010f919061141e565b61030f565b6040516101219190611466565b60405180910390f35b610144600480360381019061013f91906114b7565b610389565b6040516101549493929190611683565b60405180910390f35b610177600480360381019061017291906116f6565b61057c565b005b610193600480360381019061018e9190611736565b6105b9565b6040516101a09190611772565b60405180910390f35b6101c360048036038101906101be91906117b9565b6105d8565b005b6101df60048036038101906101da91906114b7565b6105f9565b6040516101ec91906118d6565b60405180910390f35b61020f600480360381019061020a91906117b9565b610835565b005b6102196108b8565b6040516102269190611772565b60405180910390f35b610249600480360381019061024491906117b9565b6108e0565b6040516102569190611466565b60405180910390f35b61026761094a565b6040516102749190611772565b60405180910390f35b610297600480360381019061029291906117b9565b610951565b005b6102a1610972565b6040516102ae9190611772565b60405180910390f35b6102bf61099a565b6040516102cc91906118f2565b60405180910390f35b6102dd6109d3565b6040516102ea9190611772565b60405180910390f35b61030d6004803603810190610308919061190d565b6109fb565b005b60007f7965db0b000000000000000000000000000000000000000000000000000000007bffffffffffffffffffffffffffffffffffffffffffffffffffffffff1916827bffffffffffffffffffffffffffffffffffffffffffffffffffffffff19161480610382575061038182610da2565b5b9050919050565b6002602052806000526040600020600091509050806000015490806001016040518060a00160405290816000820160009054906101000a900473ffffffffffffffffffffffffffffffffffffffff1673ffffffffffffffffffffffffffffffffffffffff1673ffffffffffffffffffffffffffffffffffffffff1681526020016000820160149054906101000a900460ff161515151581526020016000820160159054906101000a900460ff161515151581526020016000820160169054906101000a900460ff16600381111561046357610462611543565b5b600381111561047557610474611543565b5b815260200160018201548152505090806003016040518060a00160405290816000820160009054906101000a900473ffffffffffffffffffffffffffffffffffffffff1673ffffffffffffffffffffffffffffffffffffffff1673ffffffffffffffffffffffffffffffffffffffff1681526020016000820160149054906101000a900460ff161515151581526020016000820160159054906101000a900460ff161515151581526020016000820160169054906101000a900460ff16600381111561054457610543611543565b5b600381111561055657610555611543565b5b8152602001600182015481525050908060050160009054906101000a900460ff16905084565b60405160200161058b906119a4565b604051602081830303815290604052805190602001206105aa81610e0c565b6105b48383610e20565b505050565b6000806000838152602001908152602001600020600101549050919050565b6105e1826105b9565b6105ea81610e0c565b6105f48383610e7b565b505050565b61060161131d565b6002600083815260200190815260200160002060405180608001604052908160008201548152602001600182016040518060a00160405290816000820160009054906101000a900473ffffffffffffffffffffffffffffffffffffffff1673ffffffffffffffffffffffffffffffffffffffff1673ffffffffffffffffffffffffffffffffffffffff1681526020016000820160149054906101000a900460ff161515151581526020016000820160159054906101000a900460ff161515151581526020016000820160169054906101000a900460ff1660038111156106ea576106e9611543565b5b60038111156106fc576106fb611543565b5b81526020016001820154815250508152602001600382016040518060a00160405290816000820160009054906101000a900473ffffffffffffffffffffffffffffffffffffffff1673ffffffffffffffffffffffffffffffffffffffff1673ffffffffffffffffffffffffffffffffffffffff1681526020016000820160149054906101000a900460ff161515151581526020016000820160159054906101000a900460ff161515151581526020016000820160169054906101000a900460ff1660038111156107cf576107ce611543565b5b60038111156107e1576107e0611543565b5b815260200160018201548152505081526020016005820160009054906101000a900460ff16600281111561081857610817611543565b5b600281111561082a57610829611543565b5b815250509050919050565b61083d610f5b565b73ffffffffffffffffffffffffffffffffffffffff168173ffffffffffffffffffffffffffffffffffffffff16146108aa576040517f08c379a00000000000000000000000000000000000000000000000000000000081526004016108a190611a3c565b60405180910390fd5b6108b48282610f63565b5050565b6040516020016108c790611aa8565b6040516020818303038152906040528051906020012081565b600080600084815260200190815260200160002060000160008373ffffffffffffffffffffffffffffffffffffffff1673ffffffffffffffffffffffffffffffffffffffff16815260200190815260200160002060009054906101000a900460ff16905092915050565b6000801b81565b61095a826105b9565b61096381610e0c565b61096d8383610f63565b505050565b604051602001610981906119a4565b6040516020818303038152906040528051906020012081565b60006040516020016109ab906119a4565b604051602081830303815290604052805190602001206109ca81610e0c565b60015491505090565b6040516020016109e290611b09565b6040516020818303038152906040528051906020012081565b8073ffffffffffffffffffffffffffffffffffffffff168273ffffffffffffffffffffffffffffffffffffffff1603610a69576040517f08c379a0000000000000000000000000000000000000000000000000000000008152600401610a6090611b6a565b60405180910390fd5b60006040518060a001604052808473ffffffffffffffffffffffffffffffffffffffff16815260200160001515815260200160001515815260200160006003811115610ab857610ab7611543565b5b81526020016000801b815250905060006040518060a001604052808473ffffffffffffffffffffffffffffffffffffffff16815260200160001515815260200160001515815260200160006003811115610b1557610b14611543565b5b81526020016000801b81525090506040518060800160405280600154815260200183815260200182815260200160006002811115610b5657610b55611543565b5b8152506002600060015481526020019081526020016000206000820151816000015560208201518160010160008201518160000160006101000a81548173ffffffffffffffffffffffffffffffffffffffff021916908373ffffffffffffffffffffffffffffffffffffffff16021790555060208201518160000160146101000a81548160ff02191690831515021790555060408201518160000160156101000a81548160ff02191690831515021790555060608201518160000160166101000a81548160ff02191690836003811115610c3357610c32611543565b5b021790555060808201518160010155505060408201518160030160008201518160000160006101000a81548173ffffffffffffffffffffffffffffffffffffffff021916908373ffffffffffffffffffffffffffffffffffffffff16021790555060208201518160000160146101000a81548160ff02191690831515021790555060408201518160000160156101000a81548160ff02191690831515021790555060608201518160000160166101000a81548160ff02191690836003811115610cff57610cfe611543565b5b021790555060808201518160010155505060608201518160050160006101000a81548160ff02191690836002811115610d3b57610d3a611543565b5b02179055509050507fcd359a5a81a67a8cba1fa58a9d77fcf61bd58c6ebc6703100aa52cceefffa08d60015485854342604051610d7c959493929190611b99565b60405180910390a160016000815480929190610d9790611c1b565b919050555050505050565b60007f01ffc9a7000000000000000000000000000000000000000000000000000000007bffffffffffffffffffffffffffffffffffffffffffffffffffffffff1916827bffffffffffffffffffffffffffffffffffffffffffffffffffffffff1916149050919050565b610e1d81610e18610f5b565b611044565b50565b6000610e2b836105b9565b905081600080858152602001908152602001600020600101819055508181847fbd79b86ffe0ab8e8776151514217cd7cacd52c909f66475c3af44e129f0b00ff60405160405180910390a4505050565b610e8582826108e0565b610f5757600160008084815260200190815260200160002060000160008373ffffffffffffffffffffffffffffffffffffffff1673ffffffffffffffffffffffffffffffffffffffff16815260200190815260200160002060006101000a81548160ff021916908315150217905550610efc610f5b565b73ffffffffffffffffffffffffffffffffffffffff168173ffffffffffffffffffffffffffffffffffffffff16837f2f8788117e7eff1d82e926ec794901d17c78024a50270940304540a733656f0d60405160405180910390a45b5050565b600033905090565b610f6d82826108e0565b1561104057600080600084815260200190815260200160002060000160008373ffffffffffffffffffffffffffffffffffffffff1673ffffffffffffffffffffffffffffffffffffffff16815260200190815260200160002060006101000a81548160ff021916908315150217905550610fe5610f5b565b73ffffffffffffffffffffffffffffffffffffffff168173ffffffffffffffffffffffffffffffffffffffff16837ff6391f5c32d9c69d2a47ea670b442974b53935d1edc7fd64eb21e047a839171b60405160405180910390a45b5050565b61104e82826108e0565b6110dd576110738173ffffffffffffffffffffffffffffffffffffffff1660146110e1565b6110818360001c60206110e1565b604051602001611092929190611d6a565b6040516020818303038152906040526040517f08c379a00000000000000000000000000000000000000000000000000000000081526004016110d49190611dee565b60405180910390fd5b5050565b6060600060028360026110f49190611e10565b6110fe9190611e6a565b67ffffffffffffffff81111561111757611116611ec0565b5b6040519080825280601f01601f1916602001820160405280156111495781602001600182028036833780820191505090505b5090507f30000000000000000000000000000000000000000000000000000000000000008160008151811061118157611180611eef565b5b60200101907effffffffffffffffffffffffffffffffffffffffffffffffffffffffffffff1916908160001a9053507f7800000000000000000000000000000000000000000000000000000000000000816001815181106111e5576111e4611eef565b5b60200101907effffffffffffffffffffffffffffffffffffffffffffffffffffffffffffff1916908160001a905350600060018460026112259190611e10565b61122f9190611e6a565b90505b60018111156112cf577f3031323334353637383961626364656600000000000000000000000000000000600f86166010811061127157611270611eef565b5b1a60f81b82828151811061128857611287611eef565b5b60200101907effffffffffffffffffffffffffffffffffffffffffffffffffffffffffffff1916908160001a905350600485901c9450806112c890611f1e565b9050611232565b5060008414611313576040517f08c379a000000000000000000000000000000000000000000000000000000000815260040161130a90611f93565b60405180910390fd5b8091505092915050565b604051806080016040528060008152602001611337611363565b8152602001611344611363565b81526020016000600281111561135d5761135c611543565b5b81525090565b6040518060a00160405280600073ffffffffffffffffffffffffffffffffffffffff168152602001600015158152602001600015158152602001600060038111156113b1576113b0611543565b5b8152602001600080191681525090565b600080fd5b60007fffffffff0000000000000000000000000000000000000000000000000000000082169050919050565b6113fb816113c6565b811461140657600080fd5b50565b600081359050611418816113f2565b92915050565b600060208284031215611434576114336113c1565b5b600061144284828501611409565b91505092915050565b60008115159050919050565b6114608161144b565b82525050565b600060208201905061147b6000830184611457565b92915050565b6000819050919050565b61149481611481565b811461149f57600080fd5b50565b6000813590506114b18161148b565b92915050565b6000602082840312156114cd576114cc6113c1565b5b60006114db848285016114a2565b91505092915050565b6114ed81611481565b82525050565b600073ffffffffffffffffffffffffffffffffffffffff82169050919050565b600061151e826114f3565b9050919050565b61152e81611513565b82525050565b61153d8161144b565b82525050565b7f4e487b7100000000000000000000000000000000000000000000000000000000600052602160045260246000fd5b6004811061158357611582611543565b5b50565b600081905061159482611572565b919050565b60006115a482611586565b9050919050565b6115b481611599565b82525050565b6000819050919050565b6115cd816115ba565b82525050565b60a0820160008201516115e96000850182611525565b5060208201516115fc6020850182611534565b50604082015161160f6040850182611534565b50606082015161162260608501826115ab565b50608082015161163560808501826115c4565b50505050565b6003811061164c5761164b611543565b5b50565b600081905061165d8261163b565b919050565b600061166d8261164f565b9050919050565b61167d81611662565b82525050565b60006101808201905061169960008301876114e4565b6116a660208301866115d3565b6116b360c08301856115d3565b6116c1610160830184611674565b95945050505050565b6116d3816115ba565b81146116de57600080fd5b50565b6000813590506116f0816116ca565b92915050565b6000806040838503121561170d5761170c6113c1565b5b600061171b858286016116e1565b925050602061172c858286016116e1565b9150509250929050565b60006020828403121561174c5761174b6113c1565b5b600061175a848285016116e1565b91505092915050565b61176c816115ba565b82525050565b60006020820190506117876000830184611763565b92915050565b61179681611513565b81146117a157600080fd5b50565b6000813590506117b38161178d565b92915050565b600080604083850312156117d0576117cf6113c1565b5b60006117de858286016116e1565b92505060206117ef858286016117a4565b9150509250929050565b61180281611481565b82525050565b60a08201600082015161181e6000850182611525565b5060208201516118316020850182611534565b5060408201516118446040850182611534565b50606082015161185760608501826115ab565b50608082015161186a60808501826115c4565b50505050565b61187981611662565b82525050565b6101808201600082015161189660008501826117f9565b5060208201516118a96020850182611808565b5060408201516118bc60c0850182611808565b5060608201516118d0610160850182611870565b50505050565b6000610180820190506118ec600083018461187f565b92915050565b600060208201905061190760008301846114e4565b92915050565b60008060408385031215611924576119236113c1565b5b6000611932858286016117a4565b9250506020611943858286016117a4565b9150509250929050565b600081905092915050565b7f4f574e45525f524f4c4500000000000000000000000000000000000000000000600082015250565b600061198e600a8361194d565b915061199982611958565b600a82019050919050565b60006119af82611981565b9150819050919050565b600082825260208201905092915050565b7f416363657373436f6e74726f6c3a2063616e206f6e6c792072656e6f756e636560008201527f20726f6c657320666f722073656c660000000000000000000000000000000000602082015250565b6000611a26602f836119b9565b9150611a31826119ca565b604082019050919050565b60006020820190508181036000830152611a5581611a19565b9050919050565b7f41444d494e5f524f4c4500000000000000000000000000000000000000000000600082015250565b6000611a92600a8361194d565b9150611a9d82611a5c565b600a82019050919050565b6000611ab382611a85565b9150819050919050565b7f4449535452494255544f525f524f4c4500000000000000000000000000000000600082015250565b6000611af360108361194d565b9150611afe82611abd565b601082019050919050565b6000611b1482611ae6565b9150819050919050565b7f416464726573733a2073616d652076616c756521000000000000000000000000600082015250565b6000611b546014836119b9565b9150611b5f82611b1e565b602082019050919050565b60006020820190508181036000830152611b8381611b47565b9050919050565b611b9381611513565b82525050565b600060a082019050611bae60008301886114e4565b611bbb6020830187611b8a565b611bc86040830186611b8a565b611bd560608301856114e4565b611be260808301846114e4565b9695505050505050565b7f4e487b7100000000000000000000000000000000000000000000000000000000600052601160045260246000fd5b6000611c2682611481565b91507fffffffffffffffffffffffffffffffffffffffffffffffffffffffffffffffff8203611c5857611c57611bec565b5b600182019050919050565b7f416363657373436f6e74726f6c3a206163636f756e7420000000000000000000600082015250565b6000611c9960178361194d565b9150611ca482611c63565b601782019050919050565b600081519050919050565b60005b83811015611cd8578082015181840152602081019050611cbd565b83811115611ce7576000848401525b50505050565b6000611cf882611caf565b611d02818561194d565b9350611d12818560208601611cba565b80840191505092915050565b7f206973206d697373696e6720726f6c6520000000000000000000000000000000600082015250565b6000611d5460118361194d565b9150611d5f82611d1e565b601182019050919050565b6000611d7582611c8c565b9150611d818285611ced565b9150611d8c82611d47565b9150611d988284611ced565b91508190509392505050565b6000601f19601f8301169050919050565b6000611dc082611caf565b611dca81856119b9565b9350611dda818560208601611cba565b611de381611da4565b840191505092915050565b60006020820190508181036000830152611e088184611db5565b905092915050565b6000611e1b82611481565b9150611e2683611481565b9250817fffffffffffffffffffffffffffffffffffffffffffffffffffffffffffffffff0483118215151615611e5f57611e5e611bec565b5b828202905092915050565b6000611e7582611481565b9150611e8083611481565b9250827fffffffffffffffffffffffffffffffffffffffffffffffffffffffffffffffff03821115611eb557611eb4611bec565b5b828201905092915050565b7f4e487b7100000000000000000000000000000000000000000000000000000000600052604160045260246000fd5b7f4e487b7100000000000000000000000000000000000000000000000000000000600052603260045260246000fd5b6000611f2982611481565b915060008203611f3c57611f3b611bec565b5b600182039050919050565b7f537472696e67733a20686578206c656e67746820696e73756666696369656e74600082015250565b6000611f7d6020836119b9565b9150611f8882611f47565b602082019050919050565b60006020820190508181036000830152611fac81611f70565b905091905056fea2646970667358221220508633c5631ff70efac7b90b9fdc90bf60a390a38a640c00b1a43e2a8b9deb1464736f6c634300080e0033",
  "immutableReferences": {},
  "source": "//SPDX-License-Identifier: Unlicense\r\npragma solidity ^0.8.0;\r\n\r\nimport \"@openzeppelin/contracts/access/Ownable.sol\";\r\nimport \"@openzeppelin/contracts/access/AccessControl.sol\";\r\n\r\n/**\r\n * @dev Contract module which provides a basic access control mechanism, where\r\n * there is an account (an owner) that can be granted exclusive access to\r\n * specific functions.\r\n *\r\n * By default, the owner account will be the one that deploys the contract. This\r\n * can later be changed with {transferOwnership}.\r\n *\r\n * This module is used through inheritance. It will make available the modifier\r\n * `onlyOwner`, which can be applied to your functions to restrict their use to\r\n * the owner.\r\n */\r\ncontract BaseOwnerFunctional is AccessControl {\r\n    bytes32 public constant OWNER_ROLE = keccak256(abi.encodePacked(\"OWNER_ROLE\"));\r\n    bytes32 public constant ADMIN_ROLE = keccak256(abi.encodePacked(\"ADMIN_ROLE\"));\r\n    bytes32 public constant DISTRIBUTOR_ROLE = keccak256(abi.encodePacked(\"DISTRIBUTOR_ROLE\"));\r\n\r\n    constructor(address distributor) {\r\n        _setRoleAdmin(OWNER_ROLE, OWNER_ROLE);\r\n        _setRoleAdmin(ADMIN_ROLE, OWNER_ROLE);\r\n        _setRoleAdmin(DISTRIBUTOR_ROLE, ADMIN_ROLE);\r\n\r\n        _grantRole(OWNER_ROLE, _msgSender());\r\n        _grantRole(ADMIN_ROLE, _msgSender());\r\n        _grantRole(DISTRIBUTOR_ROLE, distributor);\r\n    }\r\n\r\n    struct Player {\r\n        address playerAddress;\r\n        bool commited;\r\n        bool revealed;\r\n        Choice choice;\r\n        bytes32 commitment;\r\n    }\r\n\r\n    enum Stage {\r\n        Commit,\r\n        Reveal,\r\n        Distribute\r\n    }\r\n\r\n    enum Choice {\r\n        None,\r\n        Rock,\r\n        Paper,\r\n        Scissors\r\n    }\r\n\r\n    struct Room {\r\n        uint256 id;\r\n        Player firstPlayer;\r\n        Player secondPlayer;\r\n        Stage stage;\r\n    }\r\n\r\n    uint256 private roomCount;\r\n    mapping(uint256 => Room) public rooms;\r\n\r\n    event RoomCreated(\r\n        uint256 id,\r\n        address firstPlayer,\r\n        address secondPlayer,\r\n        uint256 blockNumber,\r\n        uint256 timestamp\r\n    );\r\n\r\n    function createRoom(address firstPlayerAddress, address secondPlayerAddress) external \r\n    // onlyRole(OWNER_ROLE) \r\n    {\r\n        require(\r\n            firstPlayerAddress != secondPlayerAddress,\r\n            \"Address: same value!\"\r\n        );\r\n\r\n        Player memory firstPlayer = Player(firstPlayerAddress, false, false, Choice.None, bytes32(0));\r\n        Player memory secondPlayer = Player(secondPlayerAddress, false, false, Choice.None, bytes32(0));\r\n\r\n        rooms[roomCount] = Room(roomCount, firstPlayer, secondPlayer, Stage.Commit);\r\n\r\n        emit RoomCreated(\r\n            roomCount,\r\n            firstPlayerAddress,\r\n            secondPlayerAddress,\r\n            block.number,\r\n            block.timestamp\r\n        );\r\n\r\n        roomCount++;\r\n    }\r\n\r\n    /**\r\n     * @dev Sets `adminRole` as ``role``'s admin role.\r\n     *\r\n     * Emits a {RoleAdminChanged} event.\r\n     */\r\n    function setRoleAdmin(bytes32 role, bytes32 adminRole)\r\n        external\r\n        onlyRole(OWNER_ROLE)\r\n    {\r\n        _setRoleAdmin(role, adminRole);\r\n    }\r\n\r\n    //         \r\n    function getRoomCount()\r\n        external\r\n        view\r\n        onlyRole(OWNER_ROLE)\r\n        returns (uint256)\r\n    {\r\n        return roomCount;\r\n    }\r\n\r\n    // \r\n    function getRoomById(uint256 _id) public view returns (Room memory) {\r\n        return rooms[_id];\r\n    }\r\n}\r\n",
  "sourcePath": "C:\\Users\\vania\\Documents\\GitHub\\rock-paper-scissors-solidity\\blockchain\\contracts\\v2\\BaseOwnerFunctional.sol",
  "compiler": {
    "name": "solc",
    "version": "0.8.14+commit.80d49f37.Emscripten.clang"
  },
  "schemaVersion": "3.4.7",
  "updatedAt": "2022-07-15T17:08:10.438Z",
  "devdoc": {
    "details": "Contract module which provides a basic access control mechanism, where there is an account (an owner) that can be granted exclusive access to specific functions. By default, the owner account will be the one that deploys the contract. This can later be changed with {transferOwnership}. This module is used through inheritance. It will make available the modifier `onlyOwner`, which can be applied to your functions to restrict their use to the owner.",
    "kind": "dev",
    "methods": {
      "getRoleAdmin(bytes32)": {
        "details": "Returns the admin role that controls `role`. See {grantRole} and {revokeRole}. To change a role's admin, use {_setRoleAdmin}."
      },
      "grantRole(bytes32,address)": {
        "details": "Grants `role` to `account`. If `account` had not been already granted `role`, emits a {RoleGranted} event. Requirements: - the caller must have ``role``'s admin role."
      },
      "hasRole(bytes32,address)": {
        "details": "Returns `true` if `account` has been granted `role`."
      },
      "renounceRole(bytes32,address)": {
        "details": "Revokes `role` from the calling account. Roles are often managed via {grantRole} and {revokeRole}: this function's purpose is to provide a mechanism for accounts to lose their privileges if they are compromised (such as when a trusted device is misplaced). If the calling account had been revoked `role`, emits a {RoleRevoked} event. Requirements: - the caller must be `account`."
      },
      "revokeRole(bytes32,address)": {
        "details": "Revokes `role` from `account`. If `account` had been granted `role`, emits a {RoleRevoked} event. Requirements: - the caller must have ``role``'s admin role."
      },
      "setRoleAdmin(bytes32,bytes32)": {
        "details": "Sets `adminRole` as ``role``'s admin role. Emits a {RoleAdminChanged} event."
      },
      "supportsInterface(bytes4)": {
        "details": "See {IERC165-supportsInterface}."
      }
    },
    "version": 1
  },
  "userdoc": {
    "kind": "user",
    "methods": {},
    "version": 1
  }
}