{
  "contractName": "BaseOwnerFunctional",
  "abi": [
    {
      "anonymous": false,
      "inputs": [
        {
          "indexed": true,
          "internalType": "address",
          "name": "previousOwner",
          "type": "address"
        },
        {
          "indexed": true,
          "internalType": "address",
          "name": "newOwner",
          "type": "address"
        }
      ],
      "name": "OwnershipTransferred",
      "type": "event"
    },
    {
      "anonymous": false,
      "inputs": [
        {
          "indexed": false,
          "internalType": "uint256",
          "name": "_id",
          "type": "uint256"
        },
        {
          "indexed": false,
          "internalType": "address",
          "name": "_firstPlayer",
          "type": "address"
        },
        {
          "indexed": false,
          "internalType": "address",
          "name": "_secondPlayer",
          "type": "address"
        },
        {
          "indexed": false,
          "internalType": "uint256",
          "name": "_blockNumber",
          "type": "uint256"
        },
        {
          "indexed": false,
          "internalType": "uint256",
          "name": "_timestamp",
          "type": "uint256"
        }
      ],
      "name": "RoomCreated",
      "type": "event"
    },
    {
      "inputs": [],
      "name": "owner",
      "outputs": [
        {
          "internalType": "address",
          "name": "",
          "type": "address"
        }
      ],
      "stateMutability": "view",
      "type": "function"
    },
    {
      "inputs": [],
      "name": "renounceOwnership",
      "outputs": [],
      "stateMutability": "nonpayable",
      "type": "function"
    },
    {
      "inputs": [
        {
          "internalType": "uint256",
          "name": "",
          "type": "uint256"
        }
      ],
      "name": "rooms",
      "outputs": [
        {
          "internalType": "uint256",
          "name": "id",
          "type": "uint256"
        },
        {
          "components": [
            {
              "internalType": "address",
              "name": "playerAddress",
              "type": "address"
            },
            {
              "internalType": "bool",
              "name": "commited",
              "type": "bool"
            },
            {
              "internalType": "bool",
              "name": "revealed",
              "type": "bool"
            },
            {
              "internalType": "enum BaseOwnerFunctional.Choice",
              "name": "choice",
              "type": "uint8"
            },
            {
              "internalType": "bytes32",
              "name": "commitment",
              "type": "bytes32"
            }
          ],
          "internalType": "struct BaseOwnerFunctional.Player",
          "name": "firstPlayer",
          "type": "tuple"
        },
        {
          "components": [
            {
              "internalType": "address",
              "name": "playerAddress",
              "type": "address"
            },
            {
              "internalType": "bool",
              "name": "commited",
              "type": "bool"
            },
            {
              "internalType": "bool",
              "name": "revealed",
              "type": "bool"
            },
            {
              "internalType": "enum BaseOwnerFunctional.Choice",
              "name": "choice",
              "type": "uint8"
            },
            {
              "internalType": "bytes32",
              "name": "commitment",
              "type": "bytes32"
            }
          ],
          "internalType": "struct BaseOwnerFunctional.Player",
          "name": "secondPlayer",
          "type": "tuple"
        },
        {
          "internalType": "enum BaseOwnerFunctional.Stage",
          "name": "stage",
          "type": "uint8"
        }
      ],
      "stateMutability": "view",
      "type": "function"
    },
    {
      "inputs": [
        {
          "internalType": "address",
          "name": "newOwner",
          "type": "address"
        }
      ],
      "name": "transferOwnership",
      "outputs": [],
      "stateMutability": "nonpayable",
      "type": "function"
    },
    {
      "inputs": [
        {
          "internalType": "address",
          "name": "_firstPlayerAddress",
          "type": "address"
        },
        {
          "internalType": "address",
          "name": "_secondPlayerAddress",
          "type": "address"
        }
      ],
      "name": "createRoom",
      "outputs": [],
      "stateMutability": "nonpayable",
      "type": "function"
    },
    {
      "inputs": [],
      "name": "getRoomCount",
      "outputs": [
        {
          "internalType": "uint256",
          "name": "",
          "type": "uint256"
        }
      ],
      "stateMutability": "view",
      "type": "function"
    },
    {
      "inputs": [
        {
          "internalType": "uint256",
          "name": "_id",
          "type": "uint256"
        }
      ],
      "name": "getRoomById",
      "outputs": [
        {
          "components": [
            {
              "internalType": "uint256",
              "name": "id",
              "type": "uint256"
            },
            {
              "components": [
                {
                  "internalType": "address",
                  "name": "playerAddress",
                  "type": "address"
                },
                {
                  "internalType": "bool",
                  "name": "commited",
                  "type": "bool"
                },
                {
                  "internalType": "bool",
                  "name": "revealed",
                  "type": "bool"
                },
                {
                  "internalType": "enum BaseOwnerFunctional.Choice",
                  "name": "choice",
                  "type": "uint8"
                },
                {
                  "internalType": "bytes32",
                  "name": "commitment",
                  "type": "bytes32"
                }
              ],
              "internalType": "struct BaseOwnerFunctional.Player",
              "name": "firstPlayer",
              "type": "tuple"
            },
            {
              "components": [
                {
                  "internalType": "address",
                  "name": "playerAddress",
                  "type": "address"
                },
                {
                  "internalType": "bool",
                  "name": "commited",
                  "type": "bool"
                },
                {
                  "internalType": "bool",
                  "name": "revealed",
                  "type": "bool"
                },
                {
                  "internalType": "enum BaseOwnerFunctional.Choice",
                  "name": "choice",
                  "type": "uint8"
                },
                {
                  "internalType": "bytes32",
                  "name": "commitment",
                  "type": "bytes32"
                }
              ],
              "internalType": "struct BaseOwnerFunctional.Player",
              "name": "secondPlayer",
              "type": "tuple"
            },
            {
              "internalType": "enum BaseOwnerFunctional.Stage",
              "name": "stage",
              "type": "uint8"
            }
          ],
          "internalType": "struct BaseOwnerFunctional.Room",
          "name": "",
          "type": "tuple"
        }
      ],
      "stateMutability": "view",
      "type": "function"
    }
  ],
  "bytecode": "0x608060405234801561001057600080fd5b5061002d61002261003260201b60201c565b61003a60201b60201c565b6100fe565b600033905090565b60008060009054906101000a900473ffffffffffffffffffffffffffffffffffffffff169050816000806101000a81548173ffffffffffffffffffffffffffffffffffffffff021916908373ffffffffffffffffffffffffffffffffffffffff1602179055508173ffffffffffffffffffffffffffffffffffffffff168173ffffffffffffffffffffffffffffffffffffffff167f8be0079c531659141344cd1fd0a4f28419497f9722a3daafe3b4186f6b6457e060405160405180910390a35050565b6113ff8061010d6000396000f3fe608060405234801561001057600080fd5b506004361061007d5760003560e01c80638da5cb5b1161005b5780638da5cb5b146100ef578063eadddb3c1461010d578063f2fde38b1461012b578063f9a5918f146101475761007d565b80631bae0ac8146100825780633495655a146100b5578063715018a6146100e5575b600080fd5b61009c60048036038101906100979190610d8e565b610163565b6040516100ac9493929190610f66565b60405180910390f35b6100cf60048036038101906100ca9190610d8e565b610356565b6040516100dc919061108a565b60405180910390f35b6100ed610592565b005b6100f761061a565b60405161010491906110b5565b60405180910390f35b610115610643565b60405161012291906110d0565b60405180910390f35b61014560048036038101906101409190611117565b6106c9565b005b610161600480360381019061015c9190611144565b6107c0565b005b6002602052806000526040600020600091509050806000015490806001016040518060a00160405290816000820160009054906101000a900473ffffffffffffffffffffffffffffffffffffffff1673ffffffffffffffffffffffffffffffffffffffff1673ffffffffffffffffffffffffffffffffffffffff1681526020016000820160149054906101000a900460ff161515151581526020016000820160159054906101000a900460ff161515151581526020016000820160169054906101000a900460ff16600381111561023d5761023c610e26565b5b600381111561024f5761024e610e26565b5b815260200160018201548152505090806003016040518060a00160405290816000820160009054906101000a900473ffffffffffffffffffffffffffffffffffffffff1673ffffffffffffffffffffffffffffffffffffffff1673ffffffffffffffffffffffffffffffffffffffff1681526020016000820160149054906101000a900460ff161515151581526020016000820160159054906101000a900460ff161515151581526020016000820160169054906101000a900460ff16600381111561031e5761031d610e26565b5b60038111156103305761032f610e26565b5b8152602001600182015481525050908060050160009054906101000a900460ff16905084565b61035e610caf565b6002600083815260200190815260200160002060405180608001604052908160008201548152602001600182016040518060a00160405290816000820160009054906101000a900473ffffffffffffffffffffffffffffffffffffffff1673ffffffffffffffffffffffffffffffffffffffff1673ffffffffffffffffffffffffffffffffffffffff1681526020016000820160149054906101000a900460ff161515151581526020016000820160159054906101000a900460ff161515151581526020016000820160169054906101000a900460ff16600381111561044757610446610e26565b5b600381111561045957610458610e26565b5b81526020016001820154815250508152602001600382016040518060a00160405290816000820160009054906101000a900473ffffffffffffffffffffffffffffffffffffffff1673ffffffffffffffffffffffffffffffffffffffff1673ffffffffffffffffffffffffffffffffffffffff1681526020016000820160149054906101000a900460ff161515151581526020016000820160159054906101000a900460ff161515151581526020016000820160169054906101000a900460ff16600381111561052c5761052b610e26565b5b600381111561053e5761053d610e26565b5b815260200160018201548152505081526020016005820160009054906101000a900460ff16600281111561057557610574610e26565b5b600281111561058757610586610e26565b5b815250509050919050565b61059a610be3565b73ffffffffffffffffffffffffffffffffffffffff166105b861061a565b73ffffffffffffffffffffffffffffffffffffffff161461060e576040517f08c379a0000000000000000000000000000000000000000000000000000000008152600401610605906111e1565b60405180910390fd5b6106186000610beb565b565b60008060009054906101000a900473ffffffffffffffffffffffffffffffffffffffff16905090565b600061064d610be3565b73ffffffffffffffffffffffffffffffffffffffff1661066b61061a565b73ffffffffffffffffffffffffffffffffffffffff16146106c1576040517f08c379a00000000000000000000000000000000000000000000000000000000081526004016106b8906111e1565b60405180910390fd5b600154905090565b6106d1610be3565b73ffffffffffffffffffffffffffffffffffffffff166106ef61061a565b73ffffffffffffffffffffffffffffffffffffffff1614610745576040517f08c379a000000000000000000000000000000000000000000000000000000000815260040161073c906111e1565b60405180910390fd5b600073ffffffffffffffffffffffffffffffffffffffff168173ffffffffffffffffffffffffffffffffffffffff16036107b4576040517f08c379a00000000000000000000000000000000000000000000000000000000081526004016107ab90611273565b60405180910390fd5b6107bd81610beb565b50565b6107c8610be3565b73ffffffffffffffffffffffffffffffffffffffff166107e661061a565b73ffffffffffffffffffffffffffffffffffffffff161461083c576040517f08c379a0000000000000000000000000000000000000000000000000000000008152600401610833906111e1565b60405180910390fd5b8073ffffffffffffffffffffffffffffffffffffffff168273ffffffffffffffffffffffffffffffffffffffff16036108aa576040517f08c379a00000000000000000000000000000000000000000000000000000000081526004016108a1906112df565b60405180910390fd5b60006040518060a001604052808473ffffffffffffffffffffffffffffffffffffffff168152602001600015158152602001600015158152602001600060038111156108f9576108f8610e26565b5b81526020016000801b815250905060006040518060a001604052808473ffffffffffffffffffffffffffffffffffffffff1681526020016000151581526020016000151581526020016000600381111561095657610955610e26565b5b81526020016000801b8152509050604051806080016040528060015481526020018381526020018281526020016000600281111561099757610996610e26565b5b8152506002600060015481526020019081526020016000206000820151816000015560208201518160010160008201518160000160006101000a81548173ffffffffffffffffffffffffffffffffffffffff021916908373ffffffffffffffffffffffffffffffffffffffff16021790555060208201518160000160146101000a81548160ff02191690831515021790555060408201518160000160156101000a81548160ff02191690831515021790555060608201518160000160166101000a81548160ff02191690836003811115610a7457610a73610e26565b5b021790555060808201518160010155505060408201518160030160008201518160000160006101000a81548173ffffffffffffffffffffffffffffffffffffffff021916908373ffffffffffffffffffffffffffffffffffffffff16021790555060208201518160000160146101000a81548160ff02191690831515021790555060408201518160000160156101000a81548160ff02191690831515021790555060608201518160000160166101000a81548160ff02191690836003811115610b4057610b3f610e26565b5b021790555060808201518160010155505060608201518160050160006101000a81548160ff02191690836002811115610b7c57610b7b610e26565b5b02179055509050507fcd359a5a81a67a8cba1fa58a9d77fcf61bd58c6ebc6703100aa52cceefffa08d60015485854342604051610bbd9594939291906112ff565b60405180910390a160016000815480929190610bd890611381565b919050555050505050565b600033905090565b60008060009054906101000a900473ffffffffffffffffffffffffffffffffffffffff169050816000806101000a81548173ffffffffffffffffffffffffffffffffffffffff021916908373ffffffffffffffffffffffffffffffffffffffff1602179055508173ffffffffffffffffffffffffffffffffffffffff168173ffffffffffffffffffffffffffffffffffffffff167f8be0079c531659141344cd1fd0a4f28419497f9722a3daafe3b4186f6b6457e060405160405180910390a35050565b604051806080016040528060008152602001610cc9610cf5565b8152602001610cd6610cf5565b815260200160006002811115610cef57610cee610e26565b5b81525090565b6040518060a00160405280600073ffffffffffffffffffffffffffffffffffffffff16815260200160001515815260200160001515815260200160006003811115610d4357610d42610e26565b5b8152602001600080191681525090565b600080fd5b6000819050919050565b610d6b81610d58565b8114610d7657600080fd5b50565b600081359050610d8881610d62565b92915050565b600060208284031215610da457610da3610d53565b5b6000610db284828501610d79565b91505092915050565b610dc481610d58565b82525050565b600073ffffffffffffffffffffffffffffffffffffffff82169050919050565b6000610df582610dca565b9050919050565b610e0581610dea565b82525050565b60008115159050919050565b610e2081610e0b565b82525050565b7f4e487b7100000000000000000000000000000000000000000000000000000000600052602160045260246000fd5b60048110610e6657610e65610e26565b5b50565b6000819050610e7782610e55565b919050565b6000610e8782610e69565b9050919050565b610e9781610e7c565b82525050565b6000819050919050565b610eb081610e9d565b82525050565b60a082016000820151610ecc6000850182610dfc565b506020820151610edf6020850182610e17565b506040820151610ef26040850182610e17565b506060820151610f056060850182610e8e565b506080820151610f186080850182610ea7565b50505050565b60038110610f2f57610f2e610e26565b5b50565b6000819050610f4082610f1e565b919050565b6000610f5082610f32565b9050919050565b610f6081610f45565b82525050565b600061018082019050610f7c6000830187610dbb565b610f896020830186610eb6565b610f9660c0830185610eb6565b610fa4610160830184610f57565b95945050505050565b610fb681610d58565b82525050565b60a082016000820151610fd26000850182610dfc565b506020820151610fe56020850182610e17565b506040820151610ff86040850182610e17565b50606082015161100b6060850182610e8e565b50608082015161101e6080850182610ea7565b50505050565b61102d81610f45565b82525050565b6101808201600082015161104a6000850182610fad565b50602082015161105d6020850182610fbc565b50604082015161107060c0850182610fbc565b506060820151611084610160850182611024565b50505050565b6000610180820190506110a06000830184611033565b92915050565b6110af81610dea565b82525050565b60006020820190506110ca60008301846110a6565b92915050565b60006020820190506110e56000830184610dbb565b92915050565b6110f481610dea565b81146110ff57600080fd5b50565b600081359050611111816110eb565b92915050565b60006020828403121561112d5761112c610d53565b5b600061113b84828501611102565b91505092915050565b6000806040838503121561115b5761115a610d53565b5b600061116985828601611102565b925050602061117a85828601611102565b9150509250929050565b600082825260208201905092915050565b7f4f776e61626c653a2063616c6c6572206973206e6f7420746865206f776e6572600082015250565b60006111cb602083611184565b91506111d682611195565b602082019050919050565b600060208201905081810360008301526111fa816111be565b9050919050565b7f4f776e61626c653a206e6577206f776e657220697320746865207a65726f206160008201527f6464726573730000000000000000000000000000000000000000000000000000602082015250565b600061125d602683611184565b915061126882611201565b604082019050919050565b6000602082019050818103600083015261128c81611250565b9050919050565b7f416464726573733a2073616d652076616c756521000000000000000000000000600082015250565b60006112c9601483611184565b91506112d482611293565b602082019050919050565b600060208201905081810360008301526112f8816112bc565b9050919050565b600060a0820190506113146000830188610dbb565b61132160208301876110a6565b61132e60408301866110a6565b61133b6060830185610dbb565b6113486080830184610dbb565b9695505050505050565b7f4e487b7100000000000000000000000000000000000000000000000000000000600052601160045260246000fd5b600061138c82610d58565b91507fffffffffffffffffffffffffffffffffffffffffffffffffffffffffffffffff82036113be576113bd611352565b5b60018201905091905056fea264697066735822122005117956fcc893676295d44e27f716b68f72ddb0deaf4cf2f28bf6fdaf6be74164736f6c634300080e0033",
  "immutableReferences": {},
  "source": "//SPDX-License-Identifier: Unlicense\r\npragma solidity ^0.8.0;\r\n\r\nimport \"@openzeppelin/contracts/access/Ownable.sol\";\r\n\r\n/**\r\n * @dev Contract module which provides a basic access control mechanism, where\r\n * there is an account (an owner) that can be granted exclusive access to\r\n * specific functions.\r\n *\r\n * By default, the owner account will be the one that deploys the contract. This\r\n * can later be changed with {transferOwnership}.\r\n *\r\n * This module is used through inheritance. It will make available the modifier\r\n * `onlyOwner`, which can be applied to your functions to restrict their use to\r\n * the owner.\r\n */\r\ncontract BaseOwnerFunctional is Ownable {\r\n\r\n    struct Player {\r\n        address playerAddress;\r\n        bool commited;\r\n        bool revealed;\r\n        Choice choice;\r\n        bytes32 commitment;\r\n    }\r\n\r\n    enum Stage {\r\n        Commit,\r\n        Reveal,\r\n        Distribute\r\n    }\r\n\r\n    enum Choice {\r\n        None,\r\n        Rock,\r\n        Paper,\r\n        Scissors\r\n    }\r\n\r\n    struct Room {\r\n        uint id;\r\n        Player firstPlayer;\r\n        Player secondPlayer;\r\n        Stage stage;\r\n    }\r\n\r\n    uint private roomCount;\r\n    mapping(uint => Room) public rooms;\r\n\r\n    event RoomCreated(uint _id, address _firstPlayer, address _secondPlayer, uint _blockNumber, uint _timestamp);\r\n\r\n    function createRoom(address _firstPlayerAddress, address _secondPlayerAddress) external onlyOwner {\r\n        require(_firstPlayerAddress != _secondPlayerAddress, \"Address: same value!\");\r\n\r\n        Player memory firstPlayer = Player(_firstPlayerAddress, false, false, Choice.None, bytes32(0));\r\n        Player memory secondPlayer = Player(_secondPlayerAddress, false, false, Choice.None, bytes32(0));\r\n\r\n        rooms[roomCount] = Room(roomCount, firstPlayer, secondPlayer, Stage.Commit);\r\n\r\n        emit RoomCreated(roomCount, _firstPlayerAddress, _secondPlayerAddress, block.number, block.timestamp);\r\n\r\n        roomCount++;\r\n    }\r\n\r\n    //         \r\n    function getRoomCount() external view onlyOwner returns(uint){\r\n        return roomCount;\r\n    }\r\n\r\n    // \r\n    function getRoomById(uint _id) public view returns(Room memory) {\r\n        return rooms[_id];\r\n    }\r\n}",
  "sourcePath": "C:\\Users\\vania\\Documents\\GitHub\\rock-paper-scissors-solidity\\blockchain\\contracts\\BaseOwnerFunctional.sol",
  "compiler": {
    "name": "solc",
    "version": "0.8.14+commit.80d49f37.Emscripten.clang"
  },
  "schemaVersion": "3.4.7",
  "updatedAt": "2022-06-12T22:47:33.595Z",
  "devdoc": {
    "details": "Contract module which provides a basic access control mechanism, where there is an account (an owner) that can be granted exclusive access to specific functions. By default, the owner account will be the one that deploys the contract. This can later be changed with {transferOwnership}. This module is used through inheritance. It will make available the modifier `onlyOwner`, which can be applied to your functions to restrict their use to the owner.",
    "kind": "dev",
    "methods": {
      "owner()": {
        "details": "Returns the address of the current owner."
      },
      "renounceOwnership()": {
        "details": "Leaves the contract without owner. It will not be possible to call `onlyOwner` functions anymore. Can only be called by the current owner. NOTE: Renouncing ownership will leave the contract without an owner, thereby removing any functionality that is only available to the owner."
      },
      "transferOwnership(address)": {
        "details": "Transfers ownership of the contract to a new account (`newOwner`). Can only be called by the current owner."
      }
    },
    "version": 1
  },
  "userdoc": {
    "kind": "user",
    "methods": {},
    "version": 1
  }
}