{
  "contractName": "GameV2",
  "abi": [
    {
      "inputs": [
        {
          "internalType": "address",
          "name": "_distributor",
          "type": "address"
        }
      ],
      "stateMutability": "nonpayable",
      "type": "constructor"
    },
    {
      "inputs": [],
      "name": "AlreadyCommited",
      "type": "error"
    },
    {
      "inputs": [],
      "name": "AlreadyRevealed",
      "type": "error"
    },
    {
      "inputs": [],
      "name": "InvalidHash",
      "type": "error"
    },
    {
      "inputs": [],
      "name": "PlayerNotExist",
      "type": "error"
    },
    {
      "inputs": [],
      "name": "RoomNotExist",
      "type": "error"
    },
    {
      "inputs": [],
      "name": "WrongChoice",
      "type": "error"
    },
    {
      "inputs": [],
      "name": "WrongStage",
      "type": "error"
    },
    {
      "anonymous": false,
      "inputs": [
        {
          "indexed": true,
          "internalType": "uint256",
          "name": "roomId",
          "type": "uint256"
        },
        {
          "indexed": true,
          "internalType": "address",
          "name": "player",
          "type": "address"
        }
      ],
      "name": "Commited",
      "type": "event"
    },
    {
      "anonymous": false,
      "inputs": [
        {
          "indexed": true,
          "internalType": "uint256",
          "name": "roomId",
          "type": "uint256"
        },
        {
          "indexed": false,
          "internalType": "enum IGameV2.Stage",
          "name": "stage",
          "type": "uint8"
        }
      ],
      "name": "Distributed",
      "type": "event"
    },
    {
      "anonymous": false,
      "inputs": [
        {
          "indexed": true,
          "internalType": "uint256",
          "name": "roomId",
          "type": "uint256"
        },
        {
          "indexed": false,
          "internalType": "address",
          "name": "winner",
          "type": "address"
        }
      ],
      "name": "GameResult",
      "type": "event"
    },
    {
      "anonymous": false,
      "inputs": [
        {
          "indexed": true,
          "internalType": "uint256",
          "name": "roomId",
          "type": "uint256"
        },
        {
          "indexed": true,
          "internalType": "address",
          "name": "player",
          "type": "address"
        },
        {
          "indexed": false,
          "internalType": "enum IGameV2.Choice",
          "name": "choice",
          "type": "uint8"
        }
      ],
      "name": "Revealed",
      "type": "event"
    },
    {
      "anonymous": false,
      "inputs": [
        {
          "indexed": true,
          "internalType": "bytes32",
          "name": "role",
          "type": "bytes32"
        },
        {
          "indexed": true,
          "internalType": "bytes32",
          "name": "previousAdminRole",
          "type": "bytes32"
        },
        {
          "indexed": true,
          "internalType": "bytes32",
          "name": "newAdminRole",
          "type": "bytes32"
        }
      ],
      "name": "RoleAdminChanged",
      "type": "event"
    },
    {
      "anonymous": false,
      "inputs": [
        {
          "indexed": true,
          "internalType": "bytes32",
          "name": "role",
          "type": "bytes32"
        },
        {
          "indexed": true,
          "internalType": "address",
          "name": "account",
          "type": "address"
        },
        {
          "indexed": true,
          "internalType": "address",
          "name": "sender",
          "type": "address"
        }
      ],
      "name": "RoleGranted",
      "type": "event"
    },
    {
      "anonymous": false,
      "inputs": [
        {
          "indexed": true,
          "internalType": "bytes32",
          "name": "role",
          "type": "bytes32"
        },
        {
          "indexed": true,
          "internalType": "address",
          "name": "account",
          "type": "address"
        },
        {
          "indexed": true,
          "internalType": "address",
          "name": "sender",
          "type": "address"
        }
      ],
      "name": "RoleRevoked",
      "type": "event"
    },
    {
      "anonymous": false,
      "inputs": [
        {
          "indexed": true,
          "internalType": "address",
          "name": "player0",
          "type": "address"
        },
        {
          "indexed": true,
          "internalType": "address",
          "name": "player1",
          "type": "address"
        },
        {
          "indexed": false,
          "internalType": "uint256",
          "name": "roomId",
          "type": "uint256"
        }
      ],
      "name": "RoomCreated",
      "type": "event"
    },
    {
      "anonymous": false,
      "inputs": [
        {
          "indexed": true,
          "internalType": "uint256",
          "name": "roomId",
          "type": "uint256"
        },
        {
          "indexed": false,
          "internalType": "enum IGameV2.Stage",
          "name": "stage",
          "type": "uint8"
        }
      ],
      "name": "StageChanged",
      "type": "event"
    },
    {
      "inputs": [],
      "name": "DEFAULT_ADMIN_ROLE",
      "outputs": [
        {
          "internalType": "bytes32",
          "name": "",
          "type": "bytes32"
        }
      ],
      "stateMutability": "view",
      "type": "function"
    },
    {
      "inputs": [],
      "name": "DISTRIBUTOR_ROLE",
      "outputs": [
        {
          "internalType": "bytes32",
          "name": "",
          "type": "bytes32"
        }
      ],
      "stateMutability": "view",
      "type": "function"
    },
    {
      "inputs": [],
      "name": "OWNER_ROLE",
      "outputs": [
        {
          "internalType": "bytes32",
          "name": "",
          "type": "bytes32"
        }
      ],
      "stateMutability": "view",
      "type": "function"
    },
    {
      "inputs": [],
      "name": "distributor",
      "outputs": [
        {
          "internalType": "address",
          "name": "",
          "type": "address"
        }
      ],
      "stateMutability": "view",
      "type": "function"
    },
    {
      "inputs": [
        {
          "internalType": "bytes32",
          "name": "role",
          "type": "bytes32"
        }
      ],
      "name": "getRoleAdmin",
      "outputs": [
        {
          "internalType": "bytes32",
          "name": "",
          "type": "bytes32"
        }
      ],
      "stateMutability": "view",
      "type": "function"
    },
    {
      "inputs": [
        {
          "internalType": "uint256",
          "name": "",
          "type": "uint256"
        }
      ],
      "name": "getRoomById",
      "outputs": [
        {
          "internalType": "uint256",
          "name": "id",
          "type": "uint256"
        },
        {
          "components": [
            {
              "internalType": "address",
              "name": "playerAddress",
              "type": "address"
            },
            {
              "internalType": "bool",
              "name": "commited",
              "type": "bool"
            },
            {
              "internalType": "bool",
              "name": "revealed",
              "type": "bool"
            },
            {
              "internalType": "enum IGameV2.Choice",
              "name": "choice",
              "type": "uint8"
            },
            {
              "internalType": "bytes32",
              "name": "commitment",
              "type": "bytes32"
            }
          ],
          "internalType": "struct IGameV2.Player",
          "name": "player0",
          "type": "tuple"
        },
        {
          "components": [
            {
              "internalType": "address",
              "name": "playerAddress",
              "type": "address"
            },
            {
              "internalType": "bool",
              "name": "commited",
              "type": "bool"
            },
            {
              "internalType": "bool",
              "name": "revealed",
              "type": "bool"
            },
            {
              "internalType": "enum IGameV2.Choice",
              "name": "choice",
              "type": "uint8"
            },
            {
              "internalType": "bytes32",
              "name": "commitment",
              "type": "bytes32"
            }
          ],
          "internalType": "struct IGameV2.Player",
          "name": "player1",
          "type": "tuple"
        },
        {
          "internalType": "enum IGameV2.Stage",
          "name": "stage",
          "type": "uint8"
        },
        {
          "internalType": "uint256",
          "name": "gameCounter",
          "type": "uint256"
        }
      ],
      "stateMutability": "view",
      "type": "function"
    },
    {
      "inputs": [
        {
          "internalType": "address",
          "name": "",
          "type": "address"
        },
        {
          "internalType": "address",
          "name": "",
          "type": "address"
        }
      ],
      "name": "getRoomByPlayerAddresses",
      "outputs": [
        {
          "internalType": "uint256",
          "name": "",
          "type": "uint256"
        }
      ],
      "stateMutability": "view",
      "type": "function"
    },
    {
      "inputs": [
        {
          "internalType": "bytes32",
          "name": "role",
          "type": "bytes32"
        },
        {
          "internalType": "address",
          "name": "account",
          "type": "address"
        }
      ],
      "name": "grantRole",
      "outputs": [],
      "stateMutability": "nonpayable",
      "type": "function"
    },
    {
      "inputs": [
        {
          "internalType": "bytes32",
          "name": "role",
          "type": "bytes32"
        },
        {
          "internalType": "address",
          "name": "account",
          "type": "address"
        }
      ],
      "name": "hasRole",
      "outputs": [
        {
          "internalType": "bool",
          "name": "",
          "type": "bool"
        }
      ],
      "stateMutability": "view",
      "type": "function"
    },
    {
      "inputs": [
        {
          "internalType": "bytes32",
          "name": "role",
          "type": "bytes32"
        },
        {
          "internalType": "address",
          "name": "account",
          "type": "address"
        }
      ],
      "name": "renounceRole",
      "outputs": [],
      "stateMutability": "nonpayable",
      "type": "function"
    },
    {
      "inputs": [
        {
          "internalType": "bytes32",
          "name": "role",
          "type": "bytes32"
        },
        {
          "internalType": "address",
          "name": "account",
          "type": "address"
        }
      ],
      "name": "revokeRole",
      "outputs": [],
      "stateMutability": "nonpayable",
      "type": "function"
    },
    {
      "inputs": [
        {
          "internalType": "bytes4",
          "name": "interfaceId",
          "type": "bytes4"
        }
      ],
      "name": "supportsInterface",
      "outputs": [
        {
          "internalType": "bool",
          "name": "",
          "type": "bool"
        }
      ],
      "stateMutability": "view",
      "type": "function"
    },
    {
      "inputs": [
        {
          "internalType": "address",
          "name": "playerA",
          "type": "address"
        },
        {
          "internalType": "address",
          "name": "playerB",
          "type": "address"
        }
      ],
      "name": "createRoom",
      "outputs": [],
      "stateMutability": "nonpayable",
      "type": "function"
    },
    {
      "inputs": [
        {
          "internalType": "uint256",
          "name": "roomId",
          "type": "uint256"
        },
        {
          "internalType": "bytes32",
          "name": "commitment",
          "type": "bytes32"
        }
      ],
      "name": "commit",
      "outputs": [],
      "stateMutability": "nonpayable",
      "type": "function"
    },
    {
      "inputs": [
        {
          "internalType": "uint256",
          "name": "roomId",
          "type": "uint256"
        },
        {
          "internalType": "enum IGameV2.Stage",
          "name": "stage",
          "type": "uint8"
        }
      ],
      "name": "nextStage",
      "outputs": [],
      "stateMutability": "nonpayable",
      "type": "function"
    }
  ],
  "bytecode": "0x60a06040523480156200001157600080fd5b5060405162002616380380620026168339818101604052810190620000379190620003ed565b620000956040516020016200004c906200047a565b6040516020818303038152906040528051906020012060405160200162000073906200047a565b604051602081830303815290604052805190602001206200019e60201b60201c565b620000f3604051602001620000aa90620004e1565b60405160208183030381529060405280519060200120604051602001620000d1906200047a565b604051602081830303815290604052805190602001206200019e60201b60201c565b6200012b60405160200162000108906200047a565b60405160208183030381529060405280519060200120336200020160201b60201c565b620001636040516020016200014090620004e1565b60405160208183030381529060405280519060200120826200020160201b60201c565b8073ffffffffffffffffffffffffffffffffffffffff1660808173ffffffffffffffffffffffffffffffffffffffff168152505050620004f8565b6000620001b183620002f260201b60201c565b905081600080858152602001908152602001600020600101819055508181847fbd79b86ffe0ab8e8776151514217cd7cacd52c909f66475c3af44e129f0b00ff60405160405180910390a4505050565b6200021382826200031160201b60201c565b620002ee57600160008084815260200190815260200160002060000160008373ffffffffffffffffffffffffffffffffffffffff1673ffffffffffffffffffffffffffffffffffffffff16815260200190815260200160002060006101000a81548160ff021916908315150217905550620002936200037b60201b60201c565b73ffffffffffffffffffffffffffffffffffffffff168173ffffffffffffffffffffffffffffffffffffffff16837f2f8788117e7eff1d82e926ec794901d17c78024a50270940304540a733656f0d60405160405180910390a45b5050565b6000806000838152602001908152602001600020600101549050919050565b600080600084815260200190815260200160002060000160008373ffffffffffffffffffffffffffffffffffffffff1673ffffffffffffffffffffffffffffffffffffffff16815260200190815260200160002060009054906101000a900460ff16905092915050565b600033905090565b600080fd5b600073ffffffffffffffffffffffffffffffffffffffff82169050919050565b6000620003b58262000388565b9050919050565b620003c781620003a8565b8114620003d357600080fd5b50565b600081519050620003e781620003bc565b92915050565b60006020828403121562000406576200040562000383565b5b60006200041684828501620003d6565b91505092915050565b600081905092915050565b7f4f574e45525f524f4c4500000000000000000000000000000000000000000000600082015250565b600062000462600a836200041f565b91506200046f826200042a565b600a82019050919050565b6000620004878262000453565b9150819050919050565b7f4449535452494255544f525f524f4c4500000000000000000000000000000000600082015250565b6000620004c96010836200041f565b9150620004d68262000491565b601082019050919050565b6000620004ee82620004ba565b9150819050919050565b6080516121026200051460003960006106b701526121026000f3fe608060405234801561001057600080fd5b50600436106100f55760003560e01c8063bfe1092811610097578063f0bd87cc11610066578063f0bd87cc14610288578063f2f03877146102a6578063f9a5918f146102c2578063fe509016146102de576100f5565b8063bfe1092814610214578063d222871e14610232578063d547741f1461024e578063e58378bb1461026a576100f5565b80633495655a116100d35780633495655a1461017657806336568abe146101aa57806391d14854146101c6578063a217fddf146101f6576100f5565b806301ffc9a7146100fa578063248a9ca31461012a5780632f2ff15d1461015a575b600080fd5b610114600480360381019061010f91906116a6565b61030e565b60405161012191906116ee565b60405180910390f35b610144600480360381019061013f919061173f565b610388565b604051610151919061177b565b60405180910390f35b610174600480360381019061016f91906117f4565b6103a7565b005b610190600480360381019061018b919061186a565b6103c8565b6040516101a19594939291906119fa565b60405180910390f35b6101c460048036038101906101bf91906117f4565b6105c1565b005b6101e060048036038101906101db91906117f4565b610644565b6040516101ed91906116ee565b60405180910390f35b6101fe6106ae565b60405161020b919061177b565b60405180910390f35b61021c6106b5565b6040516102299190611a5f565b60405180910390f35b61024c60048036038101906102479190611a9f565b6106d9565b005b610268600480360381019061026391906117f4565b6107f6565b005b610272610817565b60405161027f919061177b565b60405180910390f35b61029061083f565b60405161029d919061177b565b60405180910390f35b6102c060048036038101906102bb9190611adf565b610867565b005b6102dc60048036038101906102d79190611b1f565b610adb565b005b6102f860048036038101906102f39190611b1f565b611091565b6040516103059190611b5f565b60405180910390f35b60007f7965db0b000000000000000000000000000000000000000000000000000000007bffffffffffffffffffffffffffffffffffffffffffffffffffffffff1916827bffffffffffffffffffffffffffffffffffffffffffffffffffffffff191614806103815750610380826110b6565b5b9050919050565b6000806000838152602001908152602001600020600101549050919050565b6103b082610388565b6103b981611120565b6103c38383611134565b505050565b6002602052806000526040600020600091509050806000015490806001016040518060a00160405290816000820160009054906101000a900473ffffffffffffffffffffffffffffffffffffffff1673ffffffffffffffffffffffffffffffffffffffff1673ffffffffffffffffffffffffffffffffffffffff1681526020016000820160149054906101000a900460ff161515151581526020016000820160159054906101000a900460ff161515151581526020016000820160169054906101000a900460ff1660038111156104a2576104a16118c4565b5b60038111156104b4576104b36118c4565b5b815260200160018201548152505090806003016040518060a00160405290816000820160009054906101000a900473ffffffffffffffffffffffffffffffffffffffff1673ffffffffffffffffffffffffffffffffffffffff1673ffffffffffffffffffffffffffffffffffffffff1681526020016000820160149054906101000a900460ff161515151581526020016000820160159054906101000a900460ff161515151581526020016000820160169054906101000a900460ff166003811115610583576105826118c4565b5b6003811115610595576105946118c4565b5b8152602001600182015481525050908060050160009054906101000a900460ff16908060060154905085565b6105c9611214565b73ffffffffffffffffffffffffffffffffffffffff168173ffffffffffffffffffffffffffffffffffffffff1614610636576040517f08c379a000000000000000000000000000000000000000000000000000000000815260040161062d90611bfd565b60405180910390fd5b610640828261121c565b5050565b600080600084815260200190815260200160002060000160008373ffffffffffffffffffffffffffffffffffffffff1673ffffffffffffffffffffffffffffffffffffffff16815260200190815260200160002060009054906101000a900460ff16905092915050565b6000801b81565b7f000000000000000000000000000000000000000000000000000000000000000081565b6040516020016106e890611c74565b6040516020818303038152906040528051906020012061070781611120565b6000600260008581526020019081526020016000209050826002811115610731576107306118c4565b5b8160050160009054906101000a900460ff166002811115610755576107546118c4565b5b0361078c576040517fa05e34ba00000000000000000000000000000000000000000000000000000000815260040160405180910390fd5b828160050160006101000a81548160ff021916908360028111156107b3576107b26118c4565b5b0217905550837fdf37221aaffab5daec18329c74e9de71f26727289dfefd6e144987965be79ef3846040516107e89190611c89565b60405180910390a250505050565b6107ff82610388565b61080881611120565b610812838361121c565b505050565b60405160200161082690611cf0565b6040516020818303038152906040528051906020012081565b60405160200161084e90611c74565b6040516020818303038152906040528051906020012081565b600060026000848152602001908152602001600020905060008160000154036108bc576040517fb70c1fec00000000000000000000000000000000000000000000000000000000815260040160405180910390fd5b3373ffffffffffffffffffffffffffffffffffffffff168160010160000160009054906101000a900473ffffffffffffffffffffffffffffffffffffffff1673ffffffffffffffffffffffffffffffffffffffff161415801561097257503373ffffffffffffffffffffffffffffffffffffffff168160030160000160009054906101000a900473ffffffffffffffffffffffffffffffffffffffff1673ffffffffffffffffffffffffffffffffffffffff1614155b156109a9576040517f1f42735400000000000000000000000000000000000000000000000000000000815260040160405180910390fd5b600060028111156109bd576109bc6118c4565b5b8160050160009054906101000a900460ff1660028111156109e1576109e06118c4565b5b14610a18576040517fa05e34ba00000000000000000000000000000000000000000000000000000000815260040160405180910390fd5b3373ffffffffffffffffffffffffffffffffffffffff168160010160000160009054906101000a900473ffffffffffffffffffffffffffffffffffffffff1673ffffffffffffffffffffffffffffffffffffffff1603610a8457610a7f81600101836112fd565b610a92565b610a9181600301836112fd565b5b3373ffffffffffffffffffffffffffffffffffffffff16837f2f63308b073d0d25029a549b999d196c6bbc8b3bdb3b694d879a74d070ddbe9a60405160405180910390a3505050565b8073ffffffffffffffffffffffffffffffffffffffff168273ffffffffffffffffffffffffffffffffffffffff1603610b1357600080fd5b6000808273ffffffffffffffffffffffffffffffffffffffff168473ffffffffffffffffffffffffffffffffffffffff1610610b50578284610b53565b83835b91509150600073ffffffffffffffffffffffffffffffffffffffff168273ffffffffffffffffffffffffffffffffffffffff1603610b9057600080fd5b6000600160008473ffffffffffffffffffffffffffffffffffffffff1673ffffffffffffffffffffffffffffffffffffffff16815260200190815260200160002060008373ffffffffffffffffffffffffffffffffffffffff1673ffffffffffffffffffffffffffffffffffffffff1681526020019081526020016000205414610c1957600080fd5b60006040518060a001604052808473ffffffffffffffffffffffffffffffffffffffff16815260200160001515815260200160001515815260200160006003811115610c6857610c676118c4565b5b81526020016000801b815250905060006040518060a001604052808473ffffffffffffffffffffffffffffffffffffffff16815260200160001515815260200160001515815260200160006003811115610cc557610cc46118c4565b5b81526020016000801b815250905060036000815480929190610ce690611d34565b91905055506040518060a00160405280600354815260200183815260200182815260200160006002811115610d1e57610d1d6118c4565b5b815260200160008152506002600060035481526020019081526020016000206000820151816000015560208201518160010160008201518160000160006101000a81548173ffffffffffffffffffffffffffffffffffffffff021916908373ffffffffffffffffffffffffffffffffffffffff16021790555060208201518160000160146101000a81548160ff02191690831515021790555060408201518160000160156101000a81548160ff02191690831515021790555060608201518160000160166101000a81548160ff02191690836003811115610e0257610e016118c4565b5b021790555060808201518160010155505060408201518160030160008201518160000160006101000a81548173ffffffffffffffffffffffffffffffffffffffff021916908373ffffffffffffffffffffffffffffffffffffffff16021790555060208201518160000160146101000a81548160ff02191690831515021790555060408201518160000160156101000a81548160ff02191690831515021790555060608201518160000160166101000a81548160ff02191690836003811115610ece57610ecd6118c4565b5b021790555060808201518160010155505060608201518160050160006101000a81548160ff02191690836002811115610f0a57610f096118c4565b5b021790555060808201518160060155905050600354600160008673ffffffffffffffffffffffffffffffffffffffff1673ffffffffffffffffffffffffffffffffffffffff16815260200190815260200160002060008573ffffffffffffffffffffffffffffffffffffffff1673ffffffffffffffffffffffffffffffffffffffff16815260200190815260200160002081905550600354600160008573ffffffffffffffffffffffffffffffffffffffff1673ffffffffffffffffffffffffffffffffffffffff16815260200190815260200160002060008673ffffffffffffffffffffffffffffffffffffffff1673ffffffffffffffffffffffffffffffffffffffff168152602001908152602001600020819055508273ffffffffffffffffffffffffffffffffffffffff168473ffffffffffffffffffffffffffffffffffffffff167f6849f7a409ad97d39c5ffa074bf765330bf1a574da99d4c4831196ecd77ea8da6003546040516110819190611b5f565b60405180910390a3505050505050565b6001602052816000526040600020602052806000526040600020600091509150505481565b60007f01ffc9a7000000000000000000000000000000000000000000000000000000007bffffffffffffffffffffffffffffffffffffffffffffffffffffffff1916827bffffffffffffffffffffffffffffffffffffffffffffffffffffffff1916149050919050565b6111318161112c611214565b611370565b50565b61113e8282610644565b61121057600160008084815260200190815260200160002060000160008373ffffffffffffffffffffffffffffffffffffffff1673ffffffffffffffffffffffffffffffffffffffff16815260200190815260200160002060006101000a81548160ff0219169083151502179055506111b5611214565b73ffffffffffffffffffffffffffffffffffffffff168173ffffffffffffffffffffffffffffffffffffffff16837f2f8788117e7eff1d82e926ec794901d17c78024a50270940304540a733656f0d60405160405180910390a45b5050565b600033905090565b6112268282610644565b156112f957600080600084815260200190815260200160002060000160008373ffffffffffffffffffffffffffffffffffffffff1673ffffffffffffffffffffffffffffffffffffffff16815260200190815260200160002060006101000a81548160ff02191690831515021790555061129e611214565b73ffffffffffffffffffffffffffffffffffffffff168173ffffffffffffffffffffffffffffffffffffffff16837ff6391f5c32d9c69d2a47ea670b442974b53935d1edc7fd64eb21e047a839171b60405160405180910390a45b5050565b8160000160149054906101000a900460ff1615611346576040517ffc507a3100000000000000000000000000000000000000000000000000000000815260040160405180910390fd5b80826001018190555060018260000160146101000a81548160ff0219169083151502179055505050565b61137a8282610644565b6114095761139f8173ffffffffffffffffffffffffffffffffffffffff16601461140d565b6113ad8360001c602061140d565b6040516020016113be929190611e83565b6040516020818303038152906040526040517f08c379a00000000000000000000000000000000000000000000000000000000081526004016114009190611f07565b60405180910390fd5b5050565b6060600060028360026114209190611f29565b61142a9190611f83565b67ffffffffffffffff81111561144357611442611fd9565b5b6040519080825280601f01601f1916602001820160405280156114755781602001600182028036833780820191505090505b5090507f3000000000000000000000000000000000000000000000000000000000000000816000815181106114ad576114ac612008565b5b60200101907effffffffffffffffffffffffffffffffffffffffffffffffffffffffffffff1916908160001a9053507f78000000000000000000000000000000000000000000000000000000000000008160018151811061151157611510612008565b5b60200101907effffffffffffffffffffffffffffffffffffffffffffffffffffffffffffff1916908160001a905350600060018460026115519190611f29565b61155b9190611f83565b90505b60018111156115fb577f3031323334353637383961626364656600000000000000000000000000000000600f86166010811061159d5761159c612008565b5b1a60f81b8282815181106115b4576115b3612008565b5b60200101907effffffffffffffffffffffffffffffffffffffffffffffffffffffffffffff1916908160001a905350600485901c9450806115f490612037565b905061155e565b506000841461163f576040517f08c379a0000000000000000000000000000000000000000000000000000000008152600401611636906120ac565b60405180910390fd5b8091505092915050565b600080fd5b60007fffffffff0000000000000000000000000000000000000000000000000000000082169050919050565b6116838161164e565b811461168e57600080fd5b50565b6000813590506116a08161167a565b92915050565b6000602082840312156116bc576116bb611649565b5b60006116ca84828501611691565b91505092915050565b60008115159050919050565b6116e8816116d3565b82525050565b600060208201905061170360008301846116df565b92915050565b6000819050919050565b61171c81611709565b811461172757600080fd5b50565b60008135905061173981611713565b92915050565b60006020828403121561175557611754611649565b5b60006117638482850161172a565b91505092915050565b61177581611709565b82525050565b6000602082019050611790600083018461176c565b92915050565b600073ffffffffffffffffffffffffffffffffffffffff82169050919050565b60006117c182611796565b9050919050565b6117d1816117b6565b81146117dc57600080fd5b50565b6000813590506117ee816117c8565b92915050565b6000806040838503121561180b5761180a611649565b5b60006118198582860161172a565b925050602061182a858286016117df565b9150509250929050565b6000819050919050565b61184781611834565b811461185257600080fd5b50565b6000813590506118648161183e565b92915050565b6000602082840312156118805761187f611649565b5b600061188e84828501611855565b91505092915050565b6118a081611834565b82525050565b6118af816117b6565b82525050565b6118be816116d3565b82525050565b7f4e487b7100000000000000000000000000000000000000000000000000000000600052602160045260246000fd5b60048110611904576119036118c4565b5b50565b6000819050611915826118f3565b919050565b600061192582611907565b9050919050565b6119358161191a565b82525050565b61194481611709565b82525050565b60a08201600082015161196060008501826118a6565b50602082015161197360208501826118b5565b50604082015161198660408501826118b5565b506060820151611999606085018261192c565b5060808201516119ac608085018261193b565b50505050565b600381106119c3576119c26118c4565b5b50565b60008190506119d4826119b2565b919050565b60006119e4826119c6565b9050919050565b6119f4816119d9565b82525050565b60006101a082019050611a106000830188611897565b611a1d602083018761194a565b611a2a60c083018661194a565b611a386101608301856119eb565b611a46610180830184611897565b9695505050505050565b611a59816117b6565b82525050565b6000602082019050611a746000830184611a50565b92915050565b60038110611a8757600080fd5b50565b600081359050611a9981611a7a565b92915050565b60008060408385031215611ab657611ab5611649565b5b6000611ac485828601611855565b9250506020611ad585828601611a8a565b9150509250929050565b60008060408385031215611af657611af5611649565b5b6000611b0485828601611855565b9250506020611b158582860161172a565b9150509250929050565b60008060408385031215611b3657611b35611649565b5b6000611b44858286016117df565b9250506020611b55858286016117df565b9150509250929050565b6000602082019050611b746000830184611897565b92915050565b600082825260208201905092915050565b7f416363657373436f6e74726f6c3a2063616e206f6e6c792072656e6f756e636560008201527f20726f6c657320666f722073656c660000000000000000000000000000000000602082015250565b6000611be7602f83611b7a565b9150611bf282611b8b565b604082019050919050565b60006020820190508181036000830152611c1681611bda565b9050919050565b600081905092915050565b7f4449535452494255544f525f524f4c4500000000000000000000000000000000600082015250565b6000611c5e601083611c1d565b9150611c6982611c28565b601082019050919050565b6000611c7f82611c51565b9150819050919050565b6000602082019050611c9e60008301846119eb565b92915050565b7f4f574e45525f524f4c4500000000000000000000000000000000000000000000600082015250565b6000611cda600a83611c1d565b9150611ce582611ca4565b600a82019050919050565b6000611cfb82611ccd565b9150819050919050565b7f4e487b7100000000000000000000000000000000000000000000000000000000600052601160045260246000fd5b6000611d3f82611834565b91507fffffffffffffffffffffffffffffffffffffffffffffffffffffffffffffffff8203611d7157611d70611d05565b5b600182019050919050565b7f416363657373436f6e74726f6c3a206163636f756e7420000000000000000000600082015250565b6000611db2601783611c1d565b9150611dbd82611d7c565b601782019050919050565b600081519050919050565b60005b83811015611df1578082015181840152602081019050611dd6565b83811115611e00576000848401525b50505050565b6000611e1182611dc8565b611e1b8185611c1d565b9350611e2b818560208601611dd3565b80840191505092915050565b7f206973206d697373696e6720726f6c6520000000000000000000000000000000600082015250565b6000611e6d601183611c1d565b9150611e7882611e37565b601182019050919050565b6000611e8e82611da5565b9150611e9a8285611e06565b9150611ea582611e60565b9150611eb18284611e06565b91508190509392505050565b6000601f19601f8301169050919050565b6000611ed982611dc8565b611ee38185611b7a565b9350611ef3818560208601611dd3565b611efc81611ebd565b840191505092915050565b60006020820190508181036000830152611f218184611ece565b905092915050565b6000611f3482611834565b9150611f3f83611834565b9250817fffffffffffffffffffffffffffffffffffffffffffffffffffffffffffffffff0483118215151615611f7857611f77611d05565b5b828202905092915050565b6000611f8e82611834565b9150611f9983611834565b9250827fffffffffffffffffffffffffffffffffffffffffffffffffffffffffffffffff03821115611fce57611fcd611d05565b5b828201905092915050565b7f4e487b7100000000000000000000000000000000000000000000000000000000600052604160045260246000fd5b7f4e487b7100000000000000000000000000000000000000000000000000000000600052603260045260246000fd5b600061204282611834565b91506000820361205557612054611d05565b5b600182039050919050565b7f537472696e67733a20686578206c656e67746820696e73756666696369656e74600082015250565b6000612096602083611b7a565b91506120a182612060565b602082019050919050565b600060208201905081810360008301526120c581612089565b905091905056fea2646970667358221220472aa8e01dbfaec95daecd13b49698d97e3c4b41eac3c529020adf62a12b02f664736f6c634300080e0033",
  "immutableReferences": {
    "12655": [
      {
        "length": 32,
        "start": 1719
      }
    ]
  },
  "source": "//SPDX-License-Identifier: Unlicense\r\npragma solidity ^0.8.7;\r\n\r\nimport \"@openzeppelin/contracts/access/AccessControl.sol\";\r\nimport \"./interfaces/IGameV2.sol\";\r\n\r\ncontract GameV2 is IGameV2, AccessControl {\r\n    bytes32 public constant OWNER_ROLE = keccak256(abi.encodePacked(\"OWNER_ROLE\"));\r\n    bytes32 public constant DISTRIBUTOR_ROLE = keccak256(abi.encodePacked(\"DISTRIBUTOR_ROLE\"));\r\n\r\n    mapping(address => mapping(address => uint256)) public getRoomByPlayerAddresses;\r\n    mapping(uint256 => Room) public getRoomById;\r\n    uint256 private roomCounter;\r\n\r\n    address immutable public distributor;  \r\n\r\n    constructor(address _distributor) {\r\n        _setRoleAdmin(OWNER_ROLE, OWNER_ROLE);\r\n        _setRoleAdmin(DISTRIBUTOR_ROLE, OWNER_ROLE);\r\n\r\n        _grantRole(OWNER_ROLE, msg.sender);\r\n        _grantRole(DISTRIBUTOR_ROLE, _distributor);\r\n\r\n        distributor = _distributor;\r\n    }\r\n\r\n    function createRoom(address playerA, address playerB) external override {\r\n        require(playerA != playerB);\r\n        (address player0Address, address player1Address) = playerA < playerB ? (playerA, playerB) : (playerB, playerA);\r\n        require(player0Address != address(0));\r\n        require(getRoomByPlayerAddresses[player0Address][player1Address] == 0);\r\n\r\n        Player memory player0 = Player(player0Address, false, false, Choice.None, bytes32(0));\r\n        Player memory player1 = Player(player1Address, false, false, Choice.None, bytes32(0));\r\n\r\n        roomCounter++;\r\n        getRoomById[roomCounter] = Room(roomCounter, player0, player1, Stage.Commit, 0);\r\n        getRoomByPlayerAddresses[player0Address][player1Address] = roomCounter;\r\n        getRoomByPlayerAddresses[player1Address][player0Address] = roomCounter;\r\n        emit RoomCreated(player0Address, player1Address, roomCounter); \r\n    }\r\n\r\n    function commit(uint256 roomId, bytes32 commitment) external override {\r\n        Room storage room = getRoomById[roomId];\r\n        if(room.id == 0) {\r\n            revert RoomNotExist();\r\n        }\r\n        if(room.player0.playerAddress != msg.sender && room.player1.playerAddress != msg.sender){\r\n            revert PlayerNotExist();\r\n        }\r\n        if (room.stage != Stage.Commit) {\r\n            revert WrongStage();\r\n        }\r\n        // Only run during commit stages\r\n        // Player memory player;\r\n        if(room.player0.playerAddress == msg.sender) {\r\n            setCommitment(room.player0, commitment);\r\n        } else {\r\n            setCommitment(room.player1, commitment);\r\n        }\r\n        emit Commited(roomId, msg.sender);\r\n    }\r\n\r\n    function nextStage(uint256 roomId, Stage stage) external onlyRole(DISTRIBUTOR_ROLE) {\r\n        Room storage room = getRoomById[roomId];\r\n        if(room.stage == stage) {\r\n            revert WrongStage();\r\n        }\r\n        room.stage = stage;\r\n        emit StageChanged(roomId, stage);\r\n    }\r\n\r\n    function setCommitment(Player storage player, bytes32 commitment) private {\r\n        if(player.commited){\r\n            revert AlreadyCommited();\r\n        }\r\n        player.commitment = commitment;\r\n        player.commited = true;\r\n    }\r\n}",
  "sourcePath": "C:\\Users\\vania\\Documents\\GitHub\\rock-paper-scissors-solidity\\blockchain\\contracts\\v2\\GameV2.sol",
  "compiler": {
    "name": "solc",
    "version": "0.8.14+commit.80d49f37.Emscripten.clang"
  },
  "schemaVersion": "3.4.7",
  "updatedAt": "2022-07-15T17:08:10.447Z",
  "devdoc": {
    "kind": "dev",
    "methods": {
      "getRoleAdmin(bytes32)": {
        "details": "Returns the admin role that controls `role`. See {grantRole} and {revokeRole}. To change a role's admin, use {_setRoleAdmin}."
      },
      "grantRole(bytes32,address)": {
        "details": "Grants `role` to `account`. If `account` had not been already granted `role`, emits a {RoleGranted} event. Requirements: - the caller must have ``role``'s admin role."
      },
      "hasRole(bytes32,address)": {
        "details": "Returns `true` if `account` has been granted `role`."
      },
      "renounceRole(bytes32,address)": {
        "details": "Revokes `role` from the calling account. Roles are often managed via {grantRole} and {revokeRole}: this function's purpose is to provide a mechanism for accounts to lose their privileges if they are compromised (such as when a trusted device is misplaced). If the calling account had been revoked `role`, emits a {RoleRevoked} event. Requirements: - the caller must be `account`."
      },
      "revokeRole(bytes32,address)": {
        "details": "Revokes `role` from `account`. If `account` had been granted `role`, emits a {RoleRevoked} event. Requirements: - the caller must have ``role``'s admin role."
      },
      "supportsInterface(bytes4)": {
        "details": "See {IERC165-supportsInterface}."
      }
    },
    "version": 1
  },
  "userdoc": {
    "kind": "user",
    "methods": {},
    "version": 1
  }
}