{
  "contractName": "GameV2",
  "abi": [
    {
      "inputs": [
        {
          "internalType": "address",
          "name": "_distributor",
          "type": "address"
        },
        {
          "internalType": "contract Rops",
          "name": "_rops",
          "type": "address"
        }
      ],
      "stateMutability": "nonpayable",
      "type": "constructor"
    },
    {
      "inputs": [],
      "name": "AlreadyCommited",
      "type": "error"
    },
    {
      "inputs": [],
      "name": "AlreadyRevealed",
      "type": "error"
    },
    {
      "inputs": [],
      "name": "InvalidHash",
      "type": "error"
    },
    {
      "inputs": [],
      "name": "PlayerNotExist",
      "type": "error"
    },
    {
      "inputs": [],
      "name": "RoomNotExist",
      "type": "error"
    },
    {
      "inputs": [],
      "name": "WrongChoice",
      "type": "error"
    },
    {
      "inputs": [],
      "name": "WrongStage",
      "type": "error"
    },
    {
      "anonymous": false,
      "inputs": [
        {
          "indexed": true,
          "internalType": "uint256",
          "name": "roomId",
          "type": "uint256"
        },
        {
          "indexed": true,
          "internalType": "address",
          "name": "player",
          "type": "address"
        }
      ],
      "name": "Commited",
      "type": "event"
    },
    {
      "anonymous": false,
      "inputs": [
        {
          "indexed": true,
          "internalType": "uint256",
          "name": "roomId",
          "type": "uint256"
        },
        {
          "indexed": false,
          "internalType": "enum IGameV2.Stage",
          "name": "stage",
          "type": "uint8"
        }
      ],
      "name": "Distributed",
      "type": "event"
    },
    {
      "anonymous": false,
      "inputs": [
        {
          "indexed": true,
          "internalType": "uint256",
          "name": "roomId",
          "type": "uint256"
        },
        {
          "indexed": false,
          "internalType": "address",
          "name": "winner",
          "type": "address"
        },
        {
          "indexed": false,
          "internalType": "uint256",
          "name": "gameId",
          "type": "uint256"
        }
      ],
      "name": "GameResult",
      "type": "event"
    },
    {
      "anonymous": false,
      "inputs": [
        {
          "indexed": true,
          "internalType": "uint256",
          "name": "roomId",
          "type": "uint256"
        },
        {
          "indexed": true,
          "internalType": "address",
          "name": "player",
          "type": "address"
        },
        {
          "indexed": false,
          "internalType": "enum IGameV2.Choice",
          "name": "choice",
          "type": "uint8"
        }
      ],
      "name": "Revealed",
      "type": "event"
    },
    {
      "anonymous": false,
      "inputs": [
        {
          "indexed": true,
          "internalType": "bytes32",
          "name": "role",
          "type": "bytes32"
        },
        {
          "indexed": true,
          "internalType": "bytes32",
          "name": "previousAdminRole",
          "type": "bytes32"
        },
        {
          "indexed": true,
          "internalType": "bytes32",
          "name": "newAdminRole",
          "type": "bytes32"
        }
      ],
      "name": "RoleAdminChanged",
      "type": "event"
    },
    {
      "anonymous": false,
      "inputs": [
        {
          "indexed": true,
          "internalType": "bytes32",
          "name": "role",
          "type": "bytes32"
        },
        {
          "indexed": true,
          "internalType": "address",
          "name": "account",
          "type": "address"
        },
        {
          "indexed": true,
          "internalType": "address",
          "name": "sender",
          "type": "address"
        }
      ],
      "name": "RoleGranted",
      "type": "event"
    },
    {
      "anonymous": false,
      "inputs": [
        {
          "indexed": true,
          "internalType": "bytes32",
          "name": "role",
          "type": "bytes32"
        },
        {
          "indexed": true,
          "internalType": "address",
          "name": "account",
          "type": "address"
        },
        {
          "indexed": true,
          "internalType": "address",
          "name": "sender",
          "type": "address"
        }
      ],
      "name": "RoleRevoked",
      "type": "event"
    },
    {
      "anonymous": false,
      "inputs": [
        {
          "indexed": true,
          "internalType": "uint256",
          "name": "roomId",
          "type": "uint256"
        },
        {
          "indexed": true,
          "internalType": "address",
          "name": "player0",
          "type": "address"
        },
        {
          "indexed": true,
          "internalType": "address",
          "name": "player1",
          "type": "address"
        }
      ],
      "name": "RoomCreated",
      "type": "event"
    },
    {
      "anonymous": false,
      "inputs": [
        {
          "indexed": true,
          "internalType": "uint256",
          "name": "roomId",
          "type": "uint256"
        },
        {
          "indexed": false,
          "internalType": "enum IGameV2.Stage",
          "name": "stage",
          "type": "uint8"
        }
      ],
      "name": "StageChanged",
      "type": "event"
    },
    {
      "inputs": [],
      "name": "DEFAULT_ADMIN_ROLE",
      "outputs": [
        {
          "internalType": "bytes32",
          "name": "",
          "type": "bytes32"
        }
      ],
      "stateMutability": "view",
      "type": "function"
    },
    {
      "inputs": [],
      "name": "DISTRIBUTOR_ROLE",
      "outputs": [
        {
          "internalType": "bytes32",
          "name": "",
          "type": "bytes32"
        }
      ],
      "stateMutability": "view",
      "type": "function"
    },
    {
      "inputs": [],
      "name": "OWNER_ROLE",
      "outputs": [
        {
          "internalType": "bytes32",
          "name": "",
          "type": "bytes32"
        }
      ],
      "stateMutability": "view",
      "type": "function"
    },
    {
      "inputs": [],
      "name": "distributor",
      "outputs": [
        {
          "internalType": "address",
          "name": "",
          "type": "address"
        }
      ],
      "stateMutability": "view",
      "type": "function"
    },
    {
      "inputs": [
        {
          "internalType": "bytes32",
          "name": "role",
          "type": "bytes32"
        }
      ],
      "name": "getRoleAdmin",
      "outputs": [
        {
          "internalType": "bytes32",
          "name": "",
          "type": "bytes32"
        }
      ],
      "stateMutability": "view",
      "type": "function"
    },
    {
      "inputs": [
        {
          "internalType": "uint256",
          "name": "",
          "type": "uint256"
        }
      ],
      "name": "getRoomById",
      "outputs": [
        {
          "internalType": "uint256",
          "name": "id",
          "type": "uint256"
        },
        {
          "components": [
            {
              "internalType": "address",
              "name": "playerAddress",
              "type": "address"
            },
            {
              "internalType": "bool",
              "name": "commited",
              "type": "bool"
            },
            {
              "internalType": "bool",
              "name": "revealed",
              "type": "bool"
            },
            {
              "internalType": "enum IGameV2.Choice",
              "name": "choice",
              "type": "uint8"
            },
            {
              "internalType": "bytes32",
              "name": "commitment",
              "type": "bytes32"
            }
          ],
          "internalType": "struct IGameV2.Player",
          "name": "player0",
          "type": "tuple"
        },
        {
          "components": [
            {
              "internalType": "address",
              "name": "playerAddress",
              "type": "address"
            },
            {
              "internalType": "bool",
              "name": "commited",
              "type": "bool"
            },
            {
              "internalType": "bool",
              "name": "revealed",
              "type": "bool"
            },
            {
              "internalType": "enum IGameV2.Choice",
              "name": "choice",
              "type": "uint8"
            },
            {
              "internalType": "bytes32",
              "name": "commitment",
              "type": "bytes32"
            }
          ],
          "internalType": "struct IGameV2.Player",
          "name": "player1",
          "type": "tuple"
        },
        {
          "internalType": "enum IGameV2.Stage",
          "name": "stage",
          "type": "uint8"
        },
        {
          "internalType": "uint256",
          "name": "gameId",
          "type": "uint256"
        }
      ],
      "stateMutability": "view",
      "type": "function"
    },
    {
      "inputs": [
        {
          "internalType": "address",
          "name": "",
          "type": "address"
        },
        {
          "internalType": "address",
          "name": "",
          "type": "address"
        }
      ],
      "name": "getRoomByPlayerAddresses",
      "outputs": [
        {
          "internalType": "uint256",
          "name": "",
          "type": "uint256"
        }
      ],
      "stateMutability": "view",
      "type": "function"
    },
    {
      "inputs": [
        {
          "internalType": "bytes32",
          "name": "role",
          "type": "bytes32"
        },
        {
          "internalType": "address",
          "name": "account",
          "type": "address"
        }
      ],
      "name": "grantRole",
      "outputs": [],
      "stateMutability": "nonpayable",
      "type": "function"
    },
    {
      "inputs": [
        {
          "internalType": "bytes32",
          "name": "role",
          "type": "bytes32"
        },
        {
          "internalType": "address",
          "name": "account",
          "type": "address"
        }
      ],
      "name": "hasRole",
      "outputs": [
        {
          "internalType": "bool",
          "name": "",
          "type": "bool"
        }
      ],
      "stateMutability": "view",
      "type": "function"
    },
    {
      "inputs": [
        {
          "internalType": "bytes32",
          "name": "role",
          "type": "bytes32"
        },
        {
          "internalType": "address",
          "name": "account",
          "type": "address"
        }
      ],
      "name": "renounceRole",
      "outputs": [],
      "stateMutability": "nonpayable",
      "type": "function"
    },
    {
      "inputs": [
        {
          "internalType": "bytes32",
          "name": "role",
          "type": "bytes32"
        },
        {
          "internalType": "address",
          "name": "account",
          "type": "address"
        }
      ],
      "name": "revokeRole",
      "outputs": [],
      "stateMutability": "nonpayable",
      "type": "function"
    },
    {
      "inputs": [],
      "name": "roomCounter",
      "outputs": [
        {
          "internalType": "uint256",
          "name": "",
          "type": "uint256"
        }
      ],
      "stateMutability": "view",
      "type": "function"
    },
    {
      "inputs": [],
      "name": "rops",
      "outputs": [
        {
          "internalType": "contract Rops",
          "name": "",
          "type": "address"
        }
      ],
      "stateMutability": "view",
      "type": "function"
    },
    {
      "inputs": [
        {
          "internalType": "bytes4",
          "name": "interfaceId",
          "type": "bytes4"
        }
      ],
      "name": "supportsInterface",
      "outputs": [
        {
          "internalType": "bool",
          "name": "",
          "type": "bool"
        }
      ],
      "stateMutability": "view",
      "type": "function"
    },
    {
      "inputs": [
        {
          "internalType": "address",
          "name": "playerA",
          "type": "address"
        },
        {
          "internalType": "address",
          "name": "playerB",
          "type": "address"
        }
      ],
      "name": "createRoom",
      "outputs": [],
      "stateMutability": "nonpayable",
      "type": "function"
    },
    {
      "inputs": [
        {
          "internalType": "uint256",
          "name": "roomId",
          "type": "uint256"
        },
        {
          "internalType": "bytes32",
          "name": "commitment",
          "type": "bytes32"
        }
      ],
      "name": "commit",
      "outputs": [],
      "stateMutability": "nonpayable",
      "type": "function"
    },
    {
      "inputs": [
        {
          "internalType": "uint256",
          "name": "roomId",
          "type": "uint256"
        },
        {
          "internalType": "enum IGameV2.Choice",
          "name": "choice",
          "type": "uint8"
        },
        {
          "internalType": "bytes32",
          "name": "key",
          "type": "bytes32"
        }
      ],
      "name": "reveal",
      "outputs": [],
      "stateMutability": "nonpayable",
      "type": "function"
    },
    {
      "inputs": [
        {
          "internalType": "uint256",
          "name": "roomId",
          "type": "uint256"
        }
      ],
      "name": "distribute",
      "outputs": [],
      "stateMutability": "nonpayable",
      "type": "function"
    },
    {
      "inputs": [
        {
          "internalType": "uint256",
          "name": "roomId",
          "type": "uint256"
        },
        {
          "internalType": "enum IGameV2.Stage",
          "name": "stage",
          "type": "uint8"
        }
      ],
      "name": "nextStage",
      "outputs": [],
      "stateMutability": "nonpayable",
      "type": "function"
    }
  ],
  "bytecode": "0x60c06040523480156200001157600080fd5b5060405162003d6e38038062003d6e833981810160405281019062000037919062000467565b620000956040516020016200004c9062000509565b60405160208183030381529060405280519060200120604051602001620000739062000509565b60405160208183030381529060405280519060200120620001d360201b60201c565b620000f3604051602001620000aa9062000570565b60405160208183030381529060405280519060200120604051602001620000d19062000509565b60405160208183030381529060405280519060200120620001d360201b60201c565b6200012b604051602001620001089062000509565b60405160208183030381529060405280519060200120336200023660201b60201c565b62000163604051602001620001409062000570565b60405160208183030381529060405280519060200120836200023660201b60201c565b8173ffffffffffffffffffffffffffffffffffffffff1660808173ffffffffffffffffffffffffffffffffffffffff16815250508073ffffffffffffffffffffffffffffffffffffffff1660a08173ffffffffffffffffffffffffffffffffffffffff1681525050505062000587565b6000620001e6836200032760201b60201c565b905081600080858152602001908152602001600020600101819055508181847fbd79b86ffe0ab8e8776151514217cd7cacd52c909f66475c3af44e129f0b00ff60405160405180910390a4505050565b6200024882826200034660201b60201c565b6200032357600160008084815260200190815260200160002060000160008373ffffffffffffffffffffffffffffffffffffffff1673ffffffffffffffffffffffffffffffffffffffff16815260200190815260200160002060006101000a81548160ff021916908315150217905550620002c8620003b060201b60201c565b73ffffffffffffffffffffffffffffffffffffffff168173ffffffffffffffffffffffffffffffffffffffff16837f2f8788117e7eff1d82e926ec794901d17c78024a50270940304540a733656f0d60405160405180910390a45b5050565b6000806000838152602001908152602001600020600101549050919050565b600080600084815260200190815260200160002060000160008373ffffffffffffffffffffffffffffffffffffffff1673ffffffffffffffffffffffffffffffffffffffff16815260200190815260200160002060009054906101000a900460ff16905092915050565b600033905090565b600080fd5b600073ffffffffffffffffffffffffffffffffffffffff82169050919050565b6000620003ea82620003bd565b9050919050565b620003fc81620003dd565b81146200040857600080fd5b50565b6000815190506200041c81620003f1565b92915050565b60006200042f82620003dd565b9050919050565b620004418162000422565b81146200044d57600080fd5b50565b600081519050620004618162000436565b92915050565b60008060408385031215620004815762000480620003b8565b5b600062000491858286016200040b565b9250506020620004a48582860162000450565b9150509250929050565b600081905092915050565b7f4f574e45525f524f4c4500000000000000000000000000000000000000000000600082015250565b6000620004f1600a83620004ae565b9150620004fe82620004b9565b600a82019050919050565b60006200051682620004e2565b9150819050919050565b7f4449535452494255544f525f524f4c4500000000000000000000000000000000600082015250565b600062000558601083620004ae565b9150620005658262000520565b601082019050919050565b60006200057d8262000549565b9150819050919050565b60805160a051613797620005d76000396000818161092e01528181610ac701528181610d2e01528181610ec80152818161112e015281816112c801526119b60152600061185401526137976000f3fe608060405234801561001057600080fd5b50600436106101215760003560e01c8063a217fddf116100ad578063e58378bb11610071578063e58378bb1461030a578063f0bd87cc14610328578063f2f0387714610346578063f9a5918f14610362578063fe5090161461037e57610121565b8063a217fddf14610278578063bfe1092814610296578063d222871e146102b4578063d547741f146102d0578063db9b72c4146102ec57610121565b806336568abe116100f457806336568abe146101d657806391c05b0b146101f257806391d148541461020e578063921c45ca1461023e5780639a42f3aa1461025c57610121565b806301ffc9a714610126578063248a9ca3146101565780632f2ff15d146101865780633495655a146101a2575b600080fd5b610140600480360381019061013b91906129f5565b6103ae565b60405161014d9190612a3d565b60405180910390f35b610170600480360381019061016b9190612a8e565b610428565b60405161017d9190612aca565b60405180910390f35b6101a0600480360381019061019b9190612b43565b610447565b005b6101bc60048036038101906101b79190612bb9565b610468565b6040516101cd959493929190612d49565b60405180910390f35b6101f060048036038101906101eb9190612b43565b610661565b005b61020c60048036038101906102079190612bb9565b6106e4565b005b61022860048036038101906102239190612b43565b611498565b6040516102359190612a3d565b60405180910390f35b610246611502565b6040516102539190612d9f565b60405180910390f35b61027660048036038101906102719190612ddf565b611508565b005b61028061184b565b60405161028d9190612aca565b60405180910390f35b61029e611852565b6040516102ab9190612e41565b60405180910390f35b6102ce60048036038101906102c99190612e81565b611876565b005b6102ea60048036038101906102e59190612b43565b611993565b005b6102f46119b4565b6040516103019190612f20565b60405180910390f35b6103126119d8565b60405161031f9190612aca565b60405180910390f35b610330611a00565b60405161033d9190612aca565b60405180910390f35b610360600480360381019061035b9190612f3b565b611a28565b005b61037c60048036038101906103779190612f7b565b611c9c565b005b61039860048036038101906103939190612f7b565b612248565b6040516103a59190612d9f565b60405180910390f35b60007f7965db0b000000000000000000000000000000000000000000000000000000007bffffffffffffffffffffffffffffffffffffffffffffffffffffffff1916827bffffffffffffffffffffffffffffffffffffffffffffffffffffffff1916148061042157506104208261226d565b5b9050919050565b6000806000838152602001908152602001600020600101549050919050565b61045082610428565b610459816122d7565b61046383836122eb565b505050565b6002602052806000526040600020600091509050806000015490806001016040518060a00160405290816000820160009054906101000a900473ffffffffffffffffffffffffffffffffffffffff1673ffffffffffffffffffffffffffffffffffffffff1673ffffffffffffffffffffffffffffffffffffffff1681526020016000820160149054906101000a900460ff161515151581526020016000820160159054906101000a900460ff161515151581526020016000820160169054906101000a900460ff16600381111561054257610541612c13565b5b600381111561055457610553612c13565b5b815260200160018201548152505090806003016040518060a00160405290816000820160009054906101000a900473ffffffffffffffffffffffffffffffffffffffff1673ffffffffffffffffffffffffffffffffffffffff1673ffffffffffffffffffffffffffffffffffffffff1681526020016000820160149054906101000a900460ff161515151581526020016000820160159054906101000a900460ff161515151581526020016000820160169054906101000a900460ff16600381111561062357610622612c13565b5b600381111561063557610634612c13565b5b8152602001600182015481525050908060050160009054906101000a900460ff16908060060154905085565b6106696123cb565b73ffffffffffffffffffffffffffffffffffffffff168173ffffffffffffffffffffffffffffffffffffffff16146106d6576040517f08c379a00000000000000000000000000000000000000000000000000000000081526004016106cd9061303e565b60405180910390fd5b6106e082826123d3565b5050565b6040516020016106f3906130b5565b60405160208183030381529060405280519060200120610712816122d7565b60006002600084815260200190815260200160002090508060030160000160169054906101000a900460ff1660038111156107505761074f612c13565b5b8160010160000160169054906101000a900460ff16600381111561077757610776612c13565b5b036107bc57827f66624a2ea04d723964b7325ea58b496e54d365957d5f1e150b68f812386bb7c76000806040516107af929190613105565b60405180910390a26113fb565b600160038111156107d0576107cf612c13565b5b8160010160000160169054906101000a900460ff1660038111156107f7576107f6612c13565b5b03610bbc57600260038111156108105761080f612c13565b5b8160030160000160169054906101000a900460ff16600381111561083757610836612c13565b5b148061087a575060038081111561085157610850612c13565b5b8160030160000160169054906101000a900460ff16600381111561087857610877612c13565b5b145b6108875761088661312e565b5b6002600381111561089b5761089a612c13565b5b8160030160000160169054906101000a900460ff1660038111156108c2576108c1612c13565b5b03610a2157827f66624a2ea04d723964b7325ea58b496e54d365957d5f1e150b68f812386bb7c78260030160000160009054906101000a900473ffffffffffffffffffffffffffffffffffffffff16836006015460405161092492919061315d565b60405180910390a27f000000000000000000000000000000000000000000000000000000000000000073ffffffffffffffffffffffffffffffffffffffff166323b872dd8260010160000160009054906101000a900473ffffffffffffffffffffffffffffffffffffffff168360030160000160009054906101000a900473ffffffffffffffffffffffffffffffffffffffff1660016040518463ffffffff1660e01b81526004016109d8939291906131c1565b6020604051808303816000875af11580156109f7573d6000803e3d6000fd5b505050506040513d601f19601f82011682018060405250810190610a1b9190613224565b50610bb7565b600380811115610a3457610a33612c13565b5b8160030160000160169054906101000a900460ff166003811115610a5b57610a5a612c13565b5b03610bb657827f66624a2ea04d723964b7325ea58b496e54d365957d5f1e150b68f812386bb7c78260010160000160009054906101000a900473ffffffffffffffffffffffffffffffffffffffff168360060154604051610abd92919061315d565b60405180910390a27f000000000000000000000000000000000000000000000000000000000000000073ffffffffffffffffffffffffffffffffffffffff166323b872dd8260030160000160009054906101000a900473ffffffffffffffffffffffffffffffffffffffff168360010160000160009054906101000a900473ffffffffffffffffffffffffffffffffffffffff1660016040518463ffffffff1660e01b8152600401610b71939291906131c1565b6020604051808303816000875af1158015610b90573d6000803e3d6000fd5b505050506040513d601f19601f82011682018060405250810190610bb49190613224565b505b5b6113fa565b600380811115610bcf57610bce612c13565b5b8160010160000160169054906101000a900460ff166003811115610bf657610bf5612c13565b5b03610fbd5760026003811115610c0f57610c0e612c13565b5b8160030160000160169054906101000a900460ff166003811115610c3657610c35612c13565b5b1480610c7a575060016003811115610c5157610c50612c13565b5b8160030160000160169054906101000a900460ff166003811115610c7857610c77612c13565b5b145b610c8757610c8661312e565b5b60016003811115610c9b57610c9a612c13565b5b8160030160000160169054906101000a900460ff166003811115610cc257610cc1612c13565b5b03610e2157827f66624a2ea04d723964b7325ea58b496e54d365957d5f1e150b68f812386bb7c78260030160000160009054906101000a900473ffffffffffffffffffffffffffffffffffffffff168360060154604051610d2492919061315d565b60405180910390a27f000000000000000000000000000000000000000000000000000000000000000073ffffffffffffffffffffffffffffffffffffffff166323b872dd8260010160000160009054906101000a900473ffffffffffffffffffffffffffffffffffffffff168360030160000160009054906101000a900473ffffffffffffffffffffffffffffffffffffffff1660016040518463ffffffff1660e01b8152600401610dd8939291906131c1565b6020604051808303816000875af1158015610df7573d6000803e3d6000fd5b505050506040513d601f19601f82011682018060405250810190610e1b9190613224565b50610fb8565b60026003811115610e3557610e34612c13565b5b8160030160000160169054906101000a900460ff166003811115610e5c57610e5b612c13565b5b03610fb757827f66624a2ea04d723964b7325ea58b496e54d365957d5f1e150b68f812386bb7c78260010160000160009054906101000a900473ffffffffffffffffffffffffffffffffffffffff168360060154604051610ebe92919061315d565b60405180910390a27f000000000000000000000000000000000000000000000000000000000000000073ffffffffffffffffffffffffffffffffffffffff166323b872dd8260030160000160009054906101000a900473ffffffffffffffffffffffffffffffffffffffff168360010160000160009054906101000a900473ffffffffffffffffffffffffffffffffffffffff1660016040518463ffffffff1660e01b8152600401610f72939291906131c1565b6020604051808303816000875af1158015610f91573d6000803e3d6000fd5b505050506040513d601f19601f82011682018060405250810190610fb59190613224565b505b5b6113f9565b60026003811115610fd157610fd0612c13565b5b8160010160000160169054906101000a900460ff166003811115610ff857610ff7612c13565b5b036113bd576001600381111561101157611010612c13565b5b8160030160000160169054906101000a900460ff16600381111561103857611037612c13565b5b148061107b575060038081111561105257611051612c13565b5b8160030160000160169054906101000a900460ff16600381111561107957611078612c13565b5b145b6110885761108761312e565b5b60038081111561109b5761109a612c13565b5b8160030160000160169054906101000a900460ff1660038111156110c2576110c1612c13565b5b0361122157827f66624a2ea04d723964b7325ea58b496e54d365957d5f1e150b68f812386bb7c78260030160000160009054906101000a900473ffffffffffffffffffffffffffffffffffffffff16836006015460405161112492919061315d565b60405180910390a27f000000000000000000000000000000000000000000000000000000000000000073ffffffffffffffffffffffffffffffffffffffff166323b872dd8260010160000160009054906101000a900473ffffffffffffffffffffffffffffffffffffffff168360030160000160009054906101000a900473ffffffffffffffffffffffffffffffffffffffff1660016040518463ffffffff1660e01b81526004016111d8939291906131c1565b6020604051808303816000875af11580156111f7573d6000803e3d6000fd5b505050506040513d601f19601f8201168201806040525081019061121b9190613224565b506113b8565b6001600381111561123557611234612c13565b5b8160030160000160169054906101000a900460ff16600381111561125c5761125b612c13565b5b036113b757827f66624a2ea04d723964b7325ea58b496e54d365957d5f1e150b68f812386bb7c78260010160000160009054906101000a900473ffffffffffffffffffffffffffffffffffffffff1683600601546040516112be92919061315d565b60405180910390a27f000000000000000000000000000000000000000000000000000000000000000073ffffffffffffffffffffffffffffffffffffffff166323b872dd8260030160000160009054906101000a900473ffffffffffffffffffffffffffffffffffffffff168360010160000160009054906101000a900473ffffffffffffffffffffffffffffffffffffffff1660016040518463ffffffff1660e01b8152600401611372939291906131c1565b6020604051808303816000875af1158015611391573d6000803e3d6000fd5b505050506040513d601f19601f820116820180604052508101906113b59190613224565b505b5b6113f8565b6040517f08c379a00000000000000000000000000000000000000000000000000000000081526004016113ef9061329d565b60405180910390fd5b5b5b5b611407816001016124b4565b611413816003016124b4565b806006016000815480929190611428906132ec565b919050555060008160050160006101000a81548160ff0219169083600281111561145557611454612c13565b5b0217905550827fdf37221aaffab5daec18329c74e9de71f26727289dfefd6e144987965be79ef3600060405161148b9190613334565b60405180910390a2505050565b600080600084815260200190815260200160002060000160008373ffffffffffffffffffffffffffffffffffffffff1673ffffffffffffffffffffffffffffffffffffffff16815260200190815260200160002060009054906101000a900460ff16905092915050565b60035481565b6000600260008581526020019081526020016000209050600081600001540361155d576040517fb70c1fec00000000000000000000000000000000000000000000000000000000815260040160405180910390fd5b3373ffffffffffffffffffffffffffffffffffffffff168160010160000160009054906101000a900473ffffffffffffffffffffffffffffffffffffffff1673ffffffffffffffffffffffffffffffffffffffff161415801561161357503373ffffffffffffffffffffffffffffffffffffffff168160030160000160009054906101000a900473ffffffffffffffffffffffffffffffffffffffff1673ffffffffffffffffffffffffffffffffffffffff1614155b1561164a576040517f1f42735400000000000000000000000000000000000000000000000000000000815260040160405180910390fd5b6001600281111561165e5761165d612c13565b5b8160050160009054906101000a900460ff16600281111561168257611681612c13565b5b146116b9576040517fa05e34ba00000000000000000000000000000000000000000000000000000000815260040160405180910390fd5b600160038111156116cd576116cc612c13565b5b8360038111156116e0576116df612c13565b5b141580156117135750600260038111156116fd576116fc612c13565b5b8360038111156117105761170f612c13565b5b14155b8015611743575060038081111561172d5761172c612c13565b5b8360038111156117405761173f612c13565b5b14155b1561177a576040517f20edc18500000000000000000000000000000000000000000000000000000000815260040160405180910390fd5b3373ffffffffffffffffffffffffffffffffffffffff168160010160000160009054906101000a900473ffffffffffffffffffffffffffffffffffffffff1673ffffffffffffffffffffffffffffffffffffffff16036117e7576117e281600101848461252a565b6117f6565b6117f581600301848461252a565b5b3373ffffffffffffffffffffffffffffffffffffffff16847fc98953cfdaf1355ff1a9db2d4975230864cb314b479eb1b02301c652349121638560405161183d919061335e565b60405180910390a350505050565b6000801b81565b7f000000000000000000000000000000000000000000000000000000000000000081565b604051602001611885906130b5565b604051602081830303815290604052805190602001206118a4816122d7565b60006002600085815260200190815260200160002090508260028111156118ce576118cd612c13565b5b8160050160009054906101000a900460ff1660028111156118f2576118f1612c13565b5b03611929576040517fa05e34ba00000000000000000000000000000000000000000000000000000000815260040160405180910390fd5b828160050160006101000a81548160ff021916908360028111156119505761194f612c13565b5b0217905550837fdf37221aaffab5daec18329c74e9de71f26727289dfefd6e144987965be79ef3846040516119859190613334565b60405180910390a250505050565b61199c82610428565b6119a5816122d7565b6119af83836123d3565b505050565b7f000000000000000000000000000000000000000000000000000000000000000081565b6040516020016119e7906133c5565b6040516020818303038152906040528051906020012081565b604051602001611a0f906130b5565b6040516020818303038152906040528051906020012081565b60006002600084815260200190815260200160002090506000816000015403611a7d576040517fb70c1fec00000000000000000000000000000000000000000000000000000000815260040160405180910390fd5b3373ffffffffffffffffffffffffffffffffffffffff168160010160000160009054906101000a900473ffffffffffffffffffffffffffffffffffffffff1673ffffffffffffffffffffffffffffffffffffffff1614158015611b3357503373ffffffffffffffffffffffffffffffffffffffff168160030160000160009054906101000a900473ffffffffffffffffffffffffffffffffffffffff1673ffffffffffffffffffffffffffffffffffffffff1614155b15611b6a576040517f1f42735400000000000000000000000000000000000000000000000000000000815260040160405180910390fd5b60006002811115611b7e57611b7d612c13565b5b8160050160009054906101000a900460ff166002811115611ba257611ba1612c13565b5b14611bd9576040517fa05e34ba00000000000000000000000000000000000000000000000000000000815260040160405180910390fd5b3373ffffffffffffffffffffffffffffffffffffffff168160010160000160009054906101000a900473ffffffffffffffffffffffffffffffffffffffff1673ffffffffffffffffffffffffffffffffffffffff1603611c4557611c40816001018361264c565b611c53565b611c52816003018361264c565b5b3373ffffffffffffffffffffffffffffffffffffffff16837f2f63308b073d0d25029a549b999d196c6bbc8b3bdb3b694d879a74d070ddbe9a60405160405180910390a3505050565b8073ffffffffffffffffffffffffffffffffffffffff168273ffffffffffffffffffffffffffffffffffffffff1603611cd457600080fd5b6000808273ffffffffffffffffffffffffffffffffffffffff168473ffffffffffffffffffffffffffffffffffffffff1610611d11578284611d14565b83835b91509150600073ffffffffffffffffffffffffffffffffffffffff168273ffffffffffffffffffffffffffffffffffffffff1603611d5157600080fd5b6000600160008473ffffffffffffffffffffffffffffffffffffffff1673ffffffffffffffffffffffffffffffffffffffff16815260200190815260200160002060008373ffffffffffffffffffffffffffffffffffffffff1673ffffffffffffffffffffffffffffffffffffffff1681526020019081526020016000205414611dda57600080fd5b60006040518060a001604052808473ffffffffffffffffffffffffffffffffffffffff16815260200160001515815260200160001515815260200160006003811115611e2957611e28612c13565b5b81526020016000801b815250905060006040518060a001604052808473ffffffffffffffffffffffffffffffffffffffff16815260200160001515815260200160001515815260200160006003811115611e8657611e85612c13565b5b81526020016000801b815250905060036000815480929190611ea7906132ec565b91905055506040518060a00160405280600354815260200183815260200182815260200160006002811115611edf57611ede612c13565b5b815260200160008152506002600060035481526020019081526020016000206000820151816000015560208201518160010160008201518160000160006101000a81548173ffffffffffffffffffffffffffffffffffffffff021916908373ffffffffffffffffffffffffffffffffffffffff16021790555060208201518160000160146101000a81548160ff02191690831515021790555060408201518160000160156101000a81548160ff02191690831515021790555060608201518160000160166101000a81548160ff02191690836003811115611fc357611fc2612c13565b5b021790555060808201518160010155505060408201518160030160008201518160000160006101000a81548173ffffffffffffffffffffffffffffffffffffffff021916908373ffffffffffffffffffffffffffffffffffffffff16021790555060208201518160000160146101000a81548160ff02191690831515021790555060408201518160000160156101000a81548160ff02191690831515021790555060608201518160000160166101000a81548160ff0219169083600381111561208f5761208e612c13565b5b021790555060808201518160010155505060608201518160050160006101000a81548160ff021916908360028111156120cb576120ca612c13565b5b021790555060808201518160060155905050600354600160008673ffffffffffffffffffffffffffffffffffffffff1673ffffffffffffffffffffffffffffffffffffffff16815260200190815260200160002060008573ffffffffffffffffffffffffffffffffffffffff1673ffffffffffffffffffffffffffffffffffffffff16815260200190815260200160002081905550600354600160008573ffffffffffffffffffffffffffffffffffffffff1673ffffffffffffffffffffffffffffffffffffffff16815260200190815260200160002060008673ffffffffffffffffffffffffffffffffffffffff1673ffffffffffffffffffffffffffffffffffffffff168152602001908152602001600020819055508273ffffffffffffffffffffffffffffffffffffffff168473ffffffffffffffffffffffffffffffffffffffff166003547f04030770e813dd055e97aa89673831d9b864cb7195e6f9b18b9520645a9da59660405160405180910390a4505050505050565b6001602052816000526040600020602052806000526040600020600091509150505481565b60007f01ffc9a7000000000000000000000000000000000000000000000000000000007bffffffffffffffffffffffffffffffffffffffffffffffffffffffff1916827bffffffffffffffffffffffffffffffffffffffffffffffffffffffff1916149050919050565b6122e8816122e36123cb565b6126bf565b50565b6122f58282611498565b6123c757600160008084815260200190815260200160002060000160008373ffffffffffffffffffffffffffffffffffffffff1673ffffffffffffffffffffffffffffffffffffffff16815260200190815260200160002060006101000a81548160ff02191690831515021790555061236c6123cb565b73ffffffffffffffffffffffffffffffffffffffff168173ffffffffffffffffffffffffffffffffffffffff16837f2f8788117e7eff1d82e926ec794901d17c78024a50270940304540a733656f0d60405160405180910390a45b5050565b600033905090565b6123dd8282611498565b156124b057600080600084815260200190815260200160002060000160008373ffffffffffffffffffffffffffffffffffffffff1673ffffffffffffffffffffffffffffffffffffffff16815260200190815260200160002060006101000a81548160ff0219169083151502179055506124556123cb565b73ffffffffffffffffffffffffffffffffffffffff168173ffffffffffffffffffffffffffffffffffffffff16837ff6391f5c32d9c69d2a47ea670b442974b53935d1edc7fd64eb21e047a839171b60405160405180910390a45b5050565b60008160000160146101000a81548160ff02191690831515021790555060008160000160156101000a81548160ff02191690831515021790555060008160000160166101000a81548160ff0219169083600381111561251657612515612c13565b5b02179055506000801b816001018190555050565b8260000160159054906101000a900460ff1615612573576040517fa89ac15100000000000000000000000000000000000000000000000000000000815260040160405180910390fd5b82600101548360000160009054906101000a900473ffffffffffffffffffffffffffffffffffffffff1683836040516020016125b1939291906133da565b60405160208183030381529060405280519060200120146125fe576040517f0af806e000000000000000000000000000000000000000000000000000000000815260040160405180910390fd5b818360000160166101000a81548160ff0219169083600381111561262557612624612c13565b5b021790555060018360000160156101000a81548160ff021916908315150217905550505050565b8160000160149054906101000a900460ff1615612695576040517ffc507a3100000000000000000000000000000000000000000000000000000000815260040160405180910390fd5b80826001018190555060018260000160146101000a81548160ff0219169083151502179055505050565b6126c98282611498565b612758576126ee8173ffffffffffffffffffffffffffffffffffffffff16601461275c565b6126fc8360001c602061275c565b60405160200161270d929190613518565b6040516020818303038152906040526040517f08c379a000000000000000000000000000000000000000000000000000000000815260040161274f919061359c565b60405180910390fd5b5050565b60606000600283600261276f91906135be565b6127799190613618565b67ffffffffffffffff8111156127925761279161366e565b5b6040519080825280601f01601f1916602001820160405280156127c45781602001600182028036833780820191505090505b5090507f3000000000000000000000000000000000000000000000000000000000000000816000815181106127fc576127fb61369d565b5b60200101907effffffffffffffffffffffffffffffffffffffffffffffffffffffffffffff1916908160001a9053507f7800000000000000000000000000000000000000000000000000000000000000816001815181106128605761285f61369d565b5b60200101907effffffffffffffffffffffffffffffffffffffffffffffffffffffffffffff1916908160001a905350600060018460026128a091906135be565b6128aa9190613618565b90505b600181111561294a577f3031323334353637383961626364656600000000000000000000000000000000600f8616601081106128ec576128eb61369d565b5b1a60f81b8282815181106129035761290261369d565b5b60200101907effffffffffffffffffffffffffffffffffffffffffffffffffffffffffffff1916908160001a905350600485901c945080612943906136cc565b90506128ad565b506000841461298e576040517f08c379a000000000000000000000000000000000000000000000000000000000815260040161298590613741565b60405180910390fd5b8091505092915050565b600080fd5b60007fffffffff0000000000000000000000000000000000000000000000000000000082169050919050565b6129d28161299d565b81146129dd57600080fd5b50565b6000813590506129ef816129c9565b92915050565b600060208284031215612a0b57612a0a612998565b5b6000612a19848285016129e0565b91505092915050565b60008115159050919050565b612a3781612a22565b82525050565b6000602082019050612a526000830184612a2e565b92915050565b6000819050919050565b612a6b81612a58565b8114612a7657600080fd5b50565b600081359050612a8881612a62565b92915050565b600060208284031215612aa457612aa3612998565b5b6000612ab284828501612a79565b91505092915050565b612ac481612a58565b82525050565b6000602082019050612adf6000830184612abb565b92915050565b600073ffffffffffffffffffffffffffffffffffffffff82169050919050565b6000612b1082612ae5565b9050919050565b612b2081612b05565b8114612b2b57600080fd5b50565b600081359050612b3d81612b17565b92915050565b60008060408385031215612b5a57612b59612998565b5b6000612b6885828601612a79565b9250506020612b7985828601612b2e565b9150509250929050565b6000819050919050565b612b9681612b83565b8114612ba157600080fd5b50565b600081359050612bb381612b8d565b92915050565b600060208284031215612bcf57612bce612998565b5b6000612bdd84828501612ba4565b91505092915050565b612bef81612b83565b82525050565b612bfe81612b05565b82525050565b612c0d81612a22565b82525050565b7f4e487b7100000000000000000000000000000000000000000000000000000000600052602160045260246000fd5b60048110612c5357612c52612c13565b5b50565b6000819050612c6482612c42565b919050565b6000612c7482612c56565b9050919050565b612c8481612c69565b82525050565b612c9381612a58565b82525050565b60a082016000820151612caf6000850182612bf5565b506020820151612cc26020850182612c04565b506040820151612cd56040850182612c04565b506060820151612ce86060850182612c7b565b506080820151612cfb6080850182612c8a565b50505050565b60038110612d1257612d11612c13565b5b50565b6000819050612d2382612d01565b919050565b6000612d3382612d15565b9050919050565b612d4381612d28565b82525050565b60006101a082019050612d5f6000830188612be6565b612d6c6020830187612c99565b612d7960c0830186612c99565b612d87610160830185612d3a565b612d95610180830184612be6565b9695505050505050565b6000602082019050612db46000830184612be6565b92915050565b60048110612dc757600080fd5b50565b600081359050612dd981612dba565b92915050565b600080600060608486031215612df857612df7612998565b5b6000612e0686828701612ba4565b9350506020612e1786828701612dca565b9250506040612e2886828701612a79565b9150509250925092565b612e3b81612b05565b82525050565b6000602082019050612e566000830184612e32565b92915050565b60038110612e6957600080fd5b50565b600081359050612e7b81612e5c565b92915050565b60008060408385031215612e9857612e97612998565b5b6000612ea685828601612ba4565b9250506020612eb785828601612e6c565b9150509250929050565b6000819050919050565b6000612ee6612ee1612edc84612ae5565b612ec1565b612ae5565b9050919050565b6000612ef882612ecb565b9050919050565b6000612f0a82612eed565b9050919050565b612f1a81612eff565b82525050565b6000602082019050612f356000830184612f11565b92915050565b60008060408385031215612f5257612f51612998565b5b6000612f6085828601612ba4565b9250506020612f7185828601612a79565b9150509250929050565b60008060408385031215612f9257612f91612998565b5b6000612fa085828601612b2e565b9250506020612fb185828601612b2e565b9150509250929050565b600082825260208201905092915050565b7f416363657373436f6e74726f6c3a2063616e206f6e6c792072656e6f756e636560008201527f20726f6c657320666f722073656c660000000000000000000000000000000000602082015250565b6000613028602f83612fbb565b915061303382612fcc565b604082019050919050565b600060208201905081810360008301526130578161301b565b9050919050565b600081905092915050565b7f4449535452494255544f525f524f4c4500000000000000000000000000000000600082015250565b600061309f60108361305e565b91506130aa82613069565b601082019050919050565b60006130c082613092565b9150819050919050565b6000819050919050565b60006130ef6130ea6130e5846130ca565b612ec1565b612b83565b9050919050565b6130ff816130d4565b82525050565b600060408201905061311a6000830185612e32565b61312760208301846130f6565b9392505050565b7f4e487b7100000000000000000000000000000000000000000000000000000000600052600160045260246000fd5b60006040820190506131726000830185612e32565b61317f6020830184612be6565b9392505050565b6000819050919050565b60006131ab6131a66131a184613186565b612ec1565b612b83565b9050919050565b6131bb81613190565b82525050565b60006060820190506131d66000830186612e32565b6131e36020830185612e32565b6131f060408301846131b2565b949350505050565b61320181612a22565b811461320c57600080fd5b50565b60008151905061321e816131f8565b92915050565b60006020828403121561323a57613239612998565b5b60006132488482850161320f565b91505092915050565b7f43686f69636520696e63636f7265637421000000000000000000000000000000600082015250565b6000613287601183612fbb565b915061329282613251565b602082019050919050565b600060208201905081810360008301526132b68161327a565b9050919050565b7f4e487b7100000000000000000000000000000000000000000000000000000000600052601160045260246000fd5b60006132f782612b83565b91507fffffffffffffffffffffffffffffffffffffffffffffffffffffffffffffffff8203613329576133286132bd565b5b600182019050919050565b60006020820190506133496000830184612d3a565b92915050565b61335881612c69565b82525050565b6000602082019050613373600083018461334f565b92915050565b7f4f574e45525f524f4c4500000000000000000000000000000000000000000000600082015250565b60006133af600a8361305e565b91506133ba82613379565b600a82019050919050565b60006133d0826133a2565b9150819050919050565b60006060820190506133ef6000830186612e32565b6133fc602083018561334f565b6134096040830184612abb565b949350505050565b7f416363657373436f6e74726f6c3a206163636f756e7420000000000000000000600082015250565b600061344760178361305e565b915061345282613411565b601782019050919050565b600081519050919050565b60005b8381101561348657808201518184015260208101905061346b565b83811115613495576000848401525b50505050565b60006134a68261345d565b6134b0818561305e565b93506134c0818560208601613468565b80840191505092915050565b7f206973206d697373696e6720726f6c6520000000000000000000000000000000600082015250565b600061350260118361305e565b915061350d826134cc565b601182019050919050565b60006135238261343a565b915061352f828561349b565b915061353a826134f5565b9150613546828461349b565b91508190509392505050565b6000601f19601f8301169050919050565b600061356e8261345d565b6135788185612fbb565b9350613588818560208601613468565b61359181613552565b840191505092915050565b600060208201905081810360008301526135b68184613563565b905092915050565b60006135c982612b83565b91506135d483612b83565b9250817fffffffffffffffffffffffffffffffffffffffffffffffffffffffffffffffff048311821515161561360d5761360c6132bd565b5b828202905092915050565b600061362382612b83565b915061362e83612b83565b9250827fffffffffffffffffffffffffffffffffffffffffffffffffffffffffffffffff03821115613663576136626132bd565b5b828201905092915050565b7f4e487b7100000000000000000000000000000000000000000000000000000000600052604160045260246000fd5b7f4e487b7100000000000000000000000000000000000000000000000000000000600052603260045260246000fd5b60006136d782612b83565b9150600082036136ea576136e96132bd565b5b600182039050919050565b7f537472696e67733a20686578206c656e67746820696e73756666696369656e74600082015250565b600061372b602083612fbb565b9150613736826136f5565b602082019050919050565b6000602082019050818103600083015261375a8161371e565b905091905056fea2646970667358221220444ed3203958764278e58ff32939e704da96a0a4125081db2fc20a00dacc4dc864736f6c634300080e0033",
  "immutableReferences": {
    "15621": [
      {
        "length": 32,
        "start": 6228
      }
    ],
    "15624": [
      {
        "length": 32,
        "start": 2350
      },
      {
        "length": 32,
        "start": 2759
      },
      {
        "length": 32,
        "start": 3374
      },
      {
        "length": 32,
        "start": 3784
      },
      {
        "length": 32,
        "start": 4398
      },
      {
        "length": 32,
        "start": 4808
      },
      {
        "length": 32,
        "start": 6582
      }
    ]
  },
  "source": "//SPDX-License-Identifier: Unlicense\r\npragma solidity ^0.8.7;\r\n\r\nimport \"@openzeppelin/contracts/access/AccessControl.sol\";\r\nimport \"./interfaces/IGameV2.sol\";\r\nimport \"./Rops.sol\";\r\n\r\ncontract GameV2 is IGameV2, AccessControl {\r\n    bytes32 public constant OWNER_ROLE = keccak256(abi.encodePacked(\"OWNER_ROLE\"));\r\n    bytes32 public constant DISTRIBUTOR_ROLE = keccak256(abi.encodePacked(\"DISTRIBUTOR_ROLE\"));\r\n\r\n    mapping(address => mapping(address => uint256)) public getRoomByPlayerAddresses;\r\n    mapping(uint256 => Room) public getRoomById;\r\n    uint256 public roomCounter;\r\n\r\n    address immutable public distributor;\r\n    Rops immutable public rops;\r\n\r\n    constructor(address _distributor, Rops _rops) {\r\n        _setRoleAdmin(OWNER_ROLE, OWNER_ROLE);\r\n        _setRoleAdmin(DISTRIBUTOR_ROLE, OWNER_ROLE);\r\n\r\n        _grantRole(OWNER_ROLE, msg.sender);\r\n        _grantRole(DISTRIBUTOR_ROLE, _distributor);\r\n\r\n        distributor = _distributor;\r\n        rops = _rops;\r\n    }\r\n\r\n    function createRoom(address playerA, address playerB) external override {\r\n        require(playerA != playerB);\r\n        (address player0Address, address player1Address) = playerA < playerB ? (playerA, playerB) : (playerB, playerA);\r\n        require(player0Address != address(0));\r\n        require(getRoomByPlayerAddresses[player0Address][player1Address] == 0);\r\n\r\n        Player memory player0 = Player(player0Address, false, false, Choice.None, bytes32(0));\r\n        Player memory player1 = Player(player1Address, false, false, Choice.None, bytes32(0));\r\n\r\n        roomCounter++;\r\n        getRoomById[roomCounter] = Room(roomCounter, player0, player1, Stage.Commit, 0);\r\n        getRoomByPlayerAddresses[player0Address][player1Address] = roomCounter;\r\n        getRoomByPlayerAddresses[player1Address][player0Address] = roomCounter;\r\n        emit RoomCreated(roomCounter, player0Address, player1Address); \r\n    }\r\n\r\n    function commit(uint256 roomId, bytes32 commitment) external override {\r\n        Room storage room = getRoomById[roomId];\r\n        if(room.id == 0) {\r\n            revert RoomNotExist();\r\n        }\r\n        if(room.player0.playerAddress != msg.sender && room.player1.playerAddress != msg.sender){\r\n            revert PlayerNotExist();\r\n        }\r\n        if (room.stage != Stage.Commit) {\r\n            revert WrongStage();\r\n        }\r\n        // Only run during commit stages\r\n        // Player memory player;\r\n        if(room.player0.playerAddress == msg.sender) {\r\n            setCommitment(room.player0, commitment);\r\n        } else {\r\n            setCommitment(room.player1, commitment);\r\n        }\r\n        emit Commited(roomId, msg.sender);\r\n    }\r\n\r\n    function reveal(uint256 roomId, Choice choice, bytes32 key) external override {\r\n        Room storage room = getRoomById[roomId];\r\n        if(room.id == 0) {\r\n            revert RoomNotExist();\r\n        }\r\n        if(room.player0.playerAddress != msg.sender && room.player1.playerAddress != msg.sender){\r\n            revert PlayerNotExist();\r\n        }\r\n        if (room.stage != Stage.Reveal) {\r\n            revert WrongStage();\r\n        }\r\n        if(choice != Choice.Rock && choice != Choice.Paper && choice != Choice.Scissors){\r\n            revert WrongChoice();\r\n        }\r\n        if(room.player0.playerAddress == msg.sender) {\r\n            setReveal(room.player0, choice, key);\r\n        } else {\r\n            setReveal(room.player1, choice, key);\r\n        }\r\n        emit Revealed(roomId, msg.sender, choice);\r\n    }\r\n\r\n    function distribute(uint256 roomId) external onlyRole(DISTRIBUTOR_ROLE) override {\r\n        Room storage room = getRoomById[roomId];\r\n        if(room.player0.choice == room.player1.choice) {\r\n            emit GameResult(roomId, address(0), 0);\r\n        } \r\n        else if(room.player0.choice == Choice.Rock) {            \r\n            assert(room.player1.choice == Choice.Paper || room.player1.choice == Choice.Scissors);\r\n            if(room.player1.choice == Choice.Paper) {\r\n                // Rock loses to paper\r\n                emit GameResult(roomId, room.player1.playerAddress, room.gameId);\r\n                rops.transferFrom(room.player0.playerAddress, room.player1.playerAddress, 1);\r\n            }\r\n            else if(room.player1.choice == Choice.Scissors) {\r\n                // Rock beats scissors\r\n                emit GameResult(roomId, room.player0.playerAddress, room.gameId);\r\n                rops.transferFrom(room.player1.playerAddress, room.player0.playerAddress, 1);\r\n            }\r\n        }\r\n        else if(room.player0.choice == Choice.Scissors) {\r\n            assert(room.player1.choice == Choice.Paper || room.player1.choice == Choice.Rock);\r\n            if(room.player1.choice == Choice.Rock) {\r\n                // Scissors lose to rock\r\n                emit GameResult(roomId, room.player1.playerAddress, room.gameId);\r\n                rops.transferFrom(room.player0.playerAddress, room.player1.playerAddress, 1);\r\n            }\r\n            else if(room.player1.choice == Choice.Paper) {\r\n                // Scissors beats paper\r\n                emit GameResult(roomId, room.player0.playerAddress, room.gameId);\r\n                rops.transferFrom(room.player1.playerAddress, room.player0.playerAddress, 1);\r\n            }\r\n        }\r\n        else if(room.player0.choice == Choice.Paper) {\r\n            assert(room.player1.choice == Choice.Rock || room.player1.choice == Choice.Scissors);\r\n            if(room.player1.choice == Choice.Scissors) {\r\n                // Paper loses to scissors\r\n                emit GameResult(roomId, room.player1.playerAddress, room.gameId);\r\n                rops.transferFrom(room.player0.playerAddress, room.player1.playerAddress, 1);\r\n            }\r\n            else if(room.player1.choice == Choice.Rock) {\r\n                // Paper beats rock\r\n                emit GameResult(roomId, room.player0.playerAddress, room.gameId);\r\n                rops.transferFrom(room.player1.playerAddress, room.player0.playerAddress, 1);\r\n            }\r\n        } else revert(\"Choice inccorect!\");\r\n        reset(room.player0);\r\n        reset(room.player1);\r\n        room.gameId++;\r\n        room.stage = Stage.Commit;\r\n        emit StageChanged(roomId, Stage.Commit);\r\n    }\r\n\r\n    function nextStage(uint256 roomId, Stage stage) external onlyRole(DISTRIBUTOR_ROLE) override {\r\n        Room storage room = getRoomById[roomId];\r\n        if(room.stage == stage) {\r\n            revert WrongStage();\r\n        }\r\n        room.stage = stage;\r\n        emit StageChanged(roomId, stage);\r\n    }\r\n\r\n    function setCommitment(Player storage player, bytes32 commitment) private {\r\n        if(player.commited){\r\n            revert AlreadyCommited();\r\n        }\r\n        player.commitment = commitment;\r\n        player.commited = true;\r\n    }\r\n\r\n    function setReveal(Player storage player, Choice choice, bytes32 key) private {\r\n        if(player.revealed){\r\n            revert AlreadyRevealed();\r\n        }\r\n        if(keccak256(abi.encode(player.playerAddress, choice, key)) != player.commitment){\r\n            revert InvalidHash();\r\n        }\r\n        player.choice = choice;\r\n        player.revealed = true;\r\n    }\r\n\r\n    function reset(Player storage player) private {\r\n        player.commited = false;\r\n        player.revealed = false;\r\n        player.choice = Choice.None;\r\n        player.commitment = bytes32(0);\r\n    }\r\n}",
  "sourcePath": "C:\\Users\\vania\\Documents\\GitHub\\rock-paper-scissors-solidity\\blockchain\\contracts\\v2\\GameV2.sol",
  "compiler": {
    "name": "solc",
    "version": "0.8.14+commit.80d49f37.Emscripten.clang"
  },
  "schemaVersion": "3.4.7",
  "updatedAt": "2022-07-27T19:05:13.925Z",
  "devdoc": {
    "kind": "dev",
    "methods": {
      "getRoleAdmin(bytes32)": {
        "details": "Returns the admin role that controls `role`. See {grantRole} and {revokeRole}. To change a role's admin, use {_setRoleAdmin}."
      },
      "grantRole(bytes32,address)": {
        "details": "Grants `role` to `account`. If `account` had not been already granted `role`, emits a {RoleGranted} event. Requirements: - the caller must have ``role``'s admin role."
      },
      "hasRole(bytes32,address)": {
        "details": "Returns `true` if `account` has been granted `role`."
      },
      "renounceRole(bytes32,address)": {
        "details": "Revokes `role` from the calling account. Roles are often managed via {grantRole} and {revokeRole}: this function's purpose is to provide a mechanism for accounts to lose their privileges if they are compromised (such as when a trusted device is misplaced). If the calling account had been revoked `role`, emits a {RoleRevoked} event. Requirements: - the caller must be `account`."
      },
      "revokeRole(bytes32,address)": {
        "details": "Revokes `role` from `account`. If `account` had been granted `role`, emits a {RoleRevoked} event. Requirements: - the caller must have ``role``'s admin role."
      },
      "supportsInterface(bytes4)": {
        "details": "See {IERC165-supportsInterface}."
      }
    },
    "version": 1
  },
  "userdoc": {
    "kind": "user",
    "methods": {},
    "version": 1
  }
}