{
  "contractName": "GameV2",
  "abi": [
    {
      "inputs": [
        {
          "internalType": "address",
          "name": "_distributor",
          "type": "address"
        }
      ],
      "stateMutability": "nonpayable",
      "type": "constructor"
    },
    {
      "inputs": [],
      "name": "AlreadyCommited",
      "type": "error"
    },
    {
      "inputs": [],
      "name": "AlreadyRevealed",
      "type": "error"
    },
    {
      "inputs": [],
      "name": "InvalidHash",
      "type": "error"
    },
    {
      "inputs": [],
      "name": "PlayerNotExist",
      "type": "error"
    },
    {
      "inputs": [],
      "name": "RoomNotExist",
      "type": "error"
    },
    {
      "inputs": [],
      "name": "WrongChoice",
      "type": "error"
    },
    {
      "inputs": [],
      "name": "WrongStage",
      "type": "error"
    },
    {
      "anonymous": false,
      "inputs": [
        {
          "indexed": true,
          "internalType": "uint256",
          "name": "roomId",
          "type": "uint256"
        },
        {
          "indexed": true,
          "internalType": "address",
          "name": "player",
          "type": "address"
        }
      ],
      "name": "Commited",
      "type": "event"
    },
    {
      "anonymous": false,
      "inputs": [
        {
          "indexed": true,
          "internalType": "uint256",
          "name": "roomId",
          "type": "uint256"
        },
        {
          "indexed": false,
          "internalType": "enum IGameV2.Stage",
          "name": "stage",
          "type": "uint8"
        }
      ],
      "name": "Distributed",
      "type": "event"
    },
    {
      "anonymous": false,
      "inputs": [
        {
          "indexed": true,
          "internalType": "uint256",
          "name": "roomId",
          "type": "uint256"
        },
        {
          "indexed": false,
          "internalType": "address",
          "name": "winner",
          "type": "address"
        },
        {
          "indexed": false,
          "internalType": "uint256",
          "name": "gameId",
          "type": "uint256"
        }
      ],
      "name": "GameResult",
      "type": "event"
    },
    {
      "anonymous": false,
      "inputs": [
        {
          "indexed": true,
          "internalType": "uint256",
          "name": "roomId",
          "type": "uint256"
        },
        {
          "indexed": true,
          "internalType": "address",
          "name": "player",
          "type": "address"
        },
        {
          "indexed": false,
          "internalType": "enum IGameV2.Choice",
          "name": "choice",
          "type": "uint8"
        }
      ],
      "name": "Revealed",
      "type": "event"
    },
    {
      "anonymous": false,
      "inputs": [
        {
          "indexed": true,
          "internalType": "bytes32",
          "name": "role",
          "type": "bytes32"
        },
        {
          "indexed": true,
          "internalType": "bytes32",
          "name": "previousAdminRole",
          "type": "bytes32"
        },
        {
          "indexed": true,
          "internalType": "bytes32",
          "name": "newAdminRole",
          "type": "bytes32"
        }
      ],
      "name": "RoleAdminChanged",
      "type": "event"
    },
    {
      "anonymous": false,
      "inputs": [
        {
          "indexed": true,
          "internalType": "bytes32",
          "name": "role",
          "type": "bytes32"
        },
        {
          "indexed": true,
          "internalType": "address",
          "name": "account",
          "type": "address"
        },
        {
          "indexed": true,
          "internalType": "address",
          "name": "sender",
          "type": "address"
        }
      ],
      "name": "RoleGranted",
      "type": "event"
    },
    {
      "anonymous": false,
      "inputs": [
        {
          "indexed": true,
          "internalType": "bytes32",
          "name": "role",
          "type": "bytes32"
        },
        {
          "indexed": true,
          "internalType": "address",
          "name": "account",
          "type": "address"
        },
        {
          "indexed": true,
          "internalType": "address",
          "name": "sender",
          "type": "address"
        }
      ],
      "name": "RoleRevoked",
      "type": "event"
    },
    {
      "anonymous": false,
      "inputs": [
        {
          "indexed": true,
          "internalType": "uint256",
          "name": "roomId",
          "type": "uint256"
        },
        {
          "indexed": true,
          "internalType": "address",
          "name": "player0",
          "type": "address"
        },
        {
          "indexed": true,
          "internalType": "address",
          "name": "player1",
          "type": "address"
        }
      ],
      "name": "RoomCreated",
      "type": "event"
    },
    {
      "anonymous": false,
      "inputs": [
        {
          "indexed": true,
          "internalType": "uint256",
          "name": "roomId",
          "type": "uint256"
        },
        {
          "indexed": false,
          "internalType": "enum IGameV2.Stage",
          "name": "stage",
          "type": "uint8"
        }
      ],
      "name": "StageChanged",
      "type": "event"
    },
    {
      "inputs": [],
      "name": "DEFAULT_ADMIN_ROLE",
      "outputs": [
        {
          "internalType": "bytes32",
          "name": "",
          "type": "bytes32"
        }
      ],
      "stateMutability": "view",
      "type": "function"
    },
    {
      "inputs": [],
      "name": "DISTRIBUTOR_ROLE",
      "outputs": [
        {
          "internalType": "bytes32",
          "name": "",
          "type": "bytes32"
        }
      ],
      "stateMutability": "view",
      "type": "function"
    },
    {
      "inputs": [],
      "name": "OWNER_ROLE",
      "outputs": [
        {
          "internalType": "bytes32",
          "name": "",
          "type": "bytes32"
        }
      ],
      "stateMutability": "view",
      "type": "function"
    },
    {
      "inputs": [],
      "name": "distributor",
      "outputs": [
        {
          "internalType": "address",
          "name": "",
          "type": "address"
        }
      ],
      "stateMutability": "view",
      "type": "function"
    },
    {
      "inputs": [
        {
          "internalType": "bytes32",
          "name": "role",
          "type": "bytes32"
        }
      ],
      "name": "getRoleAdmin",
      "outputs": [
        {
          "internalType": "bytes32",
          "name": "",
          "type": "bytes32"
        }
      ],
      "stateMutability": "view",
      "type": "function"
    },
    {
      "inputs": [
        {
          "internalType": "uint256",
          "name": "",
          "type": "uint256"
        }
      ],
      "name": "getRoomById",
      "outputs": [
        {
          "internalType": "uint256",
          "name": "id",
          "type": "uint256"
        },
        {
          "components": [
            {
              "internalType": "address",
              "name": "playerAddress",
              "type": "address"
            },
            {
              "internalType": "bool",
              "name": "commited",
              "type": "bool"
            },
            {
              "internalType": "bool",
              "name": "revealed",
              "type": "bool"
            },
            {
              "internalType": "enum IGameV2.Choice",
              "name": "choice",
              "type": "uint8"
            },
            {
              "internalType": "bytes32",
              "name": "commitment",
              "type": "bytes32"
            }
          ],
          "internalType": "struct IGameV2.Player",
          "name": "player0",
          "type": "tuple"
        },
        {
          "components": [
            {
              "internalType": "address",
              "name": "playerAddress",
              "type": "address"
            },
            {
              "internalType": "bool",
              "name": "commited",
              "type": "bool"
            },
            {
              "internalType": "bool",
              "name": "revealed",
              "type": "bool"
            },
            {
              "internalType": "enum IGameV2.Choice",
              "name": "choice",
              "type": "uint8"
            },
            {
              "internalType": "bytes32",
              "name": "commitment",
              "type": "bytes32"
            }
          ],
          "internalType": "struct IGameV2.Player",
          "name": "player1",
          "type": "tuple"
        },
        {
          "internalType": "enum IGameV2.Stage",
          "name": "stage",
          "type": "uint8"
        },
        {
          "internalType": "uint256",
          "name": "gameId",
          "type": "uint256"
        }
      ],
      "stateMutability": "view",
      "type": "function"
    },
    {
      "inputs": [
        {
          "internalType": "address",
          "name": "",
          "type": "address"
        },
        {
          "internalType": "address",
          "name": "",
          "type": "address"
        }
      ],
      "name": "getRoomByPlayerAddresses",
      "outputs": [
        {
          "internalType": "uint256",
          "name": "",
          "type": "uint256"
        }
      ],
      "stateMutability": "view",
      "type": "function"
    },
    {
      "inputs": [
        {
          "internalType": "bytes32",
          "name": "role",
          "type": "bytes32"
        },
        {
          "internalType": "address",
          "name": "account",
          "type": "address"
        }
      ],
      "name": "grantRole",
      "outputs": [],
      "stateMutability": "nonpayable",
      "type": "function"
    },
    {
      "inputs": [
        {
          "internalType": "bytes32",
          "name": "role",
          "type": "bytes32"
        },
        {
          "internalType": "address",
          "name": "account",
          "type": "address"
        }
      ],
      "name": "hasRole",
      "outputs": [
        {
          "internalType": "bool",
          "name": "",
          "type": "bool"
        }
      ],
      "stateMutability": "view",
      "type": "function"
    },
    {
      "inputs": [
        {
          "internalType": "bytes32",
          "name": "role",
          "type": "bytes32"
        },
        {
          "internalType": "address",
          "name": "account",
          "type": "address"
        }
      ],
      "name": "renounceRole",
      "outputs": [],
      "stateMutability": "nonpayable",
      "type": "function"
    },
    {
      "inputs": [
        {
          "internalType": "bytes32",
          "name": "role",
          "type": "bytes32"
        },
        {
          "internalType": "address",
          "name": "account",
          "type": "address"
        }
      ],
      "name": "revokeRole",
      "outputs": [],
      "stateMutability": "nonpayable",
      "type": "function"
    },
    {
      "inputs": [
        {
          "internalType": "bytes4",
          "name": "interfaceId",
          "type": "bytes4"
        }
      ],
      "name": "supportsInterface",
      "outputs": [
        {
          "internalType": "bool",
          "name": "",
          "type": "bool"
        }
      ],
      "stateMutability": "view",
      "type": "function"
    },
    {
      "inputs": [
        {
          "internalType": "address",
          "name": "playerA",
          "type": "address"
        },
        {
          "internalType": "address",
          "name": "playerB",
          "type": "address"
        }
      ],
      "name": "createRoom",
      "outputs": [],
      "stateMutability": "nonpayable",
      "type": "function"
    },
    {
      "inputs": [
        {
          "internalType": "uint256",
          "name": "roomId",
          "type": "uint256"
        },
        {
          "internalType": "bytes32",
          "name": "commitment",
          "type": "bytes32"
        }
      ],
      "name": "commit",
      "outputs": [],
      "stateMutability": "nonpayable",
      "type": "function"
    },
    {
      "inputs": [
        {
          "internalType": "uint256",
          "name": "roomId",
          "type": "uint256"
        },
        {
          "internalType": "enum IGameV2.Choice",
          "name": "choice",
          "type": "uint8"
        },
        {
          "internalType": "bytes32",
          "name": "key",
          "type": "bytes32"
        }
      ],
      "name": "reveal",
      "outputs": [],
      "stateMutability": "nonpayable",
      "type": "function"
    },
    {
      "inputs": [
        {
          "internalType": "uint256",
          "name": "roomId",
          "type": "uint256"
        }
      ],
      "name": "distribute",
      "outputs": [],
      "stateMutability": "nonpayable",
      "type": "function"
    },
    {
      "inputs": [
        {
          "internalType": "uint256",
          "name": "roomId",
          "type": "uint256"
        },
        {
          "internalType": "enum IGameV2.Stage",
          "name": "stage",
          "type": "uint8"
        }
      ],
      "name": "nextStage",
      "outputs": [],
      "stateMutability": "nonpayable",
      "type": "function"
    }
  ],
  "bytecode": "0x60a06040523480156200001157600080fd5b50604051620034c2380380620034c28339818101604052810190620000379190620003ed565b620000956040516020016200004c906200047a565b6040516020818303038152906040528051906020012060405160200162000073906200047a565b604051602081830303815290604052805190602001206200019e60201b60201c565b620000f3604051602001620000aa90620004e1565b60405160208183030381529060405280519060200120604051602001620000d1906200047a565b604051602081830303815290604052805190602001206200019e60201b60201c565b6200012b60405160200162000108906200047a565b60405160208183030381529060405280519060200120336200020160201b60201c565b620001636040516020016200014090620004e1565b60405160208183030381529060405280519060200120826200020160201b60201c565b8073ffffffffffffffffffffffffffffffffffffffff1660808173ffffffffffffffffffffffffffffffffffffffff168152505050620004f8565b6000620001b183620002f260201b60201c565b905081600080858152602001908152602001600020600101819055508181847fbd79b86ffe0ab8e8776151514217cd7cacd52c909f66475c3af44e129f0b00ff60405160405180910390a4505050565b6200021382826200031160201b60201c565b620002ee57600160008084815260200190815260200160002060000160008373ffffffffffffffffffffffffffffffffffffffff1673ffffffffffffffffffffffffffffffffffffffff16815260200190815260200160002060006101000a81548160ff021916908315150217905550620002936200037b60201b60201c565b73ffffffffffffffffffffffffffffffffffffffff168173ffffffffffffffffffffffffffffffffffffffff16837f2f8788117e7eff1d82e926ec794901d17c78024a50270940304540a733656f0d60405160405180910390a45b5050565b6000806000838152602001908152602001600020600101549050919050565b600080600084815260200190815260200160002060000160008373ffffffffffffffffffffffffffffffffffffffff1673ffffffffffffffffffffffffffffffffffffffff16815260200190815260200160002060009054906101000a900460ff16905092915050565b600033905090565b600080fd5b600073ffffffffffffffffffffffffffffffffffffffff82169050919050565b6000620003b58262000388565b9050919050565b620003c781620003a8565b8114620003d357600080fd5b50565b600081519050620003e781620003bc565b92915050565b60006020828403121562000406576200040562000383565b5b60006200041684828501620003d6565b91505092915050565b600081905092915050565b7f4f574e45525f524f4c4500000000000000000000000000000000000000000000600082015250565b600062000462600a836200041f565b91506200046f826200042a565b600a82019050919050565b6000620004878262000453565b9150819050919050565b7f4449535452494255544f525f524f4c4500000000000000000000000000000000600082015250565b6000620004c96010836200041f565b9150620004d68262000491565b601082019050919050565b6000620004ee82620004ba565b9150819050919050565b608051612fae6200051460003960006111f60152612fae6000f3fe608060405234801561001057600080fd5b506004361061010b5760003560e01c8063a217fddf116100a2578063e58378bb11610071578063e58378bb146102b8578063f0bd87cc146102d6578063f2f03877146102f4578063f9a5918f14610310578063fe5090161461032c5761010b565b8063a217fddf14610244578063bfe1092814610262578063d222871e14610280578063d547741f1461029c5761010b565b806336568abe116100de57806336568abe146101c057806391c05b0b146101dc57806391d14854146101f85780639a42f3aa146102285761010b565b806301ffc9a714610110578063248a9ca3146101405780632f2ff15d146101705780633495655a1461018c575b600080fd5b61012a60048036038101906101259190612347565b61035c565b604051610137919061238f565b60405180910390f35b61015a600480360381019061015591906123e0565b6103d6565b604051610167919061241c565b60405180910390f35b61018a60048036038101906101859190612495565b6103f5565b005b6101a660048036038101906101a1919061250b565b610416565b6040516101b795949392919061269b565b60405180910390f35b6101da60048036038101906101d59190612495565b61060f565b005b6101f660048036038101906101f1919061250b565b610692565b005b610212600480360381019061020d9190612495565b610e40565b60405161021f919061238f565b60405180910390f35b610242600480360381019061023d9190612716565b610eaa565b005b61024c6111ed565b604051610259919061241c565b60405180910390f35b61026a6111f4565b6040516102779190612778565b60405180910390f35b61029a600480360381019061029591906127b8565b611218565b005b6102b660048036038101906102b19190612495565b611335565b005b6102c0611356565b6040516102cd919061241c565b60405180910390f35b6102de61137e565b6040516102eb919061241c565b60405180910390f35b61030e600480360381019061030991906127f8565b6113a6565b005b61032a60048036038101906103259190612838565b61161a565b005b61034660048036038101906103419190612838565b611bc6565b6040516103539190612878565b60405180910390f35b60007f7965db0b000000000000000000000000000000000000000000000000000000007bffffffffffffffffffffffffffffffffffffffffffffffffffffffff1916827bffffffffffffffffffffffffffffffffffffffffffffffffffffffff191614806103cf57506103ce82611beb565b5b9050919050565b6000806000838152602001908152602001600020600101549050919050565b6103fe826103d6565b61040781611c55565b6104118383611c69565b505050565b6002602052806000526040600020600091509050806000015490806001016040518060a00160405290816000820160009054906101000a900473ffffffffffffffffffffffffffffffffffffffff1673ffffffffffffffffffffffffffffffffffffffff1673ffffffffffffffffffffffffffffffffffffffff1681526020016000820160149054906101000a900460ff161515151581526020016000820160159054906101000a900460ff161515151581526020016000820160169054906101000a900460ff1660038111156104f0576104ef612565565b5b600381111561050257610501612565565b5b815260200160018201548152505090806003016040518060a00160405290816000820160009054906101000a900473ffffffffffffffffffffffffffffffffffffffff1673ffffffffffffffffffffffffffffffffffffffff1673ffffffffffffffffffffffffffffffffffffffff1681526020016000820160149054906101000a900460ff161515151581526020016000820160159054906101000a900460ff161515151581526020016000820160169054906101000a900460ff1660038111156105d1576105d0612565565b5b60038111156105e3576105e2612565565b5b8152602001600182015481525050908060050160009054906101000a900460ff16908060060154905085565b610617611d49565b73ffffffffffffffffffffffffffffffffffffffff168173ffffffffffffffffffffffffffffffffffffffff1614610684576040517f08c379a000000000000000000000000000000000000000000000000000000000815260040161067b90612916565b60405180910390fd5b61068e8282611d51565b5050565b6040516020016106a19061298d565b604051602081830303815290604052805190602001206106c081611c55565b60006002600084815260200190815260200160002090508060030160000160169054906101000a900460ff1660038111156106fe576106fd612565565b5b8160010160000160169054906101000a900460ff16600381111561072557610724612565565b5b0361076a57827f66624a2ea04d723964b7325ea58b496e54d365957d5f1e150b68f812386bb7c760008060405161075d9291906129e7565b60405180910390a2610e09565b6001600381111561077e5761077d612565565b5b8160010160000160169054906101000a900460ff1660038111156107a5576107a4612565565b5b0361098a57600260038111156107be576107bd612565565b5b8160030160000160169054906101000a900460ff1660038111156107e5576107e4612565565b5b148061082857506003808111156107ff576107fe612565565b5b8160030160000160169054906101000a900460ff16600381111561082657610825612565565b5b145b61083557610834612a10565b5b6002600381111561084957610848612565565b5b8160030160000160169054906101000a900460ff1660038111156108705761086f612565565b5b036108df57827f66624a2ea04d723964b7325ea58b496e54d365957d5f1e150b68f812386bb7c78260030160000160009054906101000a900473ffffffffffffffffffffffffffffffffffffffff1683600601546040516108d2929190612a3f565b60405180910390a2610985565b6003808111156108f2576108f1612565565b5b8160030160000160169054906101000a900460ff16600381111561091957610918612565565b5b0361098457827f66624a2ea04d723964b7325ea58b496e54d365957d5f1e150b68f812386bb7c78260010160000160009054906101000a900473ffffffffffffffffffffffffffffffffffffffff16836006015460405161097b929190612a3f565b60405180910390a25b5b610e08565b60038081111561099d5761099c612565565b5b8160010160000160169054906101000a900460ff1660038111156109c4576109c3612565565b5b03610bab57600260038111156109dd576109dc612565565b5b8160030160000160169054906101000a900460ff166003811115610a0457610a03612565565b5b1480610a48575060016003811115610a1f57610a1e612565565b5b8160030160000160169054906101000a900460ff166003811115610a4657610a45612565565b5b145b610a5557610a54612a10565b5b60016003811115610a6957610a68612565565b5b8160030160000160169054906101000a900460ff166003811115610a9057610a8f612565565b5b03610aff57827f66624a2ea04d723964b7325ea58b496e54d365957d5f1e150b68f812386bb7c78260030160000160009054906101000a900473ffffffffffffffffffffffffffffffffffffffff168360060154604051610af2929190612a3f565b60405180910390a2610ba6565b60026003811115610b1357610b12612565565b5b8160030160000160169054906101000a900460ff166003811115610b3a57610b39612565565b5b03610ba557827f66624a2ea04d723964b7325ea58b496e54d365957d5f1e150b68f812386bb7c78260010160000160009054906101000a900473ffffffffffffffffffffffffffffffffffffffff168360060154604051610b9c929190612a3f565b60405180910390a25b5b610e07565b60026003811115610bbf57610bbe612565565b5b8160010160000160169054906101000a900460ff166003811115610be657610be5612565565b5b03610dcb5760016003811115610bff57610bfe612565565b5b8160030160000160169054906101000a900460ff166003811115610c2657610c25612565565b5b1480610c695750600380811115610c4057610c3f612565565b5b8160030160000160169054906101000a900460ff166003811115610c6757610c66612565565b5b145b610c7657610c75612a10565b5b600380811115610c8957610c88612565565b5b8160030160000160169054906101000a900460ff166003811115610cb057610caf612565565b5b03610d1f57827f66624a2ea04d723964b7325ea58b496e54d365957d5f1e150b68f812386bb7c78260030160000160009054906101000a900473ffffffffffffffffffffffffffffffffffffffff168360060154604051610d12929190612a3f565b60405180910390a2610dc6565b60016003811115610d3357610d32612565565b5b8160030160000160169054906101000a900460ff166003811115610d5a57610d59612565565b5b03610dc557827f66624a2ea04d723964b7325ea58b496e54d365957d5f1e150b68f812386bb7c78260010160000160009054906101000a900473ffffffffffffffffffffffffffffffffffffffff168360060154604051610dbc929190612a3f565b60405180910390a25b5b610e06565b6040517f08c379a0000000000000000000000000000000000000000000000000000000008152600401610dfd90612ab4565b60405180910390fd5b5b5b5b610e1581600101611e32565b610e2181600301611e32565b806006016000815480929190610e3690612b03565b9190505550505050565b600080600084815260200190815260200160002060000160008373ffffffffffffffffffffffffffffffffffffffff1673ffffffffffffffffffffffffffffffffffffffff16815260200190815260200160002060009054906101000a900460ff16905092915050565b60006002600085815260200190815260200160002090506000816000015403610eff576040517fb70c1fec00000000000000000000000000000000000000000000000000000000815260040160405180910390fd5b3373ffffffffffffffffffffffffffffffffffffffff168160010160000160009054906101000a900473ffffffffffffffffffffffffffffffffffffffff1673ffffffffffffffffffffffffffffffffffffffff1614158015610fb557503373ffffffffffffffffffffffffffffffffffffffff168160030160000160009054906101000a900473ffffffffffffffffffffffffffffffffffffffff1673ffffffffffffffffffffffffffffffffffffffff1614155b15610fec576040517f1f42735400000000000000000000000000000000000000000000000000000000815260040160405180910390fd5b6001600281111561100057610fff612565565b5b8160050160009054906101000a900460ff16600281111561102457611023612565565b5b1461105b576040517fa05e34ba00000000000000000000000000000000000000000000000000000000815260040160405180910390fd5b6001600381111561106f5761106e612565565b5b83600381111561108257611081612565565b5b141580156110b557506002600381111561109f5761109e612565565b5b8360038111156110b2576110b1612565565b5b14155b80156110e557506003808111156110cf576110ce612565565b5b8360038111156110e2576110e1612565565b5b14155b1561111c576040517f20edc18500000000000000000000000000000000000000000000000000000000815260040160405180910390fd5b3373ffffffffffffffffffffffffffffffffffffffff168160010160000160009054906101000a900473ffffffffffffffffffffffffffffffffffffffff1673ffffffffffffffffffffffffffffffffffffffff160361118957611184816001018484611ea8565b611198565b611197816003018484611ea8565b5b3373ffffffffffffffffffffffffffffffffffffffff16847fc98953cfdaf1355ff1a9db2d4975230864cb314b479eb1b02301c65234912163856040516111df9190612b5a565b60405180910390a350505050565b6000801b81565b7f000000000000000000000000000000000000000000000000000000000000000081565b6040516020016112279061298d565b6040516020818303038152906040528051906020012061124681611c55565b60006002600085815260200190815260200160002090508260028111156112705761126f612565565b5b8160050160009054906101000a900460ff16600281111561129457611293612565565b5b036112cb576040517fa05e34ba00000000000000000000000000000000000000000000000000000000815260040160405180910390fd5b828160050160006101000a81548160ff021916908360028111156112f2576112f1612565565b5b0217905550837fdf37221aaffab5daec18329c74e9de71f26727289dfefd6e144987965be79ef3846040516113279190612b75565b60405180910390a250505050565b61133e826103d6565b61134781611c55565b6113518383611d51565b505050565b60405160200161136590612bdc565b6040516020818303038152906040528051906020012081565b60405160200161138d9061298d565b6040516020818303038152906040528051906020012081565b600060026000848152602001908152602001600020905060008160000154036113fb576040517fb70c1fec00000000000000000000000000000000000000000000000000000000815260040160405180910390fd5b3373ffffffffffffffffffffffffffffffffffffffff168160010160000160009054906101000a900473ffffffffffffffffffffffffffffffffffffffff1673ffffffffffffffffffffffffffffffffffffffff16141580156114b157503373ffffffffffffffffffffffffffffffffffffffff168160030160000160009054906101000a900473ffffffffffffffffffffffffffffffffffffffff1673ffffffffffffffffffffffffffffffffffffffff1614155b156114e8576040517f1f42735400000000000000000000000000000000000000000000000000000000815260040160405180910390fd5b600060028111156114fc576114fb612565565b5b8160050160009054906101000a900460ff1660028111156115205761151f612565565b5b14611557576040517fa05e34ba00000000000000000000000000000000000000000000000000000000815260040160405180910390fd5b3373ffffffffffffffffffffffffffffffffffffffff168160010160000160009054906101000a900473ffffffffffffffffffffffffffffffffffffffff1673ffffffffffffffffffffffffffffffffffffffff16036115c3576115be8160010183611f9e565b6115d1565b6115d08160030183611f9e565b5b3373ffffffffffffffffffffffffffffffffffffffff16837f2f63308b073d0d25029a549b999d196c6bbc8b3bdb3b694d879a74d070ddbe9a60405160405180910390a3505050565b8073ffffffffffffffffffffffffffffffffffffffff168273ffffffffffffffffffffffffffffffffffffffff160361165257600080fd5b6000808273ffffffffffffffffffffffffffffffffffffffff168473ffffffffffffffffffffffffffffffffffffffff161061168f578284611692565b83835b91509150600073ffffffffffffffffffffffffffffffffffffffff168273ffffffffffffffffffffffffffffffffffffffff16036116cf57600080fd5b6000600160008473ffffffffffffffffffffffffffffffffffffffff1673ffffffffffffffffffffffffffffffffffffffff16815260200190815260200160002060008373ffffffffffffffffffffffffffffffffffffffff1673ffffffffffffffffffffffffffffffffffffffff168152602001908152602001600020541461175857600080fd5b60006040518060a001604052808473ffffffffffffffffffffffffffffffffffffffff168152602001600015158152602001600015158152602001600060038111156117a7576117a6612565565b5b81526020016000801b815250905060006040518060a001604052808473ffffffffffffffffffffffffffffffffffffffff1681526020016000151581526020016000151581526020016000600381111561180457611803612565565b5b81526020016000801b81525090506003600081548092919061182590612b03565b91905055506040518060a0016040528060035481526020018381526020018281526020016000600281111561185d5761185c612565565b5b815260200160008152506002600060035481526020019081526020016000206000820151816000015560208201518160010160008201518160000160006101000a81548173ffffffffffffffffffffffffffffffffffffffff021916908373ffffffffffffffffffffffffffffffffffffffff16021790555060208201518160000160146101000a81548160ff02191690831515021790555060408201518160000160156101000a81548160ff02191690831515021790555060608201518160000160166101000a81548160ff0219169083600381111561194157611940612565565b5b021790555060808201518160010155505060408201518160030160008201518160000160006101000a81548173ffffffffffffffffffffffffffffffffffffffff021916908373ffffffffffffffffffffffffffffffffffffffff16021790555060208201518160000160146101000a81548160ff02191690831515021790555060408201518160000160156101000a81548160ff02191690831515021790555060608201518160000160166101000a81548160ff02191690836003811115611a0d57611a0c612565565b5b021790555060808201518160010155505060608201518160050160006101000a81548160ff02191690836002811115611a4957611a48612565565b5b021790555060808201518160060155905050600354600160008673ffffffffffffffffffffffffffffffffffffffff1673ffffffffffffffffffffffffffffffffffffffff16815260200190815260200160002060008573ffffffffffffffffffffffffffffffffffffffff1673ffffffffffffffffffffffffffffffffffffffff16815260200190815260200160002081905550600354600160008573ffffffffffffffffffffffffffffffffffffffff1673ffffffffffffffffffffffffffffffffffffffff16815260200190815260200160002060008673ffffffffffffffffffffffffffffffffffffffff1673ffffffffffffffffffffffffffffffffffffffff168152602001908152602001600020819055508273ffffffffffffffffffffffffffffffffffffffff168473ffffffffffffffffffffffffffffffffffffffff166003547f04030770e813dd055e97aa89673831d9b864cb7195e6f9b18b9520645a9da59660405160405180910390a4505050505050565b6001602052816000526040600020602052806000526040600020600091509150505481565b60007f01ffc9a7000000000000000000000000000000000000000000000000000000007bffffffffffffffffffffffffffffffffffffffffffffffffffffffff1916827bffffffffffffffffffffffffffffffffffffffffffffffffffffffff1916149050919050565b611c6681611c61611d49565b612011565b50565b611c738282610e40565b611d4557600160008084815260200190815260200160002060000160008373ffffffffffffffffffffffffffffffffffffffff1673ffffffffffffffffffffffffffffffffffffffff16815260200190815260200160002060006101000a81548160ff021916908315150217905550611cea611d49565b73ffffffffffffffffffffffffffffffffffffffff168173ffffffffffffffffffffffffffffffffffffffff16837f2f8788117e7eff1d82e926ec794901d17c78024a50270940304540a733656f0d60405160405180910390a45b5050565b600033905090565b611d5b8282610e40565b15611e2e57600080600084815260200190815260200160002060000160008373ffffffffffffffffffffffffffffffffffffffff1673ffffffffffffffffffffffffffffffffffffffff16815260200190815260200160002060006101000a81548160ff021916908315150217905550611dd3611d49565b73ffffffffffffffffffffffffffffffffffffffff168173ffffffffffffffffffffffffffffffffffffffff16837ff6391f5c32d9c69d2a47ea670b442974b53935d1edc7fd64eb21e047a839171b60405160405180910390a45b5050565b60008160000160146101000a81548160ff02191690831515021790555060008160000160156101000a81548160ff02191690831515021790555060008160000160166101000a81548160ff02191690836003811115611e9457611e93612565565b5b02179055506000801b816001018190555050565b8260000160159054906101000a900460ff1615611ef1576040517fa89ac15100000000000000000000000000000000000000000000000000000000815260040160405180910390fd5b82600101548360000160009054906101000a900473ffffffffffffffffffffffffffffffffffffffff168383604051602001611f2f93929190612bf1565b6040516020818303038152906040528051906020012014611f7c576040517f0af806e000000000000000000000000000000000000000000000000000000000815260040160405180910390fd5b60018360000160156101000a81548160ff021916908315150217905550505050565b8160000160149054906101000a900460ff1615611fe7576040517ffc507a3100000000000000000000000000000000000000000000000000000000815260040160405180910390fd5b80826001018190555060018260000160146101000a81548160ff0219169083151502179055505050565b61201b8282610e40565b6120aa576120408173ffffffffffffffffffffffffffffffffffffffff1660146120ae565b61204e8360001c60206120ae565b60405160200161205f929190612d2f565b6040516020818303038152906040526040517f08c379a00000000000000000000000000000000000000000000000000000000081526004016120a19190612db3565b60405180910390fd5b5050565b6060600060028360026120c19190612dd5565b6120cb9190612e2f565b67ffffffffffffffff8111156120e4576120e3612e85565b5b6040519080825280601f01601f1916602001820160405280156121165781602001600182028036833780820191505090505b5090507f30000000000000000000000000000000000000000000000000000000000000008160008151811061214e5761214d612eb4565b5b60200101907effffffffffffffffffffffffffffffffffffffffffffffffffffffffffffff1916908160001a9053507f7800000000000000000000000000000000000000000000000000000000000000816001815181106121b2576121b1612eb4565b5b60200101907effffffffffffffffffffffffffffffffffffffffffffffffffffffffffffff1916908160001a905350600060018460026121f29190612dd5565b6121fc9190612e2f565b90505b600181111561229c577f3031323334353637383961626364656600000000000000000000000000000000600f86166010811061223e5761223d612eb4565b5b1a60f81b82828151811061225557612254612eb4565b5b60200101907effffffffffffffffffffffffffffffffffffffffffffffffffffffffffffff1916908160001a905350600485901c94508061229590612ee3565b90506121ff565b50600084146122e0576040517f08c379a00000000000000000000000000000000000000000000000000000000081526004016122d790612f58565b60405180910390fd5b8091505092915050565b600080fd5b60007fffffffff0000000000000000000000000000000000000000000000000000000082169050919050565b612324816122ef565b811461232f57600080fd5b50565b6000813590506123418161231b565b92915050565b60006020828403121561235d5761235c6122ea565b5b600061236b84828501612332565b91505092915050565b60008115159050919050565b61238981612374565b82525050565b60006020820190506123a46000830184612380565b92915050565b6000819050919050565b6123bd816123aa565b81146123c857600080fd5b50565b6000813590506123da816123b4565b92915050565b6000602082840312156123f6576123f56122ea565b5b6000612404848285016123cb565b91505092915050565b612416816123aa565b82525050565b6000602082019050612431600083018461240d565b92915050565b600073ffffffffffffffffffffffffffffffffffffffff82169050919050565b600061246282612437565b9050919050565b61247281612457565b811461247d57600080fd5b50565b60008135905061248f81612469565b92915050565b600080604083850312156124ac576124ab6122ea565b5b60006124ba858286016123cb565b92505060206124cb85828601612480565b9150509250929050565b6000819050919050565b6124e8816124d5565b81146124f357600080fd5b50565b600081359050612505816124df565b92915050565b600060208284031215612521576125206122ea565b5b600061252f848285016124f6565b91505092915050565b612541816124d5565b82525050565b61255081612457565b82525050565b61255f81612374565b82525050565b7f4e487b7100000000000000000000000000000000000000000000000000000000600052602160045260246000fd5b600481106125a5576125a4612565565b5b50565b60008190506125b682612594565b919050565b60006125c6826125a8565b9050919050565b6125d6816125bb565b82525050565b6125e5816123aa565b82525050565b60a0820160008201516126016000850182612547565b5060208201516126146020850182612556565b5060408201516126276040850182612556565b50606082015161263a60608501826125cd565b50608082015161264d60808501826125dc565b50505050565b6003811061266457612663612565565b5b50565b600081905061267582612653565b919050565b600061268582612667565b9050919050565b6126958161267a565b82525050565b60006101a0820190506126b16000830188612538565b6126be60208301876125eb565b6126cb60c08301866125eb565b6126d961016083018561268c565b6126e7610180830184612538565b9695505050505050565b600481106126fe57600080fd5b50565b600081359050612710816126f1565b92915050565b60008060006060848603121561272f5761272e6122ea565b5b600061273d868287016124f6565b935050602061274e86828701612701565b925050604061275f868287016123cb565b9150509250925092565b61277281612457565b82525050565b600060208201905061278d6000830184612769565b92915050565b600381106127a057600080fd5b50565b6000813590506127b281612793565b92915050565b600080604083850312156127cf576127ce6122ea565b5b60006127dd858286016124f6565b92505060206127ee858286016127a3565b9150509250929050565b6000806040838503121561280f5761280e6122ea565b5b600061281d858286016124f6565b925050602061282e858286016123cb565b9150509250929050565b6000806040838503121561284f5761284e6122ea565b5b600061285d85828601612480565b925050602061286e85828601612480565b9150509250929050565b600060208201905061288d6000830184612538565b92915050565b600082825260208201905092915050565b7f416363657373436f6e74726f6c3a2063616e206f6e6c792072656e6f756e636560008201527f20726f6c657320666f722073656c660000000000000000000000000000000000602082015250565b6000612900602f83612893565b915061290b826128a4565b604082019050919050565b6000602082019050818103600083015261292f816128f3565b9050919050565b600081905092915050565b7f4449535452494255544f525f524f4c4500000000000000000000000000000000600082015250565b6000612977601083612936565b915061298282612941565b601082019050919050565b60006129988261296a565b9150819050919050565b6000819050919050565b6000819050919050565b60006129d16129cc6129c7846129a2565b6129ac565b6124d5565b9050919050565b6129e1816129b6565b82525050565b60006040820190506129fc6000830185612769565b612a0960208301846129d8565b9392505050565b7f4e487b7100000000000000000000000000000000000000000000000000000000600052600160045260246000fd5b6000604082019050612a546000830185612769565b612a616020830184612538565b9392505050565b7f43686f69636520696e63636f7265637421000000000000000000000000000000600082015250565b6000612a9e601183612893565b9150612aa982612a68565b602082019050919050565b60006020820190508181036000830152612acd81612a91565b9050919050565b7f4e487b7100000000000000000000000000000000000000000000000000000000600052601160045260246000fd5b6000612b0e826124d5565b91507fffffffffffffffffffffffffffffffffffffffffffffffffffffffffffffffff8203612b4057612b3f612ad4565b5b600182019050919050565b612b54816125bb565b82525050565b6000602082019050612b6f6000830184612b4b565b92915050565b6000602082019050612b8a600083018461268c565b92915050565b7f4f574e45525f524f4c4500000000000000000000000000000000000000000000600082015250565b6000612bc6600a83612936565b9150612bd182612b90565b600a82019050919050565b6000612be782612bb9565b9150819050919050565b6000606082019050612c066000830186612769565b612c136020830185612b4b565b612c20604083018461240d565b949350505050565b7f416363657373436f6e74726f6c3a206163636f756e7420000000000000000000600082015250565b6000612c5e601783612936565b9150612c6982612c28565b601782019050919050565b600081519050919050565b60005b83811015612c9d578082015181840152602081019050612c82565b83811115612cac576000848401525b50505050565b6000612cbd82612c74565b612cc78185612936565b9350612cd7818560208601612c7f565b80840191505092915050565b7f206973206d697373696e6720726f6c6520000000000000000000000000000000600082015250565b6000612d19601183612936565b9150612d2482612ce3565b601182019050919050565b6000612d3a82612c51565b9150612d468285612cb2565b9150612d5182612d0c565b9150612d5d8284612cb2565b91508190509392505050565b6000601f19601f8301169050919050565b6000612d8582612c74565b612d8f8185612893565b9350612d9f818560208601612c7f565b612da881612d69565b840191505092915050565b60006020820190508181036000830152612dcd8184612d7a565b905092915050565b6000612de0826124d5565b9150612deb836124d5565b9250817fffffffffffffffffffffffffffffffffffffffffffffffffffffffffffffffff0483118215151615612e2457612e23612ad4565b5b828202905092915050565b6000612e3a826124d5565b9150612e45836124d5565b9250827fffffffffffffffffffffffffffffffffffffffffffffffffffffffffffffffff03821115612e7a57612e79612ad4565b5b828201905092915050565b7f4e487b7100000000000000000000000000000000000000000000000000000000600052604160045260246000fd5b7f4e487b7100000000000000000000000000000000000000000000000000000000600052603260045260246000fd5b6000612eee826124d5565b915060008203612f0157612f00612ad4565b5b600182039050919050565b7f537472696e67733a20686578206c656e67746820696e73756666696369656e74600082015250565b6000612f42602083612893565b9150612f4d82612f0c565b602082019050919050565b60006020820190508181036000830152612f7181612f35565b905091905056fea264697066735822122082c03cadd38ab697eca82acbb9b1ddad39aa0af499bdd53ce1483f32af4146e464736f6c634300080e0033",
  "immutableReferences": {
    "4253": [
      {
        "length": 32,
        "start": 4598
      }
    ]
  },
  "source": "//SPDX-License-Identifier: Unlicense\r\npragma solidity ^0.8.7;\r\n\r\nimport \"@openzeppelin/contracts/access/AccessControl.sol\";\r\nimport \"./interfaces/IGameV2.sol\";\r\n\r\ncontract GameV2 is IGameV2, AccessControl {\r\n    bytes32 public constant OWNER_ROLE = keccak256(abi.encodePacked(\"OWNER_ROLE\"));\r\n    bytes32 public constant DISTRIBUTOR_ROLE = keccak256(abi.encodePacked(\"DISTRIBUTOR_ROLE\"));\r\n\r\n    mapping(address => mapping(address => uint256)) public getRoomByPlayerAddresses;\r\n    mapping(uint256 => Room) public getRoomById;\r\n    uint256 private roomCounter;\r\n\r\n    address immutable public distributor;  \r\n\r\n    constructor(address _distributor) {\r\n        _setRoleAdmin(OWNER_ROLE, OWNER_ROLE);\r\n        _setRoleAdmin(DISTRIBUTOR_ROLE, OWNER_ROLE);\r\n\r\n        _grantRole(OWNER_ROLE, msg.sender);\r\n        _grantRole(DISTRIBUTOR_ROLE, _distributor);\r\n\r\n        distributor = _distributor;\r\n    }\r\n\r\n    function createRoom(address playerA, address playerB) external override {\r\n        require(playerA != playerB);\r\n        (address player0Address, address player1Address) = playerA < playerB ? (playerA, playerB) : (playerB, playerA);\r\n        require(player0Address != address(0));\r\n        require(getRoomByPlayerAddresses[player0Address][player1Address] == 0);\r\n\r\n        Player memory player0 = Player(player0Address, false, false, Choice.None, bytes32(0));\r\n        Player memory player1 = Player(player1Address, false, false, Choice.None, bytes32(0));\r\n\r\n        roomCounter++;\r\n        getRoomById[roomCounter] = Room(roomCounter, player0, player1, Stage.Commit, 0);\r\n        getRoomByPlayerAddresses[player0Address][player1Address] = roomCounter;\r\n        getRoomByPlayerAddresses[player1Address][player0Address] = roomCounter;\r\n        emit RoomCreated(roomCounter, player0Address, player1Address); \r\n    }\r\n\r\n    function commit(uint256 roomId, bytes32 commitment) external override {\r\n        Room storage room = getRoomById[roomId];\r\n        if(room.id == 0) {\r\n            revert RoomNotExist();\r\n        }\r\n        if(room.player0.playerAddress != msg.sender && room.player1.playerAddress != msg.sender){\r\n            revert PlayerNotExist();\r\n        }\r\n        if (room.stage != Stage.Commit) {\r\n            revert WrongStage();\r\n        }\r\n        // Only run during commit stages\r\n        // Player memory player;\r\n        if(room.player0.playerAddress == msg.sender) {\r\n            setCommitment(room.player0, commitment);\r\n        } else {\r\n            setCommitment(room.player1, commitment);\r\n        }\r\n        emit Commited(roomId, msg.sender);\r\n    }\r\n\r\n    function reveal(uint256 roomId, Choice choice, bytes32 key) external override {\r\n        Room storage room = getRoomById[roomId];\r\n        if(room.id == 0) {\r\n            revert RoomNotExist();\r\n        }\r\n        if(room.player0.playerAddress != msg.sender && room.player1.playerAddress != msg.sender){\r\n            revert PlayerNotExist();\r\n        }\r\n        if (room.stage != Stage.Reveal) {\r\n            revert WrongStage();\r\n        }\r\n        if(choice != Choice.Rock && choice != Choice.Paper && choice != Choice.Scissors){\r\n            revert WrongChoice();\r\n        }\r\n        if(room.player0.playerAddress == msg.sender) {\r\n            setReveal(room.player0, choice, key);\r\n        } else {\r\n            setReveal(room.player1, choice, key);\r\n        }\r\n        emit Revealed(roomId, msg.sender, choice);\r\n    }\r\n\r\n    function distribute(uint256 roomId) external onlyRole(DISTRIBUTOR_ROLE) override {\r\n        Room storage room = getRoomById[roomId];\r\n        if(room.player0.choice == room.player1.choice) {\r\n            emit GameResult(roomId, address(0), 0);\r\n        } \r\n        else if(room.player0.choice == Choice.Rock) {            \r\n            assert(room.player1.choice == Choice.Paper || room.player1.choice == Choice.Scissors);\r\n            if(room.player1.choice == Choice.Paper) {\r\n                // Rock loses to paper\r\n                emit GameResult(roomId, room.player1.playerAddress, room.gameId);\r\n            }\r\n            else if(room.player1.choice == Choice.Scissors) {\r\n                // Rock beats scissors\r\n                emit GameResult(roomId, room.player0.playerAddress, room.gameId);\r\n            }\r\n        }\r\n        else if(room.player0.choice == Choice.Scissors) {\r\n            assert(room.player1.choice == Choice.Paper || room.player1.choice == Choice.Rock);\r\n            if(room.player1.choice == Choice.Rock) {\r\n                // Scissors lose to rock\r\n                emit GameResult(roomId, room.player1.playerAddress, room.gameId);\r\n            }\r\n            else if(room.player1.choice == Choice.Paper) {\r\n                // Scissors beats paper\r\n                emit GameResult(roomId, room.player0.playerAddress, room.gameId);\r\n            }\r\n        }\r\n        else if(room.player0.choice == Choice.Paper) {\r\n            assert(room.player1.choice == Choice.Rock || room.player1.choice == Choice.Scissors);\r\n            if(room.player1.choice == Choice.Scissors) {\r\n                // Paper loses to scissors\r\n                emit GameResult(roomId, room.player1.playerAddress, room.gameId);\r\n            }\r\n            else if(room.player1.choice == Choice.Rock) {\r\n                // Paper beats rock\r\n                emit GameResult(roomId, room.player0.playerAddress, room.gameId);\r\n            }\r\n        } else revert(\"Choice inccorect!\");\r\n        reset(room.player0);\r\n        reset(room.player1);\r\n        room.gameId++;\r\n    }\r\n\r\n    function nextStage(uint256 roomId, Stage stage) external onlyRole(DISTRIBUTOR_ROLE) override {\r\n        Room storage room = getRoomById[roomId];\r\n        if(room.stage == stage) {\r\n            revert WrongStage();\r\n        }\r\n        room.stage = stage;\r\n        emit StageChanged(roomId, stage);\r\n    }\r\n\r\n    function setCommitment(Player storage player, bytes32 commitment) private {\r\n        if(player.commited){\r\n            revert AlreadyCommited();\r\n        }\r\n        player.commitment = commitment;\r\n        player.commited = true;\r\n    }\r\n\r\n    function setReveal(Player storage player, Choice choice, bytes32 key) private {\r\n        if(player.revealed){\r\n            revert AlreadyRevealed();\r\n        }\r\n        if(keccak256(abi.encode(player.playerAddress, choice, key)) != player.commitment){\r\n            revert InvalidHash();\r\n        }\r\n        player.revealed = true;\r\n    }\r\n\r\n    function reset(Player storage player) private {\r\n        player.commited = false;\r\n        player.revealed = false;\r\n        player.choice = Choice.None;\r\n        player.commitment = bytes32(0);\r\n    }\r\n}",
  "sourcePath": "C:\\Users\\vania\\Documents\\GitHub\\rock-paper-scissors-solidity\\blockchain\\contracts\\v2\\GameV2.sol",
  "compiler": {
    "name": "solc",
    "version": "0.8.14+commit.80d49f37.Emscripten.clang"
  },
  "schemaVersion": "3.4.7",
  "updatedAt": "2022-07-21T14:02:33.023Z",
  "devdoc": {
    "kind": "dev",
    "methods": {
      "getRoleAdmin(bytes32)": {
        "details": "Returns the admin role that controls `role`. See {grantRole} and {revokeRole}. To change a role's admin, use {_setRoleAdmin}."
      },
      "grantRole(bytes32,address)": {
        "details": "Grants `role` to `account`. If `account` had not been already granted `role`, emits a {RoleGranted} event. Requirements: - the caller must have ``role``'s admin role."
      },
      "hasRole(bytes32,address)": {
        "details": "Returns `true` if `account` has been granted `role`."
      },
      "renounceRole(bytes32,address)": {
        "details": "Revokes `role` from the calling account. Roles are often managed via {grantRole} and {revokeRole}: this function's purpose is to provide a mechanism for accounts to lose their privileges if they are compromised (such as when a trusted device is misplaced). If the calling account had been revoked `role`, emits a {RoleRevoked} event. Requirements: - the caller must be `account`."
      },
      "revokeRole(bytes32,address)": {
        "details": "Revokes `role` from `account`. If `account` had been granted `role`, emits a {RoleRevoked} event. Requirements: - the caller must have ``role``'s admin role."
      },
      "supportsInterface(bytes4)": {
        "details": "See {IERC165-supportsInterface}."
      }
    },
    "version": 1
  },
  "userdoc": {
    "kind": "user",
    "methods": {},
    "version": 1
  }
}