{
  "contractName": "RoomFactoryV1",
  "abi": [
    {
      "inputs": [
        {
          "internalType": "address",
          "name": "_bot",
          "type": "address"
        }
      ],
      "stateMutability": "nonpayable",
      "type": "constructor"
    },
    {
      "anonymous": false,
      "inputs": [
        {
          "indexed": true,
          "internalType": "address",
          "name": "player0",
          "type": "address"
        },
        {
          "indexed": true,
          "internalType": "address",
          "name": "player1",
          "type": "address"
        },
        {
          "indexed": false,
          "internalType": "address",
          "name": "room",
          "type": "address"
        }
      ],
      "name": "RoomCreated",
      "type": "event"
    },
    {
      "inputs": [
        {
          "internalType": "uint256",
          "name": "",
          "type": "uint256"
        }
      ],
      "name": "allRooms",
      "outputs": [
        {
          "internalType": "address",
          "name": "",
          "type": "address"
        }
      ],
      "stateMutability": "view",
      "type": "function"
    },
    {
      "inputs": [],
      "name": "bot",
      "outputs": [
        {
          "internalType": "address",
          "name": "",
          "type": "address"
        }
      ],
      "stateMutability": "view",
      "type": "function"
    },
    {
      "inputs": [
        {
          "internalType": "address",
          "name": "",
          "type": "address"
        },
        {
          "internalType": "address",
          "name": "",
          "type": "address"
        }
      ],
      "name": "getRoom",
      "outputs": [
        {
          "internalType": "address",
          "name": "",
          "type": "address"
        }
      ],
      "stateMutability": "view",
      "type": "function"
    },
    {
      "inputs": [
        {
          "internalType": "address",
          "name": "playerA",
          "type": "address"
        },
        {
          "internalType": "address",
          "name": "playerB",
          "type": "address"
        }
      ],
      "name": "createRoom",
      "outputs": [
        {
          "internalType": "address",
          "name": "room",
          "type": "address"
        }
      ],
      "stateMutability": "nonpayable",
      "type": "function"
    }
  ],
  "bytecode": "0x60a060405234801561001057600080fd5b50604051613905380380613905833981810160405281019061003291906100cf565b8073ffffffffffffffffffffffffffffffffffffffff1660808173ffffffffffffffffffffffffffffffffffffffff1681525050506100fc565b600080fd5b600073ffffffffffffffffffffffffffffffffffffffff82169050919050565b600061009c82610071565b9050919050565b6100ac81610091565b81146100b757600080fd5b50565b6000815190506100c9816100a3565b92915050565b6000602082840312156100e5576100e461006c565b5b60006100f3848285016100ba565b91505092915050565b6080516137e06101256000396000818161011d0152818161035501526103a201526137e06000f3fe60806040523480156200001157600080fd5b5060043610620000525760003560e01c806310814c37146200005757806316778a311462000079578063369b77b614620000af578063f9a5918f14620000e5575b600080fd5b620000616200011b565b60405162000070919062000637565b60405180910390f35b62000097600480360381019062000091919062000694565b6200013f565b604051620000a6919062000637565b60405180910390f35b620000cd6004803603810190620000c79190620006f7565b6200017f565b604051620000dc919062000637565b60405180910390f35b620001036004803603810190620000fd9190620006f7565b620001c1565b60405162000112919062000637565b60405180910390f35b7f000000000000000000000000000000000000000000000000000000000000000081565b600181815481106200015057600080fd5b906000526020600020016000915054906101000a900473ffffffffffffffffffffffffffffffffffffffff1681565b60006020528160005260406000206020528060005260406000206000915091509054906101000a900473ffffffffffffffffffffffffffffffffffffffff1681565b60008173ffffffffffffffffffffffffffffffffffffffff168373ffffffffffffffffffffffffffffffffffffffff1603620001fc57600080fd5b6000808373ffffffffffffffffffffffffffffffffffffffff168573ffffffffffffffffffffffffffffffffffffffff16106200023b5783856200023e565b84845b91509150600073ffffffffffffffffffffffffffffffffffffffff168273ffffffffffffffffffffffffffffffffffffffff16036200027c57600080fd5b600073ffffffffffffffffffffffffffffffffffffffff166000808473ffffffffffffffffffffffffffffffffffffffff1673ffffffffffffffffffffffffffffffffffffffff16815260200190815260200160002060008373ffffffffffffffffffffffffffffffffffffffff1673ffffffffffffffffffffffffffffffffffffffff16815260200190815260200160002060009054906101000a900473ffffffffffffffffffffffffffffffffffffffff1673ffffffffffffffffffffffffffffffffffffffff16146200035157600080fd5b81817f000000000000000000000000000000000000000000000000000000000000000060405160200162000388939291906200073e565b6040516020818303038152906040528051906020012082827f0000000000000000000000000000000000000000000000000000000000000000604051620003cf90620005e4565b620003dd939291906200073e565b8190604051809103906000f5905080158015620003fe573d6000803e3d6000fd5b509250826000808473ffffffffffffffffffffffffffffffffffffffff1673ffffffffffffffffffffffffffffffffffffffff16815260200190815260200160002060008373ffffffffffffffffffffffffffffffffffffffff1673ffffffffffffffffffffffffffffffffffffffff16815260200190815260200160002060006101000a81548173ffffffffffffffffffffffffffffffffffffffff021916908373ffffffffffffffffffffffffffffffffffffffff160217905550826000808373ffffffffffffffffffffffffffffffffffffffff1673ffffffffffffffffffffffffffffffffffffffff16815260200190815260200160002060008473ffffffffffffffffffffffffffffffffffffffff1673ffffffffffffffffffffffffffffffffffffffff16815260200190815260200160002060006101000a81548173ffffffffffffffffffffffffffffffffffffffff021916908373ffffffffffffffffffffffffffffffffffffffff1602179055508073ffffffffffffffffffffffffffffffffffffffff168273ffffffffffffffffffffffffffffffffffffffff167f5289948e590c8468213730d915586b5e7b9b9f87cae8bebb78df2c871daca1f885604051620005d4919062000637565b60405180910390a3505092915050565b61302f806200077c83390190565b600073ffffffffffffffffffffffffffffffffffffffff82169050919050565b60006200061f82620005f2565b9050919050565b620006318162000612565b82525050565b60006020820190506200064e600083018462000626565b92915050565b600080fd5b6000819050919050565b6200066e8162000659565b81146200067a57600080fd5b50565b6000813590506200068e8162000663565b92915050565b600060208284031215620006ad57620006ac62000654565b5b6000620006bd848285016200067d565b91505092915050565b620006d18162000612565b8114620006dd57600080fd5b50565b600081359050620006f181620006c6565b92915050565b6000806040838503121562000711576200071062000654565b5b60006200072185828601620006e0565b92505060206200073485828601620006e0565b9150509250929050565b600060608201905062000755600083018662000626565b62000764602083018562000626565b62000773604083018462000626565b94935050505056fe60a06040523480156200001157600080fd5b506040516200302f3803806200302f833981810160405281019062000037919062000639565b620000956040516020016200004c90620006f0565b604051602081830303815290604052805190602001206040516020016200007390620006f0565b60405160208183030381529060405280519060200120620003ea60201b60201c565b620000f3604051602001620000aa9062000757565b60405160208183030381529060405280519060200120604051602001620000d190620006f0565b60405160208183030381529060405280519060200120620003ea60201b60201c565b6200012b6040516020016200010890620006f0565b60405160208183030381529060405280519060200120336200044d60201b60201c565b62000163604051602001620001409062000757565b60405160208183030381529060405280519060200120826200044d60201b60201c565b8073ffffffffffffffffffffffffffffffffffffffff1660808173ffffffffffffffffffffffffffffffffffffffff16815250506040518060a001604052808473ffffffffffffffffffffffffffffffffffffffff16815260200160001515815260200160001515815260200160006003811115620001e757620001e66200076e565b5b81526020016000801b815250600260008201518160000160006101000a81548173ffffffffffffffffffffffffffffffffffffffff021916908373ffffffffffffffffffffffffffffffffffffffff16021790555060208201518160000160146101000a81548160ff02191690831515021790555060408201518160000160156101000a81548160ff02191690831515021790555060608201518160000160166101000a81548160ff02191690836003811115620002aa57620002a96200076e565b5b0217905550608082015181600101559050506040518060a001604052808373ffffffffffffffffffffffffffffffffffffffff168152602001600015158152602001600015158152602001600060038111156200030c576200030b6200076e565b5b81526020016000801b815250600460008201518160000160006101000a81548173ffffffffffffffffffffffffffffffffffffffff021916908373ffffffffffffffffffffffffffffffffffffffff16021790555060208201518160000160146101000a81548160ff02191690831515021790555060408201518160000160156101000a81548160ff02191690831515021790555060608201518160000160166101000a81548160ff02191690836003811115620003cf57620003ce6200076e565b5b0217905550608082015181600101559050505050506200079d565b6000620003fd836200053e60201b60201c565b905081600080858152602001908152602001600020600101819055508181847fbd79b86ffe0ab8e8776151514217cd7cacd52c909f66475c3af44e129f0b00ff60405160405180910390a4505050565b6200045f82826200055d60201b60201c565b6200053a57600160008084815260200190815260200160002060000160008373ffffffffffffffffffffffffffffffffffffffff1673ffffffffffffffffffffffffffffffffffffffff16815260200190815260200160002060006101000a81548160ff021916908315150217905550620004df620005c760201b60201c565b73ffffffffffffffffffffffffffffffffffffffff168173ffffffffffffffffffffffffffffffffffffffff16837f2f8788117e7eff1d82e926ec794901d17c78024a50270940304540a733656f0d60405160405180910390a45b5050565b6000806000838152602001908152602001600020600101549050919050565b600080600084815260200190815260200160002060000160008373ffffffffffffffffffffffffffffffffffffffff1673ffffffffffffffffffffffffffffffffffffffff16815260200190815260200160002060009054906101000a900460ff16905092915050565b600033905090565b600080fd5b600073ffffffffffffffffffffffffffffffffffffffff82169050919050565b60006200060182620005d4565b9050919050565b6200061381620005f4565b81146200061f57600080fd5b50565b600081519050620006338162000608565b92915050565b600080600060608486031215620006555762000654620005cf565b5b6000620006658682870162000622565b9350506020620006788682870162000622565b92505060406200068b8682870162000622565b9150509250925092565b600081905092915050565b7f4f574e45525f524f4c4500000000000000000000000000000000000000000000600082015250565b6000620006d8600a8362000695565b9150620006e582620006a0565b600a82019050919050565b6000620006fd82620006c9565b9150819050919050565b7f4449535452494255544f525f524f4c4500000000000000000000000000000000600082015250565b60006200073f60108362000695565b91506200074c8262000707565b601082019050919050565b6000620007648262000730565b9150819050919050565b7f4e487b7100000000000000000000000000000000000000000000000000000000600052602160045260246000fd5b608051612879620007b6600039600050506128796000f3fe608060405234801561001057600080fd5b50600436106101165760003560e01c8063b9172dec116100a2578063d547741f11610071578063d547741f146102d5578063e4fc6b6d146102f1578063e58378bb146102fb578063f0bd87cc14610319578063f14fcbc81461033757610116565b8063b9172dec14610257578063c040e6b814610273578063d30895e414610291578063d42863ac146102b357610116565b806336568abe116100e957806336568abe146101b55780633fc8ae06146101d15780634aed2c9a146101ed57806391d1485414610209578063a217fddf1461023957610116565b806301ffc9a71461011b578063248a9ca31461014b5780632e0be39a1461017b5780632f2ff15d14610199575b600080fd5b61013560048036038101906101309190611e0f565b610353565b6040516101429190611e57565b60405180910390f35b61016560048036038101906101609190611ea8565b6103cd565b6040516101729190611ee4565b60405180910390f35b6101836103ec565b6040516101909190611f18565b60405180910390f35b6101b360048036038101906101ae9190611f91565b6103f2565b005b6101cf60048036038101906101ca9190611f91565b610413565b005b6101eb60048036038101906101e69190611ff6565b610496565b005b61020760048036038101906102029190612036565b61078c565b005b610223600480360381019061021e9190611f91565b6109fd565b6040516102309190611e57565b60405180910390f35b610241610a67565b60405161024e9190611ee4565b60405180910390f35b610271600480360381019061026c919061209b565b610a6e565b005b61027b610b93565b604051610288919061213f565b60405180910390f35b610299610ba6565b6040516102aa9594939291906121b1565b60405180910390f35b6102bb610c11565b6040516102cc9594939291906121b1565b60405180910390f35b6102ef60048036038101906102ea9190611f91565b610c7c565b005b6102f9610c9d565b005b6103036114b2565b6040516103109190611ee4565b60405180910390f35b6103216114da565b60405161032e9190611ee4565b60405180910390f35b610351600480360381019061034c9190611ea8565b611502565b005b60007f7965db0b000000000000000000000000000000000000000000000000000000007bffffffffffffffffffffffffffffffffffffffffffffffffffffffff1916827bffffffffffffffffffffffffffffffffffffffffffffffffffffffff191614806103c657506103c582611729565b5b9050919050565b6000806000838152602001908152602001600020600101549050919050565b60015481565b6103fb826103cd565b61040481611793565b61040e83836117a7565b505050565b61041b611887565b73ffffffffffffffffffffffffffffffffffffffff168173ffffffffffffffffffffffffffffffffffffffff1614610488576040517f08c379a000000000000000000000000000000000000000000000000000000000815260040161047f90612287565b60405180910390fd5b610492828261188f565b5050565b3373ffffffffffffffffffffffffffffffffffffffff16600260000160009054906101000a900473ffffffffffffffffffffffffffffffffffffffff1673ffffffffffffffffffffffffffffffffffffffff161415801561054857503373ffffffffffffffffffffffffffffffffffffffff16600460000160009054906101000a900473ffffffffffffffffffffffffffffffffffffffff1673ffffffffffffffffffffffffffffffffffffffff1614155b1561057f576040517f1f42735400000000000000000000000000000000000000000000000000000000815260040160405180910390fd5b60016002811115610593576105926120c8565b5b600660009054906101000a900460ff1660028111156105b5576105b46120c8565b5b146105ec576040517fa05e34ba00000000000000000000000000000000000000000000000000000000815260040160405180910390fd5b60016003811115610600576105ff6120c8565b5b826003811115610613576106126120c8565b5b141580156106465750600260038111156106305761062f6120c8565b5b826003811115610643576106426120c8565b5b14155b801561067657506003808111156106605761065f6120c8565b5b826003811115610673576106726120c8565b5b14155b156106ad576040517f20edc18500000000000000000000000000000000000000000000000000000000815260040160405180910390fd5b3373ffffffffffffffffffffffffffffffffffffffff16600260000160009054906101000a900473ffffffffffffffffffffffffffffffffffffffff1673ffffffffffffffffffffffffffffffffffffffff16036107165761071160028383611970565b610723565b61072260048383611970565b5b3373ffffffffffffffffffffffffffffffffffffffff163073ffffffffffffffffffffffffffffffffffffffff167fb7b340131dd0b9272bb5e6175b8e9aa734a869625182548092b50ba1c1b18fde8460405161078091906122a7565b60405180910390a35050565b60405160200161079b90612319565b604051602081830303815290604052805190602001206107ba81611793565b6040518060a001604052808473ffffffffffffffffffffffffffffffffffffffff16815260200160001515815260200160001515815260200160006003811115610807576108066120c8565b5b81526020016000801b815250600260008201518160000160006101000a81548173ffffffffffffffffffffffffffffffffffffffff021916908373ffffffffffffffffffffffffffffffffffffffff16021790555060208201518160000160146101000a81548160ff02191690831515021790555060408201518160000160156101000a81548160ff02191690831515021790555060608201518160000160166101000a81548160ff021916908360038111156108c7576108c66120c8565b5b0217905550608082015181600101559050506040518060a001604052808373ffffffffffffffffffffffffffffffffffffffff16815260200160001515815260200160001515815260200160006003811115610926576109256120c8565b5b81526020016000801b815250600460008201518160000160006101000a81548173ffffffffffffffffffffffffffffffffffffffff021916908373ffffffffffffffffffffffffffffffffffffffff16021790555060208201518160000160146101000a81548160ff02191690831515021790555060408201518160000160156101000a81548160ff02191690831515021790555060608201518160000160166101000a81548160ff021916908360038111156109e6576109e56120c8565b5b021790555060808201518160010155905050505050565b600080600084815260200190815260200160002060000160008373ffffffffffffffffffffffffffffffffffffffff1673ffffffffffffffffffffffffffffffffffffffff16815260200190815260200160002060009054906101000a900460ff16905092915050565b6000801b81565b604051602001610a7d90612319565b60405160208183030381529060405280519060200120610a9c81611793565b816002811115610aaf57610aae6120c8565b5b600660009054906101000a900460ff166002811115610ad157610ad06120c8565b5b03610b08576040517fa05e34ba00000000000000000000000000000000000000000000000000000000815260040160405180910390fd5b81600660006101000a81548160ff02191690836002811115610b2d57610b2c6120c8565b5b02179055503073ffffffffffffffffffffffffffffffffffffffff167f2ac10ce19c110986e7824de50d9855079ddcc0ceaae6c51f182e458cf81319ca600660009054906101000a900460ff16604051610b87919061213f565b60405180910390a25050565b600660009054906101000a900460ff1681565b60048060000160009054906101000a900473ffffffffffffffffffffffffffffffffffffffff16908060000160149054906101000a900460ff16908060000160159054906101000a900460ff16908060000160169054906101000a900460ff16908060010154905085565b60028060000160009054906101000a900473ffffffffffffffffffffffffffffffffffffffff16908060000160149054906101000a900460ff16908060000160159054906101000a900460ff16908060000160169054906101000a900460ff16908060010154905085565b610c85826103cd565b610c8e81611793565b610c98838361188f565b505050565b604051602001610cac90612319565b60405160208183030381529060405280519060200120610ccb81611793565b600460000160169054906101000a900460ff166003811115610cf057610cef6120c8565b5b600260000160169054906101000a900460ff166003811115610d1557610d146120c8565b5b03610d6e573073ffffffffffffffffffffffffffffffffffffffff167f5698514ff818a4b8d88693fc8cf850843c95e394c707d7e4675d3f8af9bda3ee6000604051610d61919061232e565b60405180910390a2611443565b60016003811115610d8257610d816120c8565b5b600260000160169054906101000a900460ff166003811115610da757610da66120c8565b5b03610fa05760026003811115610dc057610dbf6120c8565b5b600460000160169054906101000a900460ff166003811115610de557610de46120c8565b5b1480610e265750600380811115610dff57610dfe6120c8565b5b600460000160169054906101000a900460ff166003811115610e2457610e236120c8565b5b145b610e3357610e32612349565b5b60026003811115610e4757610e466120c8565b5b600460000160169054906101000a900460ff166003811115610e6c57610e6b6120c8565b5b03610ee9573073ffffffffffffffffffffffffffffffffffffffff167f5698514ff818a4b8d88693fc8cf850843c95e394c707d7e4675d3f8af9bda3ee600460000160009054906101000a900473ffffffffffffffffffffffffffffffffffffffff16604051610edc919061232e565b60405180910390a2610f9b565b600380811115610efc57610efb6120c8565b5b600460000160169054906101000a900460ff166003811115610f2157610f206120c8565b5b03610f9a573073ffffffffffffffffffffffffffffffffffffffff167f5698514ff818a4b8d88693fc8cf850843c95e394c707d7e4675d3f8af9bda3ee600260000160009054906101000a900473ffffffffffffffffffffffffffffffffffffffff16604051610f91919061232e565b60405180910390a25b5b611442565b600380811115610fb357610fb26120c8565b5b600260000160169054906101000a900460ff166003811115610fd857610fd76120c8565b5b036111d35760026003811115610ff157610ff06120c8565b5b600460000160169054906101000a900460ff166003811115611016576110156120c8565b5b1480611058575060016003811115611031576110306120c8565b5b600460000160169054906101000a900460ff166003811115611056576110556120c8565b5b145b61106557611064612349565b5b60016003811115611079576110786120c8565b5b600460000160169054906101000a900460ff16600381111561109e5761109d6120c8565b5b0361111b573073ffffffffffffffffffffffffffffffffffffffff167f5698514ff818a4b8d88693fc8cf850843c95e394c707d7e4675d3f8af9bda3ee600460000160009054906101000a900473ffffffffffffffffffffffffffffffffffffffff1660405161110e919061232e565b60405180910390a26111ce565b6002600381111561112f5761112e6120c8565b5b600460000160169054906101000a900460ff166003811115611154576111536120c8565b5b036111cd573073ffffffffffffffffffffffffffffffffffffffff167f5698514ff818a4b8d88693fc8cf850843c95e394c707d7e4675d3f8af9bda3ee600260000160009054906101000a900473ffffffffffffffffffffffffffffffffffffffff166040516111c4919061232e565b60405180910390a25b5b611441565b600260038111156111e7576111e66120c8565b5b600260000160169054906101000a900460ff16600381111561120c5761120b6120c8565b5b036114055760016003811115611225576112246120c8565b5b600460000160169054906101000a900460ff16600381111561124a576112496120c8565b5b148061128b5750600380811115611264576112636120c8565b5b600460000160169054906101000a900460ff166003811115611289576112886120c8565b5b145b61129857611297612349565b5b6003808111156112ab576112aa6120c8565b5b600460000160169054906101000a900460ff1660038111156112d0576112cf6120c8565b5b0361134d573073ffffffffffffffffffffffffffffffffffffffff167f5698514ff818a4b8d88693fc8cf850843c95e394c707d7e4675d3f8af9bda3ee600460000160009054906101000a900473ffffffffffffffffffffffffffffffffffffffff16604051611340919061232e565b60405180910390a2611400565b60016003811115611361576113606120c8565b5b600460000160169054906101000a900460ff166003811115611386576113856120c8565b5b036113ff573073ffffffffffffffffffffffffffffffffffffffff167f5698514ff818a4b8d88693fc8cf850843c95e394c707d7e4675d3f8af9bda3ee600260000160009054906101000a900473ffffffffffffffffffffffffffffffffffffffff166040516113f6919061232e565b60405180910390a25b5b611440565b6040517f08c379a0000000000000000000000000000000000000000000000000000000008152600401611437906123c4565b60405180910390fd5b5b5b5b611497600260000160009054906101000a900473ffffffffffffffffffffffffffffffffffffffff16600460000160009054906101000a900473ffffffffffffffffffffffffffffffffffffffff1661078c565b600160008154809291906114aa90612413565b919050555050565b6040516020016114c1906124a7565b6040516020818303038152906040528051906020012081565b6040516020016114e990612319565b6040516020818303038152906040528051906020012081565b3373ffffffffffffffffffffffffffffffffffffffff16600260000160009054906101000a900473ffffffffffffffffffffffffffffffffffffffff1673ffffffffffffffffffffffffffffffffffffffff16141580156115b457503373ffffffffffffffffffffffffffffffffffffffff16600460000160009054906101000a900473ffffffffffffffffffffffffffffffffffffffff1673ffffffffffffffffffffffffffffffffffffffff1614155b156115eb576040517f1f42735400000000000000000000000000000000000000000000000000000000815260040160405180910390fd5b600060028111156115ff576115fe6120c8565b5b600660009054906101000a900460ff166002811115611621576116206120c8565b5b14611658576040517fa05e34ba00000000000000000000000000000000000000000000000000000000815260040160405180910390fd5b3373ffffffffffffffffffffffffffffffffffffffff16600260000160009054906101000a900473ffffffffffffffffffffffffffffffffffffffff1673ffffffffffffffffffffffffffffffffffffffff16036116c0576116bb600282611a66565b6116cc565b6116cb600482611a66565b5b3373ffffffffffffffffffffffffffffffffffffffff163073ffffffffffffffffffffffffffffffffffffffff167f815ca4497ab9fc80c76f210e6e842a5e198e195aa136034557eee144f790e7bb60405160405180910390a350565b60007f01ffc9a7000000000000000000000000000000000000000000000000000000007bffffffffffffffffffffffffffffffffffffffffffffffffffffffff1916827bffffffffffffffffffffffffffffffffffffffffffffffffffffffff1916149050919050565b6117a48161179f611887565b611ad9565b50565b6117b182826109fd565b61188357600160008084815260200190815260200160002060000160008373ffffffffffffffffffffffffffffffffffffffff1673ffffffffffffffffffffffffffffffffffffffff16815260200190815260200160002060006101000a81548160ff021916908315150217905550611828611887565b73ffffffffffffffffffffffffffffffffffffffff168173ffffffffffffffffffffffffffffffffffffffff16837f2f8788117e7eff1d82e926ec794901d17c78024a50270940304540a733656f0d60405160405180910390a45b5050565b600033905090565b61189982826109fd565b1561196c57600080600084815260200190815260200160002060000160008373ffffffffffffffffffffffffffffffffffffffff1673ffffffffffffffffffffffffffffffffffffffff16815260200190815260200160002060006101000a81548160ff021916908315150217905550611911611887565b73ffffffffffffffffffffffffffffffffffffffff168173ffffffffffffffffffffffffffffffffffffffff16837ff6391f5c32d9c69d2a47ea670b442974b53935d1edc7fd64eb21e047a839171b60405160405180910390a45b5050565b8260000160159054906101000a900460ff16156119b9576040517ffc507a3100000000000000000000000000000000000000000000000000000000815260040160405180910390fd5b82600101548360000160009054906101000a900473ffffffffffffffffffffffffffffffffffffffff1683836040516020016119f7939291906124bc565b6040516020818303038152906040528051906020012014611a44576040517f0af806e000000000000000000000000000000000000000000000000000000000815260040160405180910390fd5b60018360000160156101000a81548160ff021916908315150217905550505050565b8160000160149054906101000a900460ff1615611aaf576040517ffc507a3100000000000000000000000000000000000000000000000000000000815260040160405180910390fd5b80826001018190555060018260000160146101000a81548160ff0219169083151502179055505050565b611ae382826109fd565b611b7257611b088173ffffffffffffffffffffffffffffffffffffffff166014611b76565b611b168360001c6020611b76565b604051602001611b279291906125fa565b6040516020818303038152906040526040517f08c379a0000000000000000000000000000000000000000000000000000000008152600401611b69919061267e565b60405180910390fd5b5050565b606060006002836002611b8991906126a0565b611b9391906126fa565b67ffffffffffffffff811115611bac57611bab612750565b5b6040519080825280601f01601f191660200182016040528015611bde5781602001600182028036833780820191505090505b5090507f300000000000000000000000000000000000000000000000000000000000000081600081518110611c1657611c1561277f565b5b60200101907effffffffffffffffffffffffffffffffffffffffffffffffffffffffffffff1916908160001a9053507f780000000000000000000000000000000000000000000000000000000000000081600181518110611c7a57611c7961277f565b5b60200101907effffffffffffffffffffffffffffffffffffffffffffffffffffffffffffff1916908160001a90535060006001846002611cba91906126a0565b611cc491906126fa565b90505b6001811115611d64577f3031323334353637383961626364656600000000000000000000000000000000600f861660108110611d0657611d0561277f565b5b1a60f81b828281518110611d1d57611d1c61277f565b5b60200101907effffffffffffffffffffffffffffffffffffffffffffffffffffffffffffff1916908160001a905350600485901c945080611d5d906127ae565b9050611cc7565b5060008414611da8576040517f08c379a0000000000000000000000000000000000000000000000000000000008152600401611d9f90612823565b60405180910390fd5b8091505092915050565b600080fd5b60007fffffffff0000000000000000000000000000000000000000000000000000000082169050919050565b611dec81611db7565b8114611df757600080fd5b50565b600081359050611e0981611de3565b92915050565b600060208284031215611e2557611e24611db2565b5b6000611e3384828501611dfa565b91505092915050565b60008115159050919050565b611e5181611e3c565b82525050565b6000602082019050611e6c6000830184611e48565b92915050565b6000819050919050565b611e8581611e72565b8114611e9057600080fd5b50565b600081359050611ea281611e7c565b92915050565b600060208284031215611ebe57611ebd611db2565b5b6000611ecc84828501611e93565b91505092915050565b611ede81611e72565b82525050565b6000602082019050611ef96000830184611ed5565b92915050565b6000819050919050565b611f1281611eff565b82525050565b6000602082019050611f2d6000830184611f09565b92915050565b600073ffffffffffffffffffffffffffffffffffffffff82169050919050565b6000611f5e82611f33565b9050919050565b611f6e81611f53565b8114611f7957600080fd5b50565b600081359050611f8b81611f65565b92915050565b60008060408385031215611fa857611fa7611db2565b5b6000611fb685828601611e93565b9250506020611fc785828601611f7c565b9150509250929050565b60048110611fde57600080fd5b50565b600081359050611ff081611fd1565b92915050565b6000806040838503121561200d5761200c611db2565b5b600061201b85828601611fe1565b925050602061202c85828601611e93565b9150509250929050565b6000806040838503121561204d5761204c611db2565b5b600061205b85828601611f7c565b925050602061206c85828601611f7c565b9150509250929050565b6003811061208357600080fd5b50565b60008135905061209581612076565b92915050565b6000602082840312156120b1576120b0611db2565b5b60006120bf84828501612086565b91505092915050565b7f4e487b7100000000000000000000000000000000000000000000000000000000600052602160045260246000fd5b60038110612108576121076120c8565b5b50565b6000819050612119826120f7565b919050565b60006121298261210b565b9050919050565b6121398161211e565b82525050565b60006020820190506121546000830184612130565b92915050565b61216381611f53565b82525050565b6004811061217a576121796120c8565b5b50565b600081905061218b82612169565b919050565b600061219b8261217d565b9050919050565b6121ab81612190565b82525050565b600060a0820190506121c6600083018861215a565b6121d36020830187611e48565b6121e06040830186611e48565b6121ed60608301856121a2565b6121fa6080830184611ed5565b9695505050505050565b600082825260208201905092915050565b7f416363657373436f6e74726f6c3a2063616e206f6e6c792072656e6f756e636560008201527f20726f6c657320666f722073656c660000000000000000000000000000000000602082015250565b6000612271602f83612204565b915061227c82612215565b604082019050919050565b600060208201905081810360008301526122a081612264565b9050919050565b60006020820190506122bc60008301846121a2565b92915050565b600081905092915050565b7f4449535452494255544f525f524f4c4500000000000000000000000000000000600082015250565b60006123036010836122c2565b915061230e826122cd565b601082019050919050565b6000612324826122f6565b9150819050919050565b6000602082019050612343600083018461215a565b92915050565b7f4e487b7100000000000000000000000000000000000000000000000000000000600052600160045260246000fd5b7f43686f69636520696e63636f7265637421000000000000000000000000000000600082015250565b60006123ae601183612204565b91506123b982612378565b602082019050919050565b600060208201905081810360008301526123dd816123a1565b9050919050565b7f4e487b7100000000000000000000000000000000000000000000000000000000600052601160045260246000fd5b600061241e82611eff565b91507fffffffffffffffffffffffffffffffffffffffffffffffffffffffffffffffff82036124505761244f6123e4565b5b600182019050919050565b7f4f574e45525f524f4c4500000000000000000000000000000000000000000000600082015250565b6000612491600a836122c2565b915061249c8261245b565b600a82019050919050565b60006124b282612484565b9150819050919050565b60006060820190506124d1600083018661215a565b6124de60208301856121a2565b6124eb6040830184611ed5565b949350505050565b7f416363657373436f6e74726f6c3a206163636f756e7420000000000000000000600082015250565b60006125296017836122c2565b9150612534826124f3565b601782019050919050565b600081519050919050565b60005b8381101561256857808201518184015260208101905061254d565b83811115612577576000848401525b50505050565b60006125888261253f565b61259281856122c2565b93506125a281856020860161254a565b80840191505092915050565b7f206973206d697373696e6720726f6c6520000000000000000000000000000000600082015250565b60006125e46011836122c2565b91506125ef826125ae565b601182019050919050565b60006126058261251c565b9150612611828561257d565b915061261c826125d7565b9150612628828461257d565b91508190509392505050565b6000601f19601f8301169050919050565b60006126508261253f565b61265a8185612204565b935061266a81856020860161254a565b61267381612634565b840191505092915050565b600060208201905081810360008301526126988184612645565b905092915050565b60006126ab82611eff565b91506126b683611eff565b9250817fffffffffffffffffffffffffffffffffffffffffffffffffffffffffffffffff04831182151516156126ef576126ee6123e4565b5b828202905092915050565b600061270582611eff565b915061271083611eff565b9250827fffffffffffffffffffffffffffffffffffffffffffffffffffffffffffffffff03821115612745576127446123e4565b5b828201905092915050565b7f4e487b7100000000000000000000000000000000000000000000000000000000600052604160045260246000fd5b7f4e487b7100000000000000000000000000000000000000000000000000000000600052603260045260246000fd5b60006127b982611eff565b9150600082036127cc576127cb6123e4565b5b600182039050919050565b7f537472696e67733a20686578206c656e67746820696e73756666696369656e74600082015250565b600061280d602083612204565b9150612818826127d7565b602082019050919050565b6000602082019050818103600083015261283c81612800565b905091905056fea26469706673582212201de18b02cb873e70c56ac5123d31d369682e7de3d33f0177b913f24f976397b464736f6c634300080e0033a26469706673582212201be0673326a94d3706a704f153b9e63dc05a5987d9acac289b994c65fba0eae464736f6c634300080e0033",
  "immutableReferences": {
    "3335": [
      {
        "length": 32,
        "start": 285
      },
      {
        "length": 32,
        "start": 853
      },
      {
        "length": 32,
        "start": 930
      }
    ]
  },
  "source": "//SPDX-License-Identifier: Unlicense\r\npragma solidity ^0.8.7;\r\n\r\nimport \"./RoomV1.sol\";\r\nimport \"./interfaces/IRoomFactoryV1.sol\";\r\n\r\ncontract RoomFactoryV1 is IRoomFactoryV1{\r\n\r\n    mapping(address => mapping(address => address)) public getRoom;\r\n    address[] public allRooms;\r\n    address immutable public bot;  \r\n\r\n    constructor(address _bot) {\r\n        bot = _bot;\r\n    }\r\n\r\n    function createRoom(address playerA, address playerB) external override returns (address room) {\r\n        require(playerA != playerB);\r\n        (address player0, address player1) = playerA < playerB ? (playerA, playerB) : (playerB, playerA);\r\n        require(player0 != address(0));\r\n        require(getRoom[player0][player1] == address(0));\r\n        room = address(new RoomV1{salt: keccak256(abi.encode(player0, player1, bot))}(player0, player1, bot));\r\n        getRoom[player0][player1] = room;\r\n        getRoom[player1][player0] = room;\r\n        emit RoomCreated(player0, player1, room);\r\n    }\r\n}",
  "sourcePath": "C:\\Users\\vania\\Documents\\GitHub\\rock-paper-scissors-solidity\\blockchain\\contracts\\v1\\RoomFactoryV1.sol",
  "compiler": {
    "name": "solc",
    "version": "0.8.14+commit.80d49f37.Emscripten.clang"
  },
  "schemaVersion": "3.4.7",
  "updatedAt": "2022-07-21T14:02:32.961Z",
  "devdoc": {
    "kind": "dev",
    "methods": {},
    "version": 1
  },
  "userdoc": {
    "kind": "user",
    "methods": {},
    "version": 1
  }
}