{
  "contractName": "TestsAccounts",
  "abi": [
    {
      "inputs": [
        {
          "internalType": "uint256",
          "name": "index",
          "type": "uint256"
        }
      ],
      "name": "getAccount",
      "outputs": [
        {
          "internalType": "address",
          "name": "",
          "type": "address"
        }
      ],
      "stateMutability": "pure",
      "type": "function"
    }
  ],
  "bytecode": "0x610780610053600b82828239805160001a607314610046577f4e487b7100000000000000000000000000000000000000000000000000000000600052600060045260246000fd5b30600052607381538281f3fe73000000000000000000000000000000000000000030146080604052600436106100355760003560e01c8063ce88b1451461003a575b600080fd5b610054600480360381019061004f9190610692565b61006a565b6040516100619190610700565b60405180910390f35b6000610074610634565b735b38da6a701c568545dcfcb03fcb875f56beddc4816000600f811061009d5761009c61071b565b5b602002019073ffffffffffffffffffffffffffffffffffffffff16908173ffffffffffffffffffffffffffffffffffffffff168152505073ab8483f64d9c6d1ecf9b849ae677dd3315835cb2816001600f81106100fd576100fc61071b565b5b602002019073ffffffffffffffffffffffffffffffffffffffff16908173ffffffffffffffffffffffffffffffffffffffff1681525050734b20993bc481177ec7e8f571cecae8a9e22c02db816002600f811061015d5761015c61071b565b5b602002019073ffffffffffffffffffffffffffffffffffffffff16908173ffffffffffffffffffffffffffffffffffffffff16815250507378731d3ca6b7e34ac0f824c42a7cc18a495cabab816003600f81106101bd576101bc61071b565b5b602002019073ffffffffffffffffffffffffffffffffffffffff16908173ffffffffffffffffffffffffffffffffffffffff168152505073617f2e2fd72fd9d5503197092ac168c91465e7f2816004600f811061021d5761021c61071b565b5b602002019073ffffffffffffffffffffffffffffffffffffffff16908173ffffffffffffffffffffffffffffffffffffffff16815250507317f6ad8ef982297579c203069c1dbffe4348c372816005600f811061027d5761027c61071b565b5b602002019073ffffffffffffffffffffffffffffffffffffffff16908173ffffffffffffffffffffffffffffffffffffffff1681525050735c6b0f7bf3e7ce046039bd8fabdfd3f9f5021678816006600f81106102dd576102dc61071b565b5b602002019073ffffffffffffffffffffffffffffffffffffffff16908173ffffffffffffffffffffffffffffffffffffffff16815250507303c6fced478cbbc9a4fab34ef9f40767739d1ff7816007600f811061033d5761033c61071b565b5b602002019073ffffffffffffffffffffffffffffffffffffffff16908173ffffffffffffffffffffffffffffffffffffffff1681525050731ae0ea34a72d944a8c7603ffb3ec30a6669e454c816008600f811061039d5761039c61071b565b5b602002019073ffffffffffffffffffffffffffffffffffffffff16908173ffffffffffffffffffffffffffffffffffffffff1681525050730a098eda01ce92ff4a4ccb7a4fffb5a43ebc70dc816009600f81106103fd576103fc61071b565b5b602002019073ffffffffffffffffffffffffffffffffffffffff16908173ffffffffffffffffffffffffffffffffffffffff168152505073ca35b7d915458ef540ade6068dfe2f44e8fa733c81600a600f811061045d5761045c61071b565b5b602002019073ffffffffffffffffffffffffffffffffffffffff16908173ffffffffffffffffffffffffffffffffffffffff16815250507314723a09acff6d2a60dcdf7aa4aff308fddc160c81600b600f81106104bd576104bc61071b565b5b602002019073ffffffffffffffffffffffffffffffffffffffff16908173ffffffffffffffffffffffffffffffffffffffff1681525050734b0897b0513fdc7c541b6d9d7e929c4e5364d2db81600c600f811061051d5761051c61071b565b5b602002019073ffffffffffffffffffffffffffffffffffffffff16908173ffffffffffffffffffffffffffffffffffffffff168152505073583031d1113ad414f02576bd6afabfb30214022581600d600f811061057d5761057c61071b565b5b602002019073ffffffffffffffffffffffffffffffffffffffff16908173ffffffffffffffffffffffffffffffffffffffff168152505073dd870fa1b7c4700f2bd7f44238821c26f739214881600e600f81106105dd576105dc61071b565b5b602002019073ffffffffffffffffffffffffffffffffffffffff16908173ffffffffffffffffffffffffffffffffffffffff16815250508083600f81106106275761062661071b565b5b6020020151915050919050565b604051806101e00160405280600f90602082028036833780820191505090505090565b600080fd5b6000819050919050565b61066f8161065c565b811461067a57600080fd5b50565b60008135905061068c81610666565b92915050565b6000602082840312156106a8576106a7610657565b5b60006106b68482850161067d565b91505092915050565b600073ffffffffffffffffffffffffffffffffffffffff82169050919050565b60006106ea826106bf565b9050919050565b6106fa816106df565b82525050565b600060208201905061071560008301846106f1565b92915050565b7f4e487b7100000000000000000000000000000000000000000000000000000000600052603260045260246000fdfea264697066735822122027d323336313be523b0949c8ca4ba816d9e1e76afbc901e28110c905babb8a2764736f6c634300080e0033",
  "immutableReferences": {},
  "source": "// SPDX-License-Identifier: GPL-3.0\n\npragma solidity >=0.4.22 <0.9.0;\n\nlibrary TestsAccounts {\n    function getAccount(uint index) pure public returns (address) {\n        address[15] memory accounts;\n\t\taccounts[0] = 0x5B38Da6a701c568545dCfcB03FcB875f56beddC4;\n\n\t\taccounts[1] = 0xAb8483F64d9C6d1EcF9b849Ae677dD3315835cb2;\n\n\t\taccounts[2] = 0x4B20993Bc481177ec7E8f571ceCaE8A9e22C02db;\n\n\t\taccounts[3] = 0x78731D3Ca6b7E34aC0F824c42a7cC18A495cabaB;\n\n\t\taccounts[4] = 0x617F2E2fD72FD9D5503197092aC168c91465E7f2;\n\n\t\taccounts[5] = 0x17F6AD8Ef982297579C203069C1DbfFE4348c372;\n\n\t\taccounts[6] = 0x5c6B0f7Bf3E7ce046039Bd8FABdfD3f9F5021678;\n\n\t\taccounts[7] = 0x03C6FcED478cBbC9a4FAB34eF9f40767739D1Ff7;\n\n\t\taccounts[8] = 0x1aE0EA34a72D944a8C7603FfB3eC30a6669E454C;\n\n\t\taccounts[9] = 0x0A098Eda01Ce92ff4A4CCb7A4fFFb5A43EBC70DC;\n\n\t\taccounts[10] = 0xCA35b7d915458EF540aDe6068dFe2F44E8fa733c;\n\n\t\taccounts[11] = 0x14723A09ACff6D2A60DcdF7aA4AFf308FDDC160C;\n\n\t\taccounts[12] = 0x4B0897b0513fdC7C541B6d9D7E929C4e5364D2dB;\n\n\t\taccounts[13] = 0x583031D1113aD414F02576BD6afaBfb302140225;\n\n\t\taccounts[14] = 0xdD870fA1b7C4700F2BD7f44238821C26f7392148;\n\n        return accounts[index];\n    }\n}\n",
  "sourcePath": "C:\\Users\\vania\\Documents\\GitHub\\rock-paper-scissors-solidity\\blockchain\\contracts\\.deps\\remix-tests\\remix_accounts.sol",
  "compiler": {
    "name": "solc",
    "version": "0.8.14+commit.80d49f37.Emscripten.clang"
  },
  "schemaVersion": "3.4.7",
  "updatedAt": "2022-07-27T19:05:13.841Z",
  "devdoc": {
    "kind": "dev",
    "methods": {},
    "version": 1
  },
  "userdoc": {
    "kind": "user",
    "methods": {},
    "version": 1
  }
}