{
  "contractName": "TestUniswapOptimal",
  "abi": [
    {
      "inputs": [
        {
          "internalType": "uint256",
          "name": "r",
          "type": "uint256"
        },
        {
          "internalType": "uint256",
          "name": "a",
          "type": "uint256"
        }
      ],
      "name": "getSwapAmount",
      "outputs": [
        {
          "internalType": "uint256",
          "name": "",
          "type": "uint256"
        }
      ],
      "stateMutability": "pure",
      "type": "function"
    },
    {
      "inputs": [
        {
          "internalType": "address",
          "name": "tokenA",
          "type": "address"
        },
        {
          "internalType": "address",
          "name": "tokenB",
          "type": "address"
        },
        {
          "internalType": "uint256",
          "name": "amountA",
          "type": "uint256"
        }
      ],
      "name": "zap",
      "outputs": [
        {
          "internalType": "uint256",
          "name": "",
          "type": "uint256"
        }
      ],
      "stateMutability": "nonpayable",
      "type": "function"
    }
  ],
  "bytecode": "0x608060405234801561001057600080fd5b50610606806100206000396000f3fe608060405234801561001057600080fd5b50600436106100365760003560e01c8063368519f31461003b57806347ce3e691461006b575b600080fd5b61005560048036038101906100509190610297565b61009b565b60405161006291906102e6565b60405180910390f35b6100856004803603810190610080919061035f565b610128565b60405161009291906102e6565b60405180910390f35b60006107ca6101166100b86107cd866101b690919063ffffffff16565b6101086101036100d4623cda20886101b690919063ffffffff16565b6100ea623cda298a6101b690919063ffffffff16565b6100f491906103e1565b886101b690919063ffffffff16565b6101cc565b61024690919063ffffffff16565b6101209190610466565b905092915050565b60008373ffffffffffffffffffffffffffffffffffffffff166323b872dd3330856040518463ffffffff1660e01b8152600401610167939291906104a6565b6020604051808303816000875af1158015610186573d6000803e3d6000fd5b505050506040513d601f19601f820116820180604052508101906101aa9190610515565b50600a90509392505050565b600081836101c49190610542565b905092915050565b6000600382111561023357819050600060016002846101eb9190610466565b6101f591906103e1565b90505b8181101561022d5780915060028182856102129190610466565b61021c91906103e1565b6102269190610466565b90506101f8565b50610241565b6000821461024057600190505b5b919050565b60008183610254919061059c565b905092915050565b600080fd5b6000819050919050565b61027481610261565b811461027f57600080fd5b50565b6000813590506102918161026b565b92915050565b600080604083850312156102ae576102ad61025c565b5b60006102bc85828601610282565b92505060206102cd85828601610282565b9150509250929050565b6102e081610261565b82525050565b60006020820190506102fb60008301846102d7565b92915050565b600073ffffffffffffffffffffffffffffffffffffffff82169050919050565b600061032c82610301565b9050919050565b61033c81610321565b811461034757600080fd5b50565b60008135905061035981610333565b92915050565b6000806000606084860312156103785761037761025c565b5b60006103868682870161034a565b93505060206103978682870161034a565b92505060406103a886828701610282565b9150509250925092565b7f4e487b7100000000000000000000000000000000000000000000000000000000600052601160045260246000fd5b60006103ec82610261565b91506103f783610261565b9250827fffffffffffffffffffffffffffffffffffffffffffffffffffffffffffffffff0382111561042c5761042b6103b2565b5b828201905092915050565b7f4e487b7100000000000000000000000000000000000000000000000000000000600052601260045260246000fd5b600061047182610261565b915061047c83610261565b92508261048c5761048b610437565b5b828204905092915050565b6104a081610321565b82525050565b60006060820190506104bb6000830186610497565b6104c86020830185610497565b6104d560408301846102d7565b949350505050565b60008115159050919050565b6104f2816104dd565b81146104fd57600080fd5b50565b60008151905061050f816104e9565b92915050565b60006020828403121561052b5761052a61025c565b5b600061053984828501610500565b91505092915050565b600061054d82610261565b915061055883610261565b9250817fffffffffffffffffffffffffffffffffffffffffffffffffffffffffffffffff0483118215151615610591576105906103b2565b5b828202905092915050565b60006105a782610261565b91506105b283610261565b9250828210156105c5576105c46103b2565b5b82820390509291505056fea26469706673582212200d9fe1b84d3110580f23b653b38604d19afae3809543dde42b7982366230e00e64736f6c634300080e0033",
  "immutableReferences": {},
  "source": "// SPDX-License-Identifier: MIT\r\npragma solidity ^0.8;\r\n\r\nimport \"@openzeppelin/contracts/utils/math/SafeMath.sol\";\r\nimport \"@openzeppelin/contracts/token/ERC20/IERC20.sol\";\r\nimport \"@uniswap/v2-periphery/contracts/interfaces/IUniswapV2Router02.sol\";\r\nimport {Babylonian} from \"@uniswap/lib/contracts/libraries/Babylonian.sol\";\r\n\r\ncontract TestUniswapOptimal {\r\n  using SafeMath for uint;\r\n  using Babylonian for uint;\r\n\r\n  address private constant FACTORY = 0x5C69bEe701ef814a2B6a3EDD4B1652CB9cc5aA6f;\r\n  address private constant ROUTER = 0x7a250d5630B4cF539739dF2C5dAcb4c659F2488D;\r\n  address private constant WETH = 0xC02aaA39b223FE8D0A0e5C4F27eAD9083C756Cc2;\r\n\r\n  /*\r\n  Only for Uniswap!!!\r\n  s = optimal swap amount\r\n  r = amount of reserve for token a\r\n  a = amount of token a the user currently has (not added to reserve yet)\r\n  f = swap fee percent\r\n  s = (sqrt(((2 - f)r)^2 + 4(1 - f)ar) - (2 - f)r) / (2(1 - f))\r\n  */\r\n  function getSwapAmount(uint r, uint a) public pure returns (uint) {\r\n    return ((r.mul(r.mul(3988009) + a.mul(3988000))).sqrt().sub(r.mul(1997))) / 1994;\r\n  }\r\n\r\n  /* optimal one-sided supply\r\n  1. swap optimal amount from token A to token B\r\n  2. add liquidity\r\n  */\r\n  function zap(address tokenA, address tokenB, uint amountA) external returns (uint) {\r\n    IERC20(tokenA).transferFrom(msg.sender, address(this), amountA);\r\n    return 10;\r\n  }\r\n\r\n}",
  "sourcePath": "C:\\Users\\vania\\Documents\\GitHub\\rock-paper-scissors-solidity\\blockchain\\contracts\\defi\\TestUniswapOptimal.sol",
  "compiler": {
    "name": "solc",
    "version": "0.8.14+commit.80d49f37.Emscripten.clang"
  },
  "schemaVersion": "3.4.7",
  "updatedAt": "2022-07-21T14:02:32.954Z",
  "devdoc": {
    "kind": "dev",
    "methods": {},
    "version": 1
  },
  "userdoc": {
    "kind": "user",
    "methods": {},
    "version": 1
  }
}