{
  "contractName": "TestAccessControlContract",
  "abi": [
    {
      "inputs": [
        {
          "internalType": "address",
          "name": "distributor",
          "type": "address"
        }
      ],
      "stateMutability": "nonpayable",
      "type": "constructor"
    },
    {
      "anonymous": false,
      "inputs": [
        {
          "indexed": true,
          "internalType": "bytes32",
          "name": "role",
          "type": "bytes32"
        },
        {
          "indexed": true,
          "internalType": "bytes32",
          "name": "previousAdminRole",
          "type": "bytes32"
        },
        {
          "indexed": true,
          "internalType": "bytes32",
          "name": "newAdminRole",
          "type": "bytes32"
        }
      ],
      "name": "RoleAdminChanged",
      "type": "event"
    },
    {
      "anonymous": false,
      "inputs": [
        {
          "indexed": true,
          "internalType": "bytes32",
          "name": "role",
          "type": "bytes32"
        },
        {
          "indexed": true,
          "internalType": "address",
          "name": "account",
          "type": "address"
        },
        {
          "indexed": true,
          "internalType": "address",
          "name": "sender",
          "type": "address"
        }
      ],
      "name": "RoleGranted",
      "type": "event"
    },
    {
      "anonymous": false,
      "inputs": [
        {
          "indexed": true,
          "internalType": "bytes32",
          "name": "role",
          "type": "bytes32"
        },
        {
          "indexed": true,
          "internalType": "address",
          "name": "account",
          "type": "address"
        },
        {
          "indexed": true,
          "internalType": "address",
          "name": "sender",
          "type": "address"
        }
      ],
      "name": "RoleRevoked",
      "type": "event"
    },
    {
      "inputs": [],
      "name": "ADMIN_ROLE",
      "outputs": [
        {
          "internalType": "bytes32",
          "name": "",
          "type": "bytes32"
        }
      ],
      "stateMutability": "view",
      "type": "function"
    },
    {
      "inputs": [],
      "name": "DEFAULT_ADMIN_ROLE",
      "outputs": [
        {
          "internalType": "bytes32",
          "name": "",
          "type": "bytes32"
        }
      ],
      "stateMutability": "view",
      "type": "function"
    },
    {
      "inputs": [],
      "name": "DISTRIBUTOR_ROLE",
      "outputs": [
        {
          "internalType": "bytes32",
          "name": "",
          "type": "bytes32"
        }
      ],
      "stateMutability": "view",
      "type": "function"
    },
    {
      "inputs": [],
      "name": "OWBER_ROLE",
      "outputs": [
        {
          "internalType": "bytes32",
          "name": "",
          "type": "bytes32"
        }
      ],
      "stateMutability": "view",
      "type": "function"
    },
    {
      "inputs": [
        {
          "internalType": "bytes32",
          "name": "role",
          "type": "bytes32"
        }
      ],
      "name": "getRoleAdmin",
      "outputs": [
        {
          "internalType": "bytes32",
          "name": "",
          "type": "bytes32"
        }
      ],
      "stateMutability": "view",
      "type": "function"
    },
    {
      "inputs": [
        {
          "internalType": "bytes32",
          "name": "role",
          "type": "bytes32"
        },
        {
          "internalType": "address",
          "name": "account",
          "type": "address"
        }
      ],
      "name": "grantRole",
      "outputs": [],
      "stateMutability": "nonpayable",
      "type": "function"
    },
    {
      "inputs": [
        {
          "internalType": "bytes32",
          "name": "role",
          "type": "bytes32"
        },
        {
          "internalType": "address",
          "name": "account",
          "type": "address"
        }
      ],
      "name": "hasRole",
      "outputs": [
        {
          "internalType": "bool",
          "name": "",
          "type": "bool"
        }
      ],
      "stateMutability": "view",
      "type": "function"
    },
    {
      "inputs": [
        {
          "internalType": "bytes32",
          "name": "role",
          "type": "bytes32"
        },
        {
          "internalType": "address",
          "name": "account",
          "type": "address"
        }
      ],
      "name": "renounceRole",
      "outputs": [],
      "stateMutability": "nonpayable",
      "type": "function"
    },
    {
      "inputs": [
        {
          "internalType": "bytes32",
          "name": "role",
          "type": "bytes32"
        },
        {
          "internalType": "address",
          "name": "account",
          "type": "address"
        }
      ],
      "name": "revokeRole",
      "outputs": [],
      "stateMutability": "nonpayable",
      "type": "function"
    },
    {
      "inputs": [
        {
          "internalType": "bytes4",
          "name": "interfaceId",
          "type": "bytes4"
        }
      ],
      "name": "supportsInterface",
      "outputs": [
        {
          "internalType": "bool",
          "name": "",
          "type": "bool"
        }
      ],
      "stateMutability": "view",
      "type": "function"
    }
  ],
  "bytecode": "0x60806040523480156200001157600080fd5b50604051620016d0380380620016d083398181016040528101906200003791906200046d565b620000956040516020016200004c90620004fa565b604051602081830303815290604052805190602001206040516020016200007390620004fa565b604051602081830303815290604052805190602001206200021e60201b60201c565b620000f3604051602001620000aa9062000561565b60405160208183030381529060405280519060200120604051602001620000d190620004fa565b604051602081830303815290604052805190602001206200021e60201b60201c565b620001516040516020016200010890620005c8565b604051602081830303815290604052805190602001206040516020016200012f9062000561565b604051602081830303815290604052805190602001206200021e60201b60201c565b620001986040516020016200016690620004fa565b604051602081830303815290604052805190602001206200018c6200028160201b60201c565b6200028960201b60201c565b620001df604051602001620001ad9062000561565b60405160208183030381529060405280519060200120620001d36200028160201b60201c565b6200028960201b60201c565b62000217604051602001620001f490620005c8565b60405160208183030381529060405280519060200120826200028960201b60201c565b50620005df565b600062000231836200037a60201b60201c565b905081600080858152602001908152602001600020600101819055508181847fbd79b86ffe0ab8e8776151514217cd7cacd52c909f66475c3af44e129f0b00ff60405160405180910390a4505050565b600033905090565b6200029b82826200039960201b60201c565b6200037657600160008084815260200190815260200160002060000160008373ffffffffffffffffffffffffffffffffffffffff1673ffffffffffffffffffffffffffffffffffffffff16815260200190815260200160002060006101000a81548160ff0219169083151502179055506200031b6200028160201b60201c565b73ffffffffffffffffffffffffffffffffffffffff168173ffffffffffffffffffffffffffffffffffffffff16837f2f8788117e7eff1d82e926ec794901d17c78024a50270940304540a733656f0d60405160405180910390a45b5050565b6000806000838152602001908152602001600020600101549050919050565b600080600084815260200190815260200160002060000160008373ffffffffffffffffffffffffffffffffffffffff1673ffffffffffffffffffffffffffffffffffffffff16815260200190815260200160002060009054906101000a900460ff16905092915050565b600080fd5b600073ffffffffffffffffffffffffffffffffffffffff82169050919050565b6000620004358262000408565b9050919050565b620004478162000428565b81146200045357600080fd5b50565b60008151905062000467816200043c565b92915050565b60006020828403121562000486576200048562000403565b5b6000620004968482850162000456565b91505092915050565b600081905092915050565b7f4f574e45525f524f4c4500000000000000000000000000000000000000000000600082015250565b6000620004e2600a836200049f565b9150620004ef82620004aa565b600a82019050919050565b60006200050782620004d3565b9150819050919050565b7f41444d494e5f524f4c4500000000000000000000000000000000000000000000600082015250565b600062000549600a836200049f565b9150620005568262000511565b600a82019050919050565b60006200056e826200053a565b9150819050919050565b7f4449535452494255544f525f524f4c4500000000000000000000000000000000600082015250565b6000620005b06010836200049f565b9150620005bd8262000578565b601082019050919050565b6000620005d582620005a1565b9150819050919050565b6110e180620005ef6000396000f3fe608060405234801561001057600080fd5b506004361061009e5760003560e01c806375b238fc1161006657806375b238fc1461015957806391d1485414610177578063a217fddf146101a7578063d547741f146101c5578063f0bd87cc146101e15761009e565b806301ffc9a7146100a3578063248a9ca3146100d35780632f2ff15d1461010357806336568abe1461011f57806340556b4d1461013b575b600080fd5b6100bd60048036038101906100b891906109c3565b6101ff565b6040516100ca9190610a0b565b60405180910390f35b6100ed60048036038101906100e89190610a5c565b610279565b6040516100fa9190610a98565b60405180910390f35b61011d60048036038101906101189190610b11565b610298565b005b61013960048036038101906101349190610b11565b6102b9565b005b61014361033c565b6040516101509190610a98565b60405180910390f35b610161610364565b60405161016e9190610a98565b60405180910390f35b610191600480360381019061018c9190610b11565b61038c565b60405161019e9190610a0b565b60405180910390f35b6101af6103f6565b6040516101bc9190610a98565b60405180910390f35b6101df60048036038101906101da9190610b11565b6103fd565b005b6101e961041e565b6040516101f69190610a98565b60405180910390f35b60007f7965db0b000000000000000000000000000000000000000000000000000000007bffffffffffffffffffffffffffffffffffffffffffffffffffffffff1916827bffffffffffffffffffffffffffffffffffffffffffffffffffffffff19161480610272575061027182610446565b5b9050919050565b6000806000838152602001908152602001600020600101549050919050565b6102a182610279565b6102aa816104b0565b6102b483836104c4565b505050565b6102c16105a4565b73ffffffffffffffffffffffffffffffffffffffff168173ffffffffffffffffffffffffffffffffffffffff161461032e576040517f08c379a000000000000000000000000000000000000000000000000000000000815260040161032590610bd4565b60405180910390fd5b61033882826105ac565b5050565b60405160200161034b90610c4b565b6040516020818303038152906040528051906020012081565b60405160200161037390610cac565b6040516020818303038152906040528051906020012081565b600080600084815260200190815260200160002060000160008373ffffffffffffffffffffffffffffffffffffffff1673ffffffffffffffffffffffffffffffffffffffff16815260200190815260200160002060009054906101000a900460ff16905092915050565b6000801b81565b61040682610279565b61040f816104b0565b61041983836105ac565b505050565b60405160200161042d90610d0d565b6040516020818303038152906040528051906020012081565b60007f01ffc9a7000000000000000000000000000000000000000000000000000000007bffffffffffffffffffffffffffffffffffffffffffffffffffffffff1916827bffffffffffffffffffffffffffffffffffffffffffffffffffffffff1916149050919050565b6104c1816104bc6105a4565b61068d565b50565b6104ce828261038c565b6105a057600160008084815260200190815260200160002060000160008373ffffffffffffffffffffffffffffffffffffffff1673ffffffffffffffffffffffffffffffffffffffff16815260200190815260200160002060006101000a81548160ff0219169083151502179055506105456105a4565b73ffffffffffffffffffffffffffffffffffffffff168173ffffffffffffffffffffffffffffffffffffffff16837f2f8788117e7eff1d82e926ec794901d17c78024a50270940304540a733656f0d60405160405180910390a45b5050565b600033905090565b6105b6828261038c565b1561068957600080600084815260200190815260200160002060000160008373ffffffffffffffffffffffffffffffffffffffff1673ffffffffffffffffffffffffffffffffffffffff16815260200190815260200160002060006101000a81548160ff02191690831515021790555061062e6105a4565b73ffffffffffffffffffffffffffffffffffffffff168173ffffffffffffffffffffffffffffffffffffffff16837ff6391f5c32d9c69d2a47ea670b442974b53935d1edc7fd64eb21e047a839171b60405160405180910390a45b5050565b610697828261038c565b610726576106bc8173ffffffffffffffffffffffffffffffffffffffff16601461072a565b6106ca8360001c602061072a565b6040516020016106db929190610e29565b6040516020818303038152906040526040517f08c379a000000000000000000000000000000000000000000000000000000000815260040161071d9190610ead565b60405180910390fd5b5050565b60606000600283600261073d9190610f08565b6107479190610f62565b67ffffffffffffffff8111156107605761075f610fb8565b5b6040519080825280601f01601f1916602001820160405280156107925781602001600182028036833780820191505090505b5090507f3000000000000000000000000000000000000000000000000000000000000000816000815181106107ca576107c9610fe7565b5b60200101907effffffffffffffffffffffffffffffffffffffffffffffffffffffffffffff1916908160001a9053507f78000000000000000000000000000000000000000000000000000000000000008160018151811061082e5761082d610fe7565b5b60200101907effffffffffffffffffffffffffffffffffffffffffffffffffffffffffffff1916908160001a9053506000600184600261086e9190610f08565b6108789190610f62565b90505b6001811115610918577f3031323334353637383961626364656600000000000000000000000000000000600f8616601081106108ba576108b9610fe7565b5b1a60f81b8282815181106108d1576108d0610fe7565b5b60200101907effffffffffffffffffffffffffffffffffffffffffffffffffffffffffffff1916908160001a905350600485901c94508061091190611016565b905061087b565b506000841461095c576040517f08c379a00000000000000000000000000000000000000000000000000000000081526004016109539061108b565b60405180910390fd5b8091505092915050565b600080fd5b60007fffffffff0000000000000000000000000000000000000000000000000000000082169050919050565b6109a08161096b565b81146109ab57600080fd5b50565b6000813590506109bd81610997565b92915050565b6000602082840312156109d9576109d8610966565b5b60006109e7848285016109ae565b91505092915050565b60008115159050919050565b610a05816109f0565b82525050565b6000602082019050610a2060008301846109fc565b92915050565b6000819050919050565b610a3981610a26565b8114610a4457600080fd5b50565b600081359050610a5681610a30565b92915050565b600060208284031215610a7257610a71610966565b5b6000610a8084828501610a47565b91505092915050565b610a9281610a26565b82525050565b6000602082019050610aad6000830184610a89565b92915050565b600073ffffffffffffffffffffffffffffffffffffffff82169050919050565b6000610ade82610ab3565b9050919050565b610aee81610ad3565b8114610af957600080fd5b50565b600081359050610b0b81610ae5565b92915050565b60008060408385031215610b2857610b27610966565b5b6000610b3685828601610a47565b9250506020610b4785828601610afc565b9150509250929050565b600082825260208201905092915050565b7f416363657373436f6e74726f6c3a2063616e206f6e6c792072656e6f756e636560008201527f20726f6c657320666f722073656c660000000000000000000000000000000000602082015250565b6000610bbe602f83610b51565b9150610bc982610b62565b604082019050919050565b60006020820190508181036000830152610bed81610bb1565b9050919050565b600081905092915050565b7f4f574e45525f524f4c4500000000000000000000000000000000000000000000600082015250565b6000610c35600a83610bf4565b9150610c4082610bff565b600a82019050919050565b6000610c5682610c28565b9150819050919050565b7f41444d494e5f524f4c4500000000000000000000000000000000000000000000600082015250565b6000610c96600a83610bf4565b9150610ca182610c60565b600a82019050919050565b6000610cb782610c89565b9150819050919050565b7f4449535452494255544f525f524f4c4500000000000000000000000000000000600082015250565b6000610cf7601083610bf4565b9150610d0282610cc1565b601082019050919050565b6000610d1882610cea565b9150819050919050565b7f416363657373436f6e74726f6c3a206163636f756e7420000000000000000000600082015250565b6000610d58601783610bf4565b9150610d6382610d22565b601782019050919050565b600081519050919050565b60005b83811015610d97578082015181840152602081019050610d7c565b83811115610da6576000848401525b50505050565b6000610db782610d6e565b610dc18185610bf4565b9350610dd1818560208601610d79565b80840191505092915050565b7f206973206d697373696e6720726f6c6520000000000000000000000000000000600082015250565b6000610e13601183610bf4565b9150610e1e82610ddd565b601182019050919050565b6000610e3482610d4b565b9150610e408285610dac565b9150610e4b82610e06565b9150610e578284610dac565b91508190509392505050565b6000601f19601f8301169050919050565b6000610e7f82610d6e565b610e898185610b51565b9350610e99818560208601610d79565b610ea281610e63565b840191505092915050565b60006020820190508181036000830152610ec78184610e74565b905092915050565b6000819050919050565b7f4e487b7100000000000000000000000000000000000000000000000000000000600052601160045260246000fd5b6000610f1382610ecf565b9150610f1e83610ecf565b9250817fffffffffffffffffffffffffffffffffffffffffffffffffffffffffffffffff0483118215151615610f5757610f56610ed9565b5b828202905092915050565b6000610f6d82610ecf565b9150610f7883610ecf565b9250827fffffffffffffffffffffffffffffffffffffffffffffffffffffffffffffffff03821115610fad57610fac610ed9565b5b828201905092915050565b7f4e487b7100000000000000000000000000000000000000000000000000000000600052604160045260246000fd5b7f4e487b7100000000000000000000000000000000000000000000000000000000600052603260045260246000fd5b600061102182610ecf565b91506000820361103457611033610ed9565b5b600182039050919050565b7f537472696e67733a20686578206c656e67746820696e73756666696369656e74600082015250565b6000611075602083610b51565b91506110808261103f565b602082019050919050565b600060208201905081810360008301526110a481611068565b905091905056fea2646970667358221220a3eae330df75d8ee638d82e7c8f7b1ce6fd9d4d2f39d5e7df041c2989de1a75a64736f6c634300080e0033",
  "immutableReferences": {},
  "source": "//SPDX-License-Identifier: Unlicense\r\npragma solidity ^0.8.0;\r\n\r\nimport \"@openzeppelin/contracts/access/AccessControl.sol\";\r\n\r\ncontract TestAccessControlContract is AccessControl {\r\n    bytes32 public constant OWBER_ROLE = keccak256(abi.encodePacked(\"OWNER_ROLE\"));\r\n    bytes32 public constant ADMIN_ROLE = keccak256(abi.encodePacked(\"ADMIN_ROLE\"));\r\n    bytes32 public constant DISTRIBUTOR_ROLE = keccak256(abi.encodePacked(\"DISTRIBUTOR_ROLE\"));\r\n\r\n    constructor(address distributor) {\r\n        _setRoleAdmin(OWBER_ROLE, OWBER_ROLE);\r\n        _setRoleAdmin(ADMIN_ROLE, OWBER_ROLE);\r\n        _setRoleAdmin(DISTRIBUTOR_ROLE, ADMIN_ROLE);\r\n\r\n        _grantRole(OWBER_ROLE, _msgSender());\r\n        _grantRole(ADMIN_ROLE, _msgSender());\r\n        _grantRole(DISTRIBUTOR_ROLE, distributor);\r\n    }\r\n}",
  "sourcePath": "C:\\Users\\vania\\Documents\\GitHub\\rock-paper-scissors-solidity\\blockchain\\contracts\\defi\\TestAccessControlContract.sol",
  "compiler": {
    "name": "solc",
    "version": "0.8.14+commit.80d49f37.Emscripten.clang"
  },
  "schemaVersion": "3.4.7",
  "updatedAt": "2022-07-24T16:08:10.885Z",
  "devdoc": {
    "kind": "dev",
    "methods": {
      "getRoleAdmin(bytes32)": {
        "details": "Returns the admin role that controls `role`. See {grantRole} and {revokeRole}. To change a role's admin, use {_setRoleAdmin}."
      },
      "grantRole(bytes32,address)": {
        "details": "Grants `role` to `account`. If `account` had not been already granted `role`, emits a {RoleGranted} event. Requirements: - the caller must have ``role``'s admin role."
      },
      "hasRole(bytes32,address)": {
        "details": "Returns `true` if `account` has been granted `role`."
      },
      "renounceRole(bytes32,address)": {
        "details": "Revokes `role` from the calling account. Roles are often managed via {grantRole} and {revokeRole}: this function's purpose is to provide a mechanism for accounts to lose their privileges if they are compromised (such as when a trusted device is misplaced). If the calling account had been revoked `role`, emits a {RoleRevoked} event. Requirements: - the caller must be `account`."
      },
      "revokeRole(bytes32,address)": {
        "details": "Revokes `role` from `account`. If `account` had been granted `role`, emits a {RoleRevoked} event. Requirements: - the caller must have ``role``'s admin role."
      },
      "supportsInterface(bytes4)": {
        "details": "See {IERC165-supportsInterface}."
      }
    },
    "version": 1
  },
  "userdoc": {
    "kind": "user",
    "methods": {},
    "version": 1
  }
}